530575O EM20161123080150WINGER CONTRACTING CO    1525WINGER CONTRACTING CO         ZOETIS                        2000 ROCKFORD RD              CHARLES CITY  IA  50616       400505    16350     P110103      530575201612080006851010201000000004030100000000000000000000000201010000000000000000      60421000008*** THANKS FOR THE ORDER ***        WE APPRECIATE YOUR BUSINESS       0000000000000002 0042016112820161201IAN20161123X0331000000      AL                  1                                       
530812O SM20161111049250METROPOLITAN MECH CONTR. 4433METROPOLITAN MECH CONTR.      % CENTRA CARE                 25101 MN HWY 27               LONG PRAIRE      MN 56655     ORDER 1   M4433     P11    0     530812201612080069499510201000000004030100000000000000000000000221010000000000000000      60431000008*** THANKS FOR THE ORDER ***        WE APPRECIATE YOUR BUSINESS       0000000000550002 0102016112320161202MNN201611112   1000000      ORDER 1             1            201612011145   164412      
530877O EM20161114049828MIDWEST FABRICATION/SPPLY0000MIDWEST FABRICATION/SPPLY     500 22ND STREET                                             ZUMBROTA        MN  55992     319462    38007     C110006      530877201612080011948110201000000004030100000000000000000000000221010000000000000000      60421000010*** THANKS FOR THE ORDER ***        WE APPRECIATE YOUR BUSINESS       0000003500000002 0412016111520161205MNN20161114WC  1000000                          1            201612051038               
530939O EM20161121080150WINGER CONTRACTING CO    1525WINGER CONTRACTING CO         ZOETIS                        2000 ROCKFORD RD              CHARLES CITY  IA  50616       400503-   16230     P110103      530939201612080021152810201000000004030100000000000000000000000201010000000000000000      60421000008CALL ALLAN PRIOR TO SCHEDULING     DELIVERY 515-573-7837              0000553300488002 0142016112820161201IAN20161121X0331000000      AL                  1            201612011451002            
530962O SM20161114049250METROPOLITAN MECH CONTR. 4433METROPOLITAN MECH CONTR.      % CENTRA CARE                 25101 MN HWY 27               LONG PRAIRE      MN 56655     ORDER 3   M4433     P11          530962201612080014783010201000000004030100000000000000000000000221010000000000000000      60431000008*** THANKS FOR THE ORDER ***        WE APPRECIATE YOUR BUSINESS       0000005400000002 0412016111620161202MNN201611142   1000000      STEVE K             1                           164546      
530963O SM20161114049250METROPOLITAN MECH CONTR. 4433METROPOLITAN MECH CONTR.      % CENTRA CARE                 25101 MN HWY 27               LONG PRAIRE      MN 56655     ORDER 2   M4433     P11          530963201612080045333410201000000004030100000000000000000000000221010000000000000000      60431000008*** THANKS FOR THE ORDER ***        WE APPRECIATE YOUR BUSINESS       0000005400000002 0142016111620161202MNN201611142   1000000      ORDER 2             1                           164548      
531265O SM20161116049250METROPOLITAN MECH CONTR. 7558METROPOLITAN MECH CONTR.      % TATE HALL LABORATORY        116 CHURCH ST SE              MPLS.,           MN 55455-0149ORDER F125T7558     P11          531265201612080031151010201000000004030100000000000000000000000221010000000000000000      60431000008*** THANKS FOR THE ORDER ***        WE APPRECIATE YOUR BUSINESS       0000470200065002 0122016112320161202MNN201611162   1000000      ORDER F125          1            201612020727   164830      
531511O EM20161121023169ECS, INC.                0000ECS, INC.                     4408 AMBLE CIRCLE                                           ST.PAUL,        MN  55112     13509               C110001      531511201612080048529210201000000004030100000000000000000000000221010000000000000000      60421000010CONTACT: BOB @ 651-207-8059                                           0000334200000002 0112016113020161205MNN20161121WC  1000000      BOB                 2            201612051015               
531535O EM20161121050545EDGAR CORPORATION DBA:   0000EDGAR CORPORATION DBA:        MINNEAPOLIS S/M WORKS         9 8TH AVENUE S.W.             NEW BRIGHTON    MN  55112     25994-748           C110000      531535201612080002084010201000000004030100000000000000000000000221010000000000000000      60421000014*** THANKS FOR THE ORDER ***        WE APPRECIATE YOUR BUSINESS       0000162400000002 0032016112120161205MNN20161121WC  1000000      25994-748           2            201612081516               
531567O EM20161122006300ASDCO / DIV. OF JAMAR CO.0211ASDCO / DIV. OF JAMAR CO.     NORSHOR THEATRE BOILER        211 E SUPERIOR STREET         DULUTH           MN 55802-2117993964    H16001    P1100010     531567201612080224437610201000000004030100000000000000000000000221010000000000000000      60421000016MUST DELIVER SHIP BY 12/1          LOUIE 218-591-4716                 0000000000549002 0222016113020161205MNN20161122X1161000000      DALE                3            201612051331               
531582O EM20161122063750ST. CLOUD REFRIGERATION  1307ST. CLOUD REFRIGERATION       C/O HY-VEE                    1307 18TH AVE. N.W.           AUSTIN           MN 55912     W16382-989HYVEE     P110106      531582201612080017841510201000000004030100000000000000000000000221010000000000000000      60421000088CALL B4 DELIVERY: RYAN 320-309-9750                                   0000004600127002 0242016112820161202MNN20161122MDGT1000000      W16382-989          1            201612021236               
531695O EM20161201008350BASSETT MECHANICAL       0001BASSETT INC                   1215 HYLAND AVENUE                                          KAUKAUNA         WI 54130-14411300.400  4000      C110003      531695201612080000510010201000000004030100000000000000000000000281010000000000000000      60421000008*** THANKS FOR THE ORDER ***        WE APPRECIATE YOUR BUSINESS       0000000000000002 0022016120120161201WIN20161201X0791000000      DAWN                1            201612011158               
531744O EM20161123065400SHANNON'S, INC.          1350SHANNON'S, INC.               % LIBERTY PAPER COATER        13500 LIBERTY LANE            BECKER           MN 55308     21637     LIBERTY   P110003      531744201612080015122910201000000004030100000000000000000000000221010000000000000000      60421000008*** THANKS FOR THE ORDER ***        WE APPRECIATE YOUR BUSINESS       0000624400087002 0292016113020161202MNN20161123SCGN1000000      RYAN                1            201612021145005            
531777O SM20161123049250METROPOLITAN MECH CONTR. 7558METROPOLITAN MECH CONTR.      7450 FLYING CLOUD DR                                        EDEN PRAIRIE     MN 55344-3720BL 4604   T7558     P11          531777201612080013671210201000000004030100000000000000000000000221010000000000000000      60431000008SHIP TO SHOP                                                          0000000000000002 0012016112820161205MNN201611232   1000000      BL 4604             1            201612050915003165332      
531844O SM20161123049250METROPOLITAN MECH CONTR. 7512METROPOLITAN MECH CONTR.      % AUGSBURG COLLEGE            2211 RIVERSIDE AVENUE         MINNEAPOLIS      MN 55454-1350ORDER#14  T7512     P11          531844201612080019273410201000000004030100000000000000000000000221010000000000000000      60431000010DELIVER 12/2/16. CONTACT:          DALE @ 651-329-1998                0003226900145002 0132016112920161202MNN201611232   1000000      DALE A              1            201612020905002165384      
531894O EM20161129075600U OF M / PPO SHT MTL INV 2904U OF M / PPO SHT MTL INV      2904 FAIRMOUNT ST. S.E.                                     MINNEAPOLIS      MN 55414     16464907  FOOD OPS  P1100120     531894201612080026286510201000000004030100000000000000000000000221010000000000000000      60431000005DELIVER 12/5 CALL TO SCHEDULE      ANDREW SEAQUIST 612-625-6019       0000033700110002 0450012021620161206MNN201611292   1000000      ANDREW              2            201612060857001            
531904O EM20161201033550HARRIS COMPANIES         0228HARRIS COMPANIES              % GILLETTE CHILDRENS FAMILY E.200 UNIVERSITY AVE. E.        ST. PAUL         MN 55101-250771228     7600      P110000      531904201612080001052210201000000004030100000000000000000000000221010000000000000000      60421000010SHIP VIA (1) HOUR COURIER TODAY    12/1/16. JOSH @ 612-328-6038       0000000000060002 0042016120120161201MNN20161201X0331000000      ANITA               1            201612011233   320648      
531926O EM20161128006300ASDCO / DIV. OF JAMAR CO.0211ASDCO / DIV. OF JAMAR CO.     NORSHOR THEATRE BOILER        211 E SUPERIOR STREET         DULUTH           MN 55802-2117262834    H16001-301P110009      531926201612080027000010201000000004030100000000000000000000000221010000000000000000      60421000017LOUIE 218-591-4716                                                    0000000000000002 0032016112920161205MNN20161128X1161000000      262834              2                                       
531958O EM20161128080150WINGER CONTRACTING CO    1525WINGER CONTRACTING CO         ZOETIS                        2000 ROCKFORD RD              CHARLES CITY  IA  50616       400382    16429     P110103      531958201612080002287610201000000004030100000000000000000000000201010000000000000000      60421000008*** THANKS FOR THE ORDER ***        WE APPRECIATE YOUR BUSINESS       0000000000000002 0022016112920161201IAN20161128X0331000000      400382              1                                       
531980O EM20161128041500A.W. KUETTEL & SONS      1538A.W. KUETTEL & SONS           % STANLEY LABOUNTY            1538 STATE HWY 2              TWO HARBOURS     MN 55616     SM8144              P1100020     531980201612080004713510201000000004030100000000000000000000000221010000000000000000      60421000008*** THANKS FOR THE ORDER ***        WE APPRECIATE YOUR BUSINESS       0000000000018002 0072016120120161205MNN201611280   1000000      SM8144              2            201612051055               
532037O EM20161129075600U OF M / PPO SHT MTL INV 2904U OF M / PPO SHT MTL INV      2904 FAIRMOUNT ST. S.E.                                     MINNEAPOLIS      MN 55414     16464908  FOOD OPS  P1100120     532037201612080002460510201000000004030100000000000000000000000221010000000000000000      60431000005CALL TO SCHEDULE DELIVERY          ANDREW 612-625-6019                0000104300000002 0070012051620161206MNN201611292   1000000      ANDREW              1                                       
532045O EM20161129049828MIDWEST FABRICATION/SPPLY0000MIDWEST FABRICATION/SPPLY     500 22ND STREET                                             ZUMBROTA        MN  55992     320318    38007     C110006      532045201612080014459410201000000004030100000000000000000000000221010000000000000000      60421000010CALL DAVE @ 507-732-1307           WHEN COMPLETE                      0000000000000002 0292016113020161207MNN201611291   1000000      320318              3            201612071231               
532051O EM20161129075600U OF M / PPO SHT MTL INV 2904U OF M / PPO SHT MTL INV      2904 FAIRMOUNT ST. S.E.                                     MINNEAPOLIS      MN 55414     16464909  FOOD OPS  P1100120     532051201612080003458010201000000004030100000000000000000000000221010000000000000000      60431000005CALL TO SCHEDULE DELIVERY          ANDREW 612-625-6019                0000253400000002 0080012051620161206MNN201611292   1000000      ANDREW              1                                       
532067O EM20161129052030NASSEFF MECHANICAL CONTRS0150NASSEFF MECHANICAL SHOP       150 EATON STREET                                            SAINT PAUL       MN 55107-1680120110    ST. AGNES P110003      532067201612080005593010201000000004030100000000000000000000000221010000000000000000      60431000010CONTACT: MIKE @ 651-755-4721                                          0000023000080002 0072016113020161201MNN201611292   1000000      120110              2            201611301300               
532104O EM20161130052120NAYLOR HTG & REFRIG. LLC 0000NAYLOR HTG & REFRIG. LLC      172 SPIRIT AVENUE NW                                        BEMIDJI         MN  56601-567452177               C110000      532104201612080008000010201000000004030100000000000000000000000221010000000000000000      60421000010CONTACT: MIKE @ 218-444-4328                                          0000026600000002 0042016113020161201MNN20161130X1671000000                          1            201612011014               
532139O EM20161129053130NORTH CENTRAL FABRICATORS0000NORTH CENTRAL FABRICATORS     40800 HWY 65 N.E.                                           BRAHAM          MN  55006-331811/29     GEORGE    C110101      532139201612080006758810201000000004030100000000000000000000000221010000000000000000      60421000017FRIDAY AM PICK UP                                                     0000000000000002 0182016113020161202MNN201611291   1000000      11/29               1            201612020909               
532142O SM20161129049250METROPOLITAN MECH CONTR. 7558METROPOLITAN MECH CONTR.      % TATE HALL LABORATORY        116 CHURCH ST SE              MPLS.,           MN 55455-0149ORDER T200T7558     P11          532142201612080001787410201000000004030100000000000000000000000221010000000000000000      60431000008*** THANKS FOR THE ORDER ***        WE APPRECIATE YOUR BUSINESS       0000003600000002 0062016113020161202MNN201611292   1000000      ORDER T200          1                           165716      
532160O EM20161130028310COMFORT BY DESIGN INC DBA0000COMFORT BY DESIGN INC DBA     FREIER'S COMFORT BY DESGN     240 NORTH BROADWAY            ELLSWORTH       WI  54011     INTER-    FACIAL    C110005      532160201612080001396910201000000004030100000000000000000000000281010000000000000000      60421000005*** THANKS FOR THE ORDER ***        WE APPRECIATE YOUR BUSINESS       0000034400000002 0082016120120161205WIN20161130X1091000000      ITERFACIAL          1            201612050954               
532209O EM20161130049828MIDWEST FABRICATION/SPPLY0000MIDWEST FABRICATION/SPPLY     500 22ND STREET                                             ZUMBROTA        MN  55992     320695    38007     C110006      532209201612080000570010201000000004030100000000000000000000000221010000000000000000      60421000010*** THANKS FOR THE ORDER ***        WE APPRECIATE YOUR BUSINESS       0000039400000002 0022016113020161201MNN201611301   1000000      320695              1            201612011139               
532213O EM20161130073010TIOGA AIR HEATERS, LLC   0000TIOGA AIR HEATERS, LLC        4810 LILAC DRIVE NORTH                                      BROOKLYN CENTER MN  55429-392420825               P110004      532213201612080001260010201000000004030100000000000000000000000221010000000000000000      60431000017*** THANKS FOR THE ORDER ***        WE APPRECIATE YOUR BUSINESS       0000000000025002 0022016120220161205MNN201611302   1000000      20825               1            201612050914               
532237O EM20161130029950GILBERT MECH. CONTR. INC 0000GILBERT MECH. CONTR. INC      4451 WEST 76TH STREET                                       EDINA           MN  55435     1690-80-  3100      C110001      532237201612080006691710201000000004030100000000000000000000000221010000000000000000      60421000095WILL CALL 12/6                                                        0000069100000002I0042016120520161206MNN20161130WC  1000000      1690-80-            1            201612060924002            
532238O EM20161201034850HIMEC INC                0232HIMEC INC                     % ST OLAF COLLEGE             1520 ST. OLAF AVENUE          NORTHFIELD       MN 55057 157456204     7600      P210102      532238201612080008893610201000000004030100000000000000000000000221010000000000000000      60421000010S/W SMC# 532241. CONTACT:          JON @ 507-581-0704                 0000000000150002 0142016120120161206MNN20161201MDGT1000000                          1            201612051120   320921      
532241O EM20161201034850HIMEC INC                0232HIMEC INC                     % ST OLAF COLLEGE             1520 ST. OLAF AVENUE          NORTHFIELD       MN 55057 157456187     9017      P210102      532241201612080000629110201000000004030100000000000000000000000221010000000000000000      60421000010S/W SMC# 532238. CONTACT:          JON @ 507-581-0704                 0000024000000002 0042016120120161205MNN20161201MDGT1000000                          1                           320922      
532243O EM20161130033550HARRIS COMPANIES         0001HARRIS COMPANIES              909 MONTREAL CIRCLE                                         ST.PAUL          MN 55102-429632080     P5061896  C110138      532243201612080003947510201000000004030100000000000000000000000221010000000000000000      60421000010NEEDS TO PICK-UP TODAY 11/30/16    CONTACT: KEVIN @ 612-418-1376      0000010000000002 0052016113020161201MNN201611301   1000000      32080               1            201612010716               
532247O EM20161130049828MIDWEST FABRICATION/SPPLY0000MIDWEST FABRICATION/SPPLY     500 22ND STREET                                             ZUMBROTA        MN  55992     320697    37033     C110006      532247201612080015467610201000000004030100000000000000000000000221010000000000000000      60421000010*** THANKS FOR THE ORDER ***        WE APPRECIATE YOUR BUSINESS       0000000000000002 0162016120120161201MNN201611301   1000000      320697              1            201612011139               
532250O EM20161130063750ST. CLOUD REFRIGERATION  0000ST. CLOUD REFRIGERATION       604 LINCOLN AVENUE N.E.                                     ST. CLOUD,      MN  56304     1277      J16301    C110106      532250201612080001124810201000000004030100000000000000000000000221010000000000000000      60421000008*** THANKS FOR THE ORDER ***        WE APPRECIATE YOUR BUSINESS       0000000000000002 0032016120120161201MNN20161130SCGN1000000      1277                1            201612011330               
532258O EM20161130073010TIOGA AIR HEATERS, LLC   0000TIOGA AIR HEATERS, LLC        4810 LILAC DRIVE NORTH                                      BROOKLYN CENTER MN  55429-392420827               P110004      532258201612080005388010201000000004030100000000000000000000000221010000000000000000      60431000017SHIP 12/01                         REED 763-404-7831                  0000000000060002 0032016113020161202MNN201611302   1000000      20827               1            201612021110               
532263O EM20161201047550MECHANICAL AIR SYSTEMS CO0000MECHANICAL AIR SYSTEMS CO     2417 SOUTH FEDERAL AVENUE                                   MASON CITY      IA  50401-673422667     PASTA B   C110002      532263201612080014378810201000000004030100000000000000000000000201010000000000000000      60421000008*** THANKS FOR THE ORDER ***        WE APPRECIATE YOUR BUSINESS       0000000000000002 0202016120520161206IAN20161201MDGT1000000      CARL                2            201612061244               
532265O EM20161130037310INTERSTATE MECHANICAL    0000INTERSTATE MECHANICAL         2684 240TH AVENUE                                           ST. CROIX FALLS WI  54024     EM/NEIL             C110002      532265201612080007769010201000000004030100000000000000000000000281010000000000000000      60421000008*** THANKS FOR THE ORDER ***        WE APPRECIATE YOUR BUSINESS       0000000000000002 0052016120120161201WIN20161130DOTH1000000      EM/NEIL             1            201612011228               
532274O EM20161130035900HORWITZ, INC.            0200HORWITZ, INC.                 % U OF M ATHLETES VILLAGE     1720 SE 8TH STREET            MINNEAPOLIS      MN 55411-3818017849    1686.1050 P110038      532274201612080005347810201000000004030100000000000000000000000221010000000000000000      60431000010DELIVER 12/1/16. CONTACT:          TREVOR @ 612-282-7794              0000000100060002 0062016113020161201MNN201611302   1000000      017849              1            201611301453               
532276O EM20161130024800ENERGY & AIR SYSTEMS INC.0000ENERGY & AIR SYSTEMS INC.     806 HUGHITT AVENUE                                          SUPERIOR,       WI  54880     7592      IHS TAPS  P110001      532276201612080000467010201000000004030100000000000000000000000281010000000000000000      604210000981480512770                                                            0000000000007002I0032016120120161205WIN201611300   1000000      7592                1            201612050730               
532277O EM20161130030550GOODIN COMPANY           0003GOODIN COMPANY                3542 HOGARTH STREET                                         EAU CLAIRE       WI 54703     9332317-00STOCK     P110103      532277201612080001219010201000000004030100000000000000000000000281010000000000000000      60421000095*** THANKS FOR THE ORDER ***        WE APPRECIATE YOUR BUSINESS       0000000000073002 0032016120120161201WIN20161130DOTH1000000      9332317-00          1            201612011227               
532305O EM20161201053300NORTHERN AIR CORPORATION 0000NORTHERN AIR CORPORATION      1001 LABORE INDUS. COURT                                    VADNAIS HEIGHTS MN  55110     158047    C. MUSEUM C210128      532305201612080005163110201000000004030100000000000000000000000221010000000000000000      60421000010CONTACT: KAY @ 651-255-3528                                           0000037500000002 0102016120120161201MNN201612011   1000000      158047              1            201612011030               
532318O EM20161201050550MPLS. SPECIAL SCHOOL     0000MPLS. SPECIAL SCHOOL          DISTRICT #1                   1250 WEST BROADWAY            MINNEAPOLIS     MN  55411     SHEETMETALSHOP      C210000      532318201612080000248010201000000004030100000000000000000000000221010000000000000000      60421000014*** THANKS FOR THE ORDER ***        WE APPRECIATE YOUR BUSINESS       0000000000000002 0022016120120161201MNN20161201WC  1000000      SHEETMETAL          1            201612010833               
532332O EM20161201081045BILL YOUNG PLBG & HTG    0000BILL YOUNG PLBG & HTG         107 WEST MAIN                                               LAKE MILLS      IA  50450     V-BRIAN             P110001      532332201612080004392210201000000004030100000000000000000000000201010000000000000000      60421000005*** THANKS FOR THE ORDER ***        WE APPRECIATE YOUR BUSINESS       0000000000042002 0042016120120161206IAN201612010   1000000      V-BRIAN             1            201612061158               
532351O EM20161201032890HALVERSON BROS. INC.     0000HALVERSON BROS. INC.          1020 NORTH BROADWAY                                         MENOMONIE,      WI  54751     PEACE     LUTHEREN  C110000      532351201612080006781910201000000004030100000000000000000000000281010000000000000000      60421000008*** THANKS FOR THE ORDER ***        WE APPRECIATE YOUR BUSINESS       0000000000000002 0172016120220161205WIN20161201DOTH1000000      PEACE               1            201612050955               
532364O EM20161201065400SHANNON'S, INC.          1350SHANNON'S, INC.               % LIBERTY PAPER COATER        13500 LIBERTY LANE            BECKER           MN 55308-462321696               P110003      532364201612080000802210201000000004030100000000000000000000000221010000000000000000      60421000008*** THANKS FOR THE ORDER ***        WE APPRECIATE YOUR BUSINESS       0000000000011002 0042016120520161205MNN201612010   1000000      RYAN                1            201612050941               
532392O EM20161201026560FASTENAL COMPANY         0001FASTENAL COMPANY              618 INDUSTRIAL BOULEVARD                                    MINNEAPOLIS,     MN 55413     NBMN23131           C110001      532392201612080001050010201000000004030100000000000000000000000221010000000000000000      60421000008*** THANKS FOR THE ORDER ***        WE APPRECIATE YOUR BUSINESS       0000000000000002 0022016120220161205MNN20161201WC  1000000      NBMN23131           1            201612051256               
532400O EM20161201052030NASSEFF MECHANICAL CONTRS0150NASSEFF MECHANICAL SHOP       150 EATON STREET                                            SAINT PAUL       MN 55107-1680118442    LOG #29   P110003      532400201612080001802410201000000004030100000000000000000000000221010000000000000000      60421000010CONTACT: MIKE @ 651-755-4721                                          0000000000035002 0092016120220161202MNN20161201X0331000000      118442              2            201612020822   REGINA      
532415O EM20161201004845ALLIED KILN SERVICE, INC.0001ALLIED KILN SERVICE, INC.     1501 ST. ANDREW STREET        BUILDING "J"                  LA CROSSE        WI 54603     2402      F1116     P110000      532415201612080001416010201000000004030100000000000000000000000281010000000000000000      60421000005ATTN: PAUL DOROW                                                      0000000000010002 0022016120220161206WIN201612010   1000000      2402                1            201612061151               
532444O EM20161201006300ASDCO / DIV. OF JAMAR CO.4384ASDCO / DIV. OF JAMAR CO.     ST CROIX CASINO               4384 WISCONSIN STATE ROAD 70  WEBSTER          WI 54893     993967    H16013    P110001      532444201612080008280510201000000004030100000000000000000000000221010000000000000000      60421000017NEED DEL ** 12/6 **                                                   0000199300083002I0142016120220161205MNN20161201DOTH1000000      993967              2            201612051235               
532468O EM20161202049828MIDWEST FABRICATION/SPPLY0000MIDWEST FABRICATION/SPPLY     500 22ND STREET                                             ZUMBROTA        MN  55992     320707              C110006      532468201612080036869610201000000004030100000000000000000000000221010000000000000000      60421000010*** THANKS FOR THE ORDER ***        WE APPRECIATE YOUR BUSINESS       0000013400000002 0132016120220161205MNN20161202WC  1000000                          1            201612051038               
532473O EM20161202069620SUMMIT COMMERCIAL        0000SUMMIT COMMERCIAL               FACILITES GROUP             8818 7TH AVENUE NORTH         GOLDEN VALLEY   MN  55427     108166-119          C110000      532473201612080001202010201000000004030100000000000000000000000221010000000000000000      60421000014*** THANKS FOR THE ORDER ***        WE APPRECIATE YOUR BUSINESS       0000092400000002 0022016120220161202MNN20161202WC  1000000      108166-119          2            201612020842               
532474O EM20161202033550HARRIS COMPANIES         5510HARRIS COMPANIES              % ABBOTT HOSPITAL             800 E. 28TH ST.               MINNEAPOLIS      MN 55407 372340471     7600      P110000      532474201612080001686210201000000004030100000000000000000000000221010000000000000000      60421000010SHIP VIA (1) HOUR COURIER ON 12/5  (8AM) DEL. JUSTIN 612-910-2092     0000000000060002 0072016120220161205MNN20161202X0331000000                          1            201612051021   321152      
532479O EM20161202039260KVA ENGINEERING INC.     0000KVA ENGINEERING INC.          6504 VALLEY VIEW ROAD                                       CORCORAN,       MN  55340     43425               C110003      532479201612080000157510201000000004030100000000000000000000000221010000000000000000      60421000005*** THANKS FOR THE ORDER ***        WE APPRECIATE YOUR BUSINESS       0000011500000002 0022016120220161202MNN20161202WC  1000000      43425               1            201612020932               
532497O SM20161202049250METROPOLITAN MECH CONTR. 7456METROPOLITAN MECH CONTR.      NEUROSCIENCE                  295 PHALEN BLVD.              ST.PAUL          MN 55130     166022    T7456     P11          532497201612080001191210201000000004030100000000000000000000000221010000000000000000      60421000010DELIVER 12/05/16. CONTACT:         JOHN @ 651-775-9544                0000045800030002 0062016120220161205MNN20161202X0331000000      JOHN C              1            201612021402               
532513O EM20161202049828MIDWEST FABRICATION/SPPLY0000MIDWEST FABRICATION/SPPLY     500 22ND STREET                                             ZUMBROTA        MN  55992     320709    38007     C110006      532513201612080009185510201000000004030100000000000000000000000221010000000000000000      60421000010CALL DAVE @ 507-732-1307           WHEN COMPLETE                      0000000000000002 0172016120520161207MNN20161202WC  1000000                          1            201612071254               
532515O EM20161202049400MID-CENTRAL HEATING & A/C0001MID-CENTRAL HEATING & A/C     300 INDUSTRIAL DRIVE                                        FREEPORT         MN 56331-0313V-JERRY   SACRET HRTP110001      532515201612080001100010201000000004030100000000000000000000000221010000000000000000      60421000005*** THANKS FOR THE ORDER ***        WE APPRECIATE YOUR BUSINESS       0000000000014002 0022016120220161205MNN201612020   1000000      V-JERRY             2            201612021424               
532522O EM20161202000250ACI MECHANICAL, INC.     0001ACI MECHANICAL, INC.          212 INDUSTRIAL PARK RD                                      STORY CITY       IA 50248-190259364     5859      P1100150     532522201612080007494310201000000004030100000000000000000000000201010000000000000000      60421000098** HOT HOT HOT ** NEEDS ASAP       WOULD LIKE IN SHOP BY 12/7 IF ABLE 0000000000171002 0102016120620161206IAN20161202X1611000000      SHON S.             1            201612061741               
532538O FX20161202001215ADEL WHOLESALERS, INC.   0003ADEL WHOLESALERS, INC.        1101 STATE ST                                               BETTENDORF       IA 52722-4857102181              P110003      532538201612080008544010201000000004030100000000000000000000000201010000000000000000      60421000093*** THANKS FOR THE ORDER ***        WE APPRECIATE YOUR BUSINESS       0000000000041002 0032016120220161205IAN201612020   1000000      102181              1            201612021405               
532546O SM20161202049250METROPOLITAN MECH CONTR. 4424METROPOLITAN MECH CONTR.      % U OF M BELL MUSEUM          2088 LARPENTEUR AVE W         ST.PAUL          MN 55113     ORDER 60  M4424     P11          532546201612080002303310201000000004030100000000000000000000000221010000000000000000      60431000008*** THANKS FOR THE ORDER ***        WE APPRECIATE YOUR BUSINESS       0000082000045002 0082016120520161206MNN201612022   1000000      ORDER 60            1            201612060829   166075      
532594O EM20161205034850HIMEC INC                0002HIMEC, INC.                   1400 7TH STREET N.W.          (NON-TAXABLE)                 ROCHESTER        MN 55901-173556225-22  7000      C210004      532594201612080000158010201000000004030100000000000000000000000221010000000000000000      60421000010S/W SMC# 532590.                   TAG: TIMM W (GUGG)                 0000000000000002 0032016120520161205MNN201612050   1000000      56225-22            2            201612051204   CS6290      
532625O EM20161205026100NATIONAL EXCELSIOR CO.   0000NATIONAL EXCELSIOR CO.        17725 VOLBRECHT ROAD                                        LANSING         IL  60438     552473-00           C110006      532625201612080000476310201000000004030100000000000000000000000221010000000000000000      60421000095WILL CALL TODAY                                                       0000000000000002 0032016120520161205MNN20161205WC  1000000      552473-00           2            201612051436               
532636O EM20161205008350BASSETT MECHANICAL       0001BASSETT INC                   1215 HYLAND AVENUE                                          KAUKAUNA         WI 54130-14411300.400  4000      C110115      532636201612080001470010201000000004030100000000000000000000000281010000000000000000      60421000008*** THANKS FOR THE ORDER ***        WE APPRECIATE YOUR BUSINESS       0000000000000002 0022016120520161206WIN20161205X0791000000      1300.400            1            201612061047               
532642O EM20161206049828MIDWEST FABRICATION/SPPLY9814MIDWEST FABRICATION/SPPLY     % HCMC                        2228 TERRITORIAL ROAD         ST. PAUL         MN 55114 160737033     9814      P1100060     532642201612080004621510201000000004030100000000000000000000000221010000000000000000      60421000010DELIVER 12/7/16 ASAP. CONTACT:     DEB @ 612-430-5303                 0000000000060002 0032016120720161207MNN20161206X0331000000                          2            201612070745   321302      
532652O EM20161206075600U OF M / PPO SHT MTL INV 0002SHEET METAL SHOP              DOCK 9                        1936 COMMONWEALTH AVE         ST PAUL          MN 55108-104516465284  ROBBIE    P1100120     532652201612080002147010201000000004030100000000000000000000000221010000000000000000      60421000005*** THANKS FOR THE ORDER ***        WE APPRECIATE YOUR BUSINESS       0000020300030002 0062016120720161207MNN20161206X0331000000      KEITH               1            201612070801               
532684O EM20161205006300ASDCO / DIV. OF JAMAR CO.0211ASDCO / DIV. OF JAMAR CO.     NORSHOR THEATRE BOILER        211 E SUPERIOR STREET         DULUTH           MN 55802-2117993964    H16001    P110000      532684201612080010800010201000000004030100000000000000000000000221010000000000000000      60421000014*** THANKS FOR THE ORDER ***        WE APPRECIATE YOUR BUSINESS       0000000000000002 0022016120620161206MNN20161205X0141000000      993964              1            201612061204               
532691O SM20161205049250METROPOLITAN MECH CONTR. 4424METROPOLITAN MECH CONTR.      % U OF M BELL MUSEUM          2088 LARPENTEUR AVE W         ST.PAUL          MN 55113     ORDER 104 M4424     P11          532691201612080001449210201000000004030100000000000000000000000221010000000000000000      60431000008*** THANKS FOR THE ORDER ***        WE APPRECIATE YOUR BUSINESS       0000000000000002 0042016120620161206MNN201612052   1000000      ORDER 104           1                           166225      
532708O EM20161206069620SUMMIT COMMERCIAL        1988SUMMIT COMMERCIAL             % RAINBOW DAYCARE             19881 IDEALIC AVE             LAKEVILLE        MN 55044     RAINBOW   DAYCARE   P110000      532708201612080020623810201000000004030100000000000000000000000221010000000000000000      60431000017DARREN 651-447-4041                SHIP TODAY                         0000000000120002 0072016120620161206MNN201612062   1000000      RAINBOW             2            201612061129               
532728O EM20161206053130NORTH CENTRAL FABRICATORS0000NORTH CENTRAL FABRICATORS     40800 HWY 65 N.E.                                           BRAHAM          MN  55006-331812/6/16             C110101      532728201612080004550010201000000004030100000000000000000000000221010000000000000000      60421000010DRIVER ON HIS WAY. PLEASE PACK ASAPGEORGE @ 763-689-5070              0000000000000002 0022016120620161206MNN201612061   1000000      12/6/16             1            201612060929               
532746O EM20161206053130NORTH CENTRAL FABRICATORS0000NORTH CENTRAL FABRICATORS     40800 HWY 65 N.E.                                           BRAHAM          MN  55006-331812/6/16             C110101      532746201612080000967510201000000004030100000000000000000000000221010000000000000000      60421000010DRIVER ON HIS WAY. PLEASE PACK ASAPCONTACT: GEORGE @ 763-688-3650     0000000000000002 0032016120620161206MNN201612061   1000000      12/6/16             1            201612061038               
532764O EM20161206030550GOODIN COMPANY           2151GOODIN COMPANY                % PRECISION HEATING & COOLING 21517 COUNTY HWY AA           BLOOMER          WI 54724     1606994-00          P110000      532764201612080000047010201000000004030100000000000000000000000221010000000000000000      60421000095*** THANKS FOR THE ORDER ***        WE APPRECIATE YOUR BUSINESS       0000000000006002 0022016120620161207MNN201612060   1000000      1606994-00          1            201612070739               
532776O EM20161206063750ST. CLOUD REFRIGERATION  0000ST. CLOUD REFRIGERATION       604 LINCOLN AVENUE N.E.                                     ST. CLOUD,      MN  56304     1444      STOCK     C110106      532776201612080003200010201000000004030100000000000000000000000221010000000000000000      60421000008*** THANKS FOR THE ORDER ***        WE APPRECIATE YOUR BUSINESS       0000000000000002 0022016120620161206MNN20161206SCGN1000000      1444                1            201612061344               
532804O SM20161207049250METROPOLITAN MECH CONTR. 7512METROPOLITAN MECH CONTR.      % AUGSBURG COLLEGE            2211 RIVERSIDE AVENUE         MINNEAPOLIS      MN 55454-1350166332    T7512     P11          532804201612080000507510201000000004030100000000000000000000000221010000000000000000      60421000010SHIP VIA (3) HOUR COURIER TODAY    12/7/16. DALE @ 651-329-1998       0000000000020002 0052016120720161207MNN20161207X0331000000      DALE                1            201612070737               
532821O EM20161207033550HARRIS COMPANIES         7050HARRIS COMPANIES              % ABBOTT HOSPITAL             2525 CHICAGO AVENUE           MINNEAPOLIS      MN 55407     321524    112090    P110032      532821201612080000368010201000000004030100000000000000000000000221010000000000000000      60421000010SHIP VIA (1) HOUR COURIER TODAY    12/7. JUSTIN @ 612-910-2092        0000000000060002 0022016120720161207MNN20161207X0331000000      ANITA               1            201612071115               
532844O EM20161207041700KURTH HTG. & SHT MTL INC.0000KURTH HTG. & SHT MTL INC.     4115 123RD STREET                                           CHIPPEWA FALLS  WI  54729-8515LOT # 8   LOT # 8   P110006      532844201612080006390010201000000004030100000000000000000000000281010000000000000000      60421000017*** THANKS FOR THE ORDER ***        WE APPRECIATE YOUR BUSINESS       0000000000023002 0062016120720161207WIN201612070   1000000      LOT # 8             1            201612071412               
532852O EM20161207024050EGAN MECHANICAL CONTR.INC0000EGAN MECHANICAL CONTR. INC    7625 BOONE AVENUE NORTH       DELIVER TO DOCK #3            BROOKLYN PARK    MN 55428-1011920192              P210012      532852201612080002100010201000000004030100000000000000000000000221010000000000000000      60431000017SHIP ASAP HOT                                                         0000000000000002 0022016120720161207MNN201612072   1000000      920192              1                                       
532856O EM20161207018450CORN STATES METAL FAB INC0001CORN STATES METAL FABRICATORS 1323 MAPLE STREET                                           WEST DES MOINES  IA 50265     13600     DUSTIN    P110000      532856201612080002340010201000000004030100000000000000000000000201010000000000000000      60421000017*** THANKS FOR THE ORDER ***        WE APPRECIATE YOUR BUSINESS       0000180000014002 0022016120720161207IAN201612070   1000000      13600               1            201612071232               
531919OCEM20161128049828MIDWEST FABRICATION/SPPLY9814MIDWEST FABRICATION/SPPLY     % HCMC                        2228 TERRITORIAL ROAD         ST. PAUL         MN 55114 16079814      7177      PC10005      531919201612090095318710201000000004030100000000000000000000000221010000000000000000      60431000010*** THANKS FOR THE ORDER ***        WE APPRECIATE YOUR BUSINESS       0000000000120002 0692016113020161202MNN201611282   0000000                          1            201612011156   37033       
532043O EM20161129045200MAC ARTHUR COMPANY       0000MAC ARTHUR COMPANY            3001 NORTH 1ST AVENUE                                       SIOUX FALLS,    SD  57104     2013369             C2101040     532043201612090019900010201000000004030100000000000000000000000261010000000000000000      60421000024*** THANKS FOR THE ORDER ***        WE APPRECIATE YOUR BUSINESS       0000000000000002 0042016113020161201SDN201611291   3000000      2013369             2            201612011241               
532090O SM20161129049250METROPOLITAN MECH CONTR. 7512METROPOLITAN MECH CONTR.      7450 FLYING CLOUD DR                                        EDEN PRAIRIE     MN 55344-3720BL 4611   T7512     P11          532090201612090007666810201000000004030100000000000000000000000221010000000000000000      60431000008SHIP TO SHOP                                                          0000000000095002 0012016120620161208MNN201611292   1000000      BL 4611             1            201612071302005165655      
532138O EM20161130062650W.A. ROOSEVELT COMPANY   2727W.A. ROOSEVELT COMPANY        2727 COMMERCE STREET                                        LA CROSSE        WI 54603     1989404             C210011      532138201612090010057610201000000004030100000000000000000000000221010000000000000000      60421000008CALL W/DONE                                                           0000000000000002 0152016120220161202MNN201611301   3000000      JOE                 1            201612021443               
532179O EM20161207050465MILWAUKEE INSULATION CO. 0815MILWAUKEE INSULATION CO.      815 MANN ROAD                                               CEDAR RAPIDS     IA 52404-89172014349             P2100200     532179201612090004183210201000000004030100000000000000000000000201010000000000000000      60421000024*** THANKS FOR THE ORDER ***        WE APPRECIATE YOUR BUSINESS       0000000000040002 0082016120720161207IAN201612070   3000000      JOE                 1            201612071026               
532308O EM20161205045150MAC ARTHUR COMPANY       0000MAC ARTHUR COMPANY            30 NORTH 43RD STREET WEST                                   DULUTH          MN  55807     2013996   WOODS HALLC2101170     532308201612090002197910201000000004030100000000000000000000000221010000000000000000      60421000024*** THANKS FOR THE ORDER ***        WE APPRECIATE YOUR BUSINESS       0000000000000002 0092016120520161205MNN201612051   3000000      SHANE               3            201612051133               
532338O EM20161201049380R.E. MICHEL COMPANY, LLC 0775R.E. MICHEL COMPANY, LLC      775 ANDERSON AVE                                            ST.CLOUD         MN 56303-2048950796              C210001      532338201612090000810010201000000004030100000000000000000000000221010000000000000000      60421000024CALL WHEN READY                    JEFF SWAN: 320-316-2735            0000000000000002 0022016120520161208MNN201612011   3000000      950796              2            201612081114               
532357O EM20161201050465MILWAUKEE INSULATION CO. 0005INSULATION PLUS               3272 AIRPORT ROAD                                           LA CROSSE        WI 54603-12532013785   VANE&RAIL P210013      532357201612090002005010201000000004030100000000000000000000000281010000000000000000      60421000024*** THANKS FOR THE ORDER ***        WE APPRECIATE YOUR BUSINESS       0000000000060002 0032016120220161202WIN20161201MDGT3000000      JAYSON              1            201612021154               
532397O EM20161201050465MILWAUKEE INSULATION CO. 1800MILWAUKEE INSULATION CO.      1800 DIXON STREET             SUITE H                       DES MOINES       IA 50316-21722013909             P210039      532397201612090000243010201000000004030100000000000000000000000201010000000000000000      60421000024*** THANKS FOR THE ORDER ***        WE APPRECIATE YOUR BUSINESS       0000000000007002 0042016120520161202IAN201612010   3000000      JAY                 1            201612020749               
532418OCEM20161201033550HARRIS COMPANIES         2185HIMEC INC                     % HEARTHSIDE FOOD SOLUTIONS     21850 GRENADA AVENUE        LAKEVILLE        MN 55044-9076JP2068              PC100121     532418201612090005869910201000000004030100000000000000000000000221010000000000000000      60421000008*** THANKS FOR THE ORDER ***        WE APPRECIATE YOUR BUSINESS       0000000000130002 0120000000020161207MNN20161201X0330000000      JP2068              2            201612071107               
532437O EM20161201065750SHEET METAL ENTERPRISES  0000SHEET METAL ENTERPRISES       601 KNAPP STREET              PO BOX 71                     CHETEK          WI  54728     PRICEDUCT           C210002      532437201612090008000010201000000004030100000000000000000000000281010000000000000000      60421000024THANK YOU FOR THE PRICEDCUT        SUBSCRIPTION RENEWAL               0000000000000002I0022016120120161201WIN20161201XO  0000000      PRICEDUCT           1            201612070831               
532448O SM20161202049250METROPOLITAN MECH CONTR. 7512METROPOLITAN MECH CONTR.      7450 FLYING CLOUD DR                                        EDEN PRAIRIE     MN 55344-3720BL 4613   T7512     P11          532448201612090003798610201000000004030100000000000000000000000221010000000000000000      60431000008SHIP TO SHOP                                                          0000000000000002 0012016120820161208MNN201612022   1000000      BL 4613             1                        004165992      
532493OCEM20161202034850HIMEC INC                0002HIMEC, INC.                   1400 7TH STREET N.W.          (NON-TAXABLE)                 ROCHESTER        MN 55901-173556225-86  7000      PC100040     532493201612090001614010201000000004030100000000000000000000000221010000000000000000      60421000010*** THANKS FOR THE ORDER ***        WE APPRECIATE YOUR BUSINESS       0000000000085002 0032016120520161205MNN20161202MDGT0000000                          1            201612051133   CS6281      
532507O EM20161202050465MILWAUKEE INSULATION CO. 0815MILWAUKEE INSULATION CO.      815 MANN ROAD                                               CEDAR RAPIDS     IA 52404-89172013908             P210110      532507201612090000766810201000000004030100000000000000000000000201010000000000000000      60421000024*** THANKS FOR THE ORDER ***        WE APPRECIATE YOUR BUSINESS       0000000000008002 0022016120520161206IAN201612020   3000000      2013908             2            201612061146               
532555OCEM20161202034850HIMEC INC                0002HIMEC, INC.                   1400 7TH STREET N.W.          (NON-TAXABLE)                 ROCHESTER        MN 55901-173556180-02  7000      PC10004      532555201612090001646110201000000004030100000000000000000000000221010000000000000000      60421000010*** THANKS FOR THE ORDER ***        WE APPRECIATE YOUR BUSINESS       0000041100012002 0052016120520161205MNN201612020   0000000      56180-02            1            201612050922   CS6282      
532590OCEM20161205034850HIMEC INC                0002HIMEC, INC.                   1400 7TH STREET N.W.          (NON-TAXABLE)                 ROCHESTER        MN 55901-173556225-36  7000      CC100040     532590201612090000325410201000000004030100000000000000000000000221010000000000000000      60421000010*** THANKS FOR THE ORDER ***        WE APPRECIATE YOUR BUSINESS       0000000000010002 0032016120520161205MNN201612050   0000000                          1            201612051202   CS6289      
532639OCEM20161205034850HIMEC INC                0002HIMEC, INC.                   1400 7TH STREET N.W.          (NON-TAXABLE)                 ROCHESTER        MN 55901-173556219-72  7000      CC100040     532639201612090000403210201000000004030100000000000000000000000221010000000000000000      60421000010*** THANKS FOR THE ORDER ***        WE APPRECIATE YOUR BUSINESS       0000000000008002 0042016120520161205MNN201612050   0000000                          1            201612051244   CS6293      
532641O SM20161205049250METROPOLITAN MECH CONTR. 4426METROPOLITAN MECH CONTR.      % MT.OLIVET                   5517 LYNDALE AVE SO           MPLS.,           MN 55419-17192ND FLOOR M4426     P11          532641201612090010136910201000000004030100000000000000000000000221010000000000000000      60431000008*** THANKS FOR THE ORDER ***        WE APPRECIATE YOUR BUSINESS       0000004200120002 0302016120720161208MNN201612052   1000000      2ND FLOOR           1                           166168      
532668O SM20161205049250METROPOLITAN MECH CONTR. 4426METROPOLITAN MECH CONTR.      % MT.OLIVET                   5517 LYNDALE AVE SO           MPLS.,           MN 55419-1719ORDER 6   M4426     P11          532668201612090004255210201000000004030100000000000000000000000221010000000000000000      60431000008*** THANKS FOR THE ORDER ***        WE APPRECIATE YOUR BUSINESS       0000000000000002 0022016120820161208MNN201612052   1000000      ORDER 6             1                        001166200      
532700O EM20161206050465MILWAUKEE INSULATION CO. 0004MAC ARTHUR COMPANY            (INSULATION PLUS)             1800 DIXON STREET - SUITE H   DES MOINES       IA 50316     2013920             P210016      532700201612090000070310201000000004030100000000000000000000000201010000000000000000      60421000024*** THANKS FOR THE ORDER ***        WE APPRECIATE YOUR BUSINESS       0000000000007002 0022016120620161206IAN201612060   3000000      2013920             1            201612061434               
532703O EM20161206026560FASTENAL COMPANY         0000FASTENAL COMPANY              ATTN: ACCOUNTS PAYABLE        P.O. BOX 1225                 WINONA          MN  55987     NBMN23144           C110004      532703201612090004048010201000000004030100000000000000000000000221010000000000000000      60421000095*** THANKS FOR THE ORDER ***        WE APPRECIATE YOUR BUSINESS       0000300000000002 0022016120620161208MNN20161206WC  1000000      NBMN23144           1            201612080930               
532727O EM20161206077600WALDINGER CORPORATION    1209WALDINGER CORPORATION         % RYAN MENTELE                1209 SW 6TH ST                GRIMES           IA 50111     4122      34404T    C110005      532727201612090000000010201000000004030100000000000000000000000201010000000000000000      60421000021*** CREDIT. THANK YOU! ***                                            00000000001660p2 0020000000000000000IAN20161206JESS0000000      4122                1                                       
532749O EM20161206049828MIDWEST FABRICATION/SPPLY9814MIDWEST FABRICATION/SPPLY     % HCMC                        2228 TERRITORIAL ROAD         ST. PAUL         MN 55114 160737033     9814      P1100060     532749201612090011820010201000000004030100000000000000000000000221010000000000000000      60431000010DELIVER 12/8/16. CONTACT:          DEB @ 612-430-5303                 0000000000060002 0052016120620161208MNN201612062   1000000                          1            201612080839   321374      
532751O JR20161206000010MISCELLANEOUS CASH ACCT. 0000YARO G                                                                                    BLAINE          MN  55434     YARO G              P61    0     532751201612090021397510201000000004030100000000000000000000000221010000000000000000      60421000017*** THANKS FOR THE ORDER ***        WE APPRECIATE YOUR BUSINESS       0000287600000002 0472016120720161208MNN201612061   0000000      YARO G              1            201612081001               
532783OCEM20161206034850HIMEC INC                0002HIMEC, INC.                   1400 7TH STREET N.W.          (NON-TAXABLE)                 ROCHESTER        MN 55901-173556233-02  7000      CC100040     532783201612090001686210201000000004030100000000000000000000000221010000000000000000      60421000010*** THANKS FOR THE ORDER ***        WE APPRECIATE YOUR BUSINESS       0000037500010002 0042016120620161206MNN201612060   0000000                          1            201612061429   CS6299      
532798O EM20161206061750RIESTER REFRIGERATION INC0000RIESTER REFRIGERATION INC     503 BUSH STREET                                             RED WING,       MN  55066     HOWIE     RW52      P110001      532798201612090001053010201000000004030100000000000000000000000221010000000000000000      60421000017*** THANKS FOR THE ORDER ***        WE APPRECIATE YOUR BUSINESS       0000053000013002 0032016120820161208MNN201612060   1000000      HOWIE               1            201612080923               
532808O EM20161207049828MIDWEST FABRICATION/SPPLY0000MIDWEST FABRICATION/SPPLY     500 22ND STREET                                             ZUMBROTA        MN  55992     321313    38007     C110006      532808201612090002800010201000000004030100000000000000000000000221010000000000000000      60421000010*** THANKS FOR THE ORDER ***        WE APPRECIATE YOUR BUSINESS       0000000000000002 0022016120720161208MNN201612071   1000000      321313              1            201612081032               
532842O EM20161207041700KURTH HTG. & SHT MTL INC.0000KURTH HTG. & SHT MTL INC.     4115 123RD STREET                                           CHIPPEWA FALLS  WI  54729-8515SAPPHIRE  SALON     P110006      532842201612090003328610201000000004030100000000000000000000000281010000000000000000      60421000017*** THANKS FOR THE ORDER ***        WE APPRECIATE YOUR BUSINESS       0000000000012002 0052016120720161207WIN201612070   1000000      SAPPHIRE            1            201612080716               
532862O EM20161207024050EGAN MECHANICAL CONTR.INC0000EGAN MECHANICAL CONTR.INC     7625 BOONE AVENUE NORTH                                     BROOKLYN PARK   MN  55428     920233    RYAN      C210000      532862201612090000436210201000000004030100000000000000000000000221010000000000000000      60421000017*** THANKS FOR THE ORDER ***        WE APPRECIATE YOUR BUSINESS       0000000000000002 0032016120720161208MNN201612071   1000000      920233              1            201612080950               
532880O EM20161207063750ST. CLOUD REFRIGERATION  0000ST. CLOUD REFRIGERATION       604 LINCOLN AVENUE N.E.                                     ST. CLOUD,      MN  56304     1493      W16085    P110106      532880201612090006135810201000000004030100000000000000000000000221010000000000000000      60421000008*** THANKS FOR THE ORDER ***        WE APPRECIATE YOUR BUSINESS       0000000000029002 0022016120820161208MNN201612070   1000000      1493                1            201612080828               
532902O EM20161207049828MIDWEST FABRICATION/SPPLY0000MIDWEST FABRICATION/SPPLY     500 22ND STREET                                             ZUMBROTA        MN  55992     321316    38007     C110006      532902201612090000409010201000000004030100000000000000000000000221010000000000000000      60421000010*** THANKS FOR THE ORDER ***        WE APPRECIATE YOUR BUSINESS       0000059100000002 0032016120720161208MNN201612071   1000000      321316              1            201612081032               
532923O EM20161207063750ST. CLOUD REFRIGERATION  0000ST. CLOUD REFRIGERATION       604 LINCOLN AVENUE N.E.                                     ST. CLOUD,      MN  56304     A16584-   1500      P110112      532923201612090002496410201000000004030100000000000000000000000221010000000000000000      60421000005*** THANKS FOR THE ORDER ***        WE APPRECIATE YOUR BUSINESS       0000000200012002 0032016120820161208MNN201612070   1000000      A16584-             1            201612080928               
532958O EM20161208050465MILWAUKEE INSULATION CO. 1095                              HOVLAND SHEET METAL INC.      10954 15TH AVENUE             CHIPPEWA FALLS   WI 54729     2014467   CONICALS  P2100430     532958201612090000914110201000000004030100000000000000000000000281010000000000000000      60421000024*** THANKS FOR THE ORDER ***        WE APPRECIATE YOUR BUSINESS       0000000000007002 0062016120920161208WIN201612080   3000000      KEN                 1            201612081329               
532965O EM20161208050465MILWAUKEE INSULATION CO. 0815MILWAUKEE INSULATION CO.      815 MANN ROAD                                               CEDAR RAPIDS     IA 52404-89172014455             P210110      532965201612090000612610201000000004030100000000000000000000000201010000000000000000      60421000024*** THANKS FOR THE ORDER ***        WE APPRECIATE YOUR BUSINESS       0000000000008002 0022016120820161208IAN201612080   3000000      2014455             1            201612080940               
532968O EM20161208050465MILWAUKEE INSULATION CO. 1095                              HOVLAND SHEET METAL INC.      10954 15TH AVENUE             CHIPPEWA FALLS   WI 54729     2014463             P210013      532968201612090001168610201000000004030100000000000000000000000281010000000000000000      60421000024*** THANKS FOR THE ORDER ***        WE APPRECIATE YOUR BUSINESS       0000000000007002 0022016120820161208WIN201612080   3000000      2014463             1            201612080948               
532978O EM20161208041460KRUCK PLBG & HTG CO INC  0000KRUCK PLBG & HTG CO INC       734 7TH STREET                                              BOONE           IA  50036-0189SOUTH HS  HAMILTON  P110001     C532978201612090000840010201000000004030100000000000000000000000201010000000000000000      60421000017*** THANKS FOR THE ORDER ***        WE APPRECIATE YOUR BUSINESS       0000000000008002 0022016120820161208IAN201612080   1000000      SOUTH HS            1            201612081146               
532979O EM20161208041460KRUCK PLBG & HTG CO INC  0000KRUCK PLBG & HTG CO INC       734 7TH STREET                PO BOX 189                    BOONE           IA  50036-0189JHS       JHS       P110001      532979201612090002927210201000000004030100000000000000000000000201010000000000000000      60421000017*** THANKS FOR THE ORDER ***        WE APPRECIATE YOUR BUSINESS       0000000000015002 0032016120820161208IAN201612083   1000000      JHS                 1            201612081201               
533004O EM20161208045200MAC ARTHUR COMPANY       4700BAETE-FORSETH                 4700 NORTH NORTHVIEW AVE                                    SIOUX FALLS      SD 57107     2014474   BLAST GATEP210002      533004201612090000144010201000000004030100000000000000000000000261010000000000000000      60421000024*** THANKS FOR THE ORDER ***        WE APPRECIATE YOUR BUSINESS       0000011600007002 0022016120820161208SDN201612080   3000000      2014474             1            201612081211               
533050O EM20161208057500PLUMB SUPPLY COMPANY     0214PLUMB SUPPLY COMPANY          C/O BARNHART ELECTRIC INC.    214 S. RIVER STREET           IOWA FALLS       IA 50126     3788025   MAJIC     P210014      533050201612090000300010201000000004030100000000000000000000000201010000000000000000      60421000005*** THANKS FOR THE ORDER ***        WE APPRECIATE YOUR BUSINESS       0000000000007002 0022016120920161208IAN201612084   0000000      3788025             1            201612081445               
509327O EM20161118007650BAETE-FORSETH HVAC       4901BAETE-FORSETH HVAC            C/O SIOUX FALLS FORD          4901 W. 26TH STREET           SIOUX FALLS      SD 57105     164944    16044     P1100080     509327201612150201461910201000000004030100000000000000000000000261010000000000000000      60421000005*** THANKS FOR THE ORDER ***        WE APPRECIATE YOUR BUSINESS       0000022000691002 0850012021620161207SDN20161118X1011000000                          2            201612071300               
531751O EM20161122065400SHANNON'S, INC.          0010SHANNON'S INC.                % COOK CARE CENTER            10 - 5TH ST SE                COOK             MN 55723     21623     COOK      P1100040     531751201612150005210610201000000004030100000000000000000000000221010000000000000000      60421000008*** THANKS FOR THE ORDER ***        WE APPRECIATE YOUR BUSINESS       0000006300069002 0102016112920161201MNN20161122X0251000000      RON                 1            201612011427004            
531762O EM20161129000250ACI MECHANICAL, INC.     0001ACI MECHANICAL, INC.          212 INDUSTRIAL PARK RD                                      STORY CITY       IA 50248-190259315     BASF      P110004      531762201612150018362410201000000004030100000000000000000000000201010000000000000000      60421000008*** THANKS FOR THE ORDER ***        WE APPRECIATE YOUR BUSINESS       0000000000274002 0262016120220161207IAN20161129X1161000000      DON                 1            201612071055               
531948O EM20161128041500A.W. KUETTEL & SONS      1538A.W. KUETTEL & SONS           % STANLEY LABOUNTY            1538 STATE HWY 2              TWO HARBOURS     MN 55616     SM8144    STANLEY   P1100020     531948201612150045060010201000000004030100000000000000000000000221010000000000000000      60421000008*** THANKS FOR THE ORDER ***        WE APPRECIATE YOUR BUSINESS       0000000000546002 0292016120120161206MNN20161128X0251000000      SM8144              2            201612060853               
532266O EM20161130029750GETZSCHMAN HEATING & S/M 3434GETZSCHMAN HEATING & S/M      % COLUMBUS HIGH SCHOOL        3434 DISCOVERER DRIVE         COLUMBUS         NE 68601-8981V DAVE              P110001      532266201612150008209710201000000004030100000000000000000000000241010000000000000000      60421000008*** THANKS FOR THE ORDER ***        WE APPRECIATE YOUR BUSINESS       0000000000323002 0052016120220161207NEN20161130X1611000000      V DAVE              2                                       
532273O EM20161130050465MILWAUKEE INSULATION CO. 0004MAC ARTHUR COMPANY            (INSULATION PLUS)             1800 DIXON STREET - SUITE H   DES MOINES       IA 50316     2013601   STOCK     P210039      532273201612150066118610201000000004030100000000000000000000000201010000000000000000      60421000024*** THANKS FOR THE ORDER ***        WE APPRECIATE YOUR BUSINESS       0000002100351002 0332016120220161207IAN20161130X1163000000      2013601             2            201612061558               
532280O EM20161130050465MILWAUKEE INSULATION CO. 0815MILWAUKEE INSULATION CO.      815 MANN ROAD                                               CEDAR RAPIDS     IA 52404-89172013635   STOCK     P210110      532280201612150055442510201000000004030100000000000000000000000201010000000000000000      60421000024*** THANKS FOR THE ORDER ***        WE APPRECIATE YOUR BUSINESS       0000001400375002 0232016120220161207IAN20161130X0053000000      2013635             1            201612071109               
532360O EM20161201041500A.W. KUETTEL & SONS      1538A.W. KUETTEL & SONS           % STANLEY LABOUNTY            1538 STATE HWY 2              TWO HARBOURS     MN 55616     SM8144              P110001      532360201612150003090010201000000004030100000000000000000000000221010000000000000000      60421000008*** THANKS FOR THE ORDER ***        WE APPRECIATE YOUR BUSINESS       0000000000000002 0052016120220161206MNN20161201X0251000000      SM8144              1                                       
532367O EM20161206045150MAC ARTHUR COMPANY       0000MAC ARTHUR COMPANY            30 NORTH 43RD STREET WEST                                   DULUTH          MN  55807     2014221   #777      C210104      532367201612150008005410201000000004030100000000000000000000000221010000000000000000      60421000024*** THANKS FOR THE ORDER ***        WE APPRECIATE YOUR BUSINESS       0000000000000002 0172016120820161212MNN201612061   3000000      SHANE               2            201612121247               
532369O EM20161205045150MAC ARTHUR COMPANY       0000MAC ARTHUR COMPANY            30 NORTH 43RD STREET WEST                                   DULUTH          MN  55807     2014108   #695      C210104      532369201612150000127810201000000004030100000000000000000000000221010000000000000000      60421000024*** THANKS FOR THE ORDER ***        WE APPRECIATE YOUR BUSINESS       0000000000000002 0092016120620161212MNN201612051   3000000      SHANE               2            201612121247               
532371O EM20161206045150MAC ARTHUR COMPANY       0000MAC ARTHUR COMPANY            30 NORTH 43RD STREET WEST                                   DULUTH          MN  55807     2014140   #786      P210104      532371201612150001063110201000000004030100000000000000000000000221010000000000000000      60421000024*** THANKS FOR THE ORDER ***        WE APPRECIATE YOUR BUSINESS       0000000000000002 0042016120620161212MNN201612061   3000000      SHANE               2            201612121247               
532542O SM20161202049250METROPOLITAN MECH CONTR. 7512METROPOLITAN MECH CONTR.      % AUGSBURG COLLEGE            2211 RIVERSIDE AVENUE         MINNEAPOLIS      MN 55454-1350ORDER 15  T7512     P11          532542201612150012587410201000000004030100000000000000000000000221010000000000000000      60431000008*** THANKS FOR THE ORDER ***        WE APPRECIATE YOUR BUSINESS       0000468000065002 0132016120720161209MNN201612022   1000000      ORDER 15            1            201612081507   166069      
532635O SM20161205049250METROPOLITAN MECH CONTR. 2800METROPOLITAN MECH CONTR.      % ABBOTT HOSPITAL             2800 - 10TH AVE SO            MPLS.,           MN 55407     ORDER 1   M4402     P11          532635201612150002119910201000000004030100000000000000000000000221010000000000000000      60421000008*** THANKS FOR THE ORDER ***        WE APPRECIATE YOUR BUSINESS       0000000000035002 0112016120820161209MNN20161205X0331000000      ORDER 1             1            201612091111   166163      
532649O EM20161205041500A.W. KUETTEL & SONS      0000A.W. KUETTEL & SONS           % STANLEY LABOUNTY            1538 STATE HWY 2              TWO HARBOURS     MN 55616     SM8144              P110001      532649201612150006934010201000000004030100000000000000000000000221010000000000000000      60421000008*** THANKS FOR THE ORDER ***        WE APPRECIATE YOUR BUSINESS       0000000000000002 0072016120620161206MNN20161205X0251000000      SM8144              1                                       
532665O EM20161206033550HARRIS COMPANIES         0228HARRIS COMPANIES              % GILLETTE CHILDRENS FAMILY E.200 UNIVERSITY AVE. E.        ST. PAUL         MN 55101-250771228     7600      P110000      532665201612150008962810201000000004030100000000000000000000000221010000000000000000      60431000010DELIVER 12/12/16. CONTACT:         JOSH @ 612-328-6038                0000103500060002 0112016120920161212MNN201612062   1000000                          1            201612121010   321287      
532740O EM20161206050465MILWAUKEE INSULATION CO. 1095                              HOVLAND SHEET METAL INC.      10954 15TH AVENUE             CHIPPEWA FALLS   WI 54729     2014236             P2100430     532740201612150007294110201000000004030100000000000000000000000281010000000000000000      60421000024*** THANKS FOR THE ORDER ***        WE APPRECIATE YOUR BUSINESS       0000000000073002 0032016120720161207WIN20161206DOTH3000000      KEN                 1            201612071112               
532750O EM20161209050465MILWAUKEE INSULATION CO. 0004MAC ARTHUR COMPANY            (INSULATION PLUS)             1800 DIXON STREET - SUITE H   DES MOINES       IA 50316     2014628   SHOE TAPS P210039      532750201612150004653910201000000004030100000000000000000000000201010000000000000000      60421000024*** THANKS FOR THE ORDER ***        WE APPRECIATE YOUR BUSINESS       0000000000016002 0122016121220161212IAN201612090   3000000      JAY                 1            201612121246               
532753O EM20161206045150MAC ARTHUR COMPANY       0000MAC ARTHUR COMPANY            30 NORTH 43RD STREET WEST                                   DULUTH          MN  55807     2014294   ALUM      C210105      532753201612150007371910201000000004030100000000000000000000000221010000000000000000      60421000024*** THANKS FOR THE ORDER ***        WE APPRECIATE YOUR BUSINESS       0000000000000002 0062016120720161212MNN201612061   3000000      MATT                2            201612121248               
532926OCEM20161207035350HONEYWELL FACILITIES     0001HONEYWELL                     ATTN: RAY MC CARTHY           6803 SANDBURG RD - DOCK #4    GOLDEN VALLEY,   MN 55427-3617M.CARD              CC100090     532926201612150002052510201000000004030100000000000000000000000221010000000000000000      60421000008*** THANKS FOR THE ORDER ***        WE APPRECIATE YOUR BUSINESS       0000063400000002 0070000000020161209MNN20161207WC  0000000      M.CARD              1            201612091000               
532951O EM20161207063750ST. CLOUD REFRIGERATION  0000ST. CLOUD REFRIGERATION       604 LINCOLN AVENUE N.E.                                     ST. CLOUD,      MN  56304     M1504     STOCK     C110106      532951201612150001400010201000000004030100000000000000000000000221010000000000000000      60421000008*** THANKS FOR THE ORDER ***        WE APPRECIATE YOUR BUSINESS       0000000000000002 0022016120820161209MNN20161207SCGN1000000      M1504               1            201612091219               
532970O SM20161208049250METROPOLITAN MECH CONTR. 7512METROPOLITAN MECH CONTR.      % AUGSBURG COLLEGE            2211 RIVERSIDE AVENUE         MINNEAPOLIS      MN 55454-1350166602    T7512     P11    0     532970201612150002587210201000000004030100000000000000000000000221010000000000000000      60431000010CONTACT: DALE @ 651-329-1998       DELIVER 12/9/16                    0000055000000002 0092016120820161209MNN201612082   1000000                          1                                       
532998O EM20161208053020NORLOCK METAL PRODUCTS   0000NORLOCK METAL PRODUCTS        2651 ST.MARY'S AVENUE                                       OMAHA           NE  68105     8364      3" SPIRAL P210002      532998201612150004406010201000000004030100000000000000000000000241010000000000000000      60421000024*** THANKS FOR THE ORDER ***        WE APPRECIATE YOUR BUSINESS       0000000000096002 0032016120920161209NEN20161208X1613000000      DON                 2                                       
533016O EM20161208033550HARRIS COMPANIES         0228HARRIS COMPANIES              % GILLETTE CHILDRENS FAMILY E.200 UNIVERSITY AVE. E.        ST. PAUL         MN 55101-250771228     7600      P110000      533016201612150001069210201000000004030100000000000000000000000221010000000000000000      60431000010S/W SMC# 532665. DELIVER 12/12/16  CONTACT: JOSH @ 612-328-6038       0000000000000002 0032016120920161212MNN201612082   1000000                          1                           321664      
533039O EM20161208045150MAC ARTHUR COMPANY       0000MAC ARTHUR COMPANY            30 NORTH 43RD STREET WEST                                   DULUTH          MN  55807     2014569             C210104      533039201612150000216610201000000004030100000000000000000000000221010000000000000000      60421000024*** THANKS FOR THE ORDER ***        WE APPRECIATE YOUR BUSINESS       0000000000000002 0052016120920161212MNN201612081   3000000      SHANE               2            201612121247               
533043O EM20161208049828MIDWEST FABRICATION/SPPLY0044MIDWEST FABRICATION/SPPLY     % HCMC                        718 SOUTH 8TH ST              MINNEAPOLIS      MN 55414-134037033     9814      P1100000     533043201612150005107510201000000004030100000000000000000000000221010000000000000000      60431000010DELIVER 12/9/16. CONTACT:          DEB @ 612-430-5303                 0000000000060002 0102016120820161209MNN201612082   1000000                          1            201612081504   321663      
533065OCEM20161208030400GOEBEL FIXTURE COMPANY   0000GOEBEL FIXTURE COMPANY        528 DALE STREET                                             HUTCHINSON,     MN  55350     V/ KEN              PC100040     533065201612150000433510201000000004030100000000000000000000000221010000000000000000      60421000016*** THANKS FOR THE ORDER ***        WE APPRECIATE YOUR BUSINESS       0000000000007002 0022016121220161209MNN201612080   0000000      V/ KEN              2            201612091053               
533083O EM20161208045150MAC ARTHUR COMPANY       0000MAC ARTHUR COMPANY            30 NORTH 43RD STREET WEST                                   DULUTH          MN  55807     2014572             C210104      533083201612150000797010201000000004030100000000000000000000000221010000000000000000      60421000024*** THANKS FOR THE ORDER ***        WE APPRECIATE YOUR BUSINESS       0000000000000002 0032016120920161212MNN201612081   3000000      2014572             2            201612121248               
533085O SM20161209049250METROPOLITAN MECH CONTR. 4424METROPOLITAN MECH CONTR.      % U OF M BELL MUSEUM          2088 LARPENTEUR AVE W         ST.PAUL          MN 55113     ORDER 61  M4424     P11          533085201612150010564110201000000004030100000000000000000000000221010000000000000000      60431000008*** THANKS FOR THE ORDER ***        WE APPRECIATE YOUR BUSINESS       0000000000095002 0152016120920161212MNN201612092   1000000      ORDER 61            1            201612121007   166631      
533106O EM20161209064211SCHADEGG FABRICATORS,LLLP0000SCHADEGG FABRICATORS,LLLP     225 BRIDGEPOINT DRIVE                                       SOUTH ST.PAUL,  MN  55075     1420-22   FAB STOCK P110105      533106201612150002945010201000000004030100000000000000000000000221010000000000000000      60421000095SHIP VIA 3HR COURIER TO SHOP TODAY                                    0000000000035002I0032016120920161209MNN20161209X0331000000      1420-22             1            201612090858               
533146OCEM20161209034850HIMEC INC                0002HIMEC, INC.                   1400 7TH STREET N.W.          (NON-TAXABLE)                 ROCHESTER        MN 55901-173556256-02  7000      CC100040     533146201612150000936810201000000004030100000000000000000000000221010000000000000000      60421000010*** THANKS FOR THE ORDER ***        WE APPRECIATE YOUR BUSINESS       0000040000008002 0042016120920161209MNN201612090   0000000                          1            201612091200   CS6307      
533179O EM20161209047550MECHANICAL AIR SYSTEMS CO0000MECHANICAL AIR SYSTEMS CO     2417 SOUTH FEDERAL AVENUE                                   MASON CITY      IA  50401-673420784A              C110000      533179201612150001400010201000000004030100000000000000000000000201010000000000000000      60421000014JON 641-423-7032                                                      0000000000000002 0022016120920161212IAN20161209MDGT1000000      20784A              1            201612121117               
533200O EM20161209045150MAC ARTHUR COMPANY       0000MAC ARTHUR COMPANY            30 NORTH 43RD STREET WEST                                   DULUTH          MN  55807     2014703             C210104      533200201612150012702610201000000004030100000000000000000000000221010000000000000000      60421000024*** THANKS FOR THE ORDER ***        WE APPRECIATE YOUR BUSINESS       0000000000000002 0132016121220161212MNN201612091   3000000      2014703             2            201612121246               
527421O EM20161209066820SMITH HEATING, INC.      0001SMITH HEATING, INC.           911 TILE DRIVE                                              RED WING         MN 55066-1975CAPITAL   SAFETY    C110001      527421201612160004919210201000000004030100000000000000000000000221010000000000000000      60421000005*** THANKS FOR THE ORDER ***        WE APPRECIATE YOUR BUSINESS       0000042300000002 0152016121220161213MNN20161209X1091000000      TERRY               1            201612131140               
531921O EM20161201061750RIESTER REFRIGERATION INC0000RIESTER REFRIGERATION INC     503 BUSH STREET                                             RED WING,       MN  55066     HOWIE               P110001      531921201612160003079210201000000004030100000000000000000000000221010000000000000000      60421000017*** THANKS FOR THE ORDER ***        WE APPRECIATE YOUR BUSINESS       0000000000000002 0052016120720161209MNN201612011   1000000      HOWIE               1            201612091028001            
532568O EM20161202009120BENCK MECHANICAL INC.    0000BENCK MECHANICAL INC.         628 230TH AVENUE                                            SOMERSET,       WI  54025     6591      JX EVENT  P210002      532568201612160002633410201000000004030100000000000000000000000281010000000000000000      60421000017*** THANKS FOR THE ORDER ***        WE APPRECIATE YOUR BUSINESS       0000000000073002 0052016120620161212WIN20161202DOTH1000000      6591                2            201612121136               
532600O EM20161205009120BENCK MECHANICAL INC.    0000BENCK MECHANICAL INC.         628 230TH AVENUE                                            SOMERSET,       WI  54025     C6592     WBB RACK  P210002      532600201612160017559810201000000004030100000000000000000000000281010000000000000000      60421000017*** THANKS FOR THE ORDER ***        WE APPRECIATE YOUR BUSINESS       0000032800282002 0202016120720161209WIN20161205DOTH1000000      C6592               2            201612091318002            
532690O EM20161205055730PARSONS ELECTRIC         0000PARSONS ELECTRIC              5960 MAIN STREET N.E.                                       MINNEAPOLIS,    MN  55432     80000171            C110003      532690201612160008000010201000000004030100000000000000000000000221010000000000000000      60421000005CALL WHEN READY                    ANDY 612-860-1811                  0000000000000002 0022016120920161209MNN20161205WC  1000000      80000171            1            201612091157               
532781O EM20161206015600CHAPPELL CENTRAL INC     1321CHAPPELL CENTRAL INC          % L-38 WEST                   6270 WESTEDGE BLVD            MOUND            MN 55364-947376393     13213     P110021      532781201612160021358310201000000004030100000000000000000000000221010000000000000000      60431000008*** THANKS FOR THE ORDER ***        WE APPRECIATE YOUR BUSINESS       0000000000110002 0092016120920161213MNN201612062   1000000      76393               1            201612130652001            
532789O EM20161206047550MECHANICAL AIR SYSTEMS CO0000MECHANICAL AIR SYSTEMS CO     2417 SOUTH FEDERAL AVENUE                                   MASON CITY      IA  50401-673420784A              P110003      532789201612160060149610201000000004030100000000000000000000000201010000000000000000      60421000017JON 641-423-7032                                                      0000001200394002 0342016120720161209IAN20161206MDGT1000000      JONATHAN            1            201612091409               
532792O EM20161206006300ASDCO / DIV. OF JAMAR CO.0211ASDCO / DIV. OF JAMAR CO.     NORSHOR THEATRE BOILER        211 E SUPERIOR STREET         DULUTH           MN 55802-2117262842    H16001-301P110009      532792201612160010514010201000000004030100000000000000000000000221010000000000000000      60421000017SHIP ASAP                          SHIP FLANGES LOOSE NOT TACK WELD   0000000000058002 0022016120720161212MNN20161206X0141000000      262842              1            201612120908               
532803O EM20161206063750ST. CLOUD REFRIGERATION  1307ST. CLOUD REFRIGERATION       C/O HY-VEE                    1307 18TH AVE. N.W.           AUSTIN           MN 55912     1462      W16382    P110106      532803201612160016786310201000000004030100000000000000000000000221010000000000000000      60421000008*** THANKS FOR THE ORDER ***        WE APPRECIATE YOUR BUSINESS       0000194300147002 0282016120820161209MNN20161206MDGT1000000      1462                1            201612091356               
532837O EM20161207033680HARTS HEATING & REFRIG   0000HARTS HEATING & REFRIG        1105 CONOGA PARK DRIVE                                      MARSHALL        MN  56258-2564KEVIN     WESTERN   C110001      532837201612160028238010201000000004030100000000000000000000000221010000000000000000      60421000017KEVIN 507-532-7309                                                    0000000000000002 0192016121220161213MNN20161207C   1000000      KEVIN               2            201612131348006            
532876O EM20161207069620SUMMIT COMMERCIAL        1420SUMMIT COMMERCIAL             % GENTRY ACADEMY              1420 SOUNTY RD "E" EAST       VADNAIS HEIGHTS  MN 55110     EM/MIKE   GENTRY    P1100010     532876201612160030139410201000000004030100000000000000000000000221010000000000000000      60431000008DARREN 612-366-2038                                                   0000000000110002 0272016121220161213MNN201612072   1000000      MIKE                3            201612130823               
532910O EM20161207030295GLOBAL FINISHING SOLUTION0001GLOBAL FINISHING SOLUTION     12731 NORWAY ROAD                                           OSSEO            WI 54758     978441              C110005      532910201612160003066010201000000004030100000000000000000000000281010000000000000000      60421000008FEDEX GROUND # 10814668-0 COLLECT                                     0000000000000002 0032016120820161209WIN20161207X0351000000      978441              1            201612090809               
532914O EM20161208006860B & D PLUMBING & HTG. INC0855B & D PLUMBING & HTG. INC     % METRO MOLD                  6835 WINNETKA CIR             BROOKLYN PARK    MN 55428     59855     MMD       P1100040     532914201612160139766210201000000004030100000000000000000000000221010000000000000000      60431000010DELIVER 12/13/16 (AM) CONTACT:     OLE @ 612-328-7795                 0001854900160002 1712016120920161214MNN201612082   1000000                          1            201612131241026            
532954O EM20161208049828MIDWEST FABRICATION/SPPLY0000MIDWEST FABRICATION/SPPLY     500 22ND STREET                                             ZUMBROTA        MN  55992     321320    37033     C110006      532954201612160025746010201000000004030100000000000000000000000221010000000000000000      60421000010*** THANKS FOR THE ORDER ***        WE APPRECIATE YOUR BUSINESS       0000000000000002 0242016120820161208MNN201612081   1000000      321320              1                                       
532971O EM20161208009120BENCK MECHANICAL INC.    0000BENCK MECHANICAL INC.         628 230TH AVENUE                                            SOMERSET,       WI  54025     C6606     A FRAME   P210002      532971201612160000999410201000000004030100000000000000000000000281010000000000000000      60421000017*** THANKS FOR THE ORDER ***        WE APPRECIATE YOUR BUSINESS       0000026500009002 0092016121220161213WIN201612080   1000000      C6606               2            201612131000               
532975O EM20161208077600WALDINGER CORPORATION    0001WALDINGER CORPORATION                                       2601 BELL AVENUE              DES MOINES       IA 50321-11205348                P110014      532975201612160001741910201000000004030100000000000000000000000201010000000000000000      60421000095*** THANKS FOR THE ORDER ***        WE APPRECIATE YOUR BUSINESS       0000000000142002 0092016120920161213IAN20161208X1611000000      5348                1                                       
533008O EM20161208034850HIMEC INC                0232HIMEC INC                     % ST OLAF COLLEGE             1520 ST. OLAF AVENUE          NORTHFIELD       MN 55057 157456204     7600      P210102      533008201612160004176810201000000004030100000000000000000000000221010000000000000000      60421000010CONTACT: JON @ 507-581-0704                                           0000000000110002 0082016120920161209MNN20161208MDGT1000000                          1            201612091355   321669      
533013O EM20161208015600CHAPPELL CENTRAL INC     1321CHAPPELL CENTRAL INC          % L-38 WEST                   6270 WESTEDGE BLVD            MOUND            MN 55364-947376393     13213     P110021      533013201612160002739710201000000004030100000000000000000000000221010000000000000000      60431000008*** THANKS FOR THE ORDER ***        WE APPRECIATE YOUR BUSINESS       0000000000000002 0042016120920161213MNN201612082   1000000      76393               1                                       
533042O EM20161209079845LUKJAN METAL PRODUCTS    0000LUKJAN METAL PRODUCTS            MIDWEST, INC.21            780 RIVER AVENUE              PRAIRIE FARM    WI  54762-9707V/HERB              C110002      533042201612160021347510201000000004030100000000000000000000000221010000000000000000      60421000008*** THANKS FOR THE ORDER ***        WE APPRECIATE YOUR BUSINESS       0000000000000002 0062016121220161213MNN201612091   1000000      HERB                1            201612130709               
533044O EM20161208029350GEMINI INCORPORATED      0005GEMINI INCORPORATED           % IOWA CAST LETTERS           101 WOMAC WAY                 DECORAH          IA 52101-7304253729              P110009      533044201612160002320010201000000004030100000000000000000000000201010000000000000000      60421000085*** THANKS FOR THE ORDER ***        WE APPRECIATE YOUR BUSINESS       0000007500092002 0092016121220161213IAN20161208X1611000000      253729              1                                       
533049O EM20161209075600U OF M / PPO SHT MTL INV 0002SHEET METAL SHOP              DOCK 9                        1936 COMMONWEALTH AVE         ST PAUL          MN 55108-104516465500  CIVIL     P110012      533049201612160004100910201000000004030100000000000000000000000221010000000000000000      60431000005*** THANKS FOR THE ORDER ***        WE APPRECIATE YOUR BUSINESS       0000076400000002 0170012121620161214MNN201612092   1000000      KEITH               1                        001            
533055O EM20161209075600U OF M / PPO SHT MTL INV 0002SHEET METAL SHOP              DOCK 9                        1936 COMMONWEALTH AVE         ST PAUL          MN 55108-104516465501  STOCK     P110012      533055201612160006994810201000000004030100000000000000000000000221010000000000000000      60431000005*** THANKS FOR THE ORDER ***        WE APPRECIATE YOUR BUSINESS       0000191400095002 0072016121220161214MNN201612092   1000000      KEITH               1            201612140846               
533088O EM20161209049828MIDWEST FABRICATION/SPPLY0000MIDWEST FABRICATION/SPPLY     500 22ND STREET                                             ZUMBROTA        MN  55992     321331              C110006      533088201612160014037410201000000004030100000000000000000000000221010000000000000000      60421000010*** THANKS FOR THE ORDER ***        WE APPRECIATE YOUR BUSINESS       0000004500000002 0122016120920161212MNN201612091   1000000      321331              1                                       
533110O EM20161209050465MILWAUKEE INSULATION CO. 0005INSULATION PLUS               3272 AIRPORT ROAD                                           LA CROSSE        WI 54603-12532014614   ALUM      P210013      533110201612160001998910201000000004030100000000000000000000000281010000000000000000      60421000024HOT, PLEASE SHIP 12/12                                                0000000000059002 0062016120920161212WIN20161209MDGT3000000      JAYSON              1            201612121156               
533128O EM20161209077600WALDINGER CORPORATION    0800WALDINGER CORPORATION         % BIO FILL                    800 5TH STREET NORTHWEST      FORT DODGE       IA 50501-74257331      ACCESS D. P110014      533128201612160000250510201000000004030100000000000000000000000201010000000000000000      60421000095*** THANKS FOR THE ORDER ***        WE APPRECIATE YOUR BUSINESS       0000019300006002 0022016120920161209IAN201612090   1000000      7331                1            201612091024               
533139O EM20161209063750ST. CLOUD REFRIGERATION  0005SRC NORTHERN                  7674 COLLEGE ROAD             SUITE 115                     BAXTER           MN 56425     KR6190-902          P110000      533139201612160000550010201000000004030100000000000000000000000221010000000000000000      60421000005*** THANKS FOR THE ORDER ***        WE APPRECIATE YOUR BUSINESS       0000038000006002 0022016120920161209MNN201612090   1000000      KR6190-902          1            201612091154               
533143O SM20161209049250METROPOLITAN MECH CONTR. 3928METROPOLITAN MECH CONTR.      % FAIRVIEW SOUTHDALE          6401 FRANCE AVE SO.           EDINA            MN 55435     166663    M4459     P11          533143201612160009474810201000000004030100000000000000000000000221010000000000000000      60431000008*** THANKS FOR THE ORDER ***        WE APPRECIATE YOUR BUSINESS       0000000000050002 0172016121220161213MNN201612092   1000000      STEVE T             1            201612121504               
533145O EM20161209078450WEIDNER SHEET METAL      0001WEIDNER SHEET METAL           29 WILSON AVENUE NE                                         ST CLOUD         MN 56304-0441PM528637  YMCA      C110000      533145201612160003209410201000000004030100000000000000000000000221010000000000000000      60421000005*** THANKS FOR THE ORDER ***        WE APPRECIATE YOUR BUSINESS       0000000000000002 0102016121220161214MNN20161209SCGN1000000      PM528637            1                                       
533165O EM20161209006300ASDCO / DIV. OF JAMAR CO.4190ASDCO / DIV. OF JAMAR CO.     % MILLER CREEK CLINIC         4190 LOBERG AVE               HERMANTOWN       MN 55811-2652994926    H16008-300P110004      533165201612160000557210201000000004030100000000000000000000000221010000000000000000      60421000017SHIP TODAY                                                            0000000000008002 0052016120920161209MNN201612090   1000000      994926              1            201612091228               
533167O EM20161209000250ACI MECHANICAL, INC.     1800ACI MECHANICAL, INC.          % WWTP                        1800 E 13TH STREET            AMES             IA 50010     59149     AWTP      P1100040     533167201612160002145010201000000004030100000000000000000000000201010000000000000000      60421000008*** THANKS FOR THE ORDER ***        WE APPRECIATE YOUR BUSINESS       0000165000009002 0022016120920161209IAN201612090   1000000      59149               1            201612091218               
533172O EM20161209030550GOODIN COMPANY           0105GOODIN COMPANY                % DONNELY PLASTICS            105 DONOVAN DR                ALEXANDRIA       MN 56308     1607479-00          C1101080     533172201612160004935610201000000004030100000000000000000000000221010000000000000000      60421000095BEN 320-763-5566                                                      0000015000000002 0122016121220161213MNN20161209X0001000000      BEN P.              1            201612131244               
533181O EM20161209053130NORTH CENTRAL FABRICATORS0000NORTH CENTRAL FABRICATORS     40800 HWY 65 N.E.                                           BRAHAM          MN  55006-331812/9/16             C110101      533181201612160003881610201000000004030100000000000000000000000221010000000000000000      60421000016*** THANKS FOR THE ORDER ***        WE APPRECIATE YOUR BUSINESS       0000000000000002 0082016121220161212MNN20161209WC  1000000      12/9/16             3            201612121100               
533194O EM20161209061750RIESTER REFRIGERATION INC0000RIESTER REFRIGERATION INC     503 BUSH STREET                                             RED WING,       MN  55066     STOCK               P110000      533194201612160001480010201000000004030100000000000000000000000221010000000000000000      60421000017*** THANKS FOR THE ORDER ***        WE APPRECIATE YOUR BUSINESS       0000060000022002 0052016121220161212MNN201612090   1000000      STOCK               1            201612120817               
533204O EM20161209030230GLASS AGGREGATE MFG EQUIP0001GLASS AGGREGATE MFG EQUIP     1100 CANNON CIRCLE                                          FARIBAULT        MN 55021     4882      SHOP      C210001      533204201612160001248010201000000004030100000000000000000000000221010000000000000000      60421000017*** THANKS FOR THE ORDER ***        WE APPRECIATE YOUR BUSINESS       0000092400000002 0022016121220161213MNN20161209MDGT1000000      4882                1            201612131125               
533205O EM20161212052030NASSEFF MECHANICAL CONTRS0000NASSEFF MECHANICAL CONTRS     122 SOUTH WABASHA STREET      SUITE 101                     ST. PAUL,       MN  55107     116772    ECOLAB    C110003      533205201612160002271110201000000004030100000000000000000000000221010000000000000000      60421000010NEEDS TO PICK-UP TODAY 12/12       CONTACT: MIKE @ 651-755-4721       0000035000000002 0092016121220161212MNN201612121   1000000      116772              2            201612121100               
533214O EM20161213075600U OF M / PPO SHT MTL INV 0002SHEET METAL SHOP              DOCK 9                        1936 COMMONWEALTH AVE         ST PAUL          MN 55108-104516465603  FOOD OPS  P110012      533214201612160002040010201000000004030100000000000000000000000221010000000000000000      60431000005*** THANKS FOR THE ORDER ***        WE APPRECIATE YOUR BUSINESS       0000000000000002 0062016121520161214MNN201612132   1000000      ANDREW              1                                       
533220O EM20161212012050BROGAN HEATING & A/C     0002BROGAN HEATING & A/C          MAYO PROJECT (NON-TAXABLE)    5315 COUNTRY CLUB ROAD        ROCHESTER        MN 55902     1619/1622 MAYO      C110001      533220201612160003350010201000000004030100000000000000000000000221010000000000000000      604210000951481532546                                                            0000000000000002I0032016121220161213MNN20161212MDGT1000000      1619/1622           1            201612131247               
533232O NF20161212033550HARRIS COMPANIES         0228HARRIS COMPANIES              % GILLETTE CHILDRENS FAMILY E.200 UNIVERSITY AVE. E.        ST. PAUL         MN 55101-250771227     7000      P110032      533232201612160003647010201000000004030100000000000000000000000221010000000000000000      60431000010DELIVER 12/14/16. CONTACT:         JOSH @ 612-328-6038                0000000000060002 0082016121320161214MNN201612122   1000000                          1            201612140835   321952      
533253O EM20161212046930MARICK INC.              0000MARICK INC.                   138 JEFFERSON                                               DES MOINES,     IA  50314     16-73093            P110000      533253201612160004359010201000000004030100000000000000000000000201010000000000000000      60421000017*** THANKS FOR THE ORDER ***        WE APPRECIATE YOUR BUSINESS       0000000000047002 0062016121320161214IAN201612120   1000000      16-73093            1            201612141200               
533254O EM20161212078450WEIDNER SHEET METAL      0001WEIDNER SHEET METAL           29 WILSON AVENUE NE                                         ST CLOUD         MN 56304-0441PM528643  YMCA      C110000      533254201612160000420010201000000004030100000000000000000000000221010000000000000000      60421000005SHIP WITH INV# 533145                                                 0000000000000002 0022016121220161214MNN20161212SCGN1000000      PM528643            1                                       
533256O EM20161212052120NAYLOR HTG & REFRIG. LLC 0000NAYLOR HTG & REFRIG. LLC      172 SPIRIT AVENUE NW                                        BEMIDJI         MN  56601-567452303               P110004      533256201612160000498010201000000004030100000000000000000000000221010000000000000000      60421000017*** THANKS FOR THE ORDER ***        WE APPRECIATE YOUR BUSINESS       0000038400008002 0022016121220161212MNN201612120   1000000      52303               1            201612121252               
533287O EM20161212015600CHAPPELL CENTRAL INC     0001CHAPPELL CENTRAL INC          1950 TROTT AVENUE S.W.        DOOR 3                        WILLMAR          MN 56201     77375     14688     C1100110     533287201612160015547310201000000004030100000000000000000000000221010000000000000000      60421000098** HOT HOT ** NEEDS BY WED 12/14   CALL WHEN READY. JIM 320-212-9725  0000000000000002 0092016121320161213MNN20161212C   1000000      77375               2            201612131344001            
533290O NF20161213033550HARRIS COMPANIES         0033HENNEPIN HEALTHCARE SYSTEM INCC/O M.A.MORTENSON #14030054   718 S. 8TH STREET             MINNEAPOLIS      MN 55415-1340322038    71202     P110029      533290201612160028725010201000000004030100000000000000000000000221010000000000000000      60431000010DELIVER 12/14/16. CONTACT:         TIM @ 612-328-1640                 0001215000060002 0032016121320161214MNN201612132   1000000                          1            201612131250               
533336OCEM20161213034850HIMEC INC                0002HIMEC, INC.                   1400 7TH STREET N.W.          (NON-TAXABLE)                 ROCHESTER        MN 55901-173556222-59  7000      CC100040     533336201612160000492010201000000004030100000000000000000000000221010000000000000000      60421000010*** THANKS FOR THE ORDER ***        WE APPRECIATE YOUR BUSINESS       0000015600006002 0032016121320161213MNN201612130   0000000                          1            201612130929   CS6317      
533340O EM20161213052030NASSEFF MECHANICAL CONTRS0150NASSEFF MECHANICAL SHOP       150 EATON STREET                                            SAINT PAUL       MN 55107-1680UNITED    HYBRID    C110003      533340201612160002736810201000000004030100000000000000000000000221010000000000000000      60421000010CONTACT: MIKE @ 651-755-4721                                          0000000000025002 0022016121320161214MNN20161213X0331000000      UNITED              2            201612140901   110482      
533359O SM20161213049250METROPOLITAN MECH CONTR. 4433METROPOLITAN MECH CONTR.      % CENTRA CARE                 25101 MN HWY 27               LONG PRAIRE      MN 56347-1404166892    M4433     P11          533359201612160006912510201000000004030100000000000000000000000221010000000000000000      60421000008*** THANKS FOR THE ORDER ***        WE APPRECIATE YOUR BUSINESS       0000000000220002 0062016121320161213MNN20161213X0331000000      BRENT               1            201612131109               
533378O EM20161213000250ACI MECHANICAL, INC.     0001ACI MECHANICAL, INC.          212 INDUSTRIAL PARK RD                                      STORY CITY       IA 50248-190259466     BASF      P110004      533378201612160000697410201000000004030100000000000000000000000201010000000000000000      60421000008*** THANKS FOR THE ORDER ***        WE APPRECIATE YOUR BUSINESS       0000041600009002 0042016121320161213IAN201612130   1000000      59466               1            201612131214               
533381O EM20161213043192LEGEND MECHANICAL        0000LEGEND MECHANICAL             12467 BOONE AVENUE            SUITE 1                       SAVAGE,         MN  55378     2716002M  CENTRACAREC110005      533381201612160005005810201000000004030100000000000000000000000221010000000000000000      60421000010DRIVER ON HIS WAY. PLEASE PACK ASAPCONTACT: BRAD @ 612-432-5276       0000000000000002 0142016121320161213MNN201612131   1000000      2716002M            1            201612131154   30901       
533396OCEM20161213034850HIMEC INC                0002HIMEC, INC.                   1400 7TH STREET N.W.          (NON-TAXABLE)                 ROCHESTER        MN 55901-173556230-07  7000      CC100000     533396201612160000426010201000000004030100000000000000000000000221010000000000000000      60421000010*** THANKS FOR THE ORDER ***        WE APPRECIATE YOUR BUSINESS       0000032700006002 0022016121320161213MNN201612130   0000000                          1            201612131429   CS6320      
