642102TOTAL INSULATION INC     13419 FENWAY BLVD N.     #102                 HUGO           MN55038     651488447605MNEM0000000000170822170822                                                                                                                        
555555SHEET METAL CONNECTORS   NON CUSTOMER CREDIT APP  5850 MAIN STREET N.E.MINNEAPOLIS    MN55432     000000000006MNEM0000000000091111001111                                                                                                                        
999000FREIGHT CLAIMS           SHEET METAL CONNECTORS   5850 MAIN STREET NE  MINNEAPOLIS    MN55432-5439000000000006  JR0000248336020729180729                                                                                                                        
638801THE LAPORTE SCHOOL           ISD #306             315 MAIN STREET WEST LAPORTE        MN56461     218224228809MNEM0000000000160829160829                                                                                                                        
642100MARSHFIELD CLINIC        C/O SCHADEGG MECHANICAL  225 BRIDGEPOINT DRIVESOUTH ST.PAUL, MN55075     715389312318MNEM0000000000100209100209                                                                                                                        
340501HAYES MECHANICAL         5400 NATHAN LANE N       SUITE 130            PLYMOUTH       MN55442     763568708621MNEM0000000000170410170410                                                                                                                        
642101TAITNEZ CONSTRUCTION     225 BRIDGEPOINT DRIVE                         SO. ST. PAUL   MN55075     651955650122MNEM0000000000140925140925                                                                                                                        
387005BOLDT PROCUREMENT, LLC   ATTN: ACCOUNTS PAYABLE   1001 TALL PINE LANE  CLOQUET        MN55720-0287715682300224MNEM0000000000150928150928                                                                                                                        
