                                                                                                                                                                                                                                           YN1020100Y4030100Y4030100Y2200100Y60421004006100     000010003700038011
060228420060228000515AMS/PREFERRED METAL TECH           000000721020100                                                                    000001060228               4006100                                                        00000072                                                                     
060228420060228001520ADVANCED ENERGY MGMNT INC          000001991020100                                                                          060228               4006100                                                        00000199                                                                     
060228420060228001820AGAPE HEATING & AIR COND           000010891020100                                                                          060228               4006100                                                        00001089                                                                     
060228420060228003650AIR TEMP SERVICES INC              000243221020100                                                                          060228               4006100                                                        00024322                                                                     
060228420060228004700ALLIANCE AIR CONDITIONING          000016471020100                                                                          060228               4006100                                                        00001647                                                                     
060228420060228004740ALLIANT MECHANICAL INC.            000246851020100             000000000000000000000   001920019200201001             000247060228               4006100                                                        00024685                                                                     
060228420060228005230AMERICAN BLOWER SUPPLY             000076301020100                                                                    000000060228               4006100                                                        00007630                                                                     
000000420060228006046000000                             000000011020100                                                                          060228               4006100                                                        00000001                                                                     
060228420060228017905CONSOLIDATED MECH CONTR.           000061511020100                                                                          060228               4006100                                                        00006151                                                                     
060228420060228017950CONSTRUCTION MECHANICAL            000076801020100                                                                          060228               4006100                                                        00007680                                                                     
060228420060228019300CUSTOM CANOPY                      000101251020100                                                                          060228               4006100                                                        00010125                                                                     
000000420060228024450000000                             000000091020100                                                                          060228               4006100                                                        00000009                                                                     
000000420060228026926000000                             000000601020100                                                                          060228               4006100                                                        00000060                                                                     
060228420060228027870FOREMOST MECHANICAL CORP.          000124831020100                                                                          060228               4006100                                                        00012483                                                                     
060228420060228027990FORTE MECHANICAL                   000137271020100                                                                          060228               4006100                                                        00013727                                                                     
000000420060228028247000000                             000000091020100                                                                          060228               4006100                                                        00000009                                                                     
060228420060228031470JOHN E. GREEN COMPANY              000008781020100                                                                          060228               4006100                                                        00000878                                                                     
060228420060228036650ILLINGWORTH CORPORATION            000005801020100                                                                          060228               4006100                                                        00000580                                                                     
060228420060228040720KLEMETSRUD'S PLBG & HTG            000030361020100                                                                          060228               4006100                                                        00003036                                                                     
060228420060228042490LANDON HVAC, INC.                  000038471020100                                                                          060228               4006100                                                        00003847                                                                     
000000420060228045950000000                             000000041020100                                                                          060228               4006100                                                        00000004                                                                     
060228420060228046620MANDELL-VASQUEZ INC.               000001511020100                                                                          060228               4006100                                                        00000151                                                                     
000000420060228048380000000                             000178391020100                                                                          060228               4006100                                                        00017839                                                                     
000000420060228048750000000                             000000011020100                                                                          060228               4006100                                                        00000001                                                                     
000000420060228052080000000                             000005531020100                                                                          060228               4006100                                                        00000553                                                                     
060228420060228053600NORTHWEST SHEETMETAL CO.           000028911020100                                                                          060228               4006100                                                        00002891                                                                     
060228420060228053800A.G. O'BRIEN PLBG. & HTG.          000001011020100                                                                          060228               4006100                                                        00000101                                                                     
000000420060228054270000000                             000000011020100                                                                          060228               4006100                                                        00000001                                                                     
060228420060228055070PGI COMPANIES INC.                 000058131020100                                                                          060228               4006100                                                        00005813                                                                     
060228420060228058709PROFILE POWDER COATING             000000861020100                                                                          060228               4006100                                                        00000086                                                                     
000000420060228061260000000                             000000011020100                                                                          060228               4006100                                                        00000001                                                                     
060228420060228065252SERVICE PRO'S HTG & CLG            000006331020100                                                                          060228               4006100                                                        00000633                                                                     
060228420060228065690SHEET METAL ENGINEERING            000125341020100                                                                          060228               4006100                                                        00012534                                                                     
000000420060228068700000000                             000000021020100                                                                          060228               4006100                                                        00000002                                                                     
060228420060228077125WD MECHANICAL, INC.                000003961020100                                                                          060228               4006100                                                        00000396                                                                     
060228420060228079600W.A. WHITNEY COMPANY               000035201020100                                                                          060228               4006100                                                        00003520                                                                     
]]]]]]]]]]]]]]]]]]]]]]]]]]]]]]]]]]]]]]]]]]]]]]]]]]]]]]]]]]]]]]]]]]]]]]]]]]]]]]]]]]]]]]]]]]]]]]]]]]]]]]]]]]]]]]]]]]]]]]]]]]]]]]]]]]]]]]]]]]]]]]]]]]]]]]]]]]]]]]]]]]]]]]]]]]]]]]]]]]]]]]]]]]]]]]]]]]]]]]]]]]]]]]]]]]]]]]]]]]]]]]]]]]]]]]]]]]]]]]]]]]]]]]]]]]]]]]]]]]]]]]]]]]]]]]]]]]]]]]]]]]]]]]]]]]]]]]]]]]]]]]]]]]
