02000700ABEL / B & C. INC.       5941402003033100025075000000000000000000000
02002100AIR CONDITIONING ASSOC   5940722003033100005400000000000000000000000
02005200AMBER MECHANICAL CONTR.  5942842003033100013760000000000000000006300
02025400ENVIRON-CON INC.         5942832003033100010800000000000000000000700
02026070EXCEL MECHANICAL CO. INC.5941012003033100011585000000000000000000000
02031370GREAT WEST MECHANICAL INC5942322003033100008625000026250000000004500
02046520MAJOR MECHANICAL INC.    5939782003033100026935000000000000000005500
02049250METROPOLITAN MECH. CO    5941592003033100104375000000000000000006500
02052600NEW MECH COMPANIES INC.  5941692003033100228300000000000000000008500
02052600NEW MECH COMPANIES INC.  5942402003033100045855000165000000000000000
02055058PBE SPECIALIST, LLC      5924612003033100096000000000000000000000000
02058570PRITCHARD BROTHERS INC   5943682003033100008480000000000000000000000
02069947SUPERIOR MECH SYSTEMS INC5941722003033100026780000000000000000000000
02079800WIESKE HEATING & A/C     5942112003033100005070000010750000000000600
02081050YOUNG PLUMBING & HEATING 5942412003033100017540000000000000000001600
05002400AIR CORP                 5940212003033100007735000000000000000000000
05014900CENTRAL IOWA HEATING     5942072003033100072750000000000000000002700
05019010CROWN HEATING & COOLING  5941312003033100004000000000000000000002500
05045600MC DOWALL COMPANY        5939562003033100051300000000000000000006500
05045600MC DOWALL COMPANY        5941512003033100013235000000000000000000000
05054600OSCEOLA PLUMBING & HTG   593778200303310002030p000000000000000000000
05054600OSCEOLA PLUMBING & HTG   5939542003033100015355000007900000000000000
05054600OSCEOLA PLUMBING & HTG   5940512003033100000000000000000000000000000
05060200RAINVILLE-CARLSON INC.   5940742003033100022660000135140000000000000
05064210SCHADEGG MECHANICAL      5937352003033100244675000000000000000007500
05064900SCHWICKERT COMPANY       5941672003033100038830000000000000000002300
05075100UNITED SHEET METAL       5942372003033100063865000000000000000000000
05078750WENZEL HEATING           5939042003033100134007000000000000000007500
05078750WENZEL HEATING           5941892003033100004347000000000000000000000
08000700ABEL / B & C. INC.       5939082003033100522961000000000000000008500
08002980AIR MAC DISTRIBUTING CORP5942852003033100032900000000000000000006500
08018590COUNTRYSIDE HEATING &    5943422003033100089385000000000000000000000
08019808D & E HEATING & AIR COND.5940132003033100085260000000000000000000000
08026540THE FARFIELD COMPANY     5941842003033100016200000000000000000009400
08027750FORE MECHANICAL INC.     5938792003033100094862000116440000000005500
08029600GENERAL S/M COMPANY, LLC 5933432003033100142640000000000000000000000
08029600GENERAL S/M COMPANY, LLC 5934202003033100043870000000000000000000000
08029600GENERAL S/M COMPANY, LLC 5936742003033100431180000000000000000012000
08029600GENERAL S/M COMPANY, LLC 5941752003033100005955000000000000000003500
08029600GENERAL S/M COMPANY, LLC 5941782003033100018945000000000000000005500
08029600GENERAL S/M COMPANY, LLC 5942652003033100042300000000000000000005500
08035880HORNBUCKLE HEATING CO.   5942442003033100094420000000000000000000000
08036900INDOOR COMFORT SYSTEMS   5935782003033100169010000000000000000000000
08038200JERRY'S SHTMTL HTG COOL  5936842003033100322279000000000000000027300
08040500KLASSEN MECHANICAL INC   5938572003033100253055000000000000000027000
08049250METROPOLITAN MECH. CO    5942162003033100001315000000000000000000000
08080850YALE INC.                5940252003033100032974000000000000000006000
09054600OSCEOLA PLUMBING & HTG   5862092003033100160505000000000000000009000
10000010MISCELLANEOUS CASH ACCT. 5942092003033100003750000021250000000002000
10006100ARNESON INC              5942232003033100003000000000000000000001900
10009950BISBEE PLBG & HTG CO     5942802003033100107200000000000000000000000
10024450ELLINGSON PLUMBING & HTG.5941262003033100048304000117580000000000700
10024450ELLINGSON PLUMBING & HTG.5941602003033100010400000021260000000000700
10026140EXTREMA MACHINERY CO.    5942592003033100009800000000000000000008400
10037040INDUSTRIAL REFRIGERATION 5936832003033100354290000116440000000042500
10049250METROPOLITAN MECH. CO    5940882003033100022425000000000000000006500
10049250METROPOLITAN MECH. CO    5942362003033100002700000000000000000002500
10049250METROPOLITAN MECH. CO    5943452003033100006620000000000000000000000
10073150TONNA HEATING & COOLING  5942202003033100103660000000000000000000000
10075100UNITED SHEET METAL       5932502003033100146510000073970000000000000
10075100UNITED SHEET METAL       5943312003033100029670000000000000000000000
10077550WALDINGER CORPORATION    5939872003033100253000000000000000000024900
10079220WESTERN ENGR. & SUPPLY CO5940552003033100075882000000000000000000000
14002400AIR CORP                 5942132003033100010465000000000000000000000
14017630COMMERCIAL PLBG. & HTG.  5941522003033100110860000000000000000000000
14053300NORTHERN AIR CORPORATION 5943492003033100000860000000000000000000000
14078650WENCL SERVICES INC.      5943462003033100009490000000000000000000000
16004900ALLIED MECHANICAL SYSTEMS5941462003033100046265000000000000000007200
16008600BEATRICE MECH SERV INC   5941122003033100209809000000000000000020900
16011580BREDAN MECHANICAL SYSTEMS5939282003033100144314000000000000000015500
16014250C.O. CARLSON CO.         5941622003033100090608000000000000000000000
16014250C.O. CARLSON CO.         5941642003033100036475000189500000000000000
16016380CLIMATE RIVER VALLEY     5938142003033100469245000000000000000000000
16034390HERCULES INDUSTRIES      5941772003033100004020000000000000000000000
16034390HERCULES INDUSTRIES      5942582003033100007250000000000000000001200
16036800INDIANA SUPPLY CORP.     5941152003033100029737000000000000000007300
16036800INDIANA SUPPLY CORP.     5942382003033100027897000000000000000000000
16036800INDIANA SUPPLY CORP.     5943542003033100001320000000000000000000600
16036900INDOOR COMFORT SYSTEMS   5940842003033100005000000000000000000000000
16037360IOWA THIN FILM TECHNOLOGY5941382003033100051485000035000000000013900
16062150ROBINSON METAL INC       5942972003033100018000000000000000000000700
16078750WENZEL HEATING           5942612003033100001930000000000000000000000
17017630COMMERCIAL PLBG. & HTG.  5940632003033100017750000000000000000004000
17017630COMMERCIAL PLBG. & HTG.  5942822003033100012000000000000000000000000
17019200CUNNINGHAM HTG & VENT INC5942732003033100083000000485000000000018700
17019855D & S SHEETMETAL INC.    5942752003033100002910000000000000000000600
17033550HARRIS COMPANIES         5941272003033100011330000027600000000004500
17033550HARRIS COMPANIES         5942332003033100015300000000000000000000000
17037040INDUSTRIAL REFRIGERATION 5942792003033100007885000000000000000000000
17038250JIM & DUDE'S PLBG. & HTG.5938512003033100444681000000000000000018500
17044070LOESCHER HEATING & A/C   5942742003033100022100000000000000000000000
17050950MODERN HEATING & AIR COND5943002003033100030900000183500000000000000
17055800PATTERSON COMPANY        5942722003033100041800000000000000000004300
17056750MARTIN PETERSEN CO. INC. 5942242003033100025300000000000000000000000
17056800PETERSON MECHANICAL      5940812003033100074750000000000000000000000
17061090RELIANT ENERGY MINNEGASCO5939372003033100006000000000000000000003500
17064210SCHADEGG MECHANICAL      5940442003033100039690000000000000000000000
17065100SELID PLBG. & HTG. INC.  5936722003033100713320000000000000000000000
17078750WENZEL HEATING           5942772003033100015560000000000000000000000
