884125O 9920120710999000FREIGHT CLAIMS           3025DAMCO DISTRIBUTION            ATTN: PAE DJIBOUTI PROJECT    3025 GUM COURT                CHESAPEAKE       VA 23321     NEI-1814702508178   P31          88412520121211000262751020100000000403010000000000000000000000019991000000000000000001086360421000020*PD W/CK FROM C.H.ROBINSON*                                           00000440       2 0012012071020120718VA 20120710X1610000000881841NEI-181470          1                                       
886890O FX20121130053020NORLOCK METAL PRODUCTS   0000NORLOCK METAL PRODUCTS        2651 ST.MARY'S AVENUE                                       OMAHA           NE  68105     4405                P21                        000189731020100000000403010000000000000000000000024101000000000000000000500060421000022*** THANKS FOR THE ORDER ***        WE APPRECIATE YOUR BUSINESS       00000000       1 0032012120320121203NEN201211303   3000000      DON                 1            201212030910               
894125O FX20121101011895BROCK AIR PRODUCTS, INC. 0001BROCK AIR PRODUCTS, INC.      6 STATE ROUTE 202                                           TROY             OH 45373     SB-12-212 STOCK     P21          89412520121211002844271020100000000403010000000000000000000000019991000000000000000002850060421000022*** THANKS FOR THE ORDER ***        WE APPRECIATE YOUR BUSINESS       00000000       2 0012012110220121205OH 20121101X1613000000      SB-12-212           2                                       
894278O 9920121102999000FREIGHT CLAIMS           0952ADVANCED MECHANICAL INC       % ARDIO TRUCK CENTER          952 35TH STREET EAST          DICKENSON        ND 58601     HTO1205   DAMAGE    P31          89427820121211000240401020100000000403010000000000000000000000019991000000000000000000000060421000020*PD W/CK FROM MME #148825*                                            00000000       2 0072012110220121105ND 20121102X0050000000893285HTO1205             1            201211051504               
894865O FX20121112011895BROCK AIR PRODUCTS, INC. 0000BROCK AIR PRODUCTS, INC.      6 STATE ROUTE 202                                           TROY             OH 45373     MB-12-1379          P21          89486520121211000754001020100000000403010000000000000000000000019991000000000000000000000060421000022*** THANKS FOR THE ORDER ***        WE APPRECIATE YOUR BUSINESS       00000000       2 0012012111520121205OH 20121112X1613000000      TODD                2                                       
895932OC9920121130000010MISCELLANEOUS CASH ACCT. 0000BELLWOOD OAKS PUBLIC GOLF     13239 210TH STREET EAST                                     HASTINGS        MN  55033     V-DAN               C52          89593220121211001009091020100000000403010000069370000253000000022001002200050000000000000060421000015*** PD W/CK #28222 - THANK YOU! ***                                   00000544       2 0042012120320121205MNT201211301   0000000      DAN                 2            201212051037               
896068O FX20121127045200MAC ARTHUR COMPANY       0000MAC ARTHUR COMPANY            3001 NORTH 1ST AVENUE                                       SIOUX FALLS,    SD  57104     37216               C21                        000092001020100000000403010000000000000000000000026101000000000000000000000060421000022*** THANKS FOR THE ORDER ***        WE APPRECIATE YOUR BUSINESS       00000000       1 0012012120620121206SDN20121127WC  3000000      37216               1            201212061028               
896070O FX20121127045200MAC ARTHUR COMPANY       0000MAC ARTHUR COMPANY            3001 NORTH 1ST AVENUE                                       SIOUX FALLS,    SD  57104     37217               C21                        001041821020100000000403010000000000000000000000026101000000000000000000000060421000022*** THANKS FOR THE ORDER ***        WE APPRECIATE YOUR BUSINESS       00000000       1 0012012120620121206SDN20121127WC  3000000      37217               1            201212061028               
896080O FX20121127045200MAC ARTHUR COMPANY       0000MAC ARTHUR COMPANY            3001 NORTH 1ST AVENUE                                       SIOUX FALLS,    SD  57104     37232               C21                        000059001020100000000403010000000000000000000000026101000000000000000000000060421000022*** THANKS FOR THE ORDER ***        WE APPRECIATE YOUR BUSINESS       00000000       1 0012012120620121206SDN20121127WC  3000000      37232               1            201212061028               
896151OC9920121127000010MISCELLANEOUS CASH ACCT. 0000MC DONALD AIR & S/M           2730 EUNICE AVE                                             ORLANDO         FL  32808     V MATT    COKE      PC1          89615120121211000229201020100000000403010000000000000000000000019991000000000000000000200060421000008*** THANKS FOR THE ORDER ***        WE APPRECIATE YOUR BUSINESS       00001692       2 0012012112820121204FL 201211274   0000000      V MATT              2            201212041301               
896202O FX20121128037300INTERSTATE MECH CORP     0001INTERSTATE MECH CORP                                        418 IOWA STREET               SIOUX CITY       IA 51101     SHOP      MATERIALS P11001                     001345201020100000000403010000000000000000000000020101000000000000000002070060421000024*** THANKS FOR THE ORDER ***        WE APPRECIATE YOUR BUSINESS       0000150p       1I0052012112820121206IAN20121128X1931000000      SHOP                1            201212061709               
896296O FX20121128045200MAC ARTHUR COMPANY       0000MAC ARTHUR COMPANY            3001 NORTH 1ST AVENUE                                       SIOUX FALLS,    SD  57104     37291     STOCK     C21                        000115001020100000000403010000000000000000000000026101000000000000000000000060421000022*** THANKS FOR THE ORDER ***        WE APPRECIATE YOUR BUSINESS       00000000       1 0012012120620121206SDN20121128WC  3000000      37291               1            201212061028               
896339O FX20121129076300VEMCO INC                0353FOUR SEASONS                  C/O RML 13B                   353 WINTERS LANE              STEVENSVILLE     MT 59870     45447     SO#655865 P21                        000255311020100000000403010000000000000000000000019991000000000000000000400060421000022*** THANKS FOR THE ORDER ***        WE APPRECIATE YOUR BUSINESS       00000000       1 0012012123020121203MT 201211294   3000000      45447               1            201212030941               
896376OC9920121130000010MISCELLANEOUS CASH ACCT. 0000THE MIKEOLOGY STORE                                                                                       MN  55414     V-MIKE              CC2          89637620121211000168851020100000000403010000011610000042000000022001002200050000000000000060421000015MIKE 763-350-4811                                                     00000110       2 0012012120320121203MNT201211301   0000000      MIKE                2            201212051150               
896403O JR20121129046120MC MASTER-CARR SUPPLY CO.0001MC MASTER-CARR SUPPLY COMPANY 600 COUNTY LINE ROAD                                        ELMHURST,        IL 60126-2081DO29893400          C21                        000252251020100000000403010000000000000000000000021101000000000000000000000060421000022*** THANKS FOR THE ORDER ***        WE APPRECIATE YOUR BUSINESS       00000000       1 0012012113020121203ILN20121129CWCE3000000      DO29893400          1            201212031151               
896464O FX20121130050465MILWAUKEE INSULATION CO. 0002MAC ARTHUR COMPANY            (INSULATION PLUS)             850 MANN RD SW                CEDAR RAPIDS     IA 52404     84753               P21                        000232821020100000000403010000000000000000000000020101000000000000000000930060421000022*** THANKS FOR THE ORDER ***        WE APPRECIATE YOUR BUSINESS       00000000       1 0012012120320121204IAN20121130X1613000000      HEIDI S.            1                                       
896492O JR20121130046120MC MASTER-CARR SUPPLY CO.0004MC MASTER-CARR SUPPLY CO.     6100 FULTON INDUSTRIAL BLVD SW                              ATLANTA          GA 30336-2852RS30757450          C21                        000208451020100000000403010000000000000000000000019991000000000000000000000060421000022UPS# Y6196E OR CON-WAY FREIGHT                                        00000000       1 0012012113020121203GA 20121130CWCE3000000      RS30757450          1            201212031256               
896513O SM20121130049250METROPOLITAN MECH CONTR. 7201METROPOLITAN MECH CONTR.      % NORTHRUP / SHOP             84 CHURCH ST. SE              MPLS             MN 55455-0281ORDER F103204T7201  P21                        003686301020100000000403010000000000000000000000022101000000000000000000900060431000008*** THANKS FOR THE ORDER ***        WE APPRECIATE YOUR BUSINESS       00001026       1 0012012121020121210MNN201211302   1000000      ORDER F103          1            201212071309   J204A53351  
896526O FX20121130045100MAC ARTHUR COMPANY       0030MAC ARTHUR COMPANY            30 NORTH 43RD AVENUE WEST                                   DULUTH           MN 55807     37303               C21          89652620121211001501491020100000000403010000000000000000000000022101000000000000000000000060421000022*** THANKS FOR THE ORDER ***        WE APPRECIATE YOUR BUSINESS       00000017       2 0162012120420121204MNN20121130WC  3000000      37303               1            201212041359               
896571O FX20121130037510JJJC, LLC.               0000JJJC, LLC.                    7964 BROOKLYN BOULEVARD       #162                          BROOKLYN PARK   MN  55445-2722HUGO                C51          89657120121211000402831020100000000403010000027690000101000000022001002200050000000000000060421000024*** PD W/CK #5230 - THANK YOU! ***                                    00000110       2 0012012120320121204MNT201211301   0000000      GORDY               1            201212041537               
896576OCJR20121130033550HARRIS COMPANIES         0006HARRIS COMPANIES              HIMEC, INC.                   1400 7TH STREET N.W.          ROCHESTER        MN 55901-1735JEW113    80566     PC1          89657620121211000090001020100000000403010000007560000055000002822001002200004220005000200060421000015*** THANKS FOR THE ORDER ***        WE APPRECIATE YOUR BUSINESS       00000000       2 0032012120320121203MN4201211300   0000000      JEW113              1            201212030721               
896584O SM20121203033000NB HANDY CO INC          3000NEWCONB & COMPANY             3000 COMFORT COURT            ATTN: HERB DAVIS              RELEIGH          NC 27604-13880632329   26527     P21         C              000024071020100000000403010000000000000000000000019991000000000000000000070060421000022TAG BOX: DUKE RENOV KITCHEN                                           00000000       1 0012012120320121203NC 201212034   3000000      0632329             1            201212030742               
896596O FX20121203037510JJJC, LLC.               0000JJJC, LLC.                    7964 BROOKLYN BOULEVARD       #162                          BROOKLYN PARK   MN  55445-2722HUGO                C21          89659620121211000057951020100000000403010000003980000015000000022001002200050000000000000060421000024*** PD W/CK #5230 - THANK YOU! ***                                    00000369       2 0022012120320121204MNT201212031   0000000      HUGO                2            201212041537               
896607O FX20121203029600GENERAL S/M COMPANY, LLC 2192GENERAL S/M COMPANY, LLC      % ST. JUDE                    5050 NATHAN LANE              PLYMOUTH         MN 55442     60094     12-2192   P11001                     000672451020100000000403010000051390000112000018722001002200014220005000750060431000024*** THANKS FOR THE ORDER ***        WE APPRECIATE YOUR BUSINESS       00000000       1I0132012120520121210MNH201212032   1000000      60094               1            201212101000   EF STOCK    
896609OCJR20121203033550HARRIS COMPANIES         0006HARRIS COMPANIES              HIMEC, INC.                   1400 7TH STREET N.W.          ROCHESTER        MN 55901-173580560     7000      CC1          89660920121211000152401020100000000403010000011170000081000000022001002200003000000000100060421000010*** THANKS FOR THE ORDER ***        WE APPRECIATE YOUR BUSINESS       00000928       2 0012012120320121203MN3201212030   0000000      80560               1            201212030929   CS1385      
896626O XX20121203020205DAMYANS HEATING & COOLING0000DAMYANS HEATING & COOLING     7900 EXCELSIOR BLVD           SUITE 300                     HOPKINS         MN  55343     V/ISAI    LUCKY PETSC51          89662620121211000882891020100000000403010000060700000221000000022001002200050000000000000060421000022*** PD W/CK #2682 - THANK YOU! ***                                    00000804       2 0012012120320121203MNT20121203WC  0000000      V/ISAI              1            201212031047               
896632O JR20121203046120MC MASTER-CARR SUPPLY CO.0001MC MASTER-CARR SUPPLY COMPANY 600 COUNTY LINE ROAD                                        ELMHURST,        IL 60126-2081AH31551100          C21                        000585501020100000000403010000000000000000000000021101000000000000000000000060421000022UPS# Y6196E OR CON-WAY FREIGHT                                        00000000       1 0022012120420121203ILN20121203CWCE3000000      AH31551100          2                                       
896635O JR20121203046120MC MASTER-CARR SUPPLY CO.0004MC MASTER-CARR SUPPLY CO.     6100 FULTON INDUSTRIAL BLVD SW                              ATLANTA          GA 30336-2852RS31551320          C21                        000175771020100000000403010000000000000000000000019991000000000000000000000060421000022UPS# Y6196E                                                           00000000       1 0012012120420121203GA 20121203CWCE3000000      RS31551320          1                                       
896638O JR20121203046120MC MASTER-CARR SUPPLY CO.0005MC MASTER-CARR SUPPLY CO.     200 AURORA INDUSTRIAL PARKWAY                               AURORA           OH 44202     TH31551430          P21                        000148001020100000000403010000000000000000000000019991000000000000000000000060421000022UPS# Y6196E                                                           00000000       1 0012012120420121204OH 201212034   3000000      TH31551430          1            201212031307               
896646O FX20121203050465MILWAUKEE INSULATION CO. 0005INSULATION PLUS               3272 AIRPORT ROAD                                           LA CROSSE        WI 54603     82475               P210001                    000030601020100000000403010000000000000000000000028101000000000000000000070060421000022*** THANKS FOR THE ORDER ***        WE APPRECIATE YOUR BUSINESS       00000000       1 0012012120320121203WIN201212030   3000000      KEN                 1            201212031414               
896656OCJR20121203033550HARRIS COMPANIES         0006HARRIS COMPANIES              HIMEC, INC.                   1400 7TH STREET N.W.          ROCHESTER        MN 55901-1735          55938-64  PC1          89665620121211000177001020100000000403010000000000000000000000022101000000000000000000100060421000010*** THANKS FOR THE ORDER ***        WE APPRECIATE YOUR BUSINESS       00001093       2 0012012120320121203MNN201212030   0000000      CONNIE              1            201212031346   CS1387      
896658OC9920121203000010MISCELLANEOUS CASH ACCT. 0000MN ALL SEASONS COMFORT        7365 147TH LANE NW                                          RAMSEY          MN  55303     RUSHEAD             CC2          89665820121211001437271020100000000403010000098810000359000000022001002200050000000000000060421000014*** THANKS FOR THE ORDER ***        WE APPRECIATE YOUR BUSINESS       00000000       2 0412012120320121203MNT20121203WC  0000000      RUSHEAD             3            201212031315               
896663O FX20121203045100MAC ARTHUR COMPANY       0030MAC ARTHUR COMPANY            30 NORTH 43RD AVENUE WEST                                   DULUTH           MN 55807     37453               C21          89666320121211000023951020100000000403010000000000000000000000022101000000000000000000000060421000022*** THANKS FOR THE ORDER ***        WE APPRECIATE YOUR BUSINESS       00000142       2 0012012120320121204MNN20121203WC  3000000      37453               1            201212041359               
896681OC9920121203000010MISCELLANEOUS CASH ACCT. 0000RVP MECHANICAL                1541 CARROL AVENUE            UNIT #1                       ST PAUL         MN  55104     V-DAVE              CC1          89668120121211002156721020100000000403010000147270000447000000022001002200050000000000000060421000015*** THANKS FOR THE ORDER ***        WE APPRECIATE YOUR BUSINESS       00002040       2 0012012120420121206MNT201212031   0000000      V-DAVE              2            201212061319               
896713OC9920121203000010MISCELLANEOUS CASH ACCT. 0000BLUE GRASS ARMY DEPOT         431 BATTLEFIELD MEM.HW                                      RICHMOND        KY  40475     V KEM     RETURN    CC1          896713201212110001534u1020100000000403010000000000000000000000019991000000000000000000000060421000020*** C R E D I T ***                                                   00000000       2 0010000000020121203KY 20121203JESS0000000      V KEM               2                                       
896719OC9920121203000010MISCELLANEOUS CASH ACCT. 0000PAUL'S HEATING & A/C          2009 EAST CAPITAL AVE                                       PIERRE          SD  57501     STOCK               PC1          89671920121211000307621020100000000403010000012940000647000000026001002600284000000000160060421000024*** THANKS FOR THE ORDER ***        WE APPRECIATE YOUR BUSINESS       00000000       2 0012012120420121204S28201212030   0000000      STOCK               2            201212040901               
896730O JR20121204046120MC MASTER-CARR SUPPLY CO.0002MC MASTER-CARR SUPPLY CO.     9630 NORWALK BLVD                                           SANTA FE SPRINGS CA 90670-2932FH32522400          P21                        000174651020100000000403010000000000000000000000019991000000000000000000000060421000022UPS# Y6196E OR UPS FREIGHT                                            00000000       1 0012012120520121204CA 201212044   3000000      FH32522400          1            201212041054               
896732O JR20121204046120MC MASTER-CARR SUPPLY CO.0002MC MASTER-CARR SUPPLY CO.     9630 NORWALK BLVD                                           SANTA FE SPRINGS CA 90670-2932GS32522510          C21                        000961001020100000000403010000000000000000000000019991000000000000000000000060421000022UPS# Y6196E                                                           00000000       1 0012012120520121206CA 20121204X1533000000      GS32522510          1            201212061144               
896733O JR20121204046120MC MASTER-CARR SUPPLY CO.0003MC MASTER-CARR SUPPLY CO.     200 NEW CANTON WAY                                          ROBBINSVILLE     NJ 08691-2345KH32522620          P21                        000194001020100000000403010000000000000000000000019991000000000000000000000060421000022UPS# Y6196E                                                           00000000       1 0012012120542010120NJ 201212044   3000000      KH32522620          1            201212041102               
896734O JR20121204046120MC MASTER-CARR SUPPLY CO.0004MC MASTER-CARR SUPPLY CO.     6100 FULTON INDUSTRIAL BLVD SW                              ATLANTA          GA 30336-2852RS32522730          P21                        000166801020100000000403010000000000000000000000019991000000000000000000000060421000022UPS# Y6196E                                                           00000000       1 0012012120520121204GA 201212044   3000000      RS32522730          1            201212041117               
896735O JR20121204046120MC MASTER-CARR SUPPLY CO.0005MC MASTER-CARR SUPPLY CO.     200 AURORA INDUSTRIAL PARKWAY                               AURORA           OH 44202     UU32522840          C21                        000503701020100000000403010000000000000000000000019991000000000000000000000060421000022UPS# Y6196E                                                           00000000       1 0012012120520121205OH 20121204X1533000000      UU32522840          1            201212051144               
896736O JR20121204046120MC MASTER-CARR SUPPLY CO.0001MC MASTER-CARR SUPPLY COMPANY 600 COUNTY LINE ROAD                                        ELMHURST,        IL 60126-2081DO32522290          C21                        000419751020100000000403010000000000000000000000021101000000000000000000000060421000022*** THANKS FOR THE ORDER ***        WE APPRECIATE YOUR BUSINESS       00000000       1 0012012120520121205ILN20121204CWCE3000000      DO32522290          1            201212051145               
896763O FX20121204050465MILWAUKEE INSULATION CO. 0005INSULATION PLUS               3272 AIRPORT ROAD                                           LA CROSSE        WI 54603     82478               P21                        000120601020100000000403010000000000000000000000028101000000000000000000070060421000022*** THANKS FOR THE ORDER ***        WE APPRECIATE YOUR BUSINESS       00000000       1 0012012120520121206WIN201212040   3000000      82478               1            201212060745               
896779O FX20121206053020NORLOCK METAL PRODUCTS   0000NORLOCK METAL PRODUCTS        2651 ST.MARY'S AVENUE                                       OMAHA           NE  68105     4414                P21                        000251961020100000000403010000000000000000000000024101000000000000000000700060421000022*** THANKS FOR THE ORDER ***        WE APPRECIATE YOUR BUSINESS       00000000       1 0012012120720121207NEN201212064   3000000      DON                 1            201212071345               
896790O FX20121206060650RASMUSSEN MECH SERVICES  0000RASMUSSEN MECH SERVICES       2425 EAST 4TH STREET                                        SIOUX CITY      IA  51101     21395     MID-AMERICP11                        000478261020100000000403010000000000000000000000020101000000000000000000930060421000005*** THANKS FOR THE ORDER ***        WE APPRECIATE YOUR BUSINESS       00000086       1 0012012121020121210IAN20121206X1931000000      JASON               2                                       
896799O FX20121204009850BINGHAMTON HDWR CO INC   0003BINGHAMTON HDWR CO INC        % SCRANTON SHEET METAL        240 E ELM STREET              SCRANTON         PA 18505     3017978   STOCK     P21          89679920121211002475001020100000000403010000000000000000000000000000000000000000000000000060421000022*** THANKS FOR THE ORDER ***        WE APPRECIATE YOUR BUSINESS       00000000       2 0012012120520121205PA 20121204X1612000000      3017978             2                                       
896813O FX20121204074655UNIFAB, INC.             0000UNIFAB, INC.                  3850 EDGEWOOD AVENUE                                        ST. LOUIS PARK  MN  66426     3929                C11          89681320121211000238551020100000000403010000000000000000000000022101000000000000000000000060421000024*** THANKS FOR THE ORDER ***        WE APPRECIATE YOUR BUSINESS       00000000       2 0012012120520121210MNN201212041   1000000      3929                1            201212101319               
896815O FX20121204050465MILWAUKEE INSULATION CO. 0002MAC ARTHUR COMPANY            (INSULATION PLUS)             850 MANN RD SW                CEDAR RAPIDS     IA 52404     84758               P21                        000147331020100000000403010000000000000000000000020101000000000000000000100060421000015*** THANKS FOR THE ORDER ***        WE APPRECIATE YOUR BUSINESS       00000000       1 0012012120420121204IAN201212040   3000000      JORDAN              1            201212041433               
896816O DH20121204071800THELEN HTG. & ROOFING CO 1900THELEN HTG. & ROOFING CO      % ELK RIVER PUBLIC WORKS      19000 PROCTOR DR              ELK RIVER        MN 55330-2467RP00229   ERPW      P11001       89681620121211000288601020100000000403010000025340000000000000022001000000000000000000800060431000024*** THANKS FOR THE ORDER ***        WE APPRECIATE YOUR BUSINESS       00000000       2I0042012120720121210MN 201212042   1000000      RP00229             1            201212101156               
896819OC9920121204000010MISCELLANEOUS CASH ACCT. 0000SRP HEATING & AIR             112 10TH AVENUE SE                                          WASECA          MN  56093     V-NATE              C51          89681920121211000585001020100000000403010000040220000146000000022001002200050000000000000060421000015*** PD W/CK #6638 - THANK YOU! ***                                    00000000       2 0012012120420121204MNT201212041   0000000      V-NATE              2            201212041458               
896832O JR20121210035400HONEYWELL INTERNATIONAL  0001HONEYWELL  INC                ATTN: WAYNE                   1433 STINSON BOULEVARD        MINNEAPOLIS      MN 55413-17196400184348          P21          89683220121211000169401020100000000403010000000000000000000000022101000000000000000000400060421000005*** THANKS FOR THE ORDER ***        WE APPRECIATE YOUR BUSINESS       00001459       2 0010012101220121210MNN20121210X0331000000      WAYNE               2            201212101102               
896836O FX20121204037300INTERSTATE MECH CORP     0001INTERSTATE MECH CORP                                        418 IOWA STREET               SIOUX CITY       IA 51101     SHOP      MATERIALS P11001                     001092501020100000000403010000000000000000000000020101000000000000000000000060421000024*** THANKS FOR THE ORDER ***        WE APPRECIATE YOUR BUSINESS       0000150p       1I0032012120520121206IAN20121204X1931000000      SHOP                2                                       
896851OC9920121204000010MISCELLANEOUS CASH ACCT. 0000MN ALL SEASONS                7365 147TH LANE NW                                          RAMSEY, MN 55303              RUSHEAD             CC2         C89685120121211000429381020100000000403010000029520000107000000022001002200050000000000000060421000014*** THANKS FOR THE ORDER ***        WE APPRECIATE YOUR BUSINESS       00000000       2 0011204201220121205MNT20121204WC  0000000                          2            201212051507               
896867O SM20121205033000NB HANDY CO INC          0005NB HANDY CO, INC              203 CITATION CT                                             GREENSBORO       NC 27409-90260632595   STOCK     P21                        002475001020100000000403010000000000000000000000019991000000000000000000000060421000022*** THANKS FOR THE ORDER ***        WE APPRECIATE YOUR BUSINESS       00000000       1 0012012120620121205NC 20121205X1612000000      0632595             1                                       
896868O JR20121205046120MC MASTER-CARR SUPPLY CO.0002MC MASTER-CARR SUPPLY CO.     9630 NORWALK BLVD                                           SANTA FE SPRINGS CA 90670-2932FH33445520          C21                        000265301020100000000403010000000000000000000000019991000000000000000000000060421000022UPS# Y6196E OR UPS FREIGHT                                            00000000       1 0012012120620121205CA 20121205X1533000000      FH33445520          1            201212051313               
896869O JR20121205046120MC MASTER-CARR SUPPLY CO.0005MC MASTER-CARR SUPPLY CO.     200 AURORA INDUSTRIAL PARKWAY                               AURORA           OH 44202     UU33445630          P21                        000249601020100000000403010000000000000000000000019991000000000000000000000060421000022UPS# Y6196E OR UPS FREIGHT                                            00000000       1 0012012120620121205OH 201212054   3000000      UU33445630          1            201212051122               
896871O FX20121205076300VEMCO INC                0351ROCKY MOUNTAIN MECHANICAL     % KRMC PATIENT TOWER DICTATION351 HERITAGE WAY              KALISPELL        MT 59901     45572     SO#656012 P21                        000013671020100000000403010000000000000000000000019991000000000000000000130060421000022*** THANKS FOR THE ORDER ***        WE APPRECIATE YOUR BUSINESS       00000000       1 0012012120620121205MT 201212054   3000000      45572               1            201212050914               
896896OC9920121205000010MISCELLANEOUS CASH ACCT. 0000CONSOLIDATED CONTAINER        109 27TH AVE. N.E.                                          MINNEAPOLIS     MN  55418     V-BART              CC1          89689620121211000534051020100000000403010000036720000134000000022001002200050000000000000060421000005*** THANKS FOR THE ORDER ***        WE APPRECIATE YOUR BUSINESS       00000000       2 0012012120520121206MNT20121205WC  0000000      V-BART              3            201212061440               
896924O FX20121206050465MILWAUKEE INSULATION CO. 0002MAC ARTHUR COMPANY            (INSULATION PLUS)             850 MANN RD SW                CEDAR RAPIDS     IA 52404     84579               P21                        000035281020100000000403010000000000000000000000020101000000000000000000060060421000015*** THANKS FOR THE ORDER ***        WE APPRECIATE YOUR BUSINESS       00000000       1 0012012120520121207IAN201212060   3000000      JORDAN              1            201212070936               
896926O FX20121205006400ASSOCIATED MECH CONTR INC3675ASSOCIATED MECH CONTR INC     C/O VINLAND                   3675 IHDUHAPI TRAIL           LORETTO          MN 55375-2120126907    VINLAND   C11          89692620121211000000001020100000000403010000000000000000000000022001002200050000000000000060421000016*** THANKS FOR THE ORDER ***        WE APPRECIATE YOUR BUSINESS       00000000       2 0012012120520121205MNT20121205WC  0000000      126907              1            201212051358               
896947O FX20121205042560LANGENDORF SUPPLY CO. INC0000LANGENDORF SUPPLY CO. INC     4653 CROSSROADS INDUS.DR.                                   BRIDGETON,      MO  63044     28412     STOCK     P21                        011687961020100000000403010000000000000000000000019991000000000000000009250060421000022*** THANKS FOR THE ORDER ***        WE APPRECIATE YOUR BUSINESS       00000000       1 0012012120720121207MO 20121205X0303000000      28412               2            201212071346               
896960O FX20121206051380MURPHY COMPANY           0004MURPHY COMPANY                1400 N PRICE RD DOCK #5                                     ST.LOUIS         MO 63132     239498    BAPTIST   P11          89696020121211000830761020100000000403010000000000000000000000019991000000000000000000990060421000015*** THANKS FOR THE ORDER ***        WE APPRECIATE YOUR BUSINESS       00000000       2 0012012120720121207MO 20121206X1611000000      DAVE                1                                       
896995O FX20121206050465MILWAUKEE INSULATION CO. 0004MAC ARTHUR COMPANY            (INSULATION PLUS)             1800 DIXON STREET - SUITE H   DES MOINES       IA 50316     21921     STOCK     P21                        006250001020100000000403010000000000000000000000020101000000000000000000000060421000022*** THANKS FOR THE ORDER ***        WE APPRECIATE YOUR BUSINESS       00000000       1 0012012121020121210IAN20121206X0052000000      21921               1            201212101324               
897007O FX20121206013760CAMCORP, INC.            1001CAMCORP, INC.                 % OMNOVA SOLUTIONS, INC.      1001 CHAMBERS AVE             JEANETTE         PA 15644     45339     OMNOVA    P11          89700720121211001887201020100000000403010000000000000000000000000000000000000000000004690060421000024*** THANKS FOR THE ORDER ***        WE APPRECIATE YOUR BUSINESS       00000000       2 0012012120720121210PA 20121206X1611000000      DOUG B.             1                                       
897008O FX20121206077600WALDINGER CORPORATION    0001WALDINGER CORPORATION         2601 BELL AVENUE                                            DES MOINES       IA 50321     47926     MITCHELVILP11                        001659541020100000000403010000000000000000000000020101000000000000000001520060421000005*** THANKS FOR THE ORDER ***        WE APPRECIATE YOUR BUSINESS       00000000       1 0012012120720121207IAN20121206X1931000000      47926               1                                       
897010OCJR20121206033550HARRIS COMPANIES         0006HARRIS COMPANIES              HIMEC, INC.                   1400 7TH STREET N.W.          ROCHESTER        MN 55901-1735JEW115    80566     PC1          89701020121211000030001020100000000403010000002540000019000000022001002200003000000000070060421000008*** THANKS FOR THE ORDER ***        WE APPRECIATE YOUR BUSINESS       00000000       2 0012012120620121206MN3201212060   0000000      JEW115              1            201212060926               
897013O JR20121206046120MC MASTER-CARR SUPPLY CO.0001MC MASTER-CARR SUPPLY COMPANY 600 COUNTY LINE ROAD                                        ELMHURST,        IL 60126-2081AH34338500          P21                        000067001020100000000403010000000000000000000000021101000000000000000000000060421000022UPS# Y6196E                                                           00000000       1 0012012120720121207ILN201212064   3000000      AH34338500          1            201212061001               
897015O JR20121206046120MC MASTER-CARR SUPPLY CO.0002MC MASTER-CARR SUPPLY CO.     9630 NORWALK BLVD                                           SANTA FE SPRINGS CA 90670-2932FH34338610          P21                        000062021020100000000403010000000000000000000000019991000000000000000000000060421000022UPS# Y6196E                                                           00000000       1 0012012120720121207CA 201212064   3000000      FH34338610          1            201212060937               
897016O JR20121206046120MC MASTER-CARR SUPPLY CO.0005MC MASTER-CARR SUPPLY CO.     200 AURORA INDUSTRIAL PARKWAY                               AURORA           OH 44202     UU34338720          C21                        000190501020100000000403010000000000000000000000019991000000000000000000000060421000022UPS# Y6196E OR UPS FREIGHT                                            00000000       1 0012012120720121207OH 20121206X1533000000      UU34338720          1            201212071143               
897019O JR20121206046120MC MASTER-CARR SUPPLY CO.0001MC MASTER-CARR SUPPLY COMPANY 600 COUNTY LINE ROAD                                        ELMHURST,        IL 60126-2081DO34338390          C21                        001001701020100000000403010000000000000000000000021101000000000000000000000060421000022*** THANKS FOR THE ORDER ***        WE APPRECIATE YOUR BUSINESS       00000000       1 0012012120720121207ILN20121206CWCE3000000      DO34338390          1            201212071332               
897020O FX20121206005450AMERICAN METALS SUPPLY CO0005AMERICAN METALS SUPPLY CO     1617 PARK 370 COURT                                         HAZELWOOD        MO 63042     P1062875            P21          89702020121211001920001020100000000403010000000000000000000000019991000000000000000003030060421000022*** THANKS FOR THE ORDER ***        WE APPRECIATE YOUR BUSINESS       00000000       2 0012012120720121207MO 20121206X1613000000      P1062875            1                                       
897035O FX20121206064210SCHADEGG MECHANICAL      0895SCHADEGG MECHANICAL           C/O EAST SIDE CLINIC          895 EAST 7TH STREET           ST. PAUL         MN 55106     15388-4178E.SIDE CL P11          89703520121211000939501020100000000403010000068370000497000024922001002200004220005000550060431000005*** THANKS FOR THE ORDER ***        WE APPRECIATE YOUR BUSINESS       00001408       2I0012012120720121210MN4201212062   1000000      15388-4178          1            201212071446               
897036OCJR20121206033550HARRIS COMPANIES         0353HARRIS COMPANIES              % 3M COTTAGE GROVE (B.111)    10746 INNOVATION RD           COTTAGE GROVE    MN 55016-4600420682    0820      PC1          89703620121211000123591020100000000403010000012620000046000000022001002200050000000000600060421000010*** THANKS FOR THE ORDER ***        WE APPRECIATE YOUR BUSINESS       00000000       2 0042012120720121210MNT20121206X0330000000      ANITA               1            201212100915   40353       
897042O FX20121206076300VEMCO INC                7310MCLEES INC.                   % PETERBILT                   7310 ENTRYWAY DRIVE SUITE C   BILLINGS         MT 59101     45620     SO#656059 P21                        000597721020100000000403010000000000000000000000019991000000000000000001080060421000022TAG BOXES: PETERBILT                                                  00000000       1 0012012120720121206MT 201212064   3000000      45620               1            201212061419               
897051O SM20121206049250METROPOLITAN MECH CONTR. 3100METROPOLITAN MECH CONTR.      % EXCEL ENERGY                3100 MARSHALL ST NE           MPLS.,           MN 55418     ORDER 42  20561731  P21                        001621331020100000000403010000117310000853000068322001002200001220001400850060431000008*** THANKS FOR THE ORDER ***        WE APPRECIATE YOUR BUSINESS       00000730       1 0010000000020121210MN1201212062   1000000      ORDER 42            1            201212071307   W205A42210  
897056O FX20121206004600ALLAN MECHANICAL INC.    5581ALLAN MECHANICAL INC.         % MARATHON ORTHODICS          7176 SHADY OAK RD             EDEN PRAIRIE     MN 55344     5581      MARATHON OP11001       89705620121211002361821020100000000403010000168910000369000061422001002200014220005000950060431000010*** THANKS FOR THE ORDER ***        WE APPRECIATE YOUR BUSINESS       00000000       2I0362012120720121210MNH201212062   1000000                          1            201212071303               
897059OCJR20121207033550HARRIS COMPANIES         0331HARRIS COMPANIES              % ALBERT LEA MEDICAL CENTER   404 FOUNTAIN ST               ALBERT LEA       MN 56007-243880564     7000      PC1          89705920121211000045001020100000000403010000003780000028000000022001002200013000000000100060421000010*** THANKS FOR THE ORDER ***        WE APPRECIATE YOUR BUSINESS       00000333       2 0012012120720121207MNA201212070   0000000      CONNIE              1            201212071057   CS1402      
897060O FX20121206004600ALLAN MECHANICAL INC.    5561ALLAN MECHANICAL INC.         % VISTATION                   2455 VISITATION DR.           MENDOTA HEIGHTS  MN 55120-16775561      VISITATIONP11001       89706020121211001786821020100000000403010000129380000470000000022001002200050000000000950060431000010*** THANKS FOR THE ORDER ***        WE APPRECIATE YOUR BUSINESS       00000896       2I0332010120720121210MNT201212062   1000000                          1            201212101023               
897068O FX20121206001200ACTIVE HEATING INC.      0000ACTIVE HEATING INC.           115 NORTH MAPLE                                             WATERTOWN,      SD  57201     699       ANGUS W-1 P11          89706820121211000579021020100000000403010000029080001454000000026001002600379000000001480060421000015*** THANKS FOR THE ORDER ***        WE APPRECIATE YOUR BUSINESS       00000000       2 0012012120720121207S3720121206X1931000000      699                 1                                       
897069O   20121206019900DAHL AIR COND. & HTG. CO.0000DAHL AIR COND. & HTG. CO.     601 MAIN                                                    VAN METER       IA  50261     1209      W HILL SCHP11          89706920121211000605001020100000000403010000000000000000000000020101000000000000000001040060421000005*** THANKS FOR THE ORDER ***        WE APPRECIATE YOUR BUSINESS       00000000       2 0012012120620121207IAN20121206X1931000000      1209                1                                       
897071O JR20121206049828MIDWEST FABRICATION/SPPLY0000MIDWEST FABRICATION/SPPLY     500 22ND STREET                                             ZUMBROTA        MN  55992     223168              C11                        003775121020100000000403010000000000000000000000022101000000000000000000000060421000015*** THANKS FOR THE ORDER ***        WE APPRECIATE YOUR BUSINESS       00000022       1 0012012121020121210MNN20121206X0251000000      223168              1            201212101054               
897074O FX20121206068600STAINLESS SPECIALISTS INC0821STAINLESS SPECIALISTS INC     % JOHNSON ELECTRIC COIL       821 WATSON STREET             ANTIGO           WI 54409     064368    JOHNSON   P21                        000250151020100000000403010000000000000000000000028101000000000000000001420060421000024*** THANKS FOR THE ORDER ***        WE APPRECIATE YOUR BUSINESS       00000000       1I0012012120720121207WIN20121206X1611000000      064368              1                                       
897079O FX20121206013760CAMCORP, INC.            1001CAMCORP, INC.                 % OMNOVA SOLUTIONS, INC.      1001 CHAMBERS AVE             JEANETTE         PA 15644     45339     ADD       P11          89707920121211000428501020100000000403010000000000000000000000000000000000000000000000000060421000024*** THANKS FOR THE ORDER ***        WE APPRECIATE YOUR BUSINESS       00000000       2 0012012120720121210PA 20121206X1611000000      45339               1                                       
897080O FX20121206056950PETERSON SHEET METAL     0000PETERSON SHEET METAL          3728 BEMIDJI AVENUE NORTH                                   BEMIDJI         MN  56601     38567     SANFORD   C11                        000138061020100000000403010000009490000000000000022001000000000000000000000060421000024*** THANKS FOR THE ORDER ***        WE APPRECIATE YOUR BUSINESS       00000000       1 0012012120720121207MN 20121206X1671000000      38567               1            201212071144               
897081OCXX20121206020205DAMYANS HEATING & COOLING0000DAMYANS HEATING & COOLING     7900 EXCELSIOR BLVD           SUITE 300                     HOPKINS         MN  55343     BETHANY             CC1          89708120121211000134501020100000000403010000009250000034000000022001002200050000000000000060421000024*** THANKS FOR THE ORDER ***        WE APPRECIATE YOUR BUSINESS       00000373       2 0012012120620121206MNT201212061   0000000      BETHANY             1            201212061426               
897085O FX20121206043192LEGEND MECHANICAL        4829LEGEND MECHANICAL             % PARK DENTAL                 2800 HWY 41                   CHASKA           MN 55318     4829                P11                        001633031020100000000403010000118800000000000000022001000000000000000000950060431000010*** THANKS FOR THE ORDER ***        WE APPRECIATE YOUR BUSINESS       00000000       1 0022012120720121210MN 201212062   1000000      4829                1            201212071303               
897088O SM20121206050950MODERN HEATING & AIR COND0001MODERN HEATING & AIR COND     2318 1ST STREET NE                                          MINNEAPOLIS      MN 55418     R23790-6  HYATT     C11001       89708820121211001608381020100000000403010000110580000402000000022001002200050000000000000060421000005*** THANKS FOR THE ORDER ***        WE APPRECIATE YOUR BUSINESS       00000000       2I0272010120720121210MNT20121206WC  1000000      R23790-6            1            201212100801               
897091O FX20121206078650WENCL SERVICES INC.      0000WENCL SERVICES INC.           8148 PILLSBURY AVE. SOUTH                                   BLOOMINGTON,    MN  55420     8227TM    B. KING   P11          89709120121211000718621020100000000403010000054560000119000019822001002200014220005000750060431000010*** THANKS FOR THE ORDER ***        WE APPRECIATE YOUR BUSINESS       00003186       2 0012012120720121210MNH201212062   1000000      8227TM              1            201212071450               
897097O SM20121206050950MODERN HEATING & AIR COND0001MODERN HEATING & AIR COND     2318 1ST STREET NE                                          MINNEAPOLIS      MN 55418     R23683-2  PLAZA 7   C11          89709720121211000139501020100000000403010000009590000035000000022001002200050000000000000060421000005*** THANKS FOR THE ORDER ***        WE APPRECIATE YOUR BUSINESS       00000351       2I0012012120720121210MNT20121206WC  1000000      R23683-2            1            201212101324               
897100O FX20121206009950BISBEE PLBG & HTG CO     0001BISBEE PLBG. & HTG. CO.       604 HIGHWAY 59 NORTH                                        MARSHALL         MN 56258     33472               P11          89710020121211000127901020100000000403010000009270000000000000022001000000000000000000070060421000015*** THANKS FOR THE ORDER ***        WE APPRECIATE YOUR BUSINESS       00000220       2 0012012121020121210MN 201212060   1000000      33472               1            201212100756               
897113O JR20121207046120MC MASTER-CARR SUPPLY CO.0001MC MASTER-CARR SUPPLY COMPANY 600 COUNTY LINE ROAD                                        ELMHURST,        IL 60126-2081AH35216190          P21                        000166751020100000000403010000000000000000000000021101000000000000000000000060421000022UPS# Y6196E OR CON-WAY FREIGHT                                        00000000       1 0012012120720121207ILN201212074   3000000      AH35216190          1            201212071044               
897114O JR20121207046120MC MASTER-CARR SUPPLY CO.0003MC MASTER-CARR SUPPLY CO.     200 NEW CANTON WAY                                          ROBBINSVILLE     NJ 08691-2345KH35216410          P21                        000185601020100000000403010000000000000000000000019991000000000000000000000060421000022UPS# Y6196E                                                           00000000       1 0012012120720121207NJ 201212074   3000000      KH35216410          1            201212071049               
897124O SM20121207049250METROPOLITAN MECH CONTR. 1529METROPOLITAN MECH CONTR.      % REC. CENTER                 1906 UNIVERSITY AVE SE        MPLS             MN 55455     ORDER 138 202X1529  P21                        000883101020100000000403010000065530000477000038122001002200001220001400700060431000022*** THANKS FOR THE ORDER ***        WE APPRECIATE YOUR BUSINESS       00006299       1 0012012121020121210MN1201212072   1000000      ORDER 138           1            201212071454   J202A42913  
897126O FX20121207039150K R METAL ENGINEERS      0000K R METAL ENGINEERS           815 SOUTH HENRY                                             BAY CITY        MI  48706     7912                P11          89712620121211000150001020100000000403010000000000000000000000019991000000000000000000990060421000022*** THANKS FOR THE ORDER ***        WE APPRECIATE YOUR BUSINESS       00000000       2 0012012120720121207MI 20121207X1611000000      7912                1                                       
897131O FX20121207047250MASTER MECHANICAL, INC.  0000MASTER MECHANICAL, INC.       1027 GEMINI ROAD                                            EAGAN           MN  55121     51001               P21          89713120121211001249651020100000000403010000085910000312000000022001002200050000000000000060431000005*** THANKS FOR THE ORDER ***        WE APPRECIATE YOUR BUSINESS       00000000       2 0012012121020121210MNT201212072   1000000      51001               1                                       
897132O FX20121207047250MASTER MECHANICAL, INC.  0000MASTER MECHANICAL, INC.       1027 GEMINI ROAD                                            EAGAN           MN  55121     18873               P21          89713220121211001727101020100000000403010000118740000432000000022001002200050000000000000060431000005*** THANKS FOR THE ORDER ***        WE APPRECIATE YOUR BUSINESS       00000000       2 0022012121020121210MNT201212072   1000000      18873               1                                       
897133O FX20121207047250MASTER MECHANICAL, INC.  0000MASTER MECHANICAL, INC.       1027 GEMINI ROAD                                            EAGAN           MN  55121     51002               P21          89713320121211007033181020100000000403010000490060001782000000022001002200050000000000950060431000005*** THANKS FOR THE ORDER ***        WE APPRECIATE YOUR BUSINESS       00001477       2 0282012121020121210MNT201212072   1000000      51002               1            201212101017               
897134O FX20121207077600WALDINGER CORPORATION    0001WALDINGER CORPORATION         2601 BELL AVENUE                                            DES MOINES       IA 50321     LP48481   WORK SPACEP11                        000160011020100000000403010000000000000000000000020101000000000000000000100060421000005*** THANKS FOR THE ORDER ***        WE APPRECIATE YOUR BUSINESS       00000000       1 0012012121020121210IAN201212070   1000000      LP48481             1            201212100748               
897139O FX20121207065690SHEET METAL ENGINEERING  0000SHEET METAL ENGINEERING       219 NEW YORK AVENUE                                         DES MOINES,     IA  50313     21115     S&D'S     P11                        002188471020100000000403010000000000000000000000020101000000000000000000990060421000024*** THANKS FOR THE ORDER ***        WE APPRECIATE YOUR BUSINESS       00000022       1 0032012120720121207IAN20121207X1611000000      21115               2                                       
897145O FX20121207046390MAG MECHANICAL LLC       0000MAG MECHANICAL LLC            7100 MEDICINE LAKE ROAD                                     NEW HOPE        MN  55427     1205      CHRISTENSNC11001                     000481451020100000000403010000033100000120000000022001002200050000000000000060421000024*** THANKS FOR THE ORDER ***        WE APPRECIATE YOUR BUSINESS       00000644       1I0072012120720121210MNT201212071   1000000      1205                1            201212101125               
897149OCJR20121207033550HARRIS COMPANIES         0353HARRIS COMPANIES              % 3M COTTAGE GROVE (B.111)    10746 INNOVATION RD           COTTAGE GROVE    MN 55016-4600420658    0820      PC1          89714920121211000079181020100000000403010000005440000020000000022001002200050000000000000060421000010*** THANKS FOR THE ORDER ***        WE APPRECIATE YOUR BUSINESS       00000000       2 0012012120720121210MNT20121207X0330000000                          1                           40353       
897150O SM20121207049250METROPOLITAN MECH CONTR. 1529METROPOLITAN MECH CONTR.      % REC. CENTER                 1906 UNIVERSITY AVE SE        MPLS             MN 55455     ORDER 139 202X1529  P21                        000093601020100000000403010000006440000047000003722001002200001220001400000060431000022*** THANKS FOR THE ORDER ***        WE APPRECIATE YOUR BUSINESS       00000000       1 0012012121020121210MN1201212072   1000000      ORDER 139           1                           J202A42913  
897159O FX20121207041400KRIER & BLAIN INC        0001KRIER & BLAIN INC             1207 WEST DELAWARE ST                                       SIOUX FALLS      SD 57104     V/DAVE    SHOP STOCKP11                        001703761020100000000403010000000000000000000000026101000000000000000000950060421000022*** THANKS FOR THE ORDER ***        WE APPRECIATE YOUR BUSINESS       00000000       1 0012012121020121210SDN20121207X1931000000      V/DAVE              1                                       
897167O FX20121207059730RTS MECHANICAL           0000RTS MECHANICAL                306 COLBERT AVENUE N.W.                                     BUFFALO         MN  55313     V-RON               C11                        000461741020100000000403010000031740000115000000022001002200050000000000000060421000015*** THANKS FOR THE ORDER ***        WE APPRECIATE YOUR BUSINESS       00000000       1 0022012120720121210MNT201212071   1000000      V-RON               2            201212100835               
897171OC9920121207000010MISCELLANEOUS CASH ACCT. 0000DAVID BENNER                  374 BENNER RD                                               BELLEFONTE      PA  16823     V/ DAVID            PC1          89717120121211000052001020100000000403010000000000000000000000000000000000000000000000100060421000024*** THANKS FOR THE ORDER ***        WE APPRECIATE YOUR BUSINESS       00000359       2 0012012120720121207PA 201212074   0000000      V/ DAVID            2            201212071324               
897175O XX20121207052030NASSEFF MECHANICAL CONTRS0000NASSEFF MECHANICAL CONTRS     122 SOUTH WABASHA STREET      SUITE 101                     ST. PAUL,       MN  55107     112164-H  TARGET    C11                        000698661020100000000403010000048030000175000000022001002200050000000000000060421000022*** THANKS FOR THE ORDER ***        WE APPRECIATE YOUR BUSINESS       00000000       1 0012012120720121210MNT20121207WC  1000000      112164-H            2            201212101312               
897191O FX20121207045100MAC ARTHUR COMPANY       0030MAC ARTHUR COMPANY            30 NORTH 43RD AVENUE WEST                                   DULUTH           MN 55807     37600     AWK/8960  P21          89719120121211000083701020100000000403010000000000000000000000022101000000000000000000070060421000022*** THANKS FOR THE ORDER ***        WE APPRECIATE YOUR BUSINESS       00000000       2 0012012121020121210MNN201212070   3000000      37600               1            201212101109               
897195O FX20121207064210SCHADEGG MECHANICAL      0895SCHADEGG MECHANICAL           C/O EAST SIDE CLINIC          895 EAST 7TH STREET           ST. PAUL         MN 55106     15388-4178E.SIDE CL P11          89719520121211000017091020100000000403010000001170000009000000422001002200004220005000000060431000014*** THANKS FOR THE ORDER ***        WE APPRECIATE YOUR BUSINESS       00000000       2 0022012120720121210MN4201212072   1000000      15388-4178          2                                       
897196O FX20121207029600GENERAL S/M COMPANY, LLC 2192GENERAL S/M COMPANY, LLC      % ST. JUDE                    5050 NATHAN LANE              PLYMOUTH         MN 55442     60127     12-2192   P11001                     000237001020100000000403010000016290000036000005922001002200014220005000000060431000024*** THANKS FOR THE ORDER ***        WE APPRECIATE YOUR BUSINESS       00000896       1I0032012121020121210MNH201212072   1000000      60127               1                           RAIN        
897197OC9920121207000010MISCELLANEOUS CASH ACCT. 0000BLAST ONE                     2400 LANDMARK WAY                                           COLUMBUS        OH  43219     S28-BF0001          CC1         C89719720121211000264021020100000000403010000018150000066000000022001002200050000000000000060421000016*** THANKS FOR THE ORDER ***        WE APPRECIATE YOUR BUSINESS       00000000       2 0012012120720121207MNT2012120710  0000000      S28-BF0001          2            201212071512               
897198O SM20121207061750RIESTER REFRIGERATION INC0000RIESTER REFRIGERATION INC     503 BUSH STREET                                             RED WING,       MN  55066     PRICEDUCT           P21          89719820121211000800001020100000000403010000000000000000000000022101000000000000000000000060421000024*** THANKS FOR THE ORDER ***        WE APPRECIATE YOUR BUSINESS       00000000       2I0012012120720121207MNN20121207XO  0000000      PRICEDUCT           1                                       
897199O JR20121207072105THERMO/DYNAMICS          0000THERMO/DYNAMICS               112 NORTH LEXINGTON           PO BOX 25                     SPRING GREEN    WI  53588     PRICEDUCT           P21          89719920121211001200001020100000000403010000000000000000000000028101000000000000000000000060421000024*** THANKS FOR THE ORDER ***        WE APPRECIATE YOUR BUSINESS       00000000       2I0012012120720121207WIN20121207XO  0000000      PRICEDUCT           1                                       
897200O FX20121207054537OPTIMUM MECH SYSTEMS INC.0000OPTIMUM MECH SYSTEMS INC.     3030 CENTERVILLE ROAD                                       ST. PAUL        MN  55117-1171PRICEDUCT           P21                        000800001020100000000403010000000000000000000000022101000000000000000000000060421000024*SORRY, NO DISCOUNT IS OFFERED ON  THE PRICEDUCT ANNUAL SUBSCRIPTION* 00000000       1I0012012120720121207MNN20121207XO  0000000      PRICEDUCT           1                                       
897201O FX20121207038250JIM & DUDE'S PLBG. & HTG.0000JIM & DUDE'S PLBG. & HTG.     724 WEST CLARK                                              ALBERT LEA      MN  56007     PRICEDUCT           P21                        000800001020100000000403010000000000000000000000022101000000000000000000000060421000024*SORRY, NO DISCOUNT IS OFFERED ON  THE PRICEDUCT ANNUAL SUBSCRIPTION* 00000000       1I0012012120720121207MNN20121207XO  0000000      PRICEDUCT           1                                       
897202O JR20121207027750FORE MECHANICAL INC.     0000FORE MECHANICAL INC.          3102 103RD LANE N.E.                                        BLAINE,         MN  55449     PRICEDUCT           P21                        001200001020100000000403010000000000000000000000022101000000000000000000000060421000024*SORRY, NO DISCOUNT IS OFFERED ON  THE PRICEDUCT ANNUAL SUBSCRIPTON*  00000000       1I0012012120720121207MNN20121207XO  0000000      PRICEDUCT           2                                       
897203O FX20121207064300SCHEBLER COMPANY         0000SCHEBLER COMPANY              5665 FENNO ROAD               PO 1008                       BETTENDORF      IA  52722     PRICEDUCT           P21          89720320121211000033331020100000000403010000000000000000000000020101000000000000000000000060421000024*** THANKS FOR THE ORDER ***        WE APPRECIATE YOUR BUSINESS       00000000       2I0012012120720121207IAN20121207XO  0000000      PRICEDUCT           1                                       
897207OCJR20121210033550HARRIS COMPANIES         0006HARRIS COMPANIES              HIMEC, INC.                   1400 7TH STREET N.W.          ROCHESTER        MN 55901-173555997     7000      PC1          89720720121211000028481020100000000403010000000000000000000000022101000000000000000000050060421000010*** THANKS FOR THE ORDER ***        WE APPRECIATE YOUR BUSINESS       00000000       2 0012012121020121210MNN201212100   0000000                          1            201212101312   CS1407      
897209O   20121207049245METRO SHEET METAL INC.   0000METRO SHEET METAL INC.        3260 FANUM ROAD                                             ST. PAUL,       MN  55110     1971      M-2334    P11          89720920121211000552001020100000000403010000041730000152000000022001002200050000000000550060421000024*** THANKS FOR THE ORDER ***        WE APPRECIATE YOUR BUSINESS       00000105       2 0012012121020121210MNT20121207X0331000000      1971                1            201212101135               
897217O FX20121210003125AIR MOVING EQUIPMENT INC 0302JOPLIN SUPPLY CO.             302 S. MICHIGAN                                             JOPLIN           MO 64801     41266     P1207284  P11          89721720121211000043771020100000000403010000000000000000000000019991000000000000000000330060421000022*** THANKS FOR THE ORDER ***        WE APPRECIATE YOUR BUSINESS       00000000       2 0012012121020121210MO 201212109   1000000      41266               1            201212100915               
897219O FX20121210063750ST. CLOUD REFRIGERATION  0000ST. CLOUD REFRIGERATION       604 LINCOLN AVENUE N.E.                                     ST. CLOUD,      MN  56301     H12297              P11                        000100001020100000000403010000007360000054000000022001002200006000000000070060421000005*** THANKS FOR THE ORDER ***        WE APPRECIATE YOUR BUSINESS       00000462       1 0012012121020121210MN6201212100   1000000      H12297              1            201212100806               
897225O FX20121210043190LEGACY COMPANIES, INC.   0000LEGACY COMPANIES, INC.        8850 WENTWORTH AVENUE SO.                                   BLOOMINGTON,    MN  55420     4986-     123062    C11001       89722520121211000817491020100000000403010000056200000204000000022001002200050000000000000060421000024*** THANKS FOR THE ORDER ***        WE APPRECIATE YOUR BUSINESS       00000104       2I0312012121020121210MNT201212101   1000000      4986-               1            201212101145               
897226O JR20121210046120MC MASTER-CARR SUPPLY CO.0001MC MASTER-CARR SUPPLY COMPANY 600 COUNTY LINE ROAD                                        ELMHURST,        IL 60126-2081AH36013360          P21                        000341101020100000000403010000000000000000000000021101000000000000000000000060421000022UPS# Y6196E OR CON-WAY FREIGHT                                        00000000       1 0012012121020121210ILN201212104   3000000      AH36013360          1            201212100840               
897227O FX20121210043190LEGACY COMPANIES, INC.   0000LEGACY COMPANIES, INC.        8850 WENTWORTH AVENUE SO.                                   BLOOMINGTON,    MN  55420     4987-     123038    C11001       89722720121211000638451020100000000403010000043890000160000000022001002200050000000000000060421000024*** THANKS FOR THE ORDER ***        WE APPRECIATE YOUR BUSINESS       00000000       2I0142012121020121210MNT201212101   1000000      4987-               1            201212101145               
897233O SM20121210007650BAETE-FORSETH HVAC       0001BAETE FORSETH HTG & A/C       4700 NORTH NORTHVIEW AVENUE                                 SIOUX FALLS      SD 57107     139689              P11          89723320121211000914311020100000000403010000000000000000000000026101000000000000000000690060421000010*** THANKS FOR THE ORDER ***        WE APPRECIATE YOUR BUSINESS       00000000       2 0012012121020121210SDN20121210X0061000000                          1            201212101319               
897245O   20121210049245METRO SHEET METAL INC.   0000METRO SHEET METAL INC.        3260 FANUM ROAD                                             ST. PAUL,       MN  55110     1973      STOCK     P11          89724520121211000146591020100000000403010000010080000037000000022001002200050000000000000060421000022*** THANKS FOR THE ORDER ***        WE APPRECIATE YOUR BUSINESS       00000000       2 0012012121020121210MNT20121210X0331000000      1973                1                                       
897252O SM20121210050950MODERN HEATING & AIR COND0000MODERN HEATING & AIR COND     2318 1ST STREET N.E.                                        MPLS            MN  55418     123670-11 TORNIER   C11          89725220121211000284771020100000000403010000019580000071000000022001002200050000000000000060421000005*** THANKS FOR THE ORDER ***        WE APPRECIATE YOUR BUSINESS       00001147       2I0012012121020121210MNT20121210WC  1000000      123670-11           1            201212101324               
897255O FX20121210077600WALDINGER CORPORATION    0001WALDINGER CORPORATION         2601 BELL AVENUE                                            DES MOINES       IA 50321     49632     WEBFILINGSP11001                     000272001020100000000403010000000000000000000000020101000000000000000000910060421000024*** THANKS FOR THE ORDER ***        WE APPRECIATE YOUR BUSINESS       00000000       1I0022012121020121210IAN20121210X0051000000      49632               1            201212101320               
897256O FX20121210018524CORVAL GROUP, INC.       0049CORVAL GROUP, INC.            C/O POLAR FAB (BRENT PETERSON)2800 OLD SHAKOPEE ROAD        BLOOMINGTON      MN 55425     501216    157295    P11          89725620121211000217651020100000000403010000018740000041000006822001002200014220005000550060421000005*** THANKS FOR THE ORDER ***        WE APPRECIATE YOUR BUSINESS       00000000       2 0012012121020121210MNH20121210X0331000000      501216              1            201212101105               
897259O XX20121210052030NASSEFF MECHANICAL CONTRS0000NASSEFF MECHANICAL CONTRS     122 SOUTH WABASHA STREET      SUITE 101                     ST. PAUL,       MN  55107     118164-H            C11                        000150801020100000000403010000010370000038000000022001002200050000000000000060421000010*** THANKS FOR THE ORDER ***        WE APPRECIATE YOUR BUSINESS       00001160       1 0012012121020121210MNT201212101   1000000      118164-H            2            201212101312               
897268O FX20121210004600ALLAN MECHANICAL INC.    0000ALLAN MECHANICAL INC.         7875 FULLER ROAD                                            EDEN PRAIRIE,   MN  55344     5587                C11          89726820121211000103301020100000000403010000007100000026000000022001002200050000000000000060421000010*** THANKS FOR THE ORDER ***        WE APPRECIATE YOUR BUSINESS       00000000       2 0012012121020121210MNT201212101   1000000      5587                1            201212101145               
897278O FX20121210054537OPTIMUM MECH SYSTEMS INC.0000OPTIMUM MECH SYSTEMS INC.     3030 CENTERVILLE ROAD                                       ST. PAUL        MN  55117-117131656     12090     C11                        000569771020100000000403010000039170000142000000022001002200050000000000000060421000024*** THANKS FOR THE ORDER ***        WE APPRECIATE YOUR BUSINESS       00000000       1 0012012121020121210MNT201212101   1000000      31656               1            201212101312               
897279O FX20121210029600GENERAL S/M COMPANY, LLC 0000GENERAL S/M COMPANY, LLC      2330 LOUISIANA AVE. NO.                                     GOLDEN VALLEY   MN  55427     60122     12-3128   P11                        000170101020100000000403010000014440000032000005322001002200014220005000400060421000024*** THANKS FOR THE ORDER ***        WE APPRECIATE YOUR BUSINESS       00000000       1I0012012121020121210MNH20121210X0331000000      60122               1            201212101315   DRYER       
897282O   20121210049245METRO SHEET METAL INC.   0000METRO SHEET METAL INC.        3260 FANUM ROAD                                             ST. PAUL,       MN  55110     1941-T              C11          89728220121211000056581020100000000403010000003890000014000000022001002200050000000000000060421000010*** THANKS FOR THE ORDER ***        WE APPRECIATE YOUR BUSINESS       00000001       2 0012012121020121210MNT201212101   1000000      1941-T              1            201212101453               
897285O FX20121210018520CORPORATE MECHANICAL     0000CORPORATE MECHANICAL          5114 HILLSBORO AVENUE NO.                                   NEW HOPE,       MN  55428     6410                C11          89728520121211000067701020100000000403010000004650000017000000022001002200050000000000000060421000014*** THANKS FOR THE ORDER ***        WE APPRECIATE YOUR BUSINESS       00000000       2 0012012121020121210MNT20121210WC  1000000      6410                1            201212101321               
897291O FX20121210002100AIR CONDITIONING ASSOC   0000AIR CONDITIONING ASSOC        55 WEST IVY AVENUE                                          ST PAUL         MN  55117-451511164     BROOKS    C111001      89729120121211000086851020100000000403010000005970000022000000022001002200050000000000000060421000016*** THANKS FOR THE ORDER ***        WE APPRECIATE YOUR BUSINESS       0000128r       2I0062012121020121210MNT2012121010  1000000      11164               1            201212101453               
