                                                                                                                          1                                                                                                                                                      00000000000214     00501005                                                  
???A           DAMPERS                       A   0          000000000  0000135r00000000000000000000000500000000  N000000EA000000000000000000000000000000000700000000000000390315000000000000000000000Y     0000000        000000    000000000001      2000000        00         0000000700002140024300501005                                                  
???B           ACCESS DOORS                  B   0          000000000  0000062q00000000000000000000000400000000  N000000EA000000000000000000000000000000004400000000000000754400000000000000000000000Y     0000000        000000    000000000001      2000000        00         0000000100002140024300501005                                                  
???C           LOUVERS                       C   0          000000000  0000003x00000000000000000000000000000000  N000000EA000000000000000000000000000000000100000000000000031500000000000000000000000Y     0000000        000000    000000000001      2000000        00         0000000000002140024300501005                                                  
???D           CURBS                         D D 0          000000000  0000034x00000000000000000000000400000000  N000000EA000000000000000000000000000000002100000000000000831500000000000000000000000Y     0000000        000000    000000000001      2000000        00         0000000400002140024300501005                                                  
???E           ACTUATORS                     E E 0          000000000  0000029t00000000000000000000000300000000  N000000EA000000000000000000000000000000001800000000000000367000000000000000000000000Y     0000000        000000    000000000001      2000000        00         0000000300002140024300501005                                                  
???F           MISC. BRACKETS/PARTS          F F 0          000000000  0000070r00000000000000000000000600000000  N000000EA000000000000000000000000000000001100000000000000046000000000000000000000000Y     0000000        000000    000000000001      2000000        00         0000000800002140024300501005                                                  
???G           BACKDRAFT DAMPERS             G G 0          000000000  0000000100000000000000000000000000000000  N000000EA000000000000000000000000000000000000000000000000000000000000000000000000000Y     0000000        000000    000000000001      2000000        00         0000000000002140024300501005                                                  
???H           MISC ROUND DAMPERS            H H 0          000000000  0000010x00000000000000000000000000000000  N000000EA000000000000000000000000000000000700000000000000179000000000000000000000000Y     0000000        000000    000000000001      2000000        00         0000000000002140024300501005                                                  
???J           PURCHASED PRODUCTS            J J 0          000000000  0000680v00000000000000000000002400000000  N000000EA000000000000000000000000000000002200000000000000089000000000000000000000000Y     0000000        000000    000000000001      2000000        00         0000003000002140024300501005                                                  
AD0606         06"X06"INSUL ACCESS DOOR W/CAMB B 000007840  000010200  0000002t00000000000000000000000000000000  S000000EA000000000000000000000000000000000000000000000000000000000000000000000000000Y     0000000        000000    000000000001      2000000        00         0000000000002140024300501005                                                  
AD0808         08"X08"INSUL ACCESS DOOR W/CAMB B 000008430  000011400  0000000w00000000000000000000000000000000  S000000EA000000000000000000000000000000000000000000000000000000000000000000000000000Y     0000000        000000    000000000001      2000000        00         0000000000002140024300501005                                                  
AD1010         10"X10"INSUL ACCESS DOOR W/CAMB B 000009020  000012900  0000000u00000000000000000000000000000000  S000000EA000000000000000000000000000000000000000000000000000000000000000000000000000Y     0000000        000000    000000000001      2000000        00         0000000000002140024300501005                                                  
AD1212         12"X12"INSUL ACCESS DOOR W/CAMB B 000010200  000014100  0000000000000000000000000000000000000000  S000000EA000000000000000000000000000000000000000000000000000000000000000000000000000Y     0000000        000000    000000000001      2000000        00         0000000000002140024300501005                                                  
AD1414         14"X14"INSUL ACCESS DOOR W/CAMB B 000012560  000020400  0000000v00000000000000000000000000000000  S000000EA000000000000000000000000000000000100000000000000002100000000000000000012560Y     0000000        000000    000000000001      2000000        00         0000000000002140024300501005                                                  
AD1616         16"X16"INSUL ACCESS DOOR W/CAMB B 000014920  000024400  0000000000000000000000000000000000000000  S000000EA000000000000000000000000000000000000000000000000000000000000000000000000000Y     0000000        000000    000000000001      2000000        00         0000000000002140024300501005                                                  
AD1818         18"X18"INSUL ACCESS DOOR W/CAMB B 000019530  000028300  0000000r00000000000000000000000000000000  S000000EA000000000000000000000000000000000000000000000000000000000000000000000000000Y     0000000        000000    000000000001      2000000        00         0000000000002140024300501005                                                  
AD2020         20"X20"INSUL ACCESS DOOR W/CAMB B 000020220  000032500  0000000q00000000000000000000000000000000  S000000EA000000000000000000000000000000000000000000000000000000000000000000000000000Y     0000000        000000    000000000001      2000000        00         0000000000002140024300501005                                                  
AD2424         24"X24"INSUL ACCESS DOOR W/CAMB B 000022580  000039400  0000000v00000000000000000000000000000000  S000000EA000000000000000000000000000000000000000000000000000000000000000000000000000Y     0000000        000000    000000000001      2000000        00         0000000000002140024300501005                                                  
ADA0606        6"X6" ALUMINUM ACCESS DOOR    B B 000000000  000065000  0000002t00000000000000000000000000000000  N000000EA000000000000000000000000000000000000000000000000000000000000000000000000000Y     0000000        000000    000000000001      2000000        00         0000000000002140024300501005                                                  
ADA0808        8"X8" ALUMINUM ACCESS DOOR    B B 000000000  000065000  0000003w00000000000000000000000000000000  N000000EA000000000000000000000000000000000000000000000000000000000000000000000000000Y     0000000        000000    000000000001      2000000        00         0000000000002140024300501005                                                  
ADA1010        10"X10" ALUMINUM ACCESS DOOR  B B 000000000  000070000  0000004q00000000000000000000000000000000  N000000EA000000000000000000000000000000000000000000000000000000000000000000000000000Y     0000000        000000    000000000001      2000000        00         0000000000002140024300501005                                                  
ADA1212        12"X12" ALUMINUM ACCESS DOOR  B B 000000000  000080000  0000002y00000000000000000000000000000000  N000000EA000000000000000000000000000000000200000000000000016000000000000000000000000Y     0000000        000000    000000000001      2000000        00         0000000000002140024300501005                                                  
ADA1414        14"X14" ALUMINUM ACCESS DOOR  B B 000000000  000090000  0000000s00000000000000000000000000000000  N000000EA000000000000000000000000000000000000000000000000000000000000000000000000000Y     0000000        000000    000000000001      2000000        00         0000000000002140024300501005                                                  
ADA1616        16"X16" ALUMINUM ACCESS DOOR  B B 000000000  000110000  0000000w00000000000000000000000000000000  N000000EA000000000000000000000000000000000000000000000000000000000000000000000000000Y     0000000        000000    000000000001      2000000        00         0000000000002140024300501005                                                  
ADA1818        18"X18" ALUMINUM ACCESS DOOR  B B 000000000  000120000  0000001x00000000000000000000000000000000  N000000EA000000000000000000000000000000000000000000000000000000000000000000000000000Y     0000000        000000    000000000001      2000000        00         0000000000002140024300501005                                                  
ADA2020        20"X20" ALUMINUM ACCESS DOOR  B B 000000000  000130000  0000001x00000000000000000000000000000000  N000000EA000000000000000000000000000000000000000000000000000000000000000000000000000Y     0000000        000000    000000000001      2000000        00         0000000000002140024300501005                                                  
ADA2424        24"X24" ALUMINUM ACCESS DOOR  B B 000000000  000150000  0000001q00000000000000000000000000000000  N000000EA000000000000000000000000000000000000000000000000000000000000000000000000000Y     0000000        000000    000000000001      2000000        00         0000000000002140024300501005                                                  
ADH0606        6 X 6 ACCESS DOOR HINGED      B B 000008840  000011500  0000000000000000000000000000000000000000  S000000EA000000000000000000000000000000000000000000000000000000000000000000000000000Y     0000000        000000    000000000001      2000000        00         0000000000002140024300501005                                                  
ADH0808        8 X 8 ACCESS DOOR HINGED      B B 000009430  000012450  0000000t00000000000000000000000000000000  S000000EA000000000000000000000000000000000000000000000000000000000000000000000000000Y     0000000        000000    000000000001      2000000        00         0000000000002140024300501005                                                  
ADH1010        10X10 ACCESS DOOR HINGED      B B 000010020  000013500  0000000r00000000000000000000000000000000  S000000EA000000000000000000000000000000000000000000000000000000000000000000000000000Y     0000000        000000    000000000001      2000000        00         0000000000002140024300501005                                                  
ADH1212        12X12 ACCESS DOOR HINGED      B B 000011200  000015000  0000000y00000000000000000000000000000000  S000000EA000000000000000000000000000000000000000000000000000000000000000000000000000Y     0000000        000000    000000000001      2000000        00         0000000000002140024300501005                                                  
ADH1414        14X14 ACCESS DOOR HINGED      B B 000013560  000022000  0000000000000000000000000000000000000000  S000000EA000000000000000000000000000000000000000000000000000000000000000000000000000Y     0000000        000000    000000000001      2000000        00         0000000000002140024300501005                                                  
ADH1616        16X16 ACCESS DOOR HINGED      B B 000015920  000026000  0000001q00000000000000000000000000000000  S000000EA000000000000000000000000000000000000000000000000000000000000000000000000000Y     0000000        000000    000000000001      2000000        00         0000000000002140024300501005                                                  
ADH1818        18X18 ACCESS DOOR HINGED      B B 000020530  000028500  0000000q00000000000000000000000000000000  S000000EA000000000000000000000000000000000000000000000000000000000000000000000000000Y     0000000        000000    000000000001      2000000        00         0000000000002140024300501005                                                  
ADH2020        20X20 ACCESS DOOR HINGED      B B 000021220  000034000  0000000000000000000000000000000000000000  S000000EA000000000000000000000000000000000000000000000000000000000000000000000000000Y     0000000        000000    000000000001      2000000        00         0000000000002140024300501005                                                  
ADH2424        24X24 ACCESS DOOR HINGED      B B 000023580  000041000  0000000s00000000000000000000000000000000  S000000EA000000000000000000000000000000000000000000000000000000000000000000000000000Y     0000000        000000    000000000001      2000000        00         0000000000002140024300501005                                                  
ADS0606        6"X6" ST.STL ACCESS DOOR      B B 000000000  000080000  0000000t00000000000000000000000000000000  N000000EA000000000000000000000000000000000000000000000000000000000000000000000000000Y     0000000        000000    000000000001      2000000        00         0000000000002140024300501005                                                  
ADS0808        8"X8" ST.STL ACCESS DOOR      B B 000000000  000090000  0000001y00000000000000000000000000000000  N000000EA000000000000000000000000000000000000000000000000000000000000000000000000000Y     0000000        000000    000000000001      2000000        00         0000000000002140024300501005                                                  
ADS1010        10"X10" ST.STL ACCESS DOOR    B B 000000000  000095000  0000001w00000000000000000000000000000000  N000000EA000000000000000000000000000000000000000000000000000000000000000000000000000Y     0000000        000000    000000000001      2000000        00         0000000000002140024300501005                                                  
ADS1212        12"X12" ST.STL ACCESS DOOR    B B 000000000  000105000  0000002y00000000000000000000000000000000  N000000EA000000000000000000000000000000000100000000000000010500000000000000000000000Y     0000000        000000    000000000001      2000000        00         0000000000002140024300501005                                                  
ADS1414        14"X14" ST.STL ACCESS DOOR    B B 000000000  000115000  0000000v00000000000000000000000000000000  N000000EA000000000000000000000000000000000000000000000000000000000000000000000000000Y     0000000        000000    000000000001      2000000        00         0000000000002140024300501005                                                  
ADS1616        16"X16" ST.STL ACCESS DOOR    B B 000000000  000135000  0000001s00000000000000000000000000000000  N000000EA000000000000000000000000000000000000000000000000000000000000000000000000000Y     0000000        000000    000000000001      2000000        00         0000000000002140024300501005                                                  
ADS1818        18"X18" ST.STL ACCESS DOOR    B B 000000000  000150000  0000001s00000000000000000000000000000000  N000000EA000000000000000000000000000000000000000000000000000000000000000000000000000Y     0000000        000000    000000000001      2000000        00         0000000000002140024300501005                                                  
ADS2020        20"X20" ST.STL ACCESS DOOR    B B 000000000  000170000  0000000v00000000000000000000000000000000  N000000EA000000000000000000000000000000000000000000000000000000000000000000000000000Y     0000000        000000    000000000001      2000000        00         0000000000002140024300501005                                                  
ADS2424        24"X24" ST.STL ACCESS DOOR    B B 000000000  000200000  0000000r00000000000000000000000000000000  N000000EA000000000000000000000000000000000000000000000000000000000000000000000000000Y     0000000        000000    000000000001      2000000        00         0000000000002140024300501005                                                  
AF24           AF-24V BELIMO SPRING MOTOR    E E 000093750  000150000  0000000000000000000000000000000000000000  S000000EA000000000000000000000000000000000000000000000000000000000000000000000000000Y     0000000        000000    000000000000      2000000        00         0000000000002140024300501005                                                  
AF24MFTS       AF24-MFT-S MULTI-FUNCTION W/S E E 000195460  000200000  0000000000000000000000000000000000000000  N000000EA000000000000000000000000000000000000000000000000000000000000000000000000000Y     0000000                  000000000002      2  0000        24         00000000                                                                      
AFB24MFTS      AFB24-MFT-S MULTI-FUNCT.W/S   E E 000162760  000275000  0000000000000000000000000000000000000000  N000000EA000000000000000000000000000000000000000000000000000000000000000000000000000Y     0000000                  000000000002      2  0000        00         00000000                                                                      
AFBUP          AFB-UP BELIMO 24-240 SPRING   E E 000113860  000190000  0000000200000000000000000000000000000000  S000000EA000000000000000000000000000000000000000000000000000000000000000000000000000Y     0000000                  000000000002      2  0000        00         00000000                                                                      
AFBUPS         AFB-UP-S BELIMO 24-240 W/SWTCHE E 000133960  000220000  0000000600000002000000000000000100000000  S000000EA000000000000000000000000200000000500000440000000110000000002679200000669800Y     0000000                  000000000002      2  0000        00         00000001                                                                      
AM             ACTUATOR MOUNTING             A A 000000000  000055000  0000093p00000000000000000000000600000000  N000000EA000000000000000000000000500000001500000275000000084500000000000000000000000Y     0000000        000000    000000000001      2000000        00         0000000700002140024300501005                                                  
AML            ACTUATOR MOUNT SERIES NF/AF   A A 000055000  000055000  0000006p00000000000000000000000000000000  N000000EA000000000000000000000000000000000000000000000000000000000000000000000000000Y     0000000                  000000000002      2  0000        00         00000000                                                                      
AMS            ACTUATOR MOUNT LF SERIES      A A 000040000  000040000  0000004t00000000000000000000000000000000  N000000EA000000000000000000000000000000000000000000000000000000000000000000000000000Y     0000000                  000000000002      2  0000        00         00000000                                                                      
BDD            BACKDRAFT DAMPER              G G 000000000  000000000  0000249w00000000000000000000002200000000  N000000EA000000000000000000000000900000006000001933000000863422000000000000000000000Y     0000000        000000    000000000001      2000000        00         0000002400002140024300501005                                                  
BDD0808         8X8  B-DRAFT SPNG            G G 000000000  000000000  0000000r00000000000000000000000000000000  N000000EA000000000000000000000000000000000000000000000000000000000000000000000000000Y     0000000        000000    000000000000      1000000        00         0000000000002140024300501005                                                  
BDD0812         8X12 B-DRAFT                 G G 000000000  000000000  0000000q00000000000000000000000000000000  N000000EA000000000000000000000000000000000000000000000000000000000000000000000000000Y     0000000        000000    000000000000      1000000        00         0000000000002140024300501005                                                  
BDD1008        10X8  B-DRAFT                 G G 000000000  000000000  0000000s00000000000000000000000000000000  N000000EA000000000000000000000000000000000000000000000000000000000000000000000000000Y     0000000        000000    000000000000      1000000        00         0000000000002140024300501005                                                  
BDD1010        10X10 B-DRAFT                 G G 000000000  000000000  0000001s00000000000000000000000000000000  N000000EA000000000000000000000000000000000000000000000000000000000000000000000000000Y     0000000        000000    000000000000      1000000        00         0000000000002140024300501005                                                  
BDD1119        11X19 B-DRAFT                 G G 000000000  000000000  0000000000000000000000000000000000000000  N000000EA000000000000000000000000000000000000000000000000000000000000000000000000000Y     0000000        000000    000000000000      1000000        00         0000000000002140024300501005                                                  
BDD118X31      118X30.5 B-DRAFT HI-VEL       G G 000000000  000000000  0000000000000000000000000000000000000000  N000000EA000000000000000000000000000000000000000000000000000000000000000000000000000Y     0000000        000000    000000000000      1000000        00         0000000000002140024300501005                                                  
BDD1210        12X10 B-DRAFT                 G G 000000000  000000000  0000000v00000000000000000000000000000000  N000000EA000000000000000000000000000000000000000000000000000000000000000000000000000Y     0000000        000000    000000000000      1000000        00         0000000000002140024300501005                                                  
BDD1211        11.75X11 B-DRAFT DAMPER       G G 000000000  000000000  0000000000000000000000000000000000000000  N000000EA000000000000000000000000000000000000000000000000000000000000000000000000000Y     0000000        000000    000000000000      1000000        00         0000000000002140024300501005                                                  
BDD1212        12X12 B-DRAFT                 G G 000000000  000000000  0000002v00000000000000000000000000000000  N000000EA000000000000000000000000000000000000000000000000000000000000000000000000000Y     0000000        000000    000000000000      1000000        00         0000000000002140024300501005                                                  
BDD1318        13X18 B-DRAFT SPNG            G G 000000000  000000000  0000000q00000000000000000000000000000000  N000000EA000000000000000000000000000000000000000000000000000000000000000000000000000Y     0000000        000000    000000000000      1000000        00         0000000000002140024300501005                                                  
BDD1408        14X8  B-DRAFT                 G G 000000000  000000000  0000000v00000000000000000000000000000000  N000000EA000000000000000000000000000000000000000000000000000000000000000000000000000Y     0000000        000000    000000000000      1000000        00         0000000000002140024300501005                                                  
BDD1410        14X10 B-DRAFT SPNG            G G 000000000  000000000  0000000r00000000000000000000000000000000  N000000EA000000000000000000000000000000000000000000000000000000000000000000000000000Y     0000000        000000    000000000000      1000000        00         0000000000002140024300501005                                                  
BDD1414        14X14 B-DRAFT                 G G 000000000  000000000  0000001w00000000000000000000000000000000  N000000EA000000000000000000000000000000000000000000000000000000000000000000000000000Y     0000000        000000    000000000000      1000000        00         0000000000002140024300501005                                                  
BDD1421        14X20.5 B-DRAFT HI-VEL FLG    G G 000000000  000000000  0000000000000000000000000000000000000000  N000000EA000000000000000000000000000000000000000000000000000000000000000000000000000Y     0000000        000000    000000000000      1000000        00         0000000000002140024300501005                                                  
BDD1608        16X8  B-DRAFT SPNG            G G 000000000  000000000  0000000u00000000000000000000000000000000  N000000EA000000000000000000000000000000000000000000000000000000000000000000000000000Y     0000000        000000    000000000000      1000000        00         0000000000002140024300501005                                                  
BDD1612        16X12 B-DRAFT                 G G 000000000  000000000  0000000s00000000000000000000000000000000  N000000EA000000000000000000000000000000000000000000000000000000000000000000000000000Y     0000000        000000    000000000000      1000000        00         0000000000002140024300501005                                                  
BDD1614        16X14 B-DRAFT                 G G 000000000  000000000  0000000000000000000000000000000000000000  N000000EA000000000000000000000000000000000000000000000000000000000000000000000000000Y     0000000        000000    000000000000      1000000        00         0000000000002140024300501005                                                  
BDD1616        16X16 B-DRAFT                 G G 000000000  000000000  0000002x00000000000000000000000000000000  N000000EA000000000000000000000000000000000000000000000000000000000000000000000000000Y     0000000        000000    000000000000      1000000        00         0000000000002140024300501005                                                  
BDD1622        16X21.5 B-DRAFT DAMPER        G G 000000000  000000000  0000000000000000000000000000000000000000  N000000EA000000000000000000000000000000000000000000000000000000000000000000000000000Y     0000000        000000    000000000000      1000000        00         0000000000002140024300501005                                                  
BDD1624        16X24 B-DRAFT                 G G 000000000  000000000  0000000q00000000000000000000000000000000  N000000EA000000000000000000000000000000000000000000000000000000000000000000000000000Y     0000000        000000    000000000000      1000000        00         0000000000002140024300501005                                                  
BDD1720        16.5X20 B-DRAFT DAMPER        G G 000000000  000000000  0000000q00000000000000000000000000000000  N000000EA000000000000000000000000000000000000000000000000000000000000000000000000000Y     0000000        000000    000000000000      1000000        00         0000000000002140024300501005                                                  
BDD1808        18X8  B-DRAFT SPNG            G G 000000000  000000000  0000000v00000000000000000000000000000000  N000000EA000000000000000000000000000000000000000000000000000000000000000000000000000Y     0000000        000000    000000000000      1000000        00         0000000000002140024300501005                                                  
BDD1810        18X10 B-DRAFT SPNG            G G 000000000  000000000  0000000t00000000000000000000000000000000  N000000EA000000000000000000000000000000000000000000000000000000000000000000000000000Y     0000000        000000    000000000000      1000000        00         0000000000002140024300501005                                                  
BDD1812        18X12 B-DRAFT SPNG            G G 000000000  000000000  0000001q00000000000000000000000000000000  N000000EA000000000000000000000000000000000000000000000000000000000000000000000000000Y     0000000        000000    000000000000      1000000        00         0000000000002140024300501005                                                  
BDD1814        18X14 B-DRAFT                 G G 000000000  000000000  0000000w00000000000000000000000000000000  N000000EA000000000000000000000000000000000000000000000000000000000000000000000000000Y     0000000        000000    000000000000      1000000        00         0000000000002140024300501005                                                  
BDD1816        18X16 B-DRAFT                 G G 000000000  000000000  0000000r00000000000000000000000000000000  N000000EA000000000000000000000000000000000000000000000000000000000000000000000000000Y     0000000        000000    000000000000      1000000        00         0000000000002140024300501005                                                  
BDD1818        18X18 B-DRAFT SPNG            G G 000000000  000000000  0000001u00000000000000000000000000000000  N000000EA000000000000000000000000000000000000000000000000000000000000000000000000000Y     0000000        000000    000000000000      1000000        00         0000000000002140024300501005                                                  
BDD1821        17.5X21 B-DRAFT W/SPRING      G G 000000000  000000000  0000000q00000000000000000000000000000000  N000000EA000000000000000000000000000000000000000000000000000000000000000000000000000Y     0000000        000000    000000000000      1000000        00         0000000000002140024300501005                                                  
BDD1830        18X30 B-DRAFT                 G G 000000000  000000000  0000000000000000000000000000000000000000  N000000EA000000000000000000000000000000000000000000000000000000000000000000000000000Y     0000000        000000    000000000000      1000000        00         0000000000002140024300501005                                                  
BDD1919        18.5X18.5 B-DRAFT W/SPRING    G G 000000000  000000000  0000000v00000000000000000000000000000000  N000000EA000000000000000000000000000000000000000000000000000000000000000000000000000Y     0000000        000000    000000000000      1000000        00         0000000000002140024300501005                                                  
BDD2008        20X8  B-DRAFT                 G G 000000000  000000000  0000000s00000000000000000000000000000000  N000000EA000000000000000000000000000000000000000000000000000000000000000000000000000Y     0000000        000000    000000000000      1000000        00         0000000000002140024300501005                                                  
BDD2014        20X14 B-DRAFT                 G G 000000000  000000000  0000000u00000000000000000000000000000000  N000000EA000000000000000000000000000000000000000000000000000000000000000000000000000Y     0000000        000000    000000000000      1000000        00         0000000000002140024300501005                                                  
BDD2016        20X16 B-DRAFT                 G G 000000000  000000000  0000000x00000000000000000000000000000000  N000000EA000000000000000000000000000000000000000000000000000000000000000000000000000Y     0000000        000000    000000000000      1000000        00         0000000000002140024300501005                                                  
BDD2020        20X20 B-DRAFT                 G G 000000000  000000000  0000004y00000000000000000000000000000000  N000000EA000000000000000000000000000000000000000000000000000000000000000000000000000Y     0000000        000000    000000000000      1000000        00         0000000000002140024300501005                                                  
BDD2030        20X30 B-DRAFT  HI-VEL         G G 000000000  000000000  0000000q00000000000000000000000000000000  N000000EA000000000000000000000000000000000000000000000000000000000000000000000000000Y     0000000        000000    000000000000      1000000        00         0000000000002140024300501005                                                  
BDD2118        21X17.5 B-DRAFT DAMPER        G G 000000000  000000000  0000000000000000000000000000000000000000  N000000EA000000000000000000000000000000000000000000000000000000000000000000000000000Y     0000000        000000    000000000000      1000000        00         0000000000002140024300501005                                                  
BDD2122        21X21.5 B-DRAFT SPRING        G G 000000000  000000000  0000000000000000000000000000000000000000  N000000EA000000000000000000000000000000000000000000000000000000000000000000000000000Y     0000000        000000    000000000000      1000000        00         0000000000002140024300501005                                                  
BDD2212        22X12 B-DRAFT                 G G 000000000  000000000  0000000s00000000000000000000000000000000  N000000EA000000000000000000000000000000000000000000000000000000000000000000000000000Y     0000000        000000    000000000000      1000000        00         0000000000002140024300501005                                                  
BDD2214        22X14 B-DRAFT                 G G 000000000  000000000  0000000r00000000000000000000000000000000  N000000EA000000000000000000000000000000000000000000000000000000000000000000000000000Y     0000000        000000    000000000000      1000000        00         0000000000002140024300501005                                                  
BDD2220        22X20 B-DRAFT  HI-VEL         G G 000000000  000000000  0000000q00000000000000000000000000000000  N000000EA000000000000000000000000000000000000000000000000000000000000000000000000000Y     0000000        000000    000000000000      1000000        00         0000000000002140024300501005                                                  
BDD2222        22X22 B-DRAFT                 G G 000000000  000000000  0000000w00000000000000000000000000000000  N000000EA000000000000000000000000000000000000000000000000000000000000000000000000000Y     0000000        000000    000000000000      1000000        00         0000000000002140024300501005                                                  
BDD2314        22.25 X14 B-DRAFT DAMPER      G G 000000000  000000000  0000000r00000000000000000000000000000000  N000000EA000000000000000000000000000000000000000000000000000000000000000000000000000Y     0000000        000000    000000000000      1000000        00         0000000000002140024300501005                                                  
BDD2408        24X8  B-DRAFT                 G G 000000000  000000000  0000000r00000000000000000000000000000000  N000000EA000000000000000000000000000000000000000000000000000000000000000000000000000Y     0000000        000000    000000000000      1000000        00         0000000000002140024300501005                                                  
BDD2410        24X10 B-DRAFT                 G G 000000000  000000000  0000000000000000000000000000000000000000  N000000EA000000000000000000000000000000000000000000000000000000000000000000000000000Y     0000000        000000    000000000000      1000000        00         0000000000002140024300501005                                                  
BDD2412        24X12 B-DRAFT SPNG            G G 000000000  000000000  0000000t00000000000000000000000000000000  N000000EA000000000000000000000000000000000000000000000000000000000000000000000000000Y     0000000        000000    000000000000      1000000        00         0000000000002140024300501005                                                  
BDD2414        24X14 B-DRAFT SPNG            G G 000000000  000000000  0000000t00000000000000000000000000000000  N000000EA000000000000000000000000000000000000000000000000000000000000000000000000000Y     0000000        000000    000000000000      1000000        00         0000000000002140024300501005                                                  
BDD2416        24X16 B-DRAFT                 G G 000000000  000000000  0000000v00000000000000000000000000000000  N000000EA000000000000000000000000000000000000000000000000000000000000000000000000000Y     0000000        000000    000000000000      1000000        00         0000000000002140024300501005                                                  
BDD2420        24X20 B-DRAFT                 G G 000000000  000000000  0000000s00000000000000000000000000000000  N000000EA000000000000000000000000000000000000000000000000000000000000000000000000000Y     0000000        000000    000000000000      1000000        00         0000000000002140024300501005                                                  
BDD2422        24X22 B-DRAFT  FLG            G G 000000000  000000000  0000000q00000000000000000000000000000000  N000000EA000000000000000000000000000000000000000000000000000000000000000000000000000Y     0000000        000000    000000000000      1000000        00         0000000000002140024300501005                                                  
BDD2424        24X24 B-DRAFT                 G G 000000000  000000000  0000001t00000000000000000000000000000000  N000000EA000000000000000000000000000000000000000000000000000000000000000000000000000Y     0000000        000000    000000000000      1000000        00         0000000000002140024300501005                                                  
BDD2434        24X34 B-DRAFT                 G G 000000000  000000000  0000000q00000000000000000000000000000000  N000000EA000000000000000000000000000000000000000000000000000000000000000000000000000Y     0000000        000000    000000000000      1000000        00         0000000000002140024300501005                                                  
BDD2460        24X60 B-DRAFT CB              G G 000000000  000000000  0000000000000000000000000000000000000000  N000000EA000000000000000000000000000000000000000000000000000000000000000000000000000Y     0000000        000000    000000000000      1000000        00         0000000000002140024300501005                                                  
BDD2512        25X12 B-DRAFT SPNG            G G 000000000  000000000  0000000q00000000000000000000000000000000  N000000EA000000000000000000000000000000000000000000000000000000000000000000000000000Y     0000000        000000    000000000000      1000000        00         0000000000002140024300501005                                                  
BDD2516        25X16 B-DRAFT SPNG            G G 000000000  000000000  0000000s00000000000000000000000000000000  N000000EA000000000000000000000000000000000000000000000000000000000000000000000000000Y     0000000        000000    000000000000      1000000        00         0000000000002140024300501005                                                  
BDD2518        25X18 B-DRAFT SPNG            G G 000000000  000000000  0000000000000000000000000000000000000000  N000000EA000000000000000000000000000000000000000000000000000000000000000000000000000Y     0000000        000000    000000000000      1000000        00         0000000000002140024300501005                                                  
BDD2624        26X24 B-DRAFT  HI-VEL         G G 000000000  000000000  0000000q00000000000000000000000000000000  N000000EA000000000000000000000000000000000000000000000000000000000000000000000000000Y     0000000        000000    000000000000      1000000        00         0000000000002140024300501005                                                  
BDD2626        26X26 B-DRAFT                 G G 000000000  000000000  0000000t00000000000000000000000000000000  N000000EA000000000000000000000000000000000000000000000000000000000000000000000000000Y     0000000        000000    000000000000      1000000        00         0000000000002140024300501005                                                  
BDD2727        26.5X26.5 B-DRAFT W/SPRING    G G 000000000  000000000  0000000q00000000000000000000000000000000  N000000EA000000000000000000000000000000000000000000000000000000000000000000000000000Y     0000000        000000    000000000000      1000000        00         0000000000002140024300501005                                                  
BDD3016        30X16 B-DRAFT                 G G 000000000  000000000  0000000000000000000000000000000000000000  N000000EA000000000000000000000000000000000000000000000000000000000000000000000000000Y     0000000        000000    000000000000      1000000        00         0000000000002140024300501005                                                  
BDD3030        30X30 B-DRAFT  HI-VEL         G G 000000000  000000000  0000002u00000000000000000000000000000000  N000000EA000000000000000000000000000000000000000000000000000000000000000000000000000Y     0000000        000000    000000000000      1000000        00         0000000000002140024300501005                                                  
BDD3035        30 NX 34.5 B-DRAFT            G G 000000000  000000000  0000000000000000000000000000000000000000  N000000EA000000000000000000000000000000000000000000000000000000000000000000000000000Y     0000000        000000    000000000000      1000000        00         0000000000002140024300501005                                                  
BDD3072        30X72 B-DRAFT                 G G 000000000  000000000  0000000000000000000000000000000000000000  N000000EA000000000000000000000000000000000000000000000000000000000000000000000000000Y     0000000        000000    000000000000      1000000        00         0000000000002140024300501005                                                  
BDD3216        32X16 B-DRAFT                 G G 000000000  000000000  0000000000000000000000000000000000000000  N000000EA000000000000000000000000000000000000000000000000000000000000000000000000000Y     0000000        000000    000000000000      1000000        00         0000000000002140024300501005                                                  
BDD3416        34X16 B-DRAFT                 G G 000000000  000000000  0000000000000000000000000000000000000000  N000000EA000000000000000000000000000000000000000000000000000000000000000000000000000Y     0000000        000000    000000000000      1000000        00         0000000000002140024300501005                                                  
BDD3422        34X22 B-DRAFT  FLG            G G 000000000  000000000  0000000000000000000000000000000000000000  N000000EA000000000000000000000000000000000000000000000000000000000000000000000000000Y     0000000        000000    000000000000      1000000        00         0000000000002140024300501005                                                  
BDD3536        35X36 B-DRAFT  HI-VEL         G G 000000000  000000000  0000000000000000000000000000000000000000  N000000EA000000000000000000000000000000000000000000000000000000000000000000000000000Y     0000000        000000    000000000000      1000000        00         0000000000002140024300501005                                                  
BDD3616        36X16 B-DRAFT CB              G G 000000000  000000000  0000000q00000000000000000000000000000000  N000000EA000000000000000000000000000000000000000000000000000000000000000000000000000Y     0000000        000000    000000000000      1000000        00         0000000000002140024300501005                                                  
BDD3624        36X24 B-DRAFT                 G G 000000000  000000000  0000000s00000000000000000000000000000000  N000000EA000000000000000000000000000000000000000000000000000000000000000000000000000Y     0000000        000000    000000000000      1000000        00         0000000000002140024300501005                                                  
BDD3636        36X36 B-DRAFT                 G G 000000000  000000000  0000001y00000000000000000000000000000000  N000000EA000000000000000000000000000000000000000000000000000000000000000000000000000Y     0000000        000000    000000000000      1000000        00         0000000000002140024300501005                                                  
BDD3830        38X30 B-DRAFT                 G G 000000000  000000000  0000000r00000000000000000000000000000000  N000000EA000000000000000000000000000000000000000000000000000000000000000000000000000Y     0000000        000000    000000000000      1000000        00         0000000000002140024300501005                                                  
BDD4020        40X20 B-DRAFT                 G G 000000000  000000000  0000000s00000000000000000000000000000000  N000000EA000000000000000000000000000000000000000000000000000000000000000000000000000Y     0000000        000000    000000000000      1000000        00         0000000000002140024300501005                                                  
BDD4040        40X40 B-DRAFT  HI-VEL         G G 000000000  000000000  0000000000000000000000000000000000000000  N000000EA000000000000000000000000000000000000000000000000000000000000000000000000000Y     0000000        000000    000000000000      1000000        00         0000000000002140024300501005                                                  
BDD4212        42X12 B-DRAFT                 G G 000000000  000000000  0000000q00000000000000000000000000000000  N000000EA000000000000000000000000000000000000000000000000000000000000000000000000000Y     0000000        000000    000000000000      1000000        00         0000000000002140024300501005                                                  
BDD4242        42X42 B-DRAFT  HI-VEL         G G 000000000  000000000  0000000s00000000000000000000000000000000  N000000EA000000000000000000000000000000000000000000000000000000000000000000000000000Y     0000000        000000    000000000000      1000000        00         0000000000002140024300501005                                                  
BDD4318        43X18 B-DRAFT  HI-VEL         G G 000000000  000000000  0000000000000000000000000000000000000000  N000000EA000000000000000000000000000000000000000000000000000000000000000000000000000Y     0000000        000000    000000000000      1000000        00         0000000000002140024300501005                                                  
BDD4430        44X30 B-DRAFT                 G G 000000000  000000000  0000000q00000000000000000000000000000000  N000000EA000000000000000000000000000000000000000000000000000000000000000000000000000Y     0000000        000000    000000000000      1000000        00         0000000000002140024300501005                                                  
BDD4488        44X88 B-DRAFT  HI-VEL         G G 000000000  000000000  0000000000000000000000000000000000000000  N000000EA000000000000000000000000000000000000000000000000000000000000000000000000000Y     0000000        000000    000000000000      1000000        00         0000000000002140024300501005                                                  
BDD4743        46.5X43 B-DRAFT DAMPER        G G 000000000  000000000  0000000r00000000000000000000000000000000  N000000EA000000000000000000000000000000000000000000000000000000000000000000000000000Y     0000000        000000    000000000000      1000000        00         0000000000002140024300501005                                                  
BDD4747        47X47 B-DRAFT                 G G 000000000  000000000  0000000q00000000000000000000000000000000  N000000EA000000000000000000000000000000000000000000000000000000000000000000000000000Y     0000000        000000    000000000000      1000000        00         0000000000002140024300501005                                                  
BDD4820        48X20 B-DRAFT  HI-VEL         G G 000000000  000000000  0000000000000000000000000000000000000000  N000000EA000000000000000000000000000000000000000000000000000000000000000000000000000Y     0000000        000000    000000000000      1000000        00         0000000000002140024300501005                                                  
BDD4822        48X22 B-DRAFT  HI-VEL         G G 000000000  000000000  0000000r00000000000000000000000000000000  N000000EA000000000000000000000000000000000000000000000000000000000000000000000000000Y     0000000        000000    000000000000      1000000        00         0000000000002140024300501005                                                  
BDD4824        48X24 B-DRAFT  HI-VEL         G G 000000000  000000000  0000000000000000000000000000000000000000  N000000EA000000000000000000000000000000000000000000000000000000000000000000000000000Y     0000000        000000    000000000000      1000000        00         0000000000002140024300501005                                                  
BDD4840        48X40 B-DRAFT                 G G 000000000  000000000  0000000000000000000000000000000000000000  N000000EA000000000000000000000000000000000000000000000000000000000000000000000000000Y     0000000        000000    000000000000      1000000        00         0000000000002140024300501005                                                  
BDD4844        48X44 B-DRAFT                 G G 000000000  000000000  0000000000000000000000000000000000000000  N000000EA000000000000000000000000000000000000000000000000000000000000000000000000000Y     0000000        000000    000000000000      1000000        00         0000000000002140024300501005                                                  
BDD4848        48X48 B-DRAFT                 G G 000000000  000000000  0000000000000000000000000000000000000000  N000000EA000000000000000000000000000000000000000000000000000000000000000000000000000Y     0000000        000000    000000000000      1000000        00         0000000000002140024300501005                                                  
BDD4859        48X59 B-DRAFT  HI-VEL         G G 000000000  000000000  0000000000000000000000000000000000000000  N000000EA000000000000000000000000000000000000000000000000000000000000000000000000000Y     0000000        000000    000000000000      1000000        00         0000000000002140024300501005                                                  
BDD5151        51X51 B-DRAFT  HI-VEL         G G 000000000  000000000  0000000000000000000000000000000000000000  N000000EA000000000000000000000000000000000000000000000000000000000000000000000000000Y     0000000        000000    000000000000      1000000        00         0000000000002140024300501005                                                  
BDD5624        56X24 B-DRAFT  HI-VEL         G G 000000000  000000000  0000000q00000000000000000000000000000000  N000000EA000000000000000000000000000000000000000000000000000000000000000000000000000Y     0000000        000000    000000000000      1000000        00         0000000000002140024300501005                                                  
BDD6012        60X12 B-DRAFT  HI-VEL         G G 000000000  000000000  0000000q00000000000000000000000000000000  N000000EA000000000000000000000000000000000000000000000000000000000000000000000000000Y     0000000        000000    000000000000      1000000        00         0000000000002140024300501005                                                  
BDD6022        60X22 B-DRAFT  HI-VEL         G G 000000000  000000000  0000000000000000000000000000000000000000  N000000EA000000000000000000000000000000000000000000000000000000000000000000000000000Y     0000000        000000    000000000000      1000000        00         0000000000002140024300501005                                                  
BDD6060        60X60 B-DRAFT                 G G 000000000  000000000  0000000s00000000000000000000000000000000  N000000EA000000000000000000000000000000000000000000000000000000000000000000000000000Y     0000000        000000    000000000000      1000000        00         0000000000002140024300501005                                                  
BDD6440        64X40 B-DRAFT                 G G 000000000  000000000  0000000000000000000000000000000000000000  N000000EA000000000000000000000000000000000000000000000000000000000000000000000000000Y     0000000        000000    000000000000      1000000        00         0000000000002140024300501005                                                  
BDD6565        65X65 B-DRAFT  HI-VEL         G G 000000000  000000000  0000000000000000000000000000000000000000  N000000EA000000000000000000000000000000000000000000000000000000000000000000000000000Y     0000000        000000    000000000000      1000000        00         0000000000002140024300501005                                                  
BDD6660        59.25X65.25 B-DRAFT DAMPER    G G 000000000  000000000  0000000000000000000000000000000000000000  N000000EA000000000000000000000000000000000000000000000000000000000000000000000000000Y     0000000        000000    000000000000      1000000        00         0000000000002140024300501005                                                  
BDD7424        74X24 B-DRAFT                 G G 000000000  000000000  0000000000000000000000000000000000000000  N000000EA000000000000000000000000000000000000000000000000000000000000000000000000000Y     0000000        000000    000000000000      1000000        00         0000000000002140024300501005                                                  
BDD7530        75X30 B-DRAFT                 G G 000000000  000000000  0000000000000000000000000000000000000000  N000000EA000000000000000000000000000000000000000000000000000000000000000000000000000Y     0000000        000000    000000000000      1000000        00         0000000000002140024300501005                                                  
CSR02          2'LG CURB SUPPORT RAIL W/FLSHGD D 000000000  000100000  0000000y00000000000000000000000000000000  N000000EA000000000000000000000000000000000000000000000000000000000000000000000000000Y     0000000        000000    000000000000      2000000        00         0000000000002140024300501005                                                  
CSR04          4'LG CURB SUPPORT RAIL W/FLSHGD D 000000000  000200000  0000002p00000000000000000000000000000000  N000000EA000000000000000000000000000000000000000000000000000000000000000000000000000Y     0000000        000000    000000000000      2000000        00         0000000000002140024300501005                                                  
CSR06          6'LG CURB SUPPORT RAIL W/FLSHGD D 000000000  000300000  0000001p00000000000000000000000000000000  N000000EA000000000000000000000000000000000000000000000000000000000000000000000000000Y     0000000        000000    000000000000      2000000        00         0000000000002140024300501005                                                  
CSR08          8'LG CURB SUPPORT RAIL W/FLSHGD D 000000000  000400000  0000002p00000000000000000000000000000000  N000000EA000000000000000000000000000000000000000000000000000000000000000000000000000Y     0000000        000000    000000000000      2000000        00         0000000000002140024300501005                                                  
CSR10          10'LG CURB SUPPORT RAIL W/FLSHD D 000000000  000500000  0000000v00000000000000000000000000000000  N000000EA000000000000000000000000000000000000000000000000000000000000000000000000000Y     0000000        000000    000000000000      2000000        00         0000000000002140024300501005                                                  
DD0424         04" VOLUMN DAMPER 24GA W/QDT  J4J 000001650  000001650  0000000000000000000000000000000000000000  N000000EA000000000000000000000000000000000000000000000000000000000000000000000000000Y     0000000        000000    000000000001      2000000        00         0000000000002140024300501005                                                  
DD0524         05" VOLUMN DAMPER 24GA W/QDT  J4J 000001750  000001750  0000000000000000000000000000000000000000  N000000EA000000000000000000000000000000000000000000000000000000000000000000000000000Y     0000000        000000    000000000001      2000000        00         0000000000002140024300501005                                                  
DD0624         06" VOLUMN DAMPER 24GA W/QDT  J4J 000002000  000002000  0000000s00000000000000000000000000000000  N000000EA000000000000000000000000000000000000000000000000000000000000000000000000000Y     0000000        000000    000000000001      2000000        00         0000000000002140024300501005                                                  
DD0724         07" VOLUMN DAMPER 24GA W/QDT  J4J 000002300  000002300  0000000000000000000000000000000000000000  N000000EA000000000000000000000000000000000000000000000000000000000000000000000000000Y     0000000        000000    000000000001      2000000        00         0000000000002140024300501005                                                  
DD0824         08" VOLUMN DAMPER 24GA W/QDT  J4J 000002650  000002650  0000000000000000000000000000000000000000  N000000EA000000000000000000000000000000000000000000000000000000000000000000000000000Y     0000000        000000    000000000001      2000000        00         0000000000002140024300501005                                                  
DD0924         09" VOLUMN DAMPER W/QDT       J4J 000002950  000002950  0000000000000000000000000000000000000000  N000000EA000000000000000000000000000000000000000000000000000000000000000000000000000Y     0000000        000000    000000000001      2000000        00         0000000000002140024300501005                                                  
DD1024         10" VOLUMN DAMPER W/QDT       J4J 000003300  000003300  0000000000000000000000000000000000000000  N000000EA000000000000000000000000000000000000000000000000000000000000000000000000000Y     0000000        000000    000000000001      2000000        00         0000000000002140024300501005                                                  
DD1224         12" VOLUMN DAMPER W/QDT       J4J 000003950  000003950  0000000r00000000000000000000000000000000  N000000EA000000000000000000000000000000000000000000000000000000000000000000000000000Y     0000000        000000    000000000001      2000000        00         0000000000002140024300501005                                                  
DD1424         14" VOLUMN DAMPER W/QDT       J4J 000005300  000005300  0000000000000000000000000000000000000000  N000000EA000000000000000000000000000000000000000000000000000000000000000000000000000Y     0000000        000000    000000000001      2000000        00         0000000000002140024300501005                                                  
DH06           06" HEAVY DUTY VOLUMN DAMPER  J4J 000009000  000009000  0000000000000000000000000000000000000000  N000000EA000000000000000000000000000000000000000000000000000000000000000000000000000Y     0000000        000000    000000000001      2000000        00         0000000000002140024300501005                                                  
DH07           07" HEAVY DUTY VOLUMN DAMPER  J4J 000010000  000010000  0000000000000000000000000000000000000000  N000000EA000000000000000000000000000000000000000000000000000000000000000000000000000Y     0000000        000000    000000000001      2000000        00         0000000000002140024300501005                                                  
DH08           08" HEAVY DUTY VOLUMN DAMPER  J4J 000011000  000011000  0000000q00000000000000000000000000000000  N000000EA000000000000000000000000000000000000000000000000000000000000000000000000000Y     0000000        000000    000000000001      2000000        00         0000000000002140024300501005                                                  
DH09           09" HEAVY DUTY VOLUMN DAMPER  J4J 000012000  000012000  0000000000000000000000000000000000000000  N000000EA000000000000000000000000000000000000000000000000000000000000000000000000000Y     0000000        000000    000000000001      2000000        00         0000000000002140024300501005                                                  
DH10           10" HEAVY DUTY VOLUMN DAMPER  J4J 000013000  000013000  0000000t00000000000000000000000000000000  N000000EA000000000000000000000000000000000000000000000000000000000000000000000000000Y     0000000        000000    000000000001      2000000        00         0000000000002140024300501005                                                  
DH12           12" HEAVY DUTY VOLUMN DAMPER  J4J 000014000  000014000  0000000q00000000000000000000000000000000  N000000EA000000000000000000000000000000000000000000000000000000000000000000000000000Y     0000000        000000    000000000001      2000000        00         0000000000002140024300501005                                                  
DH14           14" HEAVY DUTY VOLUMN DAMPER  J4J 000016000  000016000  0000000000000000000000000000000000000000  N000000EA000000000000000000000000000000000000000000000000000000000000000000000000000Y     0000000        000000    000000000001      2000000        00         0000000000002140024300501005                                                  
DH16           16" HEAVY DUTY VOLUMN DAMPER  J4J 000019200  000019200  0000000000000000000000000000000000000000  N000000EA000000000000000000000000000000000000000000000000000000000000000000000000000Y     0000000        000000    000000000001      2000000        00         0000000000002140024300501005                                                  
DH18           18" HEAVY DUTY VOLUMN DAMPER  J4J 000021600  000021600  0000000000000000000000000000000000000000  N000000EA000000000000000000000000000000000000000000000000000000000000000000000000000Y     0000000        000000    000000000001      2000000        00         0000000000002140024300501005                                                  
DH20           20" HEAVY DUTY VOLUMN DAMPER  J4J 000024000  000024000  0000000000000000000000000000000000000000  N000000EA000000000000000000000000000000000000000000000000000000000000000000000000000Y     0000000        000000    000000000001      2000000        00         0000000000002140024300501005                                                  
DH22           22" HEAVY DUTY VOLUMN DAMPER  J4J 000033600  000033600  0000000000000000000000000000000000000000  N000000EA000000000000000000000000000000000000000000000000000000000000000000000000000Y     0000000        000000    000000000001      2000000        00         0000000000002140024300501005                                                  
DH24           24" HEAVY DUTY VOLUMN DAMPER  J4J 000036000  000036000  0000000000000000000000000000000000000000  N000000EA000000000000000000000000000000000000000000000000000000000000000000000000000Y     0000000        000000    000000000001      2000000        00         0000000000002140024300501005                                                  
DH26           26" HEAVY DUTY VOLUMN DAMPER  J4J 000046800  000046800  0000000000000000000000000000000000000000  N000000EA000000000000000000000000000000000000000000000000000000000000000000000000000Y     0000000        000000    000000000001      2000000        00         0000000000002140024300501005                                                  
DH28           28" HEAVY DUTY VOLUMN DAMPER  J4J 000050400  000050400  0000000000000000000000000000000000000000  N000000EA000000000000000000000000000000000000000000000000000000000000000000000000000Y     0000000        000000    000000000001      2000000        00         0000000000002140024300501005                                                  
DH30           30" HEAVY DUTY VOLUMN DAMPER  J4J 000054000  000054000  0000000000000000000000000000000000000000  N000000EA000000000000000000000000000000000000000000000000000000000000000000000000000Y     0000000        000000    000000000001      2000000        00         0000000000002140024300501005                                                  
DPS            DAMPER PROVING SWITCH         E E 000040440  000055000  0000004000000010000000000000000300000000  S000000EA000000000000000000000000400000001000000220000000055000000001617600000404400Y     0000000        000000    000000000000      2000000        00         0000000400002140024300501005                                                  
DQ             QUADRANT 1/2"RD ROD (GALV)    J J 000001520  000004000  0003215s00000000000000000000020600000000  N000000EA000000000000000000000002400000071500000090000000256060000000364800001086800Y     0000000        000000    000000000001      2000000        00         0000019800002140024300501005                                                  
DQS            QUADRANT (ST.STL) 1/2"RD ROD  J1J 000006550  000012000  0000107t00000000000000000000000700000000  N000000EA000000000000000000000000300000002600000036000000032540000000196500000170300Y     0000000        000000    000000000001      2000000        00         0000000700002140024300501005                                                  
DQSO           GALV.QUADRANT W/2"STANDOFF    J J 000000000  000012000  0000320p00000000000000000000003100000000  N000000EA000000000000000000000002000000017700000234600000191340000000000000000000000Y     0000000        000000    000000000001      2000000        00         0000002400002140024300501005                                                  
DSA            LESS DISCOUNT ON DAMPERS      A   000000000  000000000  0000012900000000000000000000000000000000  N000000NT000000000000000000000000000000000000000000000000000000000000000000000000000Y     0000000        000000    000000000001      2000000        00         0000000000002140024300501005                                                  
DSB            LESS DISCOUNT ACCESS DOORS    B   000000000  000000000  0000001600000000000000000000000000000000  N000000EA000000000000000000000000000000000000000000000000000000000000000000000000000Y     0000000        000000    000000000001      2000000        00         0000000000002140024300501005                                                  
DSC            LESS DISCOUNT LOUVERS         C   000000000  000000000  0000006600000000000000000000000000000000  N000000EA000000000000000000000000000000000000000000000000000000000000000000000000000Y     0000000        000000    000000000000      2000000        00         0000000000002140024300501005                                                  
DSE            LESS DISCOUNT/ACTUATORS       E E 000000000  000000000  0000000r00000000000000000000000000000000  N000000EA000000000000000000000000000000000200000000000000023500000000000000000000000Y     0000000        000000    000000000000      2000000        00         0000000000002140024300501005                                                  
DSH            LESS QUANTITY DISCOUNT RD DAMPH H 000000000  000000000  0000002000000000000000000000000000000000  N000000EA000000000000000000000000000000000000000000000000000000000000000000000000000Y     0000000        000000    000000000000      2000000        00         0000000000002140024300501005                                                  
J35            J-35 FRAME GALV               Q Q 000030000  000000064  0000000000000000000000000000000000000000  N000000EA000000000000000000000000000000000000000000000000000000000000000000000000000Y     0000000                  000000000002      2  0000        00         00000000                                                                      
J35A           J-35 FRAME ALUM               Q Q 000030000  000000064  0000000000000000000000000000000000000000  N000000EA000000000000000000000000000000000000000000000000000000000000000000000000000Y     0000000                  000000000002      2  0000        00         00000000                                                                      
J35S           J-35 FRAME SS                 Q Q 000030000  000000064  0000000000000000000000000000000000000000  N000000EA000000000000000000000000000000000000000000000000000000000000000000000000000Y     0000000                  000000000002      2  0000        00         00000000                                                                      
LF120          LF-120V BELIMO SPRING MOTOR   E E 000075010  000125000  0000001300000009000000000000000400000000  S000000EA000000000000000000000000000000001000000000000000125000000000000000000750100Y     0000000        000000    000000000000      2000000        00         0000000500002140024300501005                                                  
LF120S         LF-120V BELIMO MOTOR W/SWITCH E E 000088410  000145000  0000001300000002000000000000000500000000  S000000EA000000000000000000000000000000001700000000000000246500000000000000001502970Y     0000000        000000    000000000000      2000000        00         0000000500002140024300501005                                                  
LF24           LF-24V BELIMO SPRING MOTOR    E E 000066980  000110000  0000000800000002000000000000000200000000  S000000EA000000000000000000000000000000000800000000000000088000000000000000000535840Y     0000000        000000    000000000000      2000000        00         0000000200002140024300501005                                                  
LF24S          LF-24V BELIMO MOTOR W/SWITCH  E E 000080380  000130000  0000001300000001000000000000000300000000  S000000EA000000000000000000000000000000001900000000000000247000000000000000001527220Y     0000000        000000    000000000000      2000000        00         0000000300002140024300501005                                                  
LF24SR         LF24-SR MODULATING ACTUATOR   E E 000091930  000160000  0000000400000004000000000000000000000000  S000000EA000000000000000000000000000000000000000000000000000000000000000000000000000Y     0000000        000000    000000000000      2000000        00         0000000000002140024300501005                                                  
LF24SRS        LF24SR-S MODULATING BELIMO W/SE E 000107160  000180000  0000000000000000000000000000000000000000  S000000EA000000000000000000000000000000000000000000000000000000000000000000000000000Y     0000000        000000    000000000000      2000000        00         0000000000002140024300501005                                                  
NF24S          NF-24V BELIMO MOTOR W/SWITCH  E E 000085000  000135000  0000000000000000000000000000000000000000  S000000EA000000000000000000000000000000000000000000000000000000000000000000000000000Y     0000000        000000    000000000000      2000000        00         0000000000002140024300501005                                                  
NFB24          NFB-24 BELIMO SPRING ACTUATOR E E 000106140  000130000  0000000000000000000000000000000000000000  S000000EA000000000000000000000000000000000000000000000000000000000000000000000000000Y     0000000                  000000000002      2  0000        00         00000000                                                                      
NFB24MFTS      NFB24-MFT-S MULTI-FUNCTION W/SE   000000000  000275000  0000000000000000000000000000000000000000  N000000EA                 0000000000000000000000000000000000000000000000000000000000Y     0000000                  000000000002      2  0000        00                 000000                                                                
NFB24S         NFB-24-S BELIMO W/SWITCH      E E 000131660  000160000  0000000000000000000000000000000000000000  S000000EA000000000000000000000000000000000000000000000000000000000000000000000000000Y     0000000                  000000000002      2  0000        00         00000000                                                                      
NFB24SR        NFB24-SR BELIMO 2-10 VDC      E E 000099130  000185000  0000000000000000000000000000000000000000  N000000EA000000000000000000000000000000000000000000000000000000000000000000000000000Y     0000000                  000000000002      2  0000        00         00000000                                                                      
NFB24SRS       NFB24-SR-S 2-10VDC W/SWITCH   E E 000179850  000225000  0000000000000000000000000000000000000000  N000000EA000000000000000000000000000000000000000000000000000000000000000000000000000Y     0000000                  000000000002      2  0000        00         00000000                                                                      
NFBUP          NFB-UP BELIMO 24V-240V SPRING E E 000085730  000150000  0000001200000001000000000000000200000000  S000000EA000000000000000000000000400000001000000600000000150000000003429200000857300Y     0000000                  000000000002      2  0000        00         00000003                                                                      
NFBUPS         NFB-UP-S BELIMO 24-240 W/SWTCHE E 000101840  000180000  0000002400000015000000000000000400000000  S000000EA000000000000000000000000200000000s0000036000000005400p0000020368000003055r0Y     0000000                  000000000002      2  0000        00         00000007                                                                      
OBN            OPPOSED BLADE NON SEALED      A1A 0000000005 000000000  0001101t00000000000000000000008100000000  N000000EA000000000000000000000001500000027700001863150002809950000000000000000000000Y     0000000        000000    000000000001      2000000        00         0000007900002140024300501005                                                  
OBN1010        10X10    OPPOSED BLADE        A1A 0000000005 000000000  0000000000000000000000000000000000000000  N000000EA000000000000000000000000000000000000000000000000000000000000000000000000000Y     0000000        000000    000000000001      1000000        00         0000000000002140024300501005                                                  
OBN104X30      104X29.5 OPPOSED BLADE        A1A 0000000005 000000000  0000000000000000000000000000000000000000  N000000EA000000000000000000000000000000000000000000000000000000000000000000000000000Y     0000000        000000    000000000001      1000000        00         0000000000002140024300501005                                                  
OBN110X20      110X20   OPPOSED BLADE        A1A 0000000005 000000000  0000000000000000000000000000000000000000  N000000EA000000000000000000000000000000000000000000000000000000000000000000000000000Y     0000000        000000    000000000001      1000000        00         0000000000002140024300501005                                                  
OBN110X46      110X46   OPPOSED BLADE        A1A 0000000005 000000000  0000000000000000000000000000000000000000  N000000EA000000000000000000000000000000000000000000000000000000000000000000000000000Y     0000000        000000    000000000001      1000000        00         0000000000002140024300501005                                                  
OBN112X20      112X20   OPPOSED BLADE        A1A 0000000005 000000000  0000000000000000000000000000000000000000  N000000EA000000000000000000000000000000000000000000000000000000000000000000000000000Y     0000000        000000    000000000001      1000000        00         0000000000002140024300501005                                                  
OBN118X20      118X20   OPPOSED BLADE        A1A 0000000005 000000000  0000000q00000000000000000000000000000000  N000000EA000000000000000000000000000000000000000000000000000000000000000000000000000Y     0000000        000000    000000000001      1000000        00         0000000000002140024300501005                                                  
OBN118X22      118X22   OPPOSED BLADE        A1A 0000000005 000000000  0000000q00000000000000000000000000000000  N000000EA000000000000000000000000000000000000000000000000000000000000000000000000000Y     0000000        000000    000000000001      1000000        00         0000000000002140024300501005                                                  
OBN120X20      120X20   OPPOSED BLADE        A1A 0000000005 000000000  0000000000000000000000000000000000000000  N000000EA000000000000000000000000000000000000000000000000000000000000000000000000000Y     0000000        000000    000000000001      1000000        00         0000000000002140024300501005                                                  
OBN1212        12X12    OPPOSED BLADE        A1A 0000000005 000000000  0000004w00000000000000000000000000000000  N000000EA000000000000000000000000000000000000000000000000000000000000000000000000000Y     0000000        000000    000000000001      1000000        00         0000000000002140024300501005                                                  
OBN1214        12X14    OPPOSED BLADE        A1A 0000000005 000000000  0000000t00000000000000000000000000000000  N000000EA000000000000000000000000000000000000000000000000000000000000000000000000000Y     0000000        000000    000000000001      1000000        00         0000000000002140024300501005                                                  
OBN1216        12X16    OPPOSED BLADE        A1A 0000000005 000000000  0000000q00000000000000000000000000000000  N000000EA000000000000000000000000000000000000000000000000000000000000000000000000000Y     0000000        000000    000000000001      1000000        00         0000000000002140024300501005                                                  
OBN1412        14X12    OPPOSED BLADE        A1A 0000000005 000000000  0000004v00000000000000000000000000000000  N000000EA000000000000000000000000000000000000000000000000000000000000000000000000000Y     0000000        000000    000000000001      1000000        00         0000000000002140024300501005                                                  
OBN1414        14X14    OPPOSED BLADE        A1A 0000000005 000000000  0000006u00000000000000000000000000000000  N000000EA000000000000000000000000000000000000000000000000000000000000000000000000000Y     0000000        000000    000000000001      1000000        00         0000000000002140024300501005                                                  
OBN1420        14X20    OPPOSED BLADE        A1A 0000000005 000000000  0000000000000000000000000000000000000000  N000000EA000000000000000000000000000000000000000000000000000000000000000000000000000Y     0000000        000000    000000000001      1000000        00         0000000000002140024300501005                                                  
OBN1424        14X24    OPPOSED BLADE        A1A 0000000005 000000000  0000000000000000000000000000000000000000  N000000EA000000000000000000000000000000000000000000000000000000000000000000000000000Y     0000000        000000    000000000001      1000000        00         0000000000002140024300501005                                                  
OBN1436        14X36    OPPOSED BLADE        A1A 0000000005 000000000  0000000000000000000000000000000000000000  N000000EA000000000000000000000000000000000000000000000000000000000000000000000000000Y     0000000        000000    000000000001      1000000        00         0000000000002140024300501005                                                  
OBN1446        14X46    OPPOSED BLADE        A1A 0000000005 000000000  0000000000000000000000000000000000000000  N000000EA000000000000000000000000000000000000000000000000000000000000000000000000000Y     0000000        000000    000000000001      1000000        00         0000000000002140024300501005                                                  
OBN1612        16X12    OPPOSED BLADE        A1A 0000000005 000000000  0000006t00000000000000000000000000000000  N000000EA000000000000000000000000000000000000000000000000000000000000000000000000000Y     0000000        000000    000000000001      1000000        00         0000000000002140024300501005                                                  
OBN1614        16X14    OPPOSED BLADE        A1A 0000000005 000000000  0000004s00000000000000000000000000000000  N000000EA000000000000000000000000000000000000000000000000000000000000000000000000000Y     0000000        000000    000000000001      1000000        00         0000000000002140024300501005                                                  
OBN1615        16X15    OPPOSED BLADE        A1A 0000000005 000000000  0000000t00000000000000000000000000000000  N000000EA000000000000000000000000000000000000000000000000000000000000000000000000000Y     0000000        000000    000000000001      1000000        00         0000000000002140024300501005                                                  
OBN1616        16X16    OPPOSED BLADE        A1A 0000000005 000000000  0000005v00000000000000000000000000000000  N000000EA000000000000000000000000000000000000000000000000000000000000000000000000000Y     0000000        000000    000000000001      1000000        00         0000000000002140024300501005                                                  
OBN1716        16.25X15.25 OPPOSED BLADE     A1A 0000000005 000000000  0000000r00000000000000000000000000000000  N000000EA000000000000000000000000000000000000000000000000000000000000000000000000000Y     0000000        000000    000000000001      1000000        00         0000000000002140024300501005                                                  
OBN1812        18X12    OPPOSED BLADE        A1A 0000000005 000000000  0000012x00000000000000000000000000000000  N000000EA000000000000000000000000000000000000000000000000000000000000000000000000000Y     0000000        000000    000000000001      1000000        00         0000000000002140024300501005                                                  
OBN1814        18X14    OPPOSED BLADE        A1A 0000000005 000000000  0000003x00000000000000000000000000000000  N000000EA000000000000000000000000000000000000000000000000000000000000000000000000000Y     0000000        000000    000000000001      1000000        00         0000000000002140024300501005                                                  
OBN1816        18X16    OPPOSED BLADE        A1A 0000000005 000000000  0000002q00000000000000000000000000000000  N000000EA000000000000000000000000000000000000000000000000000000000000000000000000000Y     0000000        000000    000000000001      1000000        00         0000000000002140024300501005                                                  
OBN1818        18X18    OPPOSED BLADE        A1A 0000000005 000000000  0000005r00000000000000000000000000000000  N000000EA000000000000000000000000000000000000000000000000000000000000000000000000000Y     0000000        000000    000000000001      1000000        00         0000000000002140024300501005                                                  
OBN1820        18X20    OPPOSED BLADE        A1A 0000000005 000000000  0000000s00000000000000000000000000000000  N000000EA000000000000000000000000000000000000000000000000000000000000000000000000000Y     0000000        000000    000000000001      1000000        00         0000000000002140024300501005                                                  
OBN1830        18X30    OPPOSED BLADE        A1A 0000000005 000000000  0000000q00000000000000000000000000000000  N000000EA000000000000000000000000000000000000000000000000000000000000000000000000000Y     0000000        000000    000000000001      1000000        00         0000000000002140024300501005                                                  
OBN1915        19X15    OPPOSED BLADE        A1A 0000000005 000000000  0000000000000000000000000000000000000000  N000000EA000000000000000000000000000000000000000000000000000000000000000000000000000Y     0000000        000000    000000000001      1000000        00         0000000000002140024300501005                                                  
OBN1917        19X17    OPPOSED BLADE        A1A 0000000005 000000000  0000000000000000000000000000000000000000  N000000EA000000000000000000000000000000000000000000000000000000000000000000000000000Y     0000000        000000    000000000001      1000000        00         0000000000002140024300501005                                                  
OBN2012        20X12    OPPOSED BLADE        A1A 0000000005 000000000  0000004y00000000000000000000000000000000  N000000EA000000000000000000000000000000000000000000000000000000000000000000000000000Y     0000000        000000    000000000001      1000000        00         0000000000002140024300501005                                                  
OBN2014        20X14    OPPOSED BLADE        A1A 0000000005 000000000  0000007p00000000000000000000000000000000  N000000EA000000000000000000000000000000000000000000000000000000000000000000000000000Y     0000000        000000    000000000001      1000000        00         0000000000002140024300501005                                                  
OBN2016        20X16    OPPOSED BLADE        A1A 0000000005 000000000  0000006y00000000000000000000000000000000  N000000EA000000000000000000000000000000000000000000000000000000000000000000000000000Y     0000000        000000    000000000001      1000000        00         0000000000002140024300501005                                                  
OBN2017        20X17    OPPOSED BLADE        A1A 0000000005 000000000  0000000000000000000000000000000000000000  N000000EA000000000000000000000000000000000000000000000000000000000000000000000000000Y     0000000        000000    000000000001      1000000        00         0000000000002140024300501005                                                  
OBN2018        20X18    OPPOSED BLADE        A1A 0000000005 000000000  0000001q00000000000000000000000000000000  N000000EA000000000000000000000000000000000000000000000000000000000000000000000000000Y     0000000        000000    000000000001      1000000        00         0000000000002140024300501005                                                  
OBN2019        20X19    OPPOSED BLADE        A1A 0000000005 000000000  0000000q00000000000000000000000000000000  N000000EA000000000000000000000000000000000000000000000000000000000000000000000000000Y     0000000        000000    000000000001      1000000        00         0000000000002140024300501005                                                  
OBN2020        20X20    OPPOSED BLADE        A1A 0000000005 000000000  0000003y00000000000000000000000000000000  N000000EA000000000000000000000000000000000000000000000000000000000000000000000000000Y     0000000        000000    000000000001      1000000        00         0000000000002140024300501005                                                  
OBN2024        20X24    OPPOSED BLADE        A1A 0000000005 000000000  0000000t00000000000000000000000000000000  N000000EA000000000000000000000000000000000000000000000000000000000000000000000000000Y     0000000        000000    000000000001      1000000        00         0000000000002140024300501005                                                  
OBN2027        20X27    OPPOSED BLADE        A1A 0000000005 000000000  0000000000000000000000000000000000000000  N000000EA000000000000000000000000000000000000000000000000000000000000000000000000000Y     0000000        000000    000000000001      1000000        00         0000000000002140024300501005                                                  
OBN2116        21X16    OPPOSED BLADE        A1A 0000000005 000000000  0000000000000000000000000000000000000000  N000000EA000000000000000000000000000000000000000000000000000000000000000000000000000Y     0000000        000000    000000000001      1000000        00         0000000000002140024300501005                                                  
OBN2211        22X11    OPPOSED BLADE        A1A 0000000005 000000000  0000000000000000000000000000000000000000  N000000EA000000000000000000000000000000000000000000000000000000000000000000000000000Y     0000000        000000    000000000001      1000000        00         0000000000002140024300501005                                                  
OBN2212        22X12    OPPOSED BLADE        A1A 0000000005 000000000  0000002s00000000000000000000000000000000  N000000EA000000000000000000000000000000000000000000000000000000000000000000000000000Y     0000000        000000    000000000001      1000000        00         0000000000002140024300501005                                                  
OBN2214        22X14    OPPOSED BLADE        A1A 0000000005 000000000  0000001t00000000000000000000000000000000  N000000EA000000000000000000000000000000000000000000000000000000000000000000000000000Y     0000000        000000    000000000001      1000000        00         0000000000002140024300501005                                                  
OBN2216        22X16    OPPOSED BLADE        A1A 0000000005 000000000  0000001r00000000000000000000000000000000  N000000EA000000000000000000000000000000000000000000000000000000000000000000000000000Y     0000000        000000    000000000001      1000000        00         0000000000002140024300501005                                                  
OBN2218        22X18    OPPOSED BLADE        A1A 0000000005 000000000  0000000v00000000000000000000000000000000  N000000EA000000000000000000000000000000000000000000000000000000000000000000000000000Y     0000000        000000    000000000001      1000000        00         0000000000002140024300501005                                                  
OBN2220        22X20    OPPOSED BLADE        A1A 0000000005 000000000  0000000y00000000000000000000000000000000  N000000EA000000000000000000000000000000000000000000000000000000000000000000000000000Y     0000000        000000    000000000001      1000000        00         0000000000002140024300501005                                                  
OBN2222        22X22    OPPOSED BLADE        A1A 0000000005 000000000  0000000t00000000000000000000000000000000  N000000EA000000000000000000000000000000000000000000000000000000000000000000000000000Y     0000000        000000    000000000001      1000000        00         0000000000002140024300501005                                                  
OBN2412        24X12    OPPOSED BLADE        A1A 0000000005 000000000  0000005y00000000000000000000000000000000  N000000EA000000000000000000000000000000000000000000000000000000000000000000000000000Y     0000000        000000    000000000001      1000000        00         0000000000002140024300501005                                                  
OBN2413        24X13    OPPOSED BLADE        A1A 0000000005 000000000  0000000000000000000000000000000000000000  N000000EA000000000000000000000000000000000000000000000000000000000000000000000000000Y     0000000        000000    000000000001      1000000        00         0000000000002140024300501005                                                  
OBN2414        24X14    OPPOSED BLADE        A1A 0000000005 000000000  0000006p00000000000000000000000000000000  N000000EA000000000000000000000000000000000000000000000000000000000000000000000000000Y     0000000        000000    000000000001      1000000        00         0000000000002140024300501005                                                  
OBN2415        24X15    OPPOSED BLADE        A1A 0000000005 000000000  0000000q00000000000000000000000000000000  N000000EA000000000000000000000000000000000000000000000000000000000000000000000000000Y     0000000        000000    000000000001      1000000        00         0000000000002140024300501005                                                  
OBN2416        24X16    OPPOSED BLADE        A1A 0000000005 000000000  0000007q00000000000000000000000000000000  N000000EA000000000000000000000000000000000000000000000000000000000000000000000000000Y     0000000        000000    000000000001      1000000        00         0000000000002140024300501005                                                  
OBN2418        24X18    OPPOSED BLADE        A1A 0000000005 000000000  0000003q00000000000000000000000000000000  N000000EA000000000000000000000000000000000000000000000000000000000000000000000000000Y     0000000        000000    000000000001      1000000        00         0000000000002140024300501005                                                  
OBN2420        24X20    OPPOSED BLADE        A1A 0000000005 000000000  0000001w00000000000000000000000000000000  N000000EA000000000000000000000000000000000000000000000000000000000000000000000000000Y     0000000        000000    000000000001      1000000        00         0000000000002140024300501005                                                  
OBN2422        24X22    OPPOSED BLADE        A1A 0000000005 000000000  0000000t00000000000000000000000000000000  N000000EA000000000000000000000000000000000000000000000000000000000000000000000000000Y     0000000        000000    000000000001      1000000        00         0000000000002140024300501005                                                  
OBN2424        24X24    OPPOSED BLADE        A1A 0000000005 000000000  0000003w00000000000000000000000000000000  N000000EA000000000000000000000000000000000000000000000000000000000000000000000000000Y     0000000        000000    000000000001      1000000        00         0000000000002140024300501005                                                  
OBN2430        24X30    OPPOSED BLADE        A1A 0000000005 000000000  0000000r00000000000000000000000000000000  N000000EA000000000000000000000000000000000000000000000000000000000000000000000000000Y     0000000        000000    000000000001      1000000        00         0000000000002140024300501005                                                  
OBN2512        25X12    OPPOSED BLADE        A1A 0000000005 000000000  0000000s00000000000000000000000000000000  N000000EA000000000000000000000000000000000000000000000000000000000000000000000000000Y     0000000        000000    000000000001      1000000        00         0000000000002140024300501005                                                  
OBN2520        25X20    OPPOSED BLADE        A1A 0000000005 000000000  0000000000000000000000000000000000000000  N000000EA000000000000000000000000000000000000000000000000000000000000000000000000000Y     0000000        000000    000000000001      1000000        00         0000000000002140024300501005                                                  
OBN2612        26X12    OPPOSED BLADE        A1A 0000000005 000000000  0000001u00000000000000000000000000000000  N000000EA000000000000000000000000000000000000000000000000000000000000000000000000000Y     0000000        000000    000000000001      1000000        00         0000000000002140024300501005                                                  
OBN2614        26X14    OPPOSED BLADE        A1A 0000000005 000000000  0000003v00000000000000000000000000000000  N000000EA000000000000000000000000000000000000000000000000000000000000000000000000000Y     0000000        000000    000000000001      1000000        00         0000000000002140024300501005                                                  
OBN2616        26X16    OPPOSED BLADE        A1A 0000000005 000000000  0000002p00000000000000000000000000000000  N000000EA000000000000000000000000000000000000000000000000000000000000000000000000000Y     0000000        000000    000000000001      1000000        00         0000000000002140024300501005                                                  
OBN2618        26X18    OPPOSED BLADE        A1A 0000000005 000000000  0000002s00000000000000000000000000000000  N000000EA000000000000000000000000000000000000000000000000000000000000000000000000000Y     0000000        000000    000000000001      1000000        00         0000000000002140024300501005                                                  
OBN2620        26X20    OPPOSED BLADE        A1A 0000000005 000000000  0000000s00000000000000000000000000000000  N000000EA000000000000000000000000000000000000000000000000000000000000000000000000000Y     0000000        000000    000000000001      1000000        00         0000000000002140024300501005                                                  
OBN2624        26X24    OPPOSED BLADE        A1A 0000000005 000000000  0000000w00000000000000000000000000000000  N000000EA000000000000000000000000000000000000000000000000000000000000000000000000000Y     0000000        000000    000000000001      1000000        00         0000000000002140024300501005                                                  
OBN2626        26X26    OPPOSED BLADE        A1A 0000000005 000000000  0000000u00000000000000000000000000000000  N000000EA000000000000000000000000000000000000000000000000000000000000000000000000000Y     0000000        000000    000000000001      1000000        00         0000000000002140024300501005                                                  
OBN2712        27X12    OPPOSED BLADE        A1A 0000000005 000000000  0000000r00000000000000000000000000000000  N000000EA000000000000000000000000000000000000000000000000000000000000000000000000000Y     0000000        000000    000000000001      1000000        00         0000000000002140024300501005                                                  
OBN2812        28X12    OPPOSED BLADE        A1A 0000000005 000000000  0000000w00000000000000000000000000000000  N000000EA000000000000000000000000000000000000000000000000000000000000000000000000000Y     0000000        000000    000000000001      1000000        00         0000000000002140024300501005                                                  
OBN2814        28X14    OPPOSED BLADE        A1A 0000000005 000000000  0000001r00000000000000000000000000000000  N000000EA000000000000000000000000000000000000000000000000000000000000000000000000000Y     0000000        000000    000000000001      1000000        00         0000000000002140024300501005                                                  
OBN2816        28X16    OPPOSED BLADE        A1A 0000000005 000000000  0000001p00000000000000000000000000000000  N000000EA000000000000000000000000000000000000000000000000000000000000000000000000000Y     0000000        000000    000000000001      1000000        00         0000000000002140024300501005                                                  
OBN2818        28X18    OPPOSED BLADE        A1A 0000000005 000000000  0000001t00000000000000000000000000000000  N000000EA000000000000000000000000000000000000000000000000000000000000000000000000000Y     0000000        000000    000000000001      1000000        00         0000000000002140024300501005                                                  
OBN2822        28X22    OPPOSED BLADE        A1A 0000000005 000000000  0000000s00000000000000000000000000000000  N000000EA000000000000000000000000000000000000000000000000000000000000000000000000000Y     0000000        000000    000000000001      1000000        00         0000000000002140024300501005                                                  
OBN2824        28X24    OPPOSED BLADE        A1A 0000000005 000000000  0000000y00000000000000000000000000000000  N000000EA000000000000000000000000000000000000000000000000000000000000000000000000000Y     0000000        000000    000000000001      1000000        00         0000000000002140024300501005                                                  
OBN2828        28X28    OPPOSED BLADE        A1A 0000000005 000000000  0000000u00000000000000000000000000000000  N000000EA000000000000000000000000000000000000000000000000000000000000000000000000000Y     0000000        000000    000000000001      1000000        00         0000000000002140024300501005                                                  
OBN2915        29X15    OPPOSED BLADE        A1A 0000000005 000000000  0000000r00000000000000000000000000000000  N000000EA000000000000000000000000000000000000000000000000000000000000000000000000000Y     0000000        000000    000000000001      1000000        00         0000000000002140024300501005                                                  
OBN3012        30X12    OPPOSED BLADE        A1A 0000000005 000000000  0000002v00000000000000000000000000000000  N000000EA000000000000000000000000000000000000000000000000000000000000000000000000000Y     0000000        000000    000000000001      1000000        00         0000000000002140024300501005                                                  
OBN3013        30X13    OPPOSED BLADE        A1A 0000000005 000000000  0000000r00000000000000000000000000000000  N000000EA000000000000000000000000000000000000000000000000000000000000000000000000000Y     0000000        000000    000000000001      1000000        00         0000000000002140024300501005                                                  
