034650HILL HEATING CO.                         080488     19880804
060150RAINBOW SHEET METAL INC.          090088 092188     19880921
061800RIK-MAR FABRICATORS INC.          100088 100788     19881007
027500FLASH MECHANICAL CONTR.           110088 112288     19881122
066450SICO INCORPORATED                 120088 010689     19890106
033400HARLEY HEATING & A/C. INC         010087 011789     19890117
059550RH HEATING & A/C INC.             010089 013189     19890131
074200TRIM COLLECTION SYSTEMS           010089 020689     19890206
025800EQUIPMENT SUPPLY INC.             010089 020789     19890207
079600WHITNEY MECH. CO. INC.            010089 020789     19890207
060750RAYCO CONSTRUCTION INC.                  022889     19890228
047800MECHANICAL INDUSTRIES INC         1v0090 033189     19890331
020450DAVIS MECHANICAL CONTR.           010087 041189     19890411
016700COLE REFRIGERATION INC.           010089 041989     19890419
025250ENTERPRISE ROOFING AND            1v0090 042689     19890426
058000POWRMATIC INC.                    030089 050589     19890505
056300PENINSULA PIPING CO.                     071789     19890717
078150WATTS AIR COND & HEATING          000000 081089     19890810
067450SNUG HARBOR ENTERPRISE            060087 083189     19890831
003350AIR SYSTEMS INC                          090789     19890907
006650AUTOMATED METALS INC.             030088 092189     19890921
054700OTTO-AERCO INC.                   080089 092989     19890929
048750F.J. MERWALD & SONS               1v0090 101189     19891011
034750H.R. HILLERY COMPANY                     101989     19891019
012950BURGESS MECHANICAL INC.                  112189     19891121
025100ENGERT PLUMBING & HEATING                120689     19891206
021800DILL AND NORRIS COMPANY                  120889     19891208
041850L & M SHEET METAL INC.                   121389     19891213
035000HOEFFLER HEATING & SHEET          110089 122789     19891227
009200BENNETT HEATING & A/C             030089 011890     19900118
078600RAY N. WELTER HEATING CO.         010090 020790     19900207
028050FRANCK & FRIC                            022690     19900226
040450KLAMM MECH. CONTR. INC.           030090 041290     19900412
045300MC CARTHY PLBG & HTG INC.         090089 042390     19900423
077100VOUGHT SHEET METAL CO.            040090 042390     19900423
031650GREENWOOD PLBG. & HTG.            040090 051190     19900511
067000THE R. G. SMITH CO. INC       0004       052190     19900521
023800ECUSTA CORPORATION                050090 052490     19900524
048300MENDEL HEATING & A/C              050090 062890     19900628
051650N C I                                    062890     19900628
079250WESTERN INSULATION SERV.          040088 062890     19900628
052250NELSON CARLSON MECH. CTR.         030090 071090     19900710
063450S.M.W. INC.                       010088 072690     19900726
080100WILSON SUPPLY COMPANY             060090 072690     19900726
070200SUTTER ROOFING & METAL                   080890     19900808
017900CONSOLIDATED ELECTRIC &                  083190     19900831
066100SHERIDAN SHEET METAL                     083190     19900831
077450WALCO SHEET METAL                        083190     19900831
033650HARRISON-ORR A/C INC.             100090 110790     19901107
032900J.C. HAMM & SONS. INC.            020087 110790     19901107
027550FLIPPEN & SONS INC.               110090 112990     19901129
024100EIYNCK PLBG. & HEATING            080088 122090     19901220
019350CUSTOM COMMERCIAL SERVICE         123190 123190     19901231
074100TRIANGLE SHEET MTL WORKS.         010791 010791     19910107
057700PORTLAND AIR CONDITIONING         011491 011491     19910114
055260S.L. PAGE CORPORATION             073190 011891     19910118
027300FISCHER HEATING & SHT.MTL         022191 022291     19910222
076150RENE VANASSCHE & SONS CO.         030090 030691     19910306
025600ENVIRONMENTAL PROD. CO.           100090 032091     19910320
045400MC CORVEY SHEET MTL WORKS                032691     19910326
043450LIMBACH COMPANY                   032891 032991     19910329
008950BELLCOMB TECH.                    080090 042391     19910423
014200CARLETON COLLEGE                  040091 043091     19910430
079450WHELAN & BENTLEY                  050691 050991     19910509
034000HAVSCO HTG & COOLING INC.         1v0090 053091     19910530
022450DRING ENGINEERING CO.             1v0090 061991     19910619
024150ELECTRIC MACHINERY                070089 071791     19910717
044400LUCKINBILL INC                           073091     19910730
006050AREA SHEET METAL INC                     073191     19910731
075650UNIVERSITY OF NEBRASKA/           030087 081591     19910815
079900WILKINS-WESTCOTT SALES CO         081491 083091     19910830
014500CASPER WINAIR CO.                        090691     19910906
038550JOHNSON SHT MTL CO. INC.          120088 091891     19910918
012650BUCKENTIN S/M & HTG SYS.                 101691     19911016
030750GORHAM-OIEN MECH. INC.            101791 102891     19911028
014100CAREY & WALSH INC.                103191 110791     19911107
053150R.E. NORTH COMPANY                060088 112791     19911127
072800TIMMER SUPPLY COMPANY             121391 122091     19911220
000600ABBOTT & ASSOCIATES INC                  012092     19920120
031800GROSS MECHANICAL CONTR.                  012092     19920120
008250BARRY AND SEWALL                         012292     19920122
053200NORTH COUNTRY SERVICE             080090 012492     19920124
057150PHILLIPS SHEET METAL              012992 012992     19920129
077250WABY CONSTRUCTION INC.            110091 013192     19920131
058400PRESIDENTIAL SHEET METAL          031991 020692     19920206
001450ADVANCED MAINTENENCE SERV         012392 021192     19920211
022250DOW CHEMICAL U.S.A.               093091 022092     19920220
028350FRESCHI AIR SYSTEMS INC.          030392 030492     19920304
020650THE DE MOSS COMPANY                      030692     19920306
046300MADDENS INC.                      021991 031792     19920317
051150MOORE MECHANICAL SERVICES         041492 041792     19920417
013400C & D HEATING AND COOLING                061792     19920617
069000STEELMAN INDUSTRIES INC.          062592 062592     19920625
043850ROBERT LLOYD S/M INC.             082291 062692     19920626
077700WALSH & ALBERT COMPANY            020492 062992     19920629
016450CLOUD AIRE INC.                   1v0090 070792     19920707
034800HILL'S PLBG. & HEATING        0001120088 070792     19920707
012450BRUFLAT PLBG. & HEATING       0001050692 080792     19920807
071300G. TEEPLE SHEET METAL LTD         080692 081192     19920811
051850NABCO MECH. & ELEC. INC.          081292 081292     19920812
048700ADRIAN L. MERTON INC.             080089 081392     19920813
052450NEMITZ SHEET METAL INC.                  081392     19920813
044800M E  INTERNATIONAL                082092 082092     19920820
002550AIR ENGINEERED SYSTEMS                   082492     19920824
063350S/M ENTERPRISES INC.              080090 082892     19920828
015950CIRCLE "R" MECHANICAL INC     0001091892 091892     19920918
055100PMI CONSTRUCTION COMPANY          040089 100592     19921005
072150WILLIAM J. THOMANN INC.           100792 100992     19921009
047700MECHANICAL EQUIPMENT              020690 101392     19921013
040700A.T. KLEMENS & SON                030089 101492     19921014
062000RIVERSIDE PLBG. & HTG.            040392 101692     19921016
021300DELTA MECHANICAL INC.             100588 102692     19921026
026950V. FICCHI HTG. & A/C                     111392     19921113
055450PALOMAR COMPANY INC.              111992 112392     19921123
066700SLATE MECHANICAL INC.             112392 113092     19921130
024200ELECTRIC MOTOR REPAIR             120792 120792     19921207
051250MORGAN METALS CO. INC.            1v0090 120892     19921208
071250TEDECO                            110891 120892     19921208
063400S.M. INC.                         081792 120992     19921209
041750KURTZMAN AND VIOLETTE             121592 122192     19921221
046500MAINTENANCE BY PREVENTION         052591 122292     19921222
066050SHELBY SHEET METAL CO.            072591 122292     19921222
049950MIDWEST MECHANICAL                011593 011593     19930115
064000SANDERS BROTHERS INC.             011593 011893     19930118
013850D.L. CANINO HTG. & A/C            011893 012193     19930121
011800BRIGHT SHEET MTL CO INC                  020993     19930209
025900ESHENAURS INC.                    113092 021093     19930210
035850G.J. HOPKINS INC.                 020393 021793     19930217
016600COASTLINE DISTRIBUTION            110592 030493     19930304
040150THE KIMMEL COMPANY                071488 040593     19930405
078550A.B. WEIS SYSTEMS INC.            010089 041493     19930414
012600BUCHHOLZ HEATING & APPL.          041293 042293     19930422
012250BROWN & BIGELOW                   070292 042793     19930427
026060EXCEL MANUFACTURING               050693 051493     19930514
037430JB MACHINERY INC.                 051993 052193     19930521
050545MINNEAPOLIS S/M WORKS INC         051993 052593     19930525
021345DELTA-T AIR COND. INC.            052593 052693     19930526
070800T S I  INCORPORATED               040793 060793     19930607
077350WAHPETON CANVAS CO. INC.          091091 061493     19930614
053790O.K. HEATING & A/C INC.           060993 062193     19930621
026130EXPRESSWAY INC.                   070693 071293     19930712
037350IOWA STATE UNIVERSITY         0001080090 071293     19930712
080540WOOD GOOD INDUSTRIES INC          070993 071593     19930715
001250ADVANCE HEATING & A/C             041593 072193     19930721
028400FREY LUTZ CORP.                   050089 072193     19930721
020640JOE DE BELAK PLBG. CO INC         052593 072793     19930727
052050NATIONAL GENERAL SPLY INC         030089 081993     19930819
080730MICHAEL WORTHING CO. INC          082593 083093     19930830
066560SINK & EDWARDS SHEET MTL          071493 083093     19930830
026100EXCELSIOR MANUFACTURING                  091393     19930913
035150HOLLIDAY SHEET METAL CO.          1v0090 092293     19930922
071860THERMA INC.                       092993 092993     19930929
026000EVERLY PLBG. & HTG. CO.           080087 101393     19931013
015980CIRCUIT SCIENCE INC.              101193 101593     19931015
055060P.C.B. HEATING & A/C INC.         100593 101593     19931015
000780ACCOUNTING & FINANCE OFFC         102693 102693     19931026
013000BURK & BREN PLBG. & HTG.          012593 102693     19931026
061050RELIABLE MECHANICAL INC.          090088 102693     19931026
024680EMBREE SHEET METAL                102893 103193     19931031
045750MC FADDEN MECHANICAL INC          090192 103193     19931031
051700N & N HEATING & A/C INC.          1v0090 103193     19931031
065900SHEET METAL SERVICES INC          020088 103193     19931031
074950UNITED MC GILL CORP.              053191 111093     19931110
051440MUZA SHEET METAL COMPANY          080493 111993     19931119
070050SUR-WAY MECH. CONTR. INC          120992 111993     19931119
048500MERIT HVAC INC.                          112993     19931129
060690RAY HEATING PRODUCTS INC          061593 112993     19931129
058710PROFILE TOOL INC.                 120193 113093     19931130
079950J.H. WILKINSON CO.                       120993     19931209
060550RAPID HEATING & A/C                      120993     19931209
000150ABM A/C & REFRIG. INC.            1v0090 123193     19931231
029450GENERAL METALS MFG. &             021892 123193     19931231
006920B G K FINISHING SYSTEMS       0001011194 011794     19940117
024000EFFICIENT AIR INC.                030090 012194     19940121
034550HETTINGER HTG. & A/C              100089 012194     19940121
074570U.S. MECHANICAL COMPANY           012194 012494     19940124
077140W R SHEET METAL INC.              121493 020794     19940207
057050PHARO HEATING COMPANY INC                020894     19940208
053580NORTHWEST MISSOURI                020994 021494     19940214
039005K L M MECHANICAL CONTR.           021794 021894     19940218
079130WESTERN AIR & REFRIG. CO.         121693 021894     19940218
059340R & B ENTERPRISES INC.            070993 030794     19940307
040360KIRCHOFF INC.                     022494 031194     19940311
022430DREWVEST INC. D/B/A               123093 031794     19940317
067480SOLO CUP COMPANY                  012494 032594     19940325
054100O'HARE ENGINEERING                1v0090 033094     19940330
063280S.L.M. INC.                       040194 040894     19940408
018020CONTEMPORARY FIREPLACE            121701 041494     19940414
057200PHILLIPS SHEET METAL CO.          071488 051294     19940512
072300THOMAS ROOFING & SHT. MTL                051294     19940512
014740CELTIC CONSTRUCTION INC.          032294 052494     19940524
067885SOUTHWESTERN INSULATION           051994 052494     19940524
065755SHEET METAL ENTERPRISES           082892 053194     19940531
003150AIR ONE ENTERPRISES               020792 061494     19940614
026900FELTEN'S SHEET METAL              082891 061494     19940614
010198CITY OF BLOOMINGTON               102793 061694     19940616
001420ADVANCED INDUSTRIAL SERV.         060394 062194     19940621
049870MIDWEST INDUSTRIAL INC.           042694 062894     19940628
013690C V F SHEET METAL INC.            121592 063094     19940630
073000TINWORKS INC.                     121991 071594     19940715
021100JOHN DEERE FOUNDRY WTRLOO         092791 072794     19940727
025750EQUIP. SERV. PROFESS.INC.         050090 081894     19940818
018040CONTINENTAL VAV INC.              081194 083194     19940831
057750POSTLER-JAECKLE INC.                     083194     19940831
050750MISSOULA SHEET METAL              121092 091394     19940913
017020COLUMBUS INDUSTRIES INC.          090794 091494     19940914
064120SAXTON ASSOCIATES INC.            100694 101094     19941010
071900THERMAL MECH. CONTRACTORS         1v0090 101094     19941010
035070HOFFMAN & HARPST CO. INC          070794 101394     19941013
038950K & L SHEET METAL INC.            120089 103194     19941031
021150JOHN DEERE WATERLOO WORKS                110994     19941109
046455MAHONEY SHEET METAL               072293 112894     19941128
023165DYNEX INDUSTRIES                  112894 112994     19941129
034150HEATING & COOLING TWO                    122294     19941222
051070MONTOPOLIS A/C & HEATING          122794 122894     19941228
078000WARWICK AIR COND. INC.            042092 122894     19941228
027600FOLANDER SHEET METAL CO.          052892 123094     19941230
017350COMFORT MECHANICAL INC.           1v0090 011695     19950116
004980ALLOY WELDING INC.                051294 012095     19950120
027630F.R. FOOTE CO. INC.               100593 012095     19950120
040900KNIGHT & WILSON                   011993 012095     19950120
014320CARLSON MECHANICAL INC.           030494 012595     19950125
061450R.P. RICHARDS INC.                       012595     19950125
050955MODERN SHEET METAL INC.           051293 013195     19950131
077000VOLTMER INC.                      123190 020995     19950209
078920THE WEST COMPANY                  020295 021495     19950214
041490KUEMPEL SERVICE COMPANY           100494 022095     19950220
007460W.J. BACHMAN SHEETMETAL           052593 022095     19950220
040000KEY METALCRAFT INC.                      022195     19950221
009150BENITZ SERVICE COMPANY                   022495     19950224
071180TECH BUILDERS INC.                021095 022795     19950227
018745JAMES CRAFT & SON INC.            022795 022895     19950228
007950BARGER MECHANICAL SERV.                  030895     19950308
029390GENERAL AIR SYSTEMS INC.          060293 031095     19950310
030150GIOLETTO SHEET METAL CO.          040491 031095     19950310
024330ELK AIR CONDITIONING INC          031695 032095     19950320
038530JOHNSON METAL CRAFTERS            030895 032095     19950320
075210U.S. GEOLOGICAL SURVEY            011095 032095     19950320
023162DYNAMIC SYSTEMS INC.              032295 032995     19950329
070780T.R.S. MECHANICAL INC.            031595 032995     19950329
071200TECH-MECHANICAL INC.              020088 033095     19950330
072350THOMPSON AIR                             033195     19950331
014650CHARLES N. CATLEDGE CO.           032392 041195     19950411
016650COBB MECHANICAL CONTR.            040791 041195     19950411
011160BOYER METAL COMPANY               070894 041795     19950417
037010INDUSTRIAL MECHANICAL             041895 042195     19950421
015250CENTRAL SYSTEMS HTG.&A/C.         032392 043095     19950430
015760CHICAGO COOLING CORP.             022495 051095     19950510
038580JOHNSON'S PLUMBING SERV.          032995 051095     19950510
064750L.E. SCHWARTZ & SONS INC.                051095     19950510
025050ENGELHAUPT CO. INC.                      051195     19950511
015252CENTRAL TEMPERATURE               050995 051295     19950512
057557PLBG. & HTG. WHOLESALE            012695 051295     19950512
010000BJORNSTAD ADVANCED COMFRT         100592 051995     19950519
022762DUCT FABRICATORS INC.             051095 052495     19950524
018760CRAMER BUILDING SERVICES          052695 053095     19950530
000210AC CORPORATION   S74762           053095 053195     19950531
081600ZINGER SHEET METAL                051394 060695     19950606
047900MECHANICAL SERVICES OF            100089 060995     19950609
023210E & S SHEET METAL INC.            061295 061295     19950612
077670WALKER COOLING-HEATING            061295 061595     19950615
019650CUSTOM SHEETMETAL &               043091 071195     19950711
022600DUAL TEMPERATURE COMPANY                 071195     19950711
032200GUNTHER'S COMFORT AIR                    071495     19950714
001920AIR AMERICA INC.                  071795 071895     19950718
045050MAC ARTHUR COMPANY                011393 073195     19950731
072720THRIFTY SUPPLY COMPANY            040694 073195     19950731
006860B & D PLUMBING & HTG. INC         040494 081095     19950810
075240UNITY SCHOOL DISTRICT             081095 081095     19950810
011590BREMER & BOUMAN                   060895 081495     19950814
019920DAHL-TECH INC.                    081594 081895     19950818
073050TITAN AIR                                083095     19950830
074850UNITED MC GILL COMPANY            010692 083095     19950830
043240C.D. LESLIE & SONS                083195 091495     19950914
019245CUSTOM AIR COND & HTG. CO         050295 091495     19950914
061015REINKE REFRIGERATION HTG          060295 091495     19950914
075350UNIVERSAL MECHANICAL INC          121191 091495     19950914
078355F.W. WEBB COMPANY                 091495 091895     19950918
032850HALEY'S METAL SHOP INC.                  092695     19950926
048950METAL SPECIALTIES INC.            122190 093095     19950930
081800ZORAX CORPORATION                 100295 100995     19951009
015765CHICAGO MECHANICAL INC.           030395 101195     19951011
003900AIRETECH CORPORATION              092492 101795     19951017
034980HOAG'S PLBG. & HTG. INC.          101095 101795     19951017
038170JENSEN'S PLBG & HTG INC.          081794 101795     19951017
037850B & J JACOBS COMPANY                     102095     19951020
052200NEIDHARDT HEATING & A/C       0001012993 102495     19951024
077050VORY'S BROTHERS INC.                     103095     19951030
044091LONG REFRIGERATION                072791 103195     19951031
070730T.J.M. COMPANY                    110295 112295     19951122
062330JOHN C. ROGERS ENG. LTD.          101995 112795     19951127
050140G.E. MILACCIO CO. INC.            052793 112995     19951129
034148HEAT-N-GLO                        111795 112995     19951129
019905DAHL AIR CONDITIONING INC         061295 121195     19951211
038595HAROLD A. JOPE & SON INC          120495 121295     19951212
068930STATE MECHANICAL INC.             121295 122195     19951221
051050MONROE PIPING & SHEET             1v0090 122795     19951227
028550G.B.G. INC.                              122995     19951229
010440BOEHM'S INC.                      121895 123195     19951231
034070HAYS SHEET METAL INC.         0001010296 123195     19951231
054540ORBAS & ASSOCIATES                122195 123195     19951231
058950Q & Q INC.                               011296     19960112
068900STAR SHEET METAL                  050090 011296     19960112
022170DON'S PLUMBING SERVICE        0002011196 011896     19960118
058870PUMP & SPRAY EQUIPMENT            110395 011896     19960118
054340OLIVER STRUCTURES INC.            042793 012396     19960123
068790STANDARD SUPPLY & DIST.CO         012296 012696     19960126
072730THYBAR CORPORATION                011996 013096     19960130
008770BEESON MECH. CONTR. INC.          013096 020796     19960207
080455WOLFF'S OF WYOMING INC.           121195 020796     19960207
075590UNIVERSITY MECHANICAL &           110695 021696     19960216
015400CHAMFER ENGINEERING INC.          100087 021996     19960219
074260TRU-TEMP INDUSTRIAL INS.          122894 022796     19960227
027570FLORIDA MECHANICAL PROD.          030496 030696     19960306
036730IMPERIAL PLBG. HTG & A/C          110794 030696     19960306
022100DONALDSON COMPANY INC.            040192 031196     19960311
051390MURPHY & MILLER INC.              020494 031296     19960312
066150SHERMAN HEATING & A/C             080089 031296     19960312
021315DELTA METALS INC.                 040495 031396     19960313
047920MECHANICAL SHEET METAL CO         031996 032296     19960322
057690PORTABLE MAINTENANCE SERV         013194 032696     19960326
080700WORCESTER A/C CO. INC.            071488 032696     19960326
062050ROBERTS-HAMILTON COMPANY          080088 032896     19960328
011750BRIGHAM YOUNG UNIVERSITY          102292 040396     19960403
045545MC DONALD HEATING & A/C           040396 040896     19960408
054350OLSON BROS. INC.                         040896     19960408
064600SCHWAB VOLLHABER LUBRATT                 041296     19960412
041770L.A.D. WELDING & FAB. INC         012296 041596     19960415
040400KIRK-WILLIAMS COMPANY         0001       041796     19960417
080060WILSON COMPANIES OF AMERY         040996 041796     19960417
061150REMSCO INC.                       112092 042296     19960422
069200STEWART PLBG. & HTG. INC          021292 042496     19960424
080350WOJACK WELDING SUPPLY INC         010791 042496     19960424
017100L.J. COMER INC.                   070089 042596     19960425
043550LINDEMOEN SHEET METAL                    042996     19960429
068000SPANGLER SHEET METAL INC          110082 043096     19960430
029110THE GARDNER ZEMKE COMPANY         042996 051496     19960514
013675C & S MECHANICAL CO. INC          051596 051696     19960516
017150COMFORT AIR                       021492 051696     19960516
052500NEUHOFF HEATING & A/C INC         060292 051696     19960516
077850WARD HEATING & A/C                120087 051796     19960517
010170BLESI-EVANS COMPANY               021996 052396     19960523
022380DRAFT ELEC. & PLBG. SERV.         052096 052396     19960523
020100JOHN A. DALSIN & SON INC.         120089 052396     19960523
011250BILL BRADLEY PLBG. INC.           050088 052896     19960528
053270NORTH METRO HTG & COOLING     0001092595 053196     19960531
062100ROBINSON MECHANICAL CO.                  053196     19960531
047600MECHANICAL CONTRACTING CO         000000 060696     19960606
044240LOUCKS PLUMBING & HEATING         110195 061796     19960617
044520LUNSETH PLBG. & HTG. CO.          061296 061996     19960619
038592DAVE JONES PLBG & HTG INC     0001061396 062496     19960624
050500MINN DAK SHEETMETAL               102894 062496     19960624
062840RUFER REFRIGERATION               042596 062496     19960624
065650SHEET METAL CONTR. INC.           021593 062896     19960628
019845D.S. MANUFACTURING INC.           030195 070896     19960708
064800SCHWEIZER-DIPPLE INC.         0001060089 070896     19960708
048800MERZ SHEET METAL INC                     071196     19960711
025550ENVIRONMENTAL MECHANICAL      0001011293 071896     19960718
021990DOME SHEETMETAL CONTR.INC         021395 073196     19960731
039965KELLY SHEETMETAL                  103195 080696     19960806
051260MORRIS SHEET METAL CORP.          121594 080696     19960806
051550MYHRUM HEATING & PLUMBING         070087 080696     19960806
024750EMPIRE SHEET METAL MFG.                  081396     19960813
007900GLENN C. BARBER & ASSOC.          060089 081396     19960813
021350DELTA TEMP CORP               0001       082196     19960821
025000ENGEL MECHANICAL INC.             070090 082196     19960821
018160CONWEST INC.                      082096 082296     19960822
000720E.R. ABERNATHY IND. INC.          081496 082696     19960826
075250UNIVENT INC.                      061792 082796     19960827
069140THE STEWART COMPANY               072794 083096     19960830
053530NORTHSHORE WOOD PRODUCTS          090996 091896     19960918
076470VERTICAL AIR SYSTEMS INC          110395 091896     19960918
009520BERKSHIRE AIR COND. CO.           091996 092396     19960923
019520CUSTOM METAL WORKS                020796 092396     19960923
044850M-5 STEEL MANUFACTURING           022892 093096     19960930
028300FREES INC.                               100496     19961004
046150MC QUILLAN BROS. PLBG. &          080089 100996     19961009
067130SMITTY'S MECHANICAL INC.          100996 100996     19961009
065000SEASONAL CONTROL INC.                    101196     19961011
080770NORMAN S. WRIGHT & CO. SW         101096 101496     19961014
030440GOLD MECHANICAL INC.              030196 101796     19961017
041940L.R.B. ENTERPRISES OF             101796 101896     19961018
074450TWIN CITY FURNACE COMPANY                101896     19961018
045100MAC ARTHUR COMPANY                       102196     19961021
007050B H L SALES COMPANY               122190 102496     19961024
026940FIBERGLASS DUCT SYSTEMS           041495 102596     19961025
013290BYERS CORPORATION                 072193 102996     19961029
077800WARD ENGINEERING                         102996     19961029
046140MC NEIL-WEST INC.             0001072195 103196     19961031
064700SCHWANTES HEATING & A/C                  103196     19961031
005000ALPINE HTG. & SHT MTL INC         010793 110796     19961107
016375CLIMATE MECHANICAL INC.           110696 111196     19961111
027290FIRST CHOICE HTG & COOLNG         102496 111196     19961111
064100J.A. SAUER INC.                   080088 111196     19961111
002540AIR & ENERGY ENG. INC.            111296 111296     19961112
071408TEMP-RIGHT SERVICE            0001111996 112096     19961120
077900WARD PLUMBING & HEATING           070292 112096     19961120
006600AUS-TEX PLBG. HTG A/C             110090 112196     19961121
008500W.J. BEAIRSTO CO. LTD                    112196     19961121
079645WHOLESALE SERVICE CENTER      0001123094 112696     19961126
071750R. B. TEXTOR MECHANICAL           112796 112796     19961127
019030CROWN MACHINE INC.                120296 120596     19961205
078730WENTZ PLBG. HTG. & A/C.           112696 120596     19961205
009500BERKNERS PLBG. & HEATING      0001090088 120996     19961209
056000PAULSON PLBG. & HEATING                  121296     19961212
059220QUALITY SHEETMETAL SERV.          012894 121396     19961213
021348DELTA TECHNOLOGY CORP.            121696 121896     19961218
034995HOBSON FABRICATING                053196 121896     19961218
044770M & D MECH. CONTR. INC.           121396 121896     19961218
058715PROGRESSIVE HTG. & A/C            070296 121896     19961218
045543A.Y. MC DONALD SUPPLY             121696 122096     19961220
032620HACH COMPANY                      050995 122096     19961220
049740MIDWEST CUSTOM PROCESSING         121296 122096     19961220
006070ARENS HEATING & COOLING           071194 011097     19970110
050490MINA METALS CORPORATION           112092 011097     19970110
049850MIDWEST HTG & SHT MTL INC                011397     19970113
015780CHOWN PETERSEN SHEET MTL          101994 012197     19970121
013600C.M.W. INC.                       040991 012397     19970123
016060CITY WIDE SHEET METAL INC         103096 012397     19970123
038760K & I SHEET METAL INC.            012297 012497     19970124
070000SUPPORT SERVICES                  040293 012497     19970124
037050INDUSTRIAL SHEET METAL            050088 012797     19970127
024600ELMSFORD SHEET METAL              102591 013097     19970130
078370WEBSTER SHEET METAL INC.          101295 013197     19970131
009400D.C. BERGLUND HTG & S/M                  020797     19970207
038400JOHN'S REFRIG. & HTG.             050692 020797     19970207
058350PREFERRED SHT MTL INC.                   020797     19970207
006090ARMSTRONG HTG. & A/C INC      0001012097 021197     19970211
024500ELLIOTT HTG & COOLING INC         122192 021197     19970211
072140THIRLWALL'S SHEET METAL           013097 021197     19970211
041905L & P MECHANICAL INC.             021197 021397     19970213
005150ALTIERI SERVICE INC.                     021997     19970219
018270COOL HEAT SUPPLY              0002050495 022097     19970220
031150GRANITE CITY ROOFING INC.                022097     19970220
023700ECHOS AIR                         090392 022797     19970227
008380BATES ENGINEERING &               120296 022897     19970228
044700M & C MECHANICAL INC.             121092 030697     19970306
022050JAMES B. DONAGHEY INC.                   031097     19970310
042500LANE WEATHER MART                 010087 031097     19970310
010590OSCAR J. BOLDT CONST. CO.         050396 031997     19970319
071887THERMAL EQUIPMENT SALES           031997 032197     19970321
041450KRINKIE HEATING & A/C                    032797     19970327
046960THE MARKELL COMPANY               010996 032897     19970328
011480BRAMM'S PLUMBING & HTG.           051796 033197     19970331
055810PATTERSON HTG. & COOLING      0001102595 033197     19970331
06527072 DEGREES HTG. & COOLING         092095 040497     19970404
074700UNION COLLEGE                     040091 040497     19970404
042550LANGDON INC.                      111692 040897     19970408
067620SOUTHERN PIPING CO. INC.          053194 040897     19970408
005500AMPLE SHEET METAL INC                    041097     19970410
040255KING ELECTRIC HTG. & A/C          043093 041097     19970410
071930THE THERMAL PRODUCTS CO.          040897 041097     19970410
045350WILLIAM F. MC CORMICK             010089 041597     19970415
005960APOLLO SHEET METAL INC.           030596 041897     19970418
071880THERMACON SERVICE CO. INC         112393 041897     19970418
065260SERVICE SYSTEMS CONTRACTR         040997 042197     19970421
067598SOUTHERN CA. A/C DIST INC         042297 042397     19970423
079650WHOLESALE SHEET METAL             100089 050597     19970505
055500PALOUSE EMPIRE INC.               091092 050997     19970509
059300R.A. HEATING & A/C. INC.          100089 051597     19970515
011130JOHN BOWMAN INC.                  031997 052197     19970521
008100BARON MECHANICAL CONTR.           112092 060597     19970605
069520SUBURBAN SHEET METAL CO.          060697 060997     19970609
073480TRANE/CRAMER                      022797 060997     19970609
008750JOHN J. BEE MECH. CONTR.          042092 061897     19970618
061600RIDDLEBERGER BROS. INC.           070090 061897     19970618
011570BRAUER SUPPLY COMPANY             031695 062597     19970625
013980CARBONAIR ENV. SYSTEMS            061697 062597     19970625
062650RON'S SHEET METAL             0001120090 062797     19970627
025350ENVIRO-ACOUSTICS CO. INC          071488 070797     19970707
050655MINNESOTA RUBBER                  071097 071697     19970716
016250CLEAN AIR PRODUCTS INC.           040089 072197     19970721
027150FINISHING EQUIPMENT INC.          090088 072897     19970728
044000LOCKERBY SHEET METAL              082692 072997     19970729
050230C. MILLER & SONS INC.             121895 080697     19970806
034140HEARTLAND SHEET METAL CO.         040894 081197     19970811
004520ALL METAL SUPPLY INC.             081297 081397     19970813
080900YANKEE PLBG. & HTG. INC.          031291 081497     19970814
015700CHEROKEE REFRIGERATION                   082797     19970827
077130W K APPLIANCE & PROPANE           081897 082997     19970829
050800MIXAN HEATING AND A/C INC         020088 090897     19970908
056450PERFORMANCE CONTRS. INC.          1v0090 090997     19970909
044100LONGS' PLUMBING & HEATING         072492 091597     19970915
020040DAKOTA FOUR SEASONS HTG.          121994 092497     19970924
044090LONG REFRIGERATION                072793 092997     19970929
036200JAMES E. HUCKESTEIN INC.                 093097     19970930
066548SIMONETTI HTG & COOLING           122794 093097     19970930
080840YPS YOUNG & PRATT SERVICE         111893 093097     19970930
004545ALL SEASON HEATING & A/C      0001082197 101097     19971010
069420STROOT HEATING & A/C              101097 101497     19971014
034990HOBART TAFA TECHNOLOGIES          032294 101797     19971017
013295C & C AIR COND. & HEATING         101797 102097     19971020
017690CONCORD SHEET METAL PROD.         112195 102297     19971022
049700MIDWAY INDUSTRIAL SUPPLY                 102297     19971022
065350SHANK MECHANICAL                         102297     19971022
068250SPIRAL METALS CORP.               030592 102397     19971023
054320STATE OF OKLAHOMA                 081297 102897     19971028
030890GRABMAN SHEET METAL INC.          103097 103197     19971031
058050PRAIRIE PLBG. & HTG. INC.         010791 103197     19971031
014570CASWELL INTERNATIONAL             070296 111497     19971114
065450SHARKEY PLBG. & HEATING           020393 111797     19971117
050570MINNEFEX INC.                     121896 111997     19971119
015050CENTRAL N.Y. SHEET METAL          110691 112097     19971120
028020FOSTER WHEELER CORP.              111997 112897     19971128
003600AIR TECH ENGINEERING          00081v0090 120997     19971209
006030AQUA CITY PLUMBING INC.           042795 121197     19971211
013460C F M  SHEET METAL INC.           060297 121197     19971211
065095SELBY & SMITH INC.                051795 121197     19971211
015350CHALLEEN MECHANICAL                      121597     19971215
024335ELK RIVER RESOURCE RECVRY         121097 121597     19971215
060270RAMSEY COUNTY                     121197 121897     19971218
028785GSM MECH. SERVICES INC.           031997 122397     19971223
071400TEMP CONTROL MECH. CORP.          012891 122397     19971223
052000NATIONAL CRANE CORP.              040693 123097     19971230
028780G R MECHANICAL                    022797 123197     19971231
035130HOKANSON PLBG. & HTG. INC         120597 123197     19971231
044892M & M SHEET METAL INC.            111397 123197     19971231
045230MCALLEN SHEET METAL INC.          030397 123197     19971231
053300NORTHERN AIR CORPORATION      0001082592 123197     19971231
067630SOUTHERN STATES CONST. &          112597 123197     19971231
075050UNITED PARCEL SERVICE             120297 123197     19971231
030443GOLDSTAR ELEC. & MECH.            120197 010998     19980109
054400OLSON SHT MTL WORKS INC.                 010998     19980109
079590WHITNEY CONTRACTORS INC.          111396 011498     19980114
008270E.J. BARTELLS COMPANY             112197 011698     19980116
053900O'BRIEN SHEET METAL INC.          110088 011698     19980116
026760FEDERAL CORRECTIONAL INST         100897 012198     19980121
030950GRAIN EQUIPMENT INC.              030090 012198     19980121
038190JER-NEEN SPRING MFG. CO.          012894 012198     19980121
073590TRI-AIRE INC.                     111097 012198     19980121
013360C-CAM MECHANICAL CORP.            101095 012798     19980127
013455CEMS INC.                         012098 012798     19980127
055160PACKNET LIMITED                   112096 012798     19980127
018400COPPER CITY SHEET METAL           121997 012898     19980128
020270DARR CONSTRUCTION INC.            090294 012898     19980128
000715ABERDEEN MECHANICAL INC.          103097 013098     19980130
042700LAPIN SHEET METAL                        013198     19980131
023100DYE MECHANICAL                           020698     19980206
049970MIDWEST METAL FAB INC.            093097 021098     19980210
006780B B C  INDUSTRIES INC.            103197 021998     19980219
029130GARNETT REFRIGERATION INC         021298 022398     19980223
054220OAK-TIN                           051895 022698     19980226
056080PAYCAM METAL PRODUCTS INC         051696 022898     19980228
005460AMES & FISCHER CO. II             042396 030698     19980306
013800CANALES SHEETMETAL AND            011493 030698     19980306
041840L & M SHEET METAL                 022498 030698     19980306
050410MILLER SHEET METAL INC.           051697 031098     19980310
045540A.Y. MC DONALD SUPPLY CO.         052495 031398     19980313
021765DIAMOND POWER MECH. INC.          051697 031898     19980318
036745IND. SCH0OL DISTRICT 196          031798 032498     19980324
002520AIR-DUCT MFG. & SUPPLY            092394 032598     19980325
036310HURCKMAN MECH. INDUSTRIES         032498 032598     19980325
011820BRILCO INC.                       043096 032798     19980327
041460KRUCK PLBG & HTG CO. INC          012097 033198     19980331
041960LTG ENGINEERING INC.              040798 040898     19980408
006200ARROW HEATING COMPANY                    040998     19980409
010900FRANK M. BOOTH INC                       040998     19980409
072480THORPE INSULATION COMPANY         071894 041098     19980410
058713PROGRESS PLBG. & HEATING          040898 041398     19980413
013250HAROLD G. BUTZER INC                     041498     19980414
063250S.C.F. INC.                       110087 041598     19980415
001110ACTION HEATING & A/C INC          102196 042098     19980420
029710GEO-AIRE INC.                 0001041098 042098     19980420
001120ACTION INC.                       042398 042798     19980427
009760BILL'S COMMERCIAL A/C INC         043098 050198     19980501
031020CITY OF GRAND ISLAND              040898 051498     19980514
074970UNITED MC GILL CORP.              051198 051498     19980514
079440WHEELER SHEET METAL INC.          051198 052898     19980528
068915STARKS MECHANICAL INC             060398 060898     19980608
006210ARROW TANK & ENGINEERING          060398 061098     19980610
073850TRI-STAR INSULATION INC.          100087 061098     19980610
053660NORTON'S HEATING & S/M            060198 061198     19980611
054250OHIO AIR CONDITIONING             1v0090 061198     19980611
003700AIRCO MECHANICAL INC.             012992 061698     19980616
023575EATON'S HEATING & S/M INC         051198 061698     19980616
003620AIR TECH SALES                    122396 061798     19980617
061700RIEHL INDUSTRIES                  080089 062598     19980625
073220THE TORO CO. (#175897)            073096 062598     19980625
041930L-R SYSTEMS                       082396 062998     19980629
014050CARE AIR COND. & HEATING                 063098     19980630
026280FS MECHANICAL                     100595 063098     19980630
004210ALBERT LEA MECHANICAL INC         050395 070898     19980708
032100GUILBEAU SHEET METAL WRKS         070998 071498     19980714
037420J.A.M. CONTRACTING                051696 071498     19980714
068970STATEWIDE CONTR. SERV INC         070998 071498     19980714
003945AIRTEMP HTG. & COOL. INC          080197 071598     19980715
026600H.J. FAUST INC.                   050692 071598     19980715
078410WEGNER HTG COOLING & REF          020298 071698     19980716
007770BAKKEGARD & SCHELL                060796 072098     19980720
002960AIR HANDLERS SUPPLY INC.          072198 072298     19980722
043040LECLAIR BROTHERS HEATING          071698 072298     19980722
016430CLIMATRONICS INC.                 072098 072798     19980727
019730CUSTOM STEEL INC.                 111793 072798     19980727
071090TEAM MECHANICAL INC.              061798 072898     19980728
045542A.Y. MC DONALD SUPPLY CO.         110395 073198     19980731
008900BELL SUPPLY COMPANY INC.          022791 073198     19980731
067050SMITH SHEET METAL CO.                    081298     19980812
008000BARNES & DODGE INC.               080087 081398     19980813
015200CENTRAL S/M FABRICATORS           012593 081398     19980813
037690J.R.G. INSTALLERS AND             062696 081398     19980813
079560GIL WHITE PLBG & HTG INC          080698 081498     19980814
004500ALL MECHANICAL CONTRS.            030089 081898     19980818
051155MOORE SHEET METAL                 052694 081898     19980818
023560EAST MUSKEGON ROOFING AND         110397 082098     19980820
067850SOUTHWEST MECHANICAL INC          071591 082098     19980820
079780WIESBROOK SHEET METAL INC         082697 082098     19980820
050205MILLARD HEATH COMPANY             123094 082198     19980821
014270CARLSON & GOULETTE INC.           082198 082798     19980827
026054EXCEL CONTRACTOR SERVICE          080994 082798     19980827
029500GENERAL MILLS                     100592 083198     19980831
037433J & B SUPPLY INC.                 061997 091498     19980914
023300ETS ENERGY TECH SYS. INC          070089 091798     19980917
041300KRAMER SHEET METAL INC.                  091798     19980917
058532PRIMEBOARD INC.                   082698 091798     19980917
055130PSF MECHANICAL INC.               050897 091798     19980917
061008REGIONS HOSPITAL                  052998 091798     19980917
034505DON HERRIN                        090897 092898     19980928
037348IOWA STATE UNIVERSITY             060795 092898     19980928
045700MC ELROY'S INC.                          092998     19980929
009690BIG SKY SHEET METAL               071698 100798     19981007
049248METROPOLITAN MACHINERY            100598 100798     19981007
057600PNEUMA COMPANY INC.                      100798     19981007
078250WEATHER RITE                      053191 100898     19981008
050980MOHAWK MECHANICAL INC.            050994 100998     19981009
070790T & S TRUSTWORTHY HDWRE           061296 100998     19981009
047590MECHANICAL CONCEPTS INC.          090898 101398     19981013
046000MC KAMISH/CHESAPEAKE INC          071488 102098     19981020
064930SCRANTON SHEET METAL          0002101698 102198     19981021
075740GEORGE UTTECH SHT MTL INC         071996 102698     19981026
065150SENCO AIR EQUIPMENT INC.          070192 102998     19981029
003110AIR MECHANICAL SALES INC          021298 103198     19981031
006858B & D METALS INC.                 110298 103198     19981031
034580HICKENBOTTOM INC.                 102698 103198     19981031
066565SIOUX FALLS HEATING AND           102698 103198     19981031
036743IND. SCHOOL DIST. #194            092198 110698     19981106
034190BOB HECIMOVICH PLBG & HTG         082895 110998     19981109
040940J. KNOWLES SERVICES               110298 110998     19981109
039550R.J. KAMPO PLBG. & HTG.           010893 111098     19981110
032240E.H. GUSTAFSON & COMPANY          102693 111398     19981113
047450MC'S HEATING & A/C                050089 111398     19981113
074480TWIN CITY SHEET METAL             051398 111398     19981113
002445AIR DISTRIBUTION PRODUCTS         062696 111898 000119981118
012655BUCKLEY STEEL INC.                013098 112498     19981124
078120JOHN WATERS INC.                  112398 113098     19981130
050770MITSUBISHI ELECTRIC AIR           112598 113098     19981130
052970NOGLE & BLACK MECH. INC.          090997 113098     19981130
080300WITTE-BARKER INC.                 1v0090 113098     19981130
024870ENERGY MASTERS INTERNAT'L         040595 120498     19981204
030410GOGEBIC MECHANICAL INC.           120498 120798     19981207
062760LEO J. ROTH CORPORATION           020196 120798     19981207
080270THE WIRTH COMPANIES               112398 120798     19981207
006580AUER STEEL & HTG SUPPLY           110298 121598     19981215
