211910411112205036000100028028               0014940022230015390000125000002500  200000               00000000                              00000               00000000                              00000               00000000                              E               0000000000000                                             0000000000000                                             0000000000000                                             0000000000000                                             0000000000000                                       
211920124212205028000100006012               0002000003020000000000057000000000  2                                                                                                                                                                              O                                                                                                                                                                                                                                                                                                           
211931121122205033000100004033               0002200003270002270000057000000520  200000               00000000                              00000               00000000                              00000               00000000                              E               0000000000000                                             0000000000000                                             0000000000000                                             0000000000000                                             0000000000000                                       
211931121122405030000100008030               0004000004900004130000057000000520  200000               00000000                              00000               00000000                              00000               00000000                              E               0000000000000                                             0000000000000                                             0000000000000                                             0000000000000                                             0000000000000                                       
211932114112405020000100010020               0003340004150000000000051000000000  2                                                                                                                                                                              O                                                                                                                                                                                                                                                                                                           
211932114112405020000100007014               0001990002490000000000051000000000  2                                                                                                                                                                              O                                                                                                                                                                                                                                                                                                           
211932114112405020000100006012               0001600002010000000000051000000000  2                                                                                                                                                                              O                                                                                                                                                                                                                                                                                                           
211932114112605010000200003012               0000550000550000000000057000000000  2                                                                                                                                                                              O                                                                                                                                                                                                                                                                                                           
211932114112605010000200006008               0000900000920000000000057000000000  2                                                                                                                                                                              O                                                                                                                                                                                                                                                                                                           
211932114112605012000100004014               0000870000870000000000053000000000  2                                                                                                                                                                              O                                                                                                                                                                                                                                                                                                           
211932114112605012000200012010               0002200002220000000000057000000000  2                                                                                                                                                                              O                                                                                                                                                                                                                                                                                                           
211935111112405014000100002012HP 17 E        0000440000560000460000051000000520  200000               00000000                              00000               00000000                              00000               00000000                              O               0000000000000                                             0000000000000                                             0000000000000                                             0000000000000                                             0000000000000                                       
211935111112405014000200002006HP 28 E        0000340000440000360000057000000520  200000               00000000                              00000               00000000                              00000               00000000                              O               0000000000000                                             0000000000000                                             0000000000000                                             0000000000000                                             0000000000000                                       
211935111112405014000200003008HP 28 E        0000550000710000570000057000000520  200000               00000000                              00000               00000000                              00000               00000000                              O               0000000000000                                             0000000000000                                             0000000000000                                             0000000000000                                             0000000000000                                       
211935111112405016000100002010HP 17 E        0000440000560000460000051000000520  200000               00000000                              00000               00000000                              00000               00000000                              O               0000000000000                                             0000000000000                                             0000000000000                                             0000000000000                                             0000000000000                                       
211935111112405016000100004014HP 28 E        0001000001260001040000051000000520  200000               00000000                              00000               00000000                              00000               00000000                              O               0000000000000                                             0000000000000                                             0000000000000                                             0000000000000                                             0000000000000                                       
211935111112605010000200003010HP 17 E        0000500000510000520000057000000520  200000               00000000                              00000               00000000                              00000               00000000                              O               0000000000000                                             0000000000000                                             0000000000000                                             0000000000000                                             0000000000000                                       
211935111112605010000200002010HP 17 E        0000340000340000360000057000000520  200000               00000000                              00000               00000000                              00000               00000000                              O               0000000000000                                             0000000000000                                             0000000000000                                             0000000000000                                             0000000000000                                       
211935111112605012000200004010HP 17 E        0000740000740000770000057000000520  200000               00000000                              00000               00000000                              00000               00000000                              O               0000000000000                                             0000000000000                                             0000000000000                                             0000000000000                                             0000000000000                                       
211935111112605012000200001008HP 28 E        0000170000170000180000057000000520  200000               00000000                              00000               00000000                              00000               00000000                              O               0000000000000                                             0000000000000                                             0000000000000                                             0000000000000                                             0000000000000                                       
211939124222205054000100001015YELLOW         0000580000860000000000057000000000  2                                                                                                                                                                              O                                                                                                                                                                                                                                                                                                           
211939124222405030000100007016YELLOW         0002690003320000000000057000000000  2                                                                                                                                                                              O                                                                                                                                                                                                                                                                                                           
211939124222405030000100002012YELLOW         0000700000870000000000057000000000  2                                                                                                                                                                              O                                                                                                                                                                                                                                                                                                           
211941111122405016000100003012               0000700000890000730000051000000520  200000               00000000                              00000               00000000                              00000               00000000                              E               0000000000000                                             0000000000000                                             0000000000000                                             0000000000000                                             0000000000000                                       
211941111122405016000100001016               0000270000340000280000051000000520  200000               00000000                              00000               00000000                              00000               00000000                              E               0000000000000                                             0000000000000                                             0000000000000                                             0000000000000                                             0000000000000                                       
211941111122405018000100005010               0001170001480001210000051000000520  200000               00000000                              00000               00000000                              00000               00000000                              E               0000000000000                                             0000000000000                                             0000000000000                                             0000000000000                                             0000000000000                                       
211941111122405018000100001018               0000300000370000310000051000000520  200000               00000000                              00000               00000000                              00000               00000000                              E               0000000000000                                             0000000000000                                             0000000000000                                             0000000000000                                             0000000000000                                       
211941111122405020000100001012               0000270000340000280000051000000520  200000               00000000                              00000               00000000                              00000               00000000                              E               0000000000000                                             0000000000000                                             0000000000000                                             0000000000000                                             0000000000000                                       
211941111122405020000100001014               0000290000360000300000051000000520  200000               00000000                              00000               00000000                              00000               00000000                              E               0000000000000                                             0000000000000                                             0000000000000                                             0000000000000                                             0000000000000                                       
211941111122405020000100002016               0000600000750000620000051000000520  200000               00000000                              00000               00000000                              00000               00000000                              E               0000000000000                                             0000000000000                                             0000000000000                                             0000000000000                                             0000000000000                                       
211941111122405024000100008006               0002000002520002070000051000000520  200000               00000000                              00000               00000000                              00000               00000000                              E               0000000000000                                             0000000000000                                             0000000000000                                             0000000000000                                             0000000000000                                       
211941111122405024000100007008               0001870002350001930000051000000520  200000               00000000                              00000               00000000                              00000               00000000                              E               0000000000000                                             0000000000000                                             0000000000000                                             0000000000000                                             0000000000000                                       
211941111122405024000100004012               0001200001500001240000051000000520  200000               00000000                              00000               00000000                              00000               00000000                              E               0000000000000                                             0000000000000                                             0000000000000                                             0000000000000                                             0000000000000                                       
211941111122405024000100002018               0000700000870000730000051000000520  200000               00000000                              00000               00000000                              00000               00000000                              E               0000000000000                                             0000000000000                                             0000000000000                                             0000000000000                                             0000000000000                                       
211941111122605008000200003006               0000350000370000370000057000000520  200000               00000000                              00000               00000000                              00000               00000000                              E               0000000000000                                             0000000000000                                             0000000000000                                             0000000000000                                             0000000000000                                       
211941111122605010000200014008               0002100002150002170000057000000520  200000               00000000                              00000               00000000                              00000               00000000                              E               0000000000000                                             0000000000000                                             0000000000000                                             0000000000000                                             0000000000000                                       
211941111122605010000200003010               0000500000510000520000057000000520  200000               00000000                              00000               00000000                              00000               00000000                              E               0000000000000                                             0000000000000                                             0000000000000                                             0000000000000                                             0000000000000                                       
211941111122605010000200001006               0000140000140000150000057000000520  200000               00000000                              00000               00000000                              00000               00000000                              E               0000000000000                                             0000000000000                                             0000000000000                                             0000000000000                                             0000000000000                                       
211941111122605012000200002010               0000370000370000390000057000000520  200000               00000000                              00000               00000000                              00000               00000000                              E               0000000000000                                             0000000000000                                             0000000000000                                             0000000000000                                             0000000000000                                       
211941111122605012000200001006               0000150000150000160000057000000520  200000               00000000                              00000               00000000                              00000               00000000                              E               0000000000000                                             0000000000000                                             0000000000000                                             0000000000000                                             0000000000000                                       
211941114122205036000100004018               0001800002690000000000049000000000  200000               00000000                              00000               00000000                              00000               00000000                              E               0000000000000                                             0000000000000                                             0000000000000                                             0000000000000                                             0000000000000                                       
211941114122205036000100038024               0019000028320000000000049000000000  200000               00000000                              00000               00000000                              00000               00000000                              E               0000000000000                                             0000000000000                                             0000000000000                                             0000000000000                                             0000000000000                                       
211941114122205048000100001042               0000750001110000000000049000000000  200000               00000000                              00000               00000000                              00000               00000000                              E               0000000000000                                             0000000000000                                             0000000000000                                             0000000000000                                             0000000000000                                       
211941114122205054000100001024               0000650000960000000000049000000000  200000               00000000                              00000               00000000                              00000               00000000                              E               0000000000000                                             0000000000000                                             0000000000000                                             0000000000000                                             0000000000000                                       
211941114122405014000200003006               0000500000650000000000057000000000  200000               00000000                              00000               00000000                              00000               00000000                              E               0000000000000                                             0000000000000                                             0000000000000                                             0000000000000                                             0000000000000                                       
211941114122405014000100024010               0004800006130000000000051000000000  200000               00000000                              00000               00000000                              00000               00000000                              E               0000000000000                                             0000000000000                                             0000000000000                                             0000000000000                                             0000000000000                                       
211941114122405014000100016012               0003470004410000000000051000000000  200000               00000000                              00000               00000000                              00000               00000000                              E               0000000000000                                             0000000000000                                             0000000000000                                             0000000000000                                             0000000000000                                       
211941114122405014000100012014               0002800003540000000000051000000000  200000               00000000                              00000               00000000                              00000               00000000                              E               0000000000000                                             0000000000000                                             0000000000000                                             0000000000000                                             0000000000000                                       
211941114122405016000100018014               0004500005670000000000051000000000  200000               00000000                              00000               00000000                              00000               00000000                              E               0000000000000                                             0000000000000                                             0000000000000                                             0000000000000                                             0000000000000                                       
211941114122405016000100016012               0003740004730000000000051000000000  200000               00000000                              00000               00000000                              00000               00000000                              E               0000000000000                                             0000000000000                                             0000000000000                                             0000000000000                                             0000000000000                                       
211941114122405016000100002010               0000440000560000000000051000000000  200000               00000000                              00000               00000000                              00000               00000000                              E               0000000000000                                             0000000000000                                             0000000000000                                             0000000000000                                             0000000000000                                       
211941114122405018000100004018               0001200001500000000000051000000000  200000               00000000                              00000               00000000                              00000               00000000                              E               0000000000000                                             0000000000000                                             0000000000000                                             0000000000000                                             0000000000000                                       
211941114122405018000100024014               0006400008040000000000051000000000  200000               00000000                              00000               00000000                              00000               00000000                              E               0000000000000                                             0000000000000                                             0000000000000                                             0000000000000                                             0000000000000                                       
211941114122405018000100004012               0001000001260000000000051000000000  200000               00000000                              00000               00000000                              00000               00000000                              E               0000000000000                                             0000000000000                                             0000000000000                                             0000000000000                                             0000000000000                                       
211941114122405018000100001010               0000240000300000000000051000000000  200000               00000000                              00000               00000000                              00000               00000000                              E               0000000000000                                             0000000000000                                             0000000000000                                             0000000000000                                             0000000000000                                       
211941114122405020000100001010               0000250000320000000000051000000000  200000               00000000                              00000               00000000                              00000               00000000                              E               0000000000000                                             0000000000000                                             0000000000000                                             0000000000000                                             0000000000000                                       
211941114122405020000100002014               0000570000710000000000051000000000  200000               00000000                              00000               00000000                              00000               00000000                              E               0000000000000                                             0000000000000                                             0000000000000                                             0000000000000                                             0000000000000                                       
211941114122405022000100004014               0001200001500000000000051000000000  200000               00000000                              00000               00000000                              00000               00000000                              E               0000000000000                                             0000000000000                                             0000000000000                                             0000000000000                                             0000000000000                                       
211941114122405024000100001014               0000320000400000000000051000000000  200000               00000000                              00000               00000000                              00000               00000000                              E               0000000000000                                             0000000000000                                             0000000000000                                             0000000000000                                             0000000000000                                       
211941114122405026000100002010               0000600000750000000000051000000000  200000               00000000                              00000               00000000                              00000               00000000                              E               0000000000000                                             0000000000000                                             0000000000000                                             0000000000000                                             0000000000000                                       
211941114122405028000100005014               0001750002170000000000051000000000  200000               00000000                              00000               00000000                              00000               00000000                              E               0000000000000                                             0000000000000                                             0000000000000                                             0000000000000                                             0000000000000                                       
211941114122405030000100007018               0002800003460000000000051000000000  200000               00000000                              00000               00000000                              00000               00000000                              E               0000000000000                                             0000000000000                                             0000000000000                                             0000000000000                                             0000000000000                                       
211941114122405030000100001004               0000290000360000000000051000000000  200000               00000000                              00000               00000000                              00000               00000000                              E               0000000000000                                             0000000000000                                             0000000000000                                             0000000000000                                             0000000000000                                       
211941114122405030000100003016               0001150001420000000000051000000000  200000               00000000                              00000               00000000                              00000               00000000                              E               0000000000000                                             0000000000000                                             0000000000000                                             0000000000000                                             0000000000000                                       
211941114122405030000100001005               0000300000370000000000051000000000  200000               00000000                              00000               00000000                              00000               00000000                              E               0000000000000                                             0000000000000                                             0000000000000                                             0000000000000                                             0000000000000                                       
211941114122405030000100006014               0002200002720000000000051000000000  200000               00000000                              00000               00000000                              00000               00000000                              E               0000000000000                                             0000000000000                                             0000000000000                                             0000000000000                                             0000000000000                                       
211941114122605006000200020006               0002000002140000000000057000000000  200000               00000000                              00000               00000000                              00000               00000000                              E               0000000000000                                             0000000000000                                             0000000000000                                             0000000000000                                             0000000000000                                       
211941114122605008000200020006               0002340002460000000000057000000000  200000               00000000                              00000               00000000                              00000               00000000                              E               0000000000000                                             0000000000000                                             0000000000000                                             0000000000000                                             0000000000000                                       
211941114122605008000200007008               0000940000970000000000057000000000  200000               00000000                              00000               00000000                              00000               00000000                              E               0000000000000                                             0000000000000                                             0000000000000                                             0000000000000                                             0000000000000                                       
211941114122605010000200016006               0002140002210000000000057000000000  200000               00000000                              00000               00000000                              00000               00000000                              E               0000000000000                                             0000000000000                                             0000000000000                                             0000000000000                                             0000000000000                                       
211941114122605010000200028008               0004200004300000000000057000000000  200000               00000000                              00000               00000000                              00000               00000000                              E               0000000000000                                             0000000000000                                             0000000000000                                             0000000000000                                             0000000000000                                       
211941114122605010000200007004               0000820000860000000000057000000000  200000               00000000                              00000               00000000                              00000               00000000                              E               0000000000000                                             0000000000000                                             0000000000000                                             0000000000000                                             0000000000000                                       
211941114122605010000200040010               0006670006770000000000057000000000  200000               00000000                              00000               00000000                              00000               00000000                              E               0000000000000                                             0000000000000                                             0000000000000                                             0000000000000                                             0000000000000                                       
211941114122605012000200030010               0005500005540000000000057000000000  200000               00000000                              00000               00000000                              00000               00000000                              E               0000000000000                                             0000000000000                                             0000000000000                                             0000000000000                                             0000000000000                                       
211941114122605012000200012008               0002000002030000000000057000000000  200000               00000000                              00000               00000000                              00000               00000000                              E               0000000000000                                             0000000000000                                             0000000000000                                             0000000000000                                             0000000000000                                       
211941114122605012000200009006               0001350001380000000000057000000000  200000               00000000                              00000               00000000                              00000               00000000                              E               0000000000000                                             0000000000000                                             0000000000000                                             0000000000000                                             0000000000000                                       
211941114122605012000100006012               0001200001200000000000053000000000  200000               00000000                              00000               00000000                              00000               00000000                              E               0000000000000                                             0000000000000                                             0000000000000                                             0000000000000                                             0000000000000                                       
211950114122405016000100006012               0001400001770000000000051000000000  2                                                                                                                                                                              O                                                                                                                                                                                                                                                                                                           
211950114122405016000100004016               0001070001340001110000051000000000  2                                                                                                                                                                              O                                                                                                                                                                                                                                                                                                           
211950114122405020000100002018               0000640000800000000000051000000000  2                                                                                                                                                                              O                                                                                                                                                                                                                                                                                                           
211950114122605008000200003008               0000400000410000000000057000000000  2                                                                                                                                                                              O                                                                                                                                                                                                                                                                                                           
211950114122605012000100004012               0000800000800000000000053000000000  2                                                                                                                                                                              O                                                                                                                                                                                                                                                                                                           
211957124122205044000100001018               0000520000770000000000057000000000  200000               00000000                              00000               00000000                              00000               00000000                              E               0000000000000                                             0000000000000                                             0000000000000                                             0000000000000                                             0000000000000                                       
211957124122205044000100001018               0000520000770000000000057000000000  200000               00000000                              00000               00000000                              00000               00000000                              E               0000000000000                                             0000000000000                                             0000000000000                                             0000000000000                                             0000000000000                                       
211957124122205044000100006020               0003200004760000000000057000000000  200000               00000000                              00000               00000000                              00000               00000000                              E               0000000000000                                             0000000000000                                             0000000000000                                             0000000000000                                             0000000000000                                       
211957124122205050000100001022               0000600000890000000000057000000000  200000               00000000                              00000               00000000                              00000               00000000                              E               0000000000000                                             0000000000000                                             0000000000000                                             0000000000000                                             0000000000000                                       
211957124122405020000100002012               0000540000680000000000057000000000  200000               00000000                              00000               00000000                              00000               00000000                              E               0000000000000                                             0000000000000                                             0000000000000                                             0000000000000                                             0000000000000                                       
211957124122405024000100012014               0003800004730000000000057000000000  200000               00000000                              00000               00000000                              00000               00000000                              E               0000000000000                                             0000000000000                                             0000000000000                                             0000000000000                                             0000000000000                                       
211957124122405027000100001018               0000380000470000000000057000000000  200000               00000000                              00000               00000000                              00000               00000000                              E               0000000000000                                             0000000000000                                             0000000000000                                             0000000000000                                             0000000000000                                       
211957124122405027000100009018               0003380004180000000000057000000000  200000               00000000                              00000               00000000                              00000               00000000                              E               0000000000000                                             0000000000000                                             0000000000000                                             0000000000000                                             0000000000000                                       
211957421122205044000100002026               0001170001740001210000300000000520  200000               00000000                              00000               00000000                              00000               00000000                              E               0000000000000                                             0000000000000                                             0000000000000                                             0000000000000                                             0000000000000                                       
211957421222005062000100003024               0002150003740002220000300000000520  200000               00000000                              00000               00000000                              00000               00000000                              E               0000000000000                                             0000000000000                                             0000000000000                                             0000000000000                                             0000000000000                                       
211965111112405014000200001008               0000190000240000200000057000000520  200000               00000000                              00000               00000000                              00000               00000000                              O               0000000000000                                             0000000000000                                             0000000000000                                             0000000000000                                             0000000000000                                       
211965111112405014000100001010               0000200000260000210000051000000520  200000               00000000                              00000               00000000                              00000               00000000                              O               0000000000000                                             0000000000000                                             0000000000000                                             0000000000000                                             0000000000000                                       
211965111112405014000100001014               0000240000300000250000051000000520  200000               00000000                              00000               00000000                              00000               00000000                              O               0000000000000                                             0000000000000                                             0000000000000                                             0000000000000                                             0000000000000                                       
211965111112405014000100001010               0000200000260000210000051000000520  200000               00000000                              00000               00000000                              00000               00000000                              O               0000000000000                                             0000000000000                                             0000000000000                                             0000000000000                                             0000000000000                                       
211965111112405028000100001018               0000390000480000410000051000000520  200000               00000000                              00000               00000000                              00000               00000000                              O               0000000000000                                             0000000000000                                             0000000000000                                             0000000000000                                             0000000000000                                       
211965111112605012000200001008               0000170000170000180000057000000520  200000               00000000                              00000               00000000                              00000               00000000                              O               0000000000000                                             0000000000000                                             0000000000000                                             0000000000000                                             0000000000000                                       
211965111112605012000200001008               0000170000170000180000057000000520  200000               00000000                              00000               00000000                              00000               00000000                              O               0000000000000                                             0000000000000                                             0000000000000                                             0000000000000                                             0000000000000                                       
211965111112605012000200001008               0000170000170000180000057000000520  200000               00000000                              00000               00000000                              00000               00000000                              O               0000000000000                                             0000000000000                                             0000000000000                                             0000000000000                                             0000000000000                                       
211965112112605012000200002008               0000340000340000360000057000000460  200000               00000000                              00000               00000000                              00000               00000000                              O               0000000000000                                             0000000000000                                             0000000000000                                             0000000000000                                             0000000000000                                       
211965114112205034000100006012               0002300003460000000000049000000000  200000               00000000                              00000               00000000                              00000               00000000                              O               0000000000000                                             0000000000000                                             0000000000000                                             0000000000000                                             0000000000000                                       
211965114112205036000100007014               0002920004380000000000049000000000  200000               00000000                              00000               00000000                              00000               00000000                              O               0000000000000                                             0000000000000                                             0000000000000                                             0000000000000                                             0000000000000                                       
211965114112205042000100002016               0000970001450000000000049000000000  200000               00000000                              00000               00000000                              00000               00000000                              O               0000000000000                                             0000000000000                                             0000000000000                                             0000000000000                                             0000000000000                                       
211965114112205048000100001012               0000500000750000000000049000000000  200000               00000000                              00000               00000000                              00000               00000000                              O               0000000000000                                             0000000000000                                             0000000000000                                             0000000000000                                             0000000000000                                       
211965114112405014000100004010               0000800001020000000000051000000000  200000               00000000                              00000               00000000                              00000               00000000                              O               0000000000000                                             0000000000000                                             0000000000000                                             0000000000000                                             0000000000000                                       
211965114112405014000100001010               0000200000260000000000051000000000  200000               00000000                              00000               00000000                              00000               00000000                              O               0000000000000                                             0000000000000                                             0000000000000                                             0000000000000                                             0000000000000                                       
211965114112405014000200001008               0000190000240000000000057000000000  200000               00000000                              00000               00000000                              00000               00000000                              O               0000000000000                                             0000000000000                                             0000000000000                                             0000000000000                                             0000000000000                                       
211965114112405014000100001014               0000240000300000000000051000000000  200000               00000000                              00000               00000000                              00000               00000000                              O               0000000000000                                             0000000000000                                             0000000000000                                             0000000000000                                             0000000000000                                       
211965114112405016000100002012               0000470000590000000000051000000000  200000               00000000                              00000               00000000                              00000               00000000                              O               0000000000000                                             0000000000000                                             0000000000000                                             0000000000000                                             0000000000000                                       
211965114112405016000100003010               0000650000830000000000051000000000  200000               00000000                              00000               00000000                              00000               00000000                              O               0000000000000                                             0000000000000                                             0000000000000                                             0000000000000                                             0000000000000                                       
211965114112405016000100004010               0000870001110000900000051000000000  200000               00000000                              00000               00000000                              00000               00000000                              O               0000000000000                                             0000000000000                                             0000000000000                                             0000000000000                                             0000000000000                                       
211965114112405018000100003014               0000800001000000000000051000000000  200000               00000000                              00000               00000000                              00000               00000000                              O               0000000000000                                             0000000000000                                             0000000000000                                             0000000000000                                             0000000000000                                       
211965114112405018000100003014               0000800001000000000000051000000000  200000               00000000                              00000               00000000                              00000               00000000                              O               0000000000000                                             0000000000000                                             0000000000000                                             0000000000000                                             0000000000000                                       
211965114112405020000100003016               0000900001120000000000051000000000  200000               00000000                              00000               00000000                              00000               00000000                              O               0000000000000                                             0000000000000                                             0000000000000                                             0000000000000                                             0000000000000                                       
211965114112405020000100002010               0000500000630000000000051000000000  200000               00000000                              00000               00000000                              00000               00000000                              O               0000000000000                                             0000000000000                                             0000000000000                                             0000000000000                                             0000000000000                                       
211965114112405020000100002016               0000600000750000000000051000000000  200000               00000000                              00000               00000000                              00000               00000000                              O               0000000000000                                             0000000000000                                             0000000000000                                             0000000000000                                             0000000000000                                       
211965114112405020000100002010               0000500000630000000000051000000000  200000               00000000                              00000               00000000                              00000               00000000                              O               0000000000000                                             0000000000000                                             0000000000000                                             0000000000000                                             0000000000000                                       
211965114112405020000100002014               0000570000710000000000051000000000  200000               00000000                              00000               00000000                              00000               00000000                              O               0000000000000                                             0000000000000                                             0000000000000                                             0000000000000                                             0000000000000                                       
211965114112405020000100004014               0001140001430000000000051000000000  200000               00000000                              00000               00000000                              00000               00000000                              O               0000000000000                                             0000000000000                                             0000000000000                                             0000000000000                                             0000000000000                                       
211965114112405020000100001010               0000250000320000000000051000000000  200000               00000000                              00000               00000000                              00000               00000000                              O               0000000000000                                             0000000000000                                             0000000000000                                             0000000000000                                             0000000000000                                       
211965114112405024000100002014               0000640000800000000000051000000000  200000               00000000                              00000               00000000                              00000               00000000                              O               0000000000000                                             0000000000000                                             0000000000000                                             0000000000000                                             0000000000000                                       
211965114112405026000100002018               0000740000920000000000051000000000  200000               00000000                              00000               00000000                              00000               00000000                              O               0000000000000                                             0000000000000                                             0000000000000                                             0000000000000                                             0000000000000                                       
211965114112405028000100001018               0000390000480000000000051000000000  200000               00000000                              00000               00000000                              00000               00000000                              O               0000000000000                                             0000000000000                                             0000000000000                                             0000000000000                                             0000000000000                                       
211965114112605010000200002010               0000340000340000000000057000000000  200000               00000000                              00000               00000000                              00000               00000000                              O               0000000000000                                             0000000000000                                             0000000000000                                             0000000000000                                             0000000000000                                       
211965114112605010000200002010               0000340000340000000000057000000000  200000               00000000                              00000               00000000                              00000               00000000                              O               0000000000000                                             0000000000000                                             0000000000000                                             0000000000000                                             0000000000000                                       
211965114112605010000200004008               0000600000610000000000057000000000  200000               00000000                              00000               00000000                              00000               00000000                              O               0000000000000                                             0000000000000                                             0000000000000                                             0000000000000                                             0000000000000                                       
211965114112605010000200003012               0000550000550000000000057000000000  200000               00000000                              00000               00000000                              00000               00000000                              O               0000000000000                                             0000000000000                                             0000000000000                                             0000000000000                                             0000000000000                                       
211965114112605010000200003012               0000550000550000000000057000000000  200000               00000000                              00000               00000000                              00000               00000000                              O               0000000000000                                             0000000000000                                             0000000000000                                             0000000000000                                             0000000000000                                       
211965114112605010000200005012               0000920000930000000000057000000000  200000               00000000                              00000               00000000                              00000               00000000                              O               0000000000000                                             0000000000000                                             0000000000000                                             0000000000000                                             0000000000000                                       
211965114112605012000200002010               0000370000370000000000057000000000  200000               00000000                              00000               00000000                              00000               00000000                              O               0000000000000                                             0000000000000                                             0000000000000                                             0000000000000                                             0000000000000                                       
211965114112605012000100001012               0000200000200000000000053000000000  200000               00000000                              00000               00000000                              00000               00000000                              O               0000000000000                                             0000000000000                                             0000000000000                                             0000000000000                                             0000000000000                                       
211965114112605012000100002012               0000400000400000000000053000000000  200000               00000000                              00000               00000000                              00000               00000000                              O               0000000000000                                             0000000000000                                             0000000000000                                             0000000000000                                             0000000000000                                       
211965114112605012000100002012               0000400000400000000000053000000000  200000               00000000                              00000               00000000                              00000               00000000                              O               0000000000000                                             0000000000000                                             0000000000000                                             0000000000000                                             0000000000000                                       
211965114112605012000200003010               0000550000550000000000057000000000  200000               00000000                              00000               00000000                              00000               00000000                              O               0000000000000                                             0000000000000                                             0000000000000                                             0000000000000                                             0000000000000                                       
211965124112205040000100003016               0001400002090000000000057000000000  200000               00000000                              00000               00000000                              00000               00000000                              O               0000000000000                                             0000000000000                                             0000000000000                                             0000000000000                                             0000000000000                                       
211965124112405012000200008012               0001600002040000000000057000000000  200000               00000000                              00000               00000000                              00000               00000000                              O               0000000000000                                             0000000000000                                             0000000000000                                             0000000000000                                             0000000000000                                       
211965124112405014000200006012               0001300001650000000000057000000000  200000               00000000                              00000               00000000                              00000               00000000                              O               0000000000000                                             0000000000000                                             0000000000000                                             0000000000000                                             0000000000000                                       
211965124112405016000200001014               0000250000320000000000057000000000  200000               00000000                              00000               00000000                              00000               00000000                              O               0000000000000                                             0000000000000                                             0000000000000                                             0000000000000                                             0000000000000                                       
211973124122005060000100010022               0006840011920000000000057000000000  200000               00000000                              00000               00000000                              00000               00000000                              O               0000000000000                                             0000000000000                                             0000000000000                                             0000000000000                                             0000000000000                                       
211973124122205034000100005010               0001840002770000000000057000000000  200000               00000000                              00000               00000000                              00000               00000000                              O               0000000000000                                             0000000000000                                             0000000000000                                             0000000000000                                             0000000000000                                       
211973124122205034000100006014               0002400003600000000000057000000000  200000               00000000                              00000               00000000                              00000               00000000                              O               0000000000000                                             0000000000000                                             0000000000000                                             0000000000000                                             0000000000000                                       
211973124122205037000100011016               0004860007270000000000057000000000  200000               00000000                              00000               00000000                              00000               00000000                              O               0000000000000                                             0000000000000                                             0000000000000                                             0000000000000                                             0000000000000                                       
211973124122205042000100006022               0003200004760000000000057000000000  200000               00000000                              00000               00000000                              00000               00000000                              O               0000000000000                                             0000000000000                                             0000000000000                                             0000000000000                                             0000000000000                                       
211973124122405022000100004016               0001270001580000000000057000000000  200000               00000000                              00000               00000000                              00000               00000000                              O               0000000000000                                             0000000000000                                             0000000000000                                             0000000000000                                             0000000000000                                       
211973124122405024000100007016               0002340002910000000000057000000000  200000               00000000                              00000               00000000                              00000               00000000                              O               0000000000000                                             0000000000000                                             0000000000000                                             0000000000000                                             0000000000000                                       
211973124122405024000100002014               0000640000800000000000057000000000  200000               00000000                              00000               00000000                              00000               00000000                              O               0000000000000                                             0000000000000                                             0000000000000                                             0000000000000                                             0000000000000                                       
211973421222005068000100002026               0001570002730001620000300000001050  200000               00000000                              00000               00000000                              00000               00000000                              O               0000000000000                                             0000000000000                                             0000000000000                                             0000000000000                                             0000000000000                                       
211976112122405019000100002011               0000500000630000520000051000000460  200000               00000000                              00000               00000000                              00000               00000000                              E               0000000000000                                             0000000000000                                             0000000000000                                             0000000000000                                             0000000000000                                       
211976112122405025000100008011               0002400003000002480000051000000460  200000               00000000                              00000               00000000                              00000               00000000                              E               0000000000000                                             0000000000000                                             0000000000000                                             0000000000000                                             0000000000000                                       
211976112122405027000100017011               0005390006710005560000051000000460  200000               00000000                              00000               00000000                              00000               00000000                              E               0000000000000                                             0000000000000                                             0000000000000                                             0000000000000                                             0000000000000                                       
211976112122405027000100003013               0001000001240001040000051000000460  200000               00000000                              00000               00000000                              00000               00000000                              E               0000000000000                                             0000000000000                                             0000000000000                                             0000000000000                                             0000000000000                                       
211976114122405024000100014010               0003970004970000000000051000000000  200000               00000000                              00000               00000000                              00000               00000000                              E               0000000000000                                             0000000000000                                             0000000000000                                             0000000000000                                             0000000000000                                       
211976114122405026000100018010               0005400006740000000000051000000000  200000               00000000                              00000               00000000                              00000               00000000                              E               0000000000000                                             0000000000000                                             0000000000000                                             0000000000000                                             0000000000000                                       
211976114122405028000100001010               0000320000400000000000051000000000  200000               00000000                              00000               00000000                              00000               00000000                              E               0000000000000                                             0000000000000                                             0000000000000                                             0000000000000                                             0000000000000                                       
211976114122605010000200006008               0000900000920000000000057000000000  200000               00000000                              00000               00000000                              00000               00000000                              E               0000000000000                                             0000000000000                                             0000000000000                                             0000000000000                                             0000000000000                                       
211976114122605012000200012010               0002200002220000000000057000000000  200000               00000000                              00000               00000000                              00000               00000000                              E               0000000000000                                             0000000000000                                             0000000000000                                             0000000000000                                             0000000000000                                       
211983114122404021000100001016               0000250000310000000000051000000000  200000               00000000                              00000               00000000                              00000               00000000                              E               0000000000000                                             0000000000000                                             0000000000000                                             0000000000000                                             0000000000000                                       
211983114122404022000100001014               0000240000300000000000051000000000  200000               00000000                              00000               00000000                              00000               00000000                              E               0000000000000                                             0000000000000                                             0000000000000                                             0000000000000                                             0000000000000                                       
211983114122404022000100001010               0000220000280000000000051000000000  200000               00000000                              00000               00000000                              00000               00000000                              E               0000000000000                                             0000000000000                                             0000000000000                                             0000000000000                                             0000000000000                                       
211983114122404024000100001014               0000260000320000000000051000000000  200000               00000000                              00000               00000000                              00000               00000000                              E               0000000000000                                             0000000000000                                             0000000000000                                             0000000000000                                             0000000000000                                       
211983114122404024000100001010               0000230000290000000000051000000000  200000               00000000                              00000               00000000                              00000               00000000                              E               0000000000000                                             0000000000000                                             0000000000000                                             0000000000000                                             0000000000000                                       
211983114122404027000100001014               0000280000350000000000051000000000  200000               00000000                              00000               00000000                              00000               00000000                              E               0000000000000                                             0000000000000                                             0000000000000                                             0000000000000                                             0000000000000                                       
211983114122405021000100001016               0000310000390000000000051000000000  200000               00000000                              00000               00000000                              00000               00000000                              E               0000000000000                                             0000000000000                                             0000000000000                                             0000000000000                                             0000000000000                                       
211983114122405022000100002014BLUE           0000600000750000000000051000000000  200000               00000000                              00000               00000000                              00000               00000000                              E               0000000000000                                             0000000000000                                             0000000000000                                             0000000000000                                             0000000000000                                       
211983114122405022000100004010GREEN          0001070001340000000000051000000000  200000               00000000                              00000               00000000                              00000               00000000                              E               0000000000000                                             0000000000000                                             0000000000000                                             0000000000000                                             0000000000000                                       
211983114122405024000100001010GREEN          0000290000360000000000051000000000  200000               00000000                              00000               00000000                              00000               00000000                              E               0000000000000                                             0000000000000                                             0000000000000                                             0000000000000                                             0000000000000                                       
211983114122604006000200001010               0000110000110000000000057000000000  200000               00000000                              00000               00000000                              00000               00000000                              E               0000000000000                                             0000000000000                                             0000000000000                                             0000000000000                                             0000000000000                                       
211983114122604008000200001008               0000110000110000000000057000000000  200000               00000000                              00000               00000000                              00000               00000000                              E               0000000000000                                             0000000000000                                             0000000000000                                             0000000000000                                             0000000000000                                       
211983114122604012000100001012               0000160000160000000000053000000000  200000               00000000                              00000               00000000                              00000               00000000                              E               0000000000000                                             0000000000000                                             0000000000000                                             0000000000000                                             0000000000000                                       
211983114122604012000200001010               0000150000150000000000057000000000  200000               00000000                              00000               00000000                              00000               00000000                              E               0000000000000                                             0000000000000                                             0000000000000                                             0000000000000                                             0000000000000                                       
211983114122604012000200001008               0000140000140000000000057000000000  200000               00000000                              00000               00000000                              00000               00000000                              E               0000000000000                                             0000000000000                                             0000000000000                                             0000000000000                                             0000000000000                                       
211983114122604014000200001008               0000150000150000000000057000000000  200000               00000000                              00000               00000000                              00000               00000000                              E               0000000000000                                             0000000000000                                             0000000000000                                             0000000000000                                             0000000000000                                       
211983114122604016000100002010               0000350000350000000000053000000000  200000               00000000                              00000               00000000                              00000               00000000                              E               0000000000000                                             0000000000000                                             0000000000000                                             0000000000000                                             0000000000000                                       
211983114122604020000100002014               0000460000450000000000053000000000  200000               00000000                              00000               00000000                              00000               00000000                              E               0000000000000                                             0000000000000                                             0000000000000                                             0000000000000                                             0000000000000                                       
211983114122605006000200003010GREEN          0000400000410000000000057000000000  200000               00000000                              00000               00000000                              00000               00000000                              E               0000000000000                                             0000000000000                                             0000000000000                                             0000000000000                                             0000000000000                                       
211983114122605008000200001008BLUE           0000140000140000000000057000000000  200000               00000000                              00000               00000000                              00000               00000000                              E               0000000000000                                             0000000000000                                             0000000000000                                             0000000000000                                             0000000000000                                       
211983114122605008000200003008GREEN          0000400000410000000000057000000000  200000               00000000                              00000               00000000                              00000               00000000                              E               0000000000000                                             0000000000000                                             0000000000000                                             0000000000000                                             0000000000000                                       
211983114122605009000200004008BLUE           0000570000590000000000057000000000  200000               00000000                              00000               00000000                              00000               00000000                              E               0000000000000                                             0000000000000                                             0000000000000                                             0000000000000                                             0000000000000                                       
