0000010019                    0000000000                                                            
0000020039STEVE               0000000000STEVEM@SMCDUCT.COM                                          
0000030019MIKE      0         0000000000MICHAEL.DAY@HUMERATECH.COM                                  
0000031029DAWN                          VANGUARDHEATING@SBCGLOBAL.NET                               
0000031039DEREK                         DEREKO@MGMECHANICAL.COM                                     
0000031049JEFF                          JEFFR@AIRFLOPRODUCTS.COM                                    
0000031059JON                           JBEHLING@BSMW.COM                                           
0000031069MARK                          MKOHSMANN@HMWHITE.COM                                       
0000031079RODGER                        SERVICES@BUTLERAC.COM                                       
0000031089RON                           RONH@DAVIDTHOMASMECH.COM                                    
0000031099ASHLEY                        ASHLEY@GENERALINC.COM                                       
0000031109BAYOU                         BAYOUTEKLE@GMAIL.COM                                        
0000031119BEAU                          BEAU@SIMMONSHEATCOOL.COM                                    
0000031129BEN                           BSRP@SRP.HVAC.COM                                           
0000031139BEN D                         BENDEGREE24@GMAIL.COM                                       
0000031149BILL                          BSTONE@STONECONTRACTINGINC.COM                              
0000031159BILLY                         BILLY@CARWILEMECH.COM                                       
0000031169BILLY MA                      BMA@DEEMFIRST.COM                                           
0000031179BLAKE                         BJOHNSON@EXLAR.COM                                          
0000031189BOB                           RLBENAK@CALLGREENS.COM                                      
0000031199BOB S.                        BOB.SVACINA@MSN.COM                                         
0000031209BOB W                         WAKBOB@SIRENTEL.NET                                         
0000031219BRAD                          BLINK@AIRMECHANICAL.COM                                     
0000031229BRAD K                        BRADHL@AIRCAD.COM                                           
0000031239BRENDA                        BANDREW@MAC-CONST.COM                                       
0000031249BRENT                         BRENT@HENEVELD.COM                                          
0000031259BRETT                         BRETTB@PTINC.US                                             
0000031269BRIAN                         BRIANLIVINGSTON@BCIMECHANICAL.BIZ                           
0000031279BRIAN F.                      BRIANF@CARLSONSHEETMETAL.COM                                
0000031289BRIAN H                       BHERMANSON15@HOTMAIL.COM                                    
0000031299BRYAN W                       BWASKOWIAK@WGTOMKO.COM                                      
0000031309CAL                           CALSMETAL@HOTMAIL.COM                                       
0000031319CAMERON                       ISOURCEAMERICA@GMAIL.COM                                    
0000031329CARL                          CARL@CMRHVAC.COM                                            
0000031339CASEY                         CASEY.EMERY@PNNL.GOV                                        
0000031349CASEY V.                      CVANTRESS@ENERGYNEERINGSOLUTIONS.COM                        
0000031359CHAD                          CHAD.DOCKTER@DYNAMICAIR.COM                                 
0000031369CHAD F                        METROMECHANICALSUPPLY@YAHOO.COM                             
0000031379CHARLES                       CARCAND@ATELIERSFABTECH.CA                                  
0000031389CHARLES C                     CCURTIS@ECHOFIRSS                                           
0000031399CHARLIE Y                     CYOUNG@ADMORHVAC.COM                                        
0000031409CHASE                         CHASE.DELLES@INNOVATIVEAIR.COM                              
0000031419CHELSEA S                     CHELSEA.STEVENS@PROKONTROL.COM                              
0000031429CHRIS                         METROMECHTULSAOK@YAHOO.COM                                  
0000031439CHUCK                         CONCEPTSPLUMBING@YAHOO.COM                                  
0000031449CJ                            CJ@SMEXPERTS.COM                                            
0000031459CLARK C                       CCAMERON@BUCKLEYONLINE.COM                                  
0000031469CLEVE D                       CDOYEN@LEWISANDLAMBERT.COM                                  
0000031479CLIFF G                       CLIFF@GROSSEMECHANICAL.COM                                  
0000031489CORY                          CORY.BUSHONG@ICINORTHDAKOTA.US                              
0000031499CRAIG                         CRAIG@CRAIGREFRIG.COM                                       
0000031509CRAIG B                       CRAIG@AIRMECHSALES.COM                                      
0000031519CRANE ENG                     VERNG@CRANEENGINEERING.COM                                  
0000031529DAN                           GREENS_HVAC@YAHOO.COM                                       
0000031539DAN CLARK                     DCLARK9937@YAHOO.COM                                        
0000031549DAN KNIPP                     DAN@AIRSERVICESHVAC.COM                                     
0000031559DAN L.                        DLOVEDAY@HANDYBROS.COM                                      
0000031569DANIEL C                      D.CUTTS@DONPARKUSA.COM                                      
0000031579DANNY                         DANNYIORIO@YMAIL.COM                                        
0000031589DARWIN                        DM@SYNCQUIP.COM                                             
0000031599DAVE                          DAVEMAN@BRATNEY.COM                                         
0000031609DAVE E                        DEICHTEN@QWESTOFFICE.NET                                    
0000031619DAVE H                        DAVEMACFARGO@MSN.COM                                        
0000031629DAVE KEAY                     DAVE@IOWAFITTINGS.COM                                       
0000031639DAVE S                        DAVIDS@DORSE.COM                                            
0000031649DAVID                         DAVID.SHEA2@US.ARMY.MIL                                     
0000031659DAVID C                       COLEDAVIDLTD@YAHOO.COM                                      
0000031669DAVID M                       DAVIDM@AIRSIDEINC.COM                                       
0000031679DAVID W                       DAVID@TRADESMANMFG.CA                                       
0000031689DEANO                         DGHAMANDY@YAHOO.COM                                         
0000031699DEDE C                        DCOSGROVE@DUCTSOX.COM                                       
0000031709DENNIS                        DENNIS@RLCRAIGCO.COM                                        
0000031719DEREK O.                      DEREKO@MGMECHANICAL.COM                                     
0000031729DEREK R                       DEREK.ROTH@PREMIERFABRICATION.COM                           
0000031739DEREK R.                      DEREK.ROTH@PREMEERFABRICATION.COM                           
0000031749DIPAK                         DBANERJEE@AVSCO.COM                                         
0000031759DOLLY                         DOLLYHDZ912@HOTMAIL.COM                                     
0000031769DON CORT                      DCORT@ENERGYNEERINGSOLUTIONS.COM                            
0000031779DONALD                        DON.SHUPING@LAITRAM.COM                                     
0000031789DOUG                          DGROEN@VACSYSTEM.COM                                        
0000031799DOUGH                         DOUG@ASPDULUTH.COM                                          
0000031809DREW                          DREW.STIFTER@AGGREKO.COM                                    
0000031819DUANE                         DUANE.MATTER@YAHOO.COM                                      
0000031829DUANE B                       DUANEBANKS11@GMAIL.COM                                      
0000031839DUSTIN                        DUSTIN.TAYLOR@HMCC.SOM                                      
0000031849DWAYNE                        DWAYNE.MAST@POLARISIND.COM                                  
0000031859EARL                          EARL@DOUGLASSENS.COM                                        
0000031869ED KING                       ED.KING@IWCO.COM                                            
0000031879ELITE AIR                     ELITEAIRMN@GMAIL.COM                                        
0000031889ERIC                          ERIC.DUSTIN@IWCO.COM                                        
0000031899ERIC M                        ECM110781@GMAIL.COM                                         
0000031909ERIC O.                       ERIC@RYANELECTRIC.NET                                       
0000031919ERIK                          ERIKL@PMILLC.COM                                            
0000031929EWA                           EWA@GLAS-PRO.COM                                            
0000031939FRANK                         FHEIM@DUCTSOX.COM                                           
0000031949GARY                          GARY.JOSEPHSON@PNNL.GOV                                     
0000031959GARY F                        GARY.FOLLETT@DET-TRONICS.COM                                
0000031969GARY J                        GJOHNSTON@GENERALINSULATION.COM                             
0000031979GARY P                        GPALLANSCH@CARLSONSTEWART.COM                               
0000031989GARY PANG                     PANGANG@COMCAST.NET                                         
0000031999GEORGE                        GEORGEELB@SINCLAIR-INTL.COM                                 
0000032009GEORGE G.                     GEORGE.GROSVENOR@HUSSMANN.COM                               
0000032019GRAHAM M                      GMUNSON@MWNELSON.COM                                        
0000032029GREG                          AUBIMACK@AOL.COM                                            
0000032039GREG MOTT                     GREG@THEMOTTS.NET                                           
0000032049GREG R.                       GREGREITON@COMCAST.NET                                      
0000032059HEATHER                       HRYAN@ABMHVAC.COM                                           
0000032069HENRY                         HEPASSOCIATES@YAHOO.COM                                     
0000032079HUGH K.                       HKNIGHT@TRAEGER.COM                                         
0000032089IAN                           IMORRISON@MEPCO.KY                                          
0000032099INHO LEE                      INHOLEE517@MSN.COM                                          
0000032109ISIKELI                       SALESISIENGINEERING@GMAIL.COM                               
0000032119JAMES                         JAMESO@SMCDUCT.COM                                          
0000032129JANICE                        JBARRETT@PREMIERHVAC.COM                                    
0000032139JASON                         WELLS136@YAHOO.COM                                          
0000032149JASON A.                      JALDERINK@JETUP.NET                                         
0000032159JASON R.                      JASONAROSS540@MSN.COM                                       
0000032169JASON T                       TORKELSONJASON@GMAIL.COM                                    
0000032179JAY K                         JAYKNOPE@FRONTIERNET.NET                                    
0000032189JD BEST                       JD@BLUESKY-ENERGY.COM                                       
0000032199JEFF                          JEFF@MIDWESTHEATINGLLC.COM                                  
0000032209JEFF J                        JEFF.JOHNSON@DOOSAN.COM                                     
0000032219JEFF W                        JWILLIAMS@KOGOK.COM                                         
0000032229JENNIFER                      JENNIFERREINHART@SERVICEEXPERTS.COM                         
0000032239JERO H                        JEROSLAV.HAJEK@STRABAG.CA                                   
0000032249JERRY                         JERPATSLO@MSN.COM                                           
0000032259JERRY A.                      JERRYA@SOUTHSIDEPH.COM                                      
0000032269JERRY R.                      JREDMOND54@HOTMAIL.COM                                      
0000032279JERRY W                       JERRYW@STARLANDMETALS.COM                                   
0000032289JESSE J                       JJCOMFORTEC@YAHOO.COM                                       
0000032299JIM                           JMMWIP@MSN.COM                                              
0000032309JIM E                         JIME@ZIMMERMANINC.NET                                       
0000032319JIM G                         JIMGANDG@HOTMAIL.COM                                        
0000032329JIM H                         JIMH@SMCDUCT.COM                                            
0000032339JIM K                         JIMK@MCCORMICKCONSTRUCTION.COM                              
0000032349JIM O                         JORLANDO56@HOTMAIL.COM                                      
0000032359JIM O.                        JIMORLANDO56@HOTMAIL.COM                                    
0000032369JIM S                         JSOLUM@PRAIRIEPUBLIC.ORG                                    
0000032379JIMMY                         JIMMY@ACCURATEAIRMEMPHIS.COM                                
0000032389JOANIE                        PURCHASING@TEXASSHEETMETAL.COM                              
0000032399JOE                           JOEYMATERO@GMAIL.COM                                        
0000032409JOE M.                        JOE.MCLEAN@MCCALLSINC.NET                                   
0000032419JOE MEEKS                     JMEEKS@MMMFG.COM                                            
0000032429JOEL                          JOEL.FONTENOT@JAMESTOWNMETAL.COM                            
0000032439JOEL P                        JPEREZ@CLIMASLEYCO.COM                                      
0000032449JOEL R                        JOEL.RIVERS583@GMAIL.COM                                    
0000032459JOHN                          JOHN.SCIARA@CS3.COM                                         
0000032469JOHN COLE                     BLIND.SOLUTIONS@HOTMAIL.COM                                 
0000032479JOHN H.                       JOHN.HIGGINS@TRIN.NET                                       
0000032489JOHN L                        JLYONS@AIR-DISTRIBUTION.COM                                 
0000032499JOHNATHAN                     HVACPLUSOK@YAHOO.COM                                        
0000032509JOSH                          JNOLTE@IOWATELECOM.NET                                      
0000032519JOSH C                        JCRICHTON@LEWISANDLAMBERT.COM                               
0000032529JULIE                         JPARDEN@STAR-SERVICE.COM                                    
0000032539JUSTIN                        JLOOS@HOLTSHEETMETAL.COM                                    
0000032549JUSTIN V                      JVEIK@ETI-ENGINEERS.COM                                     
0000032559KARL                          WROKAR@WAROOSEVELT.COM                                      
0000032569KATHY                         KATHYAIRICS@AOL.COM                                         
0000032579KATIE                         KFLANNERY@PREFERRED.COM                                     
0000032589KEITH                         KEITH@CLEANNPRESS.COM                                       
0000032599KELLY                         KELLY@AUSTINMETALS.COM                                      
0000032609KEN H.                        KHAMILTON@AIREQUIPMENTLLC.COM                               
0000032619KEN O.                        KOSTACH@GLMECH.COM                                          
0000032629KENNY L                       KENNY@LEMINGSUPPLY.COM                                      
0000032639KERRY                         KERRY.MASHBURN@DRMCONTROLS.COM                              
0000032649KEVIN                         KSHEKELL@SHEKELL.COM                                        
0000032659KEVIN G.                      KGOBATS@GMAIL.COM                                           
0000032669KEVIN K                       KKOBZA@CONDORSNACKS.COM                                     
0000032679KEVIN Y                       KEVIN55331@MSN.COM                                          
0000032689KIRK                          KJOHNSON@MMCD.ORG                                           
0000032699KORY                          KORYANDSTEPHANIE@HOTMAIL.COM                                
0000032709KRAIG L                       KLANGVAD@GENSCO.COM                                         
0000032719KURT                          KLOUTNER@ENTERPRISE-CO.COM                                  
0000032729KURT S.                       SCHLIECKAU@CENTURYTEL.NET                                   
0000032739KYLE                          SKDEATON@FERRARAS-HVAC.COM                                  
0000032749LANNY                         LANNY.ISENSEE@GMAIL.COM                                     
0000032759LARRY                         LJWELLS@EVAPCOMN.COM                                        
0000032769LARRY B                       BRADY@LEWISANDLAMBERT.COM                                   
0000032779LARRY W.                      LARRYWARREN@CUSTOMHEATING.ORG                               
0000032789LAURA                         LAURA@KELLEYBROTHERS.US                                     
0000032799LEE                           LEE@TWF-INDUSTRIES.COM                                      
0000032809LEROY                         CROWN913@YAHOO.COM                                          
0000032819LINDA                         LINDA@COOLWIND.BIZ                                          
0000032829LINDA L.                      LINDAL@TCOMFORT.COM                                         
0000032839LINSEY                        CSS@COUNCILSTAINLESS.COM                                    
0000032849LONNIE N                      THECLEANAIRGUY@LIVE.COM                                     
0000032859LORI                          LORIROSS@PITTSBURGHAIRSYSTEMS.COM                           
0000032869LOUIS                         LOUISHUNT@COX.NET                                           
0000032879LUIS                          LWATTS@ENCOREAUTOMATION.COM                                 
0000032889LUKE                          LUKE@PICKAR-OULMAN.COM                                      
0000032899MANNY                         MANNY@MRSHEETMETAL.COM                                      
0000032909MARC B                        MBLOCK@HAMLINCOS.COM                                        
0000032919MARCY                         MARCYH@ADEL-WHOLESALERS-INC.COM                             
0000032929MARK                          MKRANZ@ADV-MECH.COM                                         
0000032939MARK G.                       MNG_DUCT_FABRICATORS@YAHOO.COM                              
0000032949MARK Z                        MZABAWA@KFMECHANICAL.COM                                    
0000032959MARVIN                        HTWT@LAKELAND.WS                                            
0000032969MATT                          MATTHEW.SCHEIMANN@WAAFB.AF.MIL                              
0000032979MATT F                        MATTHOLCCW@AOL.COM                                          
0000032989MATT G                        MATTGREER@HUDSONMECHANICALINC.NET                           
0000032999MELANIE                       MELANIE@SOURCEDMATERIALS.COM                                
0000033009MELISSA                       MELISSA.FISCHER@THOMSONREUTERS.COM                          
0000033019MICHAEL                       MICHAELK@HPEINC.COM                                         
0000033029MICHAEL H                     HOLZWORTH.RCJACOBS@GMAIL.COM                                
0000033039MICHELLE                      MICHELLE@ROASTERSEXCHANGE.COM                               
0000033049MIKE                          M.KRETZ@GVP-INC.NET                                         
0000033059MIKE F.                       MIKEF@MNFX.COM                                              
0000033069MIKE S.                       MIKES@SOUTHSIDEPH.COM                                       
0000033079MIKE W.                       HWANG128@HOTMAIL.COM                                        
0000033089MILO H                        MHOLTE@UGL-UNICCO.COM                                       
0000033099MIRANDA                       MJONES@SPIRALFAB.COM                                        
0000033109MITCH                         MITCHM@ART-ORTHOPAEDICS.COM                                 
0000033119MYRA                          MYRA.HIGGINS@CARRIERENTERPRISE.COM                          
0000033129NATE                          NATEBARTELS@GMAIL.COM                                       
0000033139NATHAN                        NBREKKE@SRP-HVAC.COM                                        
0000033149NAVID                         GHABUSSIN@USEC.COM                                          
0000033159NEIL                          TINMAN1@LAKELAND.WS                                         
0000033169NICHOLAS                      NICHOLAS@SISNEROSBROS.COM                                   
0000033179NICK                          NICK@DMCPLUMBING.COM                                        
0000033189NILE                          ODESSAMECHANICAL@YAHOO.COM                                  
0000033199NISS                          NISS@FINEAIRMECHANICAL.COM                                  
0000033209NORM                          NORMANHANSON@ARROWCRYOGENICS.COM                            
0000033219PAT                           WAREHOUSE@WGTOMKO.COM                                       
0000033229PAT A.                        ABEARHEATINGANDAIR@YAHOO.COM                                
0000033239PATRICK                       VETMECH@GMAIL.COM                                           
0000033249PAUL                          PSALSMAN@HYBRIDMECHANICALMN.COM                             
0000033259PAUL M.                       AUTHENTIC.HTG@GMAIL.COM                                     
0000033269PAULA P.                      PPACE@MOFFITTHAVC.COM                                       
0000033279PETE B                        ADVANCEDAIR101@YAHOO.COM                                    
0000033289PETER D                       PDAVIS@LOGHOUSEFOODS.COM                                    
0000033299PHIL                          HOLMINHEATING@COMCAST.NET                                   
0000033309PHIL M                        P.MARSHALL@DONPARKUSA.COM                                   
0000033319QUINN D                       QDENSLEY@GENERALINSULATION.COM                              
0000033329RANDY                         RANDY@PKMECH.NET                                            
0000033339RAY                           RAY.MUSTON@JOHNSTONESUPPLY.COM                              
0000033349RENALDO                       RFITT@RTEK.BB                                               
0000033359RICH                          RICHQ@SIGNLETTERS.COM                                       
0000033369RICH S.                       RSHEMA@BUSHDISTRIBUTERS.COM                                 
0000033379RICHARD                       RBHOLCOMBE@HOTMAIL.COM                                      
0000033389RICHARD B                     RAB@ALANMFG.COM                                             
0000033399RICHARD G                     BAJAFX4@GMAIL.COM                                           
0000033409RICK                          RSTEVES@CONNORCO.COM                                        
0000033419RICK W                        R.WAGS@PRO-NS.NET                                           
0000033429ROB                           ROB.DEOBALD@AECOM.COM                                       
0000033439ROB S.                        RSCHWIEBERT@AIRFORCEONE.COM                                 
0000033449ROB W.                        ROB@ELECTRICAL-ENCLOSURES.COM                               
0000033459ROBERT M                      MORNINGSTAR@WEMAKEDUCT.COM                                  
0000033469ROBIN B                       RBURKES@CSMFAB.COM                                          
0000033479ROD E                         RODESSIG@CARRSUPPLY.COM                                     
0000033489RODNEY                        SDOR2002US@YAHOO.COM                                        
0000033499ROGER H.                      ROGER@HOKANSONCOMPANIES.COM                                 
0000033509RON                           RON.BELL@FRAUENSHUH.COM                                     
0000033519RON DAVIS                     KCACO@AOL.COM                                               
0000033529RON H.                        RHAVENS@JJSM.BIZ                                            
0000033539ROSS                          RNELSON@LINKMFG.COM                                         
0000033549ROSS L.                       ROSS@WBSERVICESLLC.COM                                      
0000033559RUSS                          RUSS@WATTSENG.COM                                           
0000033569SAM                           SAMSAHLSTROM@GMAIL.COM                                      
0000033579SAM G                         SGIBSON@SETENTERPRISES.COM                                  
0000033589SCOTT                         SMOWER@PROGRESSIVEARCH.COM                                  
0000033599SCOTT B                       SCOTT.BERG@BLAST-ONE.COM                                    
0000033609SCOTT D                       SCOTT@TWOSONSHVACR.COM                                      
0000033619SCOTT R                       SRAINES@METROEQUIPSALES.COM                                 
0000033629SEAN                          S.MCGOWAN@ROBERTSAIRSYSTEMS.COM                             
0000033639SETH                          SETH@HARBORMECHANICAL.COM                                   
0000033649SHANE                         S.LAUNDRY@ADAMSPHINC.COM                                    
0000033659SHANE C.                      SHANE@KLHVAC.COM                                            
0000033669SHAUN G.                      SHAUNG@MEDINAELECTRIC.NET                                   
0000033679SHAWN                         SOGUIN@CONQUESTMEP.COM                                      
0000033689SHAWN M                       SHAWN@LAKESCABINETRY.COM                                    
0000033699SHELLY                        JOHNSONHEATING@MCHSI.COM                                    
0000033709SHILO                         SHUNT@MCKENNYMECHANICAL.COM                                 
0000033719STAN                          STANSHVAC1@YAHOO.COM                                        
0000033729STEVE                         STEVE@PLENUMSPLUS.COM                                       
0000033739STEVE B.                      STEVEJBRYAN@GMAIL.COM                                       
0000033749STEVE D.                      STEVE@PROFILE-IND.COM                                       
0000033759STEVE GAY                     STEVEGAYTINNER2@YAHOO.COM                                   
0000033769STEVE R                       ROREMS@GMAIL.COM                                            
0000033779TANIA A                       TANIAA@PRICE-HVAC.COM                                       
0000033789TERRY G                       TGOTTER@COMFORTSYSTEMSWI.COM                                
0000033799TERRY P                       TPIERCE@ALPHAFREEFLOW.COM                                   
0000033809TIM                           TIMD@MCKINSTRY.COM                                          
0000033819TIM A                         TRADE@TRUEVALUE16981.COM                                    
0000033829TODD                          AMERICANHTGAIR@AOL.COM                                      
0000033839TODD C                        TODDCOX@DECKMANCO.COM                                       
0000033849TODD M                        TMOOREN@SPIRITCONSTRUCTION.COM                              
0000033859TOM                           TSWEDE@HOTMAIL.COM                                          
0000033869TOM H                         THUMMEL56@MSN.COM                                           
0000033879TOMMY B                       TBAXTER@DUCTDIRECT.COM                                      
0000033889TOMMY L                       TOMMY.LEAR@GRAYGREENLABSYSTEMS.COM                          
0000033899TONY                          TONYKARATE@YAHOO.COM                                        
0000033909TONY R.                       TONY@SAYLERHVAC.COM                                         
0000033919TRAVIS                        TRAVIS.MECHINV@GMAIL.COM                                    
0000033929TY                            TBESTOR@VALORMECH.COM                                       
0000033939VEL                           THERMODYNAMIXLLC@AOL.COM                                    
0000033949VICTOR C                      VCHIDA@AIREMASTERS-AC.COM                                   
0000033959VIJAY                         VIJAY@JNLENERGY.COM                                         
0000033969VIRGIL                        VCMHVAC@YAHOO.COM                                           
0000033979WELDON W                      WWEEKS@MMMFG.COM                                            
0000033989WES                           CVILLEAIR@CVILLEAIR.COM                                     
0000033999WESS                          WNVAGLE627@GMAIL.COM                                        
0000034009Y                             TRACEYSPEAR.YAHOO.COM                                       
0000034019ZACH                          ZACH@FIRSTNATIONALPLAZA.NET                                 
0000034029ZACH H                        ZACH@DHAFILTER.COM                                          
0000034039DAN       KNIPP     0000000000DAN@AIRSERVICESHVAC.COM                                     
0000034049JACK                8122402938SMREG@AOL.COM                                               
0000034059JACK                8122402938SMREQ@AOL.COM                                               
0000034069                    0000000000SMREQ@AOL.COM                                               
0000034089BRAD      HUBER     8159885140BAHUBER53@YAHOO.COM                                         
0000034099MITCHELL  BOND      0000000000MITCHELLB@PTINC.US                                          
0000034109CRAIG     KLEINSCHMI2178403339KLNSCHMD@YAHOO.COM                                          
0000034119CHRIS               7084075560CHRIS@CFDCHICAGO.COM                                        
0000034129JIM       SKELDING  0000000000JSKELDING@SJINCVA.COM                                       
0000034139                    0000000000VOGELKJ2001@GMAIL.COM                                       
0000034149RUSS      KLOEHN    2628443094RUSSELL.H.KLOEHN@JCI.COM                                    
0000034159CHUCK     LINDEN    0000000000SEASONALHVAC@NETZERO.COM                                    
0000034169ANDY      PHELPS    9137107915APHELPS@BARNESANDDODGE.COM                                  
0000034179JOE       COLVARD   4193404201COLVARDJOE@YAHOO.COM                                        
0000034189MIKE      PADDOCK   0000000000ORDERSMMSTULSA@YAHOO.COM                                    
0000034199MIKE      PADDOCK   0000000000ORDERSMMSTULSA@YAHOO.COM                                    
0000034209TONY      GARIPPO   0000000000TGARIPPO@AOL.COM                                            
0000034219JOHN                0000000000JOHNC@DENNISCOINC.COM                                       
0000034239CHARLIE   WUETHRICH 0000000000CHARLIE@SOS2000.COM                                         
0000034249HAL                 0000000000HAL@TAYLOR-SEIDENVACH.COM                                   
0000034259PETER     MICHELS   0000000000PETE@SUBSOURCEINC.COM                                       
0000034269DIRK      JOHNSON   0000000000DIRK.E.JOHNSON2.CIV@MAIL.MIL                                
0000034279DAN                 0000000000DANL@TWINCITYMECHCANICAL.COM                                
0000034289REBECCA   SCHUH     0000000000RSCHUH@MEGTEC.COM                                           
0000034299                    0000000000                                                            
0000034309DAVID               0000000000DAVID@ALUMITANK.COM                                         
0000034319JAMES     MCCLALLEN 0000000000JAMES@SUMMITDESIGNSINC.COM                                  
0000034329                    0000000000                                                            
0000040019                    0000000000                                                            
0000050019                    0000000000                                                            
00001010291                             DENHALCOMB@GMAIL.COM                                        
00001010392                             BROCK@AESMECH.COM                                           
0000101049ALEX                          ADMAIRCONTROL@AOL.COM                                       
0000101059ANDREW                        DITECH@SBCGLOBAL.NET                                        
0000101069BILL C                        HITECHMECHANICAL@AOL.COM                                    
0000101079BOB                           PROJECTMAN.BMS@GMAIL.COM                                    
0000101089BRETT B                       BRETTB@PTINC.US                                             
0000101099BRIAN                         BHOWELL@IRONCITYPIPE.COM                                    
0000101109BRIAN C                       BCHRIST@BENOIST.COM                                         
0000101119BROCK                         BNELSON@BELONGCOMPANY.COM                                   
0000101129BRUCE S                       BSUNDAY22@SBCGLOBAL.NET                                     
0000101139BUDDY                         BUDDY.RUMBLE@MOTION-IND.COM                                 
0000101149CAMERON                       MCGROARTYCONST@AOL.COM                                      
0000101159CAROL                         CAROL.STUMPF@SUPPLYCORE.COM                                 
0000101169CHUCK                         HULLSADVANTAGE@GMAIL.COM                                    
0000101179DALE                          DDIEMER@METALSEAL.COM                                       
0000101189DAN                           DFISHER@CRAWFORD-COMPANY.COM                                
0000101199DAN P                         DANP@FRANKMILLARD.COM                                       
0000101209DARRELL                       DARRELL.SEN@LIMBACHINC.COM                                  
0000101219DARREN                        INTERSTATEDARREN@AOL.COM                                    
0000101229DENNIS                        ACCUAIRECOMFORTSYSTEMS@GMAIL.COM                            
0000101239DEREK                         DEREKO@MGMECHANICAL.COM                                     
0000101249DINA                          AIRMAGICHVAC@GMAIL.COM                                      
0000101259ELLIOT B                      ELLIOT.BLANK@TAIENGINEERING.COM                             
0000101269ERIC                          ERICOTTO62@YAHOO.COM                                        
0000101289EWA                           EWACZYZ@GMAIL.COM                                           
0000101299GREG                          GJOHNSON@LJFABRICATORS.COM                                  
0000101309GREGORY                       GREGORYD2HABERBERGER.COM                                    
0000101319IAN T                         IANTAYLOR@THEMICARCOMPANY.COM                               
0000101329JACEK                         JACEK.HVAC@YAHOO.COM                                        
0000101339JASON                         JNEFF@MECHANICALCONCEPTSINC.COM                             
0000101349JEFF J                        JJENTZEN@CIRCLERMECHANICAL.COM                              
0000101359JEFF T                        JTISCHLER@CHARTER.NET                                       
0000101369JEREMY                        JPJECK74@YAHOO.COM                                          
0000101379JIMMY                         DSMI@SIGNALBLAST.COM                                        
0000101389JOE                           GEIKENHVAC@GMAIL.COM                                        
0000101399JOE M                         JOE@COOLWIND.BIZ                                            
0000101429JOHN M                        MULCAHY03@SBCGLOBAL.NET                                     
0000101439JON                           JBEHLING@BSMW.COM                                           
0000101449JOSH                          RYANHEATING@YMAIL.COM                                       
0000101459JUSTIN H                      JUSTIN.HELMERS@OMARA-AG.COM                                 
0000101469KELLY                         KKUSTER@WSOULE.COM                                          
0000101479KEN                           KBENSYL@CAPITOLGROUP.COM                                    
0000101489KURT                          KURT@CHRISTIANSENHEATING.COM                                
0000101509LANCE O                       LANCE@JONESNATURALCHEWS.COM                                 
0000101519LARRY                         MIDWEST.EST@GMAIL.COM                                       
0000101529LEAH O                        LEAH@TOTALSEEDPRODUCTION.COM                                
0000101539LONNIE                        LONNIET@TOPMECHANICALINC.COM                                
0000101549MARC                          MARC@LINSHEATINGANDAIR.COM                                  
0000101559MARK                          MBOARDMAN@WSHAMPSHIRE.COM                                   
0000101569MATT                          MATT@MCHENRYHEATING.COM                                     
0000101579MATT R                        MATT@MCHENRYHEATING.COM                                     
0000101589MIKE                          MXM@GRUMMANBUTKUS.COM                                       
0000101599MIKE M                        MIKEMUGOVAN@CALTEMP.COM                                     
0000101609RAYMOND                       RAYMOND.CARPENTER@ACTIONWI.COM                              
0000101619ROB                           RMS@CHARTER.NET                                             
0000101629ROB C                         INTERSTATEROB@AOL.COM                                       
0000101639RODGER                        SERVICES@BUTLERAC.COM                                       
0000101649RON                           RONPALM@COLLINSANDCOMPANY.NET                               
0000101659STEVE                         SHUDSON@ACITELLI.COM                                        
0000101669STEVE J                       MAPLEROSEFARM@YAHOO.COM                                     
0000101679SUEVANN                       SVSIN@SHIPANDSHORE.COM                                      
0000101689TERRY G                       TGOTTER@COMFORTSYSTEMSWI.COM                                
0000101699TIM                           SALES@BISCOAIR.COM                                          
0000101709TOM                           TWOLF@FAB-RITE.COM                                          
0000101719TOM A                         AAHTGAC@TICON.NET                                           
0000101729TOM B                         TOM@JBCONTRACTING.COM                                       
0000101739WOOD                          WOOD@SMCDUCT.COM                                            
0000101749\                             STAN@FRIGIDYNE.COM                                          
0000101759MICHAEL M                     MICHAELM@JORMAC.COM                                         
0000101779MIKE                          MMCCUTCHEON@BAKERDIST.COM                                   
0000101789MIKE B.                       MIKEB@MILL-MAC.COM                                          
0000101799MIKE S                        MIKES@ARNORTHAMERICA.COM                                    
0000101809MIKE V.                       MVERBUGGE@TYCOINT.COM                                       
0000101819NATHAN                        NATHAN.CAAUWE@IWCO.COM                                      
0000101829NEWBEGIN                      PO@NEI.NET                                                  
0000101839PAT L.                        PAT.LESTER@FCXINC.COM                                       
0000101849PAT R.                        PAT.REPECK@PLASCORE.COM                                     
0000101859PATRICK                       PKNAPP@SUNNEN.COM                                           
0000101869PAUL                          PSM922@GMAIL.COM                                            
0000101879PETER                         SHOP@NEMECHANICAL.COM                                       
0000101889PETER W.                      WALLACEELECTRIC@PEOPLEPC.COM                                
0000101899PHIL                          P.MARSHALL@DONPARKUSA.COM                                   
0000101909PHILLIP M                     PILLIP.MERRIGAN@MOTION-IND.COM                              
0000101919RANDY                         RSKB3@HOTMAIL.COM                                           
0000101929ROB T.                        ROB@COENENMECHANICAL.COM                                    
0000101939ROB WARD                      ROB@ELECTRICAL-ENCLOSURES.COM                               
0000101949ROBERT T.                     ROBERT.TRAWEEK@TDINDUSTRIES.COM                             
0000101959ROBERTO                       ROBERTO.BABUIN@OMERA.COM                                    
0000101969ROBIN                         RSTEGALL@HAMLINCOS.COM                                      
0000101979RON                           RON.GUSPWILLER@MOTION-IND.COM                               
0000101989ROSS N                        RNELSON@LINKMFG.COM                                         
0000101999RYAN R.                       RMSRUBIN@HOTMAIL.COM                                        
0000102009SAM                           SHENDRICKSON@EMBARQMAIL.COM                                 
0000102019SARAH                         SARAH@TCOMFORT.COM                                          
0000102029SCOTT                         SVOSSEN@COMCAST.NET                                         
0000102039SCOTT S.                      SCOTTS@PAAPE.COM                                            
0000102049SHANE                         SHANEJOYCE@ARCHERMECHANICAL.COM                             
0000102059SHARON                        SHARONH@PAAPE.COM                                           
0000102069SHAWN                         SHAWN@AIRFLOSALES.COM                                       
0000102079SHERYL                        SVOETBERG@M-P-LLC.COM                                       
0000102089SNICK                         SNICK@LAF11.COM                                             
0000102099STEVE                         SAAMODT@VOLKPH.COM                                          
0000102109STEVE C.                      CARLSONBUILDING@GMAIL.COM                                   
0000102119STEVE D.                      STEVE@PROFILE-IND.COM                                       
0000102129STEVE R.                      STEVE@SWANLEASING.COM                                       
0000102139TERRIE                        AP@BSMW.COM                                                 
0000102149TIM                           TIMDRAGT@BOBCAT.COM                                         
0000102159TIM M                         TIM@MAMNJ.COM                                               
0000102169TIM P                         TIMP.GALAXYMECHANICAL@COMCAST.NET                           
0000102179TIM ROSS                      ROSS_RESTERATION@YAHOO.COM                                  
0000102189TOM WOLF                      TWOLF@FAB-RITE.COM                                          
0000102199TROTTER                       TAMICASTEELE@MULTIPLAN.COM                                  
0000102209TROY                          TROY@NEI.NET                                                
0000102219WADE                          BSHORB@HCINET.NET                                           
0000102269RAY       ROBINSON  0000000000RROBINSON@KIRKBLUM.COM                                      
0000102279NADH      MURUKURTHY8476716182RAODESIGN@AOL.COM                                           
0000102299TIM       SARGENT   8155096638APLUSHC@YAHOO.COM                                           
0000102309DAVE      GRAHAM    3192338224BEALS744@YAHOO.COM                                          
0000102319CLAY                0000000000CLAY@AQUARIOUS-SYSTEMS.COM                                  
0000102329CLAY                0000000000CLAY@AQUARIOUS/SYSTEMS.COM.                                 
0000102339JOE       WHITE     8155197098JOE-WHITE-MILLWORK@ATT.NET                                  
0000102349BRYAN     LOGSDON   5029683641BRYAN@DANESHEETMETAL.COM                                    
0000102369SHIVAN    RAMCHARAN 2404268333RAMCHARANS@MAIL.NIH.GOV                                     
0000102379                    0000000000JESSIT@PTINK.US                                             
0000102399CORIE     NELSON    0000000000SMW3JATC@QWESTOFFICE.NET                                    
0000102409JEFFREY             0000000000JEFFREY.SEAGRAVES@RD.NESTLE.COM                             
0000102439LEE       BREWER    0000000000LEE@TWF-INDUSTRIES.COM                                      
0000102479                    0000000000BERGLUDC@ORBITEC.COM                                        
0000102489                    0000000000AP@GALLAGHERCORP.COM                                        
0000102499RICHARD   NELSON    7608078985RNELSON5757@GMAIL.COM                                       
0000102509GEORGE    BEDIAN    0000000000GMBEDIAN@WINAIR.COM                                         
0000102519JOSH      ECCLESTON 0000000000JOSHHEATING@GMAIL.COM                                       
0000102529MIKE      MARTIN    0000000000MIKE.MARTIN@PE.COM                                          
0000102539STEVE     DOBERNECKE0000000000SDOBERNECKER@MCI-HVACR.COM                                  
0000102549ERIC      CASTELLANO0000000000ERIC.CASTELLANO@ETS-LINDGREN.COM                            
0000102559ETERON INCSCHUTTE   7345369279JSCHUTTE@ETERONINC.COM                                      
0000102579STEVE               0000000000STEVE_HRUBY@YAHOO.COM                                       
0000102589GARY                0000000000CUSTOM@CABLEONE.NET                                         
0000102609JAMES     LESTER    0000000000JAMES.LESTER@RPS205.COM                                     
0000102619KEVIN               0000000000KEVING@REPUBLICEMAIL.COM                                    
0000102629DAN                 0000000000PCRM01@YAHOO.COM                                            
0000102639                    0000000000ROLSEN@AUSTIN.RR.COM                                        
0000102649DAVID               0000000000DAVID@WOODENMALLET.COM                                      
0000102659                    0000000000MAINTENANCE@LOFTONLABEL.COM                                 
0000102669                    0000000000ERIC@SVEDLEY.NET                                            
0000102699                    0000000000JZIMMERMAN@NEWJAC.COM                                       
0000102709CHRIS               0000000000CRHEATING@YAHOO.COM                                         
0000102729PETER     SIMONETTI 0000000000PSIMONETTI@AIRDESIGNSYS.COM                                 
0000102739CHAD      GERNENTZ  0000000000CGERNENTZ@MGMCGRATH.COM                                     
0000102749                    0000000000RPARTON@IHDSOLUTIONS.COM                                    
0000102759SARAH     GUFFEY    0000000000SGUFFEY@IAMDALTONMECH.COM                                   
0000102769DARIN               0000000000DARIN.WICKS@CHEMLINE.NET                                    
0000102779WOOD                0000000000                                                            
0000102789LINDA     KARST     0000000000LINDA.KARST@SHINYMETALS.NET                                 
0000102799                    0000000000DEAN.PEDERSON@TORO.COM                                      
0000102809LENARD    WHITT     0000000000LWHITT@ONECECO.COM                                          
0000102819MICHELLE  WHAITMER  0000000000MWHAITMER@ENTEC-SOLUTIONS.COM                               
0000102829MICHELLE            0000000000                                                            
0000102839                    0000000000                                                            
0000102849WOOD                0000000000WOOD@SMCDUCT.COM                                            
0000102859                    0000000000                                                            
0000102869                    0000000000                                                            
0000102879                    0000000000                                                            
0000300019LONNIE                        THECLEANAIRGUY@LIVE.COM                                     
0000301009LONNIE                        THECLEANAIRGUY@LIVE.COM                                     
0001000019SCOTT     YOUNGSDAHL          SYOUNGDAHL@ABESYS.COM                                       
0001000029CORY                0000000000CASPLING@ABESYS.COM                                         
0001900019PAUL K                        PKREILING@ACCPLAN.COM                                       
0001901009PAUL K                        PKREILING@ACCPLAN.COM                                       
0002300019STEVE     DRESCHER  0000000000TEAM@ACSERVICEINC.COM                                       
0002500019ALICIA    CLARK               ACLARK@ACIMECH.COM                                          
0002500020BRUCE     MARTIN              BMARTIN@ACIMECH.COM                                         
0002500039CHAD      GOURLEY             CGOURLEY@ACIMECH.COM                                        
0002500059GREG      BRAGA               GBRAGA@ACIMECH.COM                                          
0002500069GREG      KNAU                GKNAU@ACIMECH.COM                                           
0002500089KELLI     BUTTERMORE          KBUTTERMORE@ACIMECH.COM                                     
0002500099KENT      MEYN                KMEYN@ACIMECH.COM                                           
0002500109LARRY     MEINERS             LMEINERS@ACIMECH.COM                                        
0002500119MICHAEL   MCCOY               MJMCCOY@ACIMECH.COM                                         
0002500129MONTY     MULLER              MMULLER@ACIMECH.COM                                         
0002500139NICK      BEMENT              NBEMENT@ACIMECH.COM                                         
0002500149RANDON    PARKS               RPARKS@ACIMECH.COM                                          
0002500169MATT      NELSON    0000000000MNELSON@ACIMECH.COM                                         
0002500179JAMES     HEINTZ    0000000000JHEINTZ@ACIMECH.COM                                         
0002580019DAVID     RAIDEN              DRAIDEN@ACPSHEETMETAL.COM                                   
0002580029JOHN      MATCHEN             JMATCHEN@ACPSHEETMETAL.COM                                  
0002600019LARRY               0000000000LARRY@ACRSEDALIA.COM                                        
0002950029JANELLE             0000000000AEM@AEMHUTCH.COM                                            
0003000019JAMES                         AEPLUMBING@REA-ALP.COM                                      
0004551009                              MGLAVAN@KLEIMANCONSTRUCTION.COM                             
0004551019CALEB     SHERMAN   0000000000CSHERMAN@JFAHERN.COM                                        
0004570019                    0000000000                                                            
0005000019GARY      LOUIS     9204945952GARY@AMAHEATING.COM                                         
0005000029CHAD L                        CHAD@AMAHEATING.COM                                         
0005000039MATT K                        MATT@AMAHEATING.COM                                         
0005000049KIM       KRAHN     0000000000KIM@AMAHEATING.COM                                          
0005000059OZZY                0000000000SHOP@AMAHEATING.COM                                         
0005000069STEVE     BRUMMOND  0000000000STEVE@AMAHEATING.COM                                        
0005000079MICHELLE  KRUEGER   9204945952MICHELLE@AMAHEATING.COM                                     
0005000089TOM       ARNDT     0000000000AAHTGAC@OUTLOOK.COM                                         
0005151019TOM                           TDEVRIES@AMS-PMT.COM                                        
0005151029JON       KAJMOWICZ 6303208655JKAJMOWICZ@AMS-PMT.COM                                      
0005201009                              KATHY@HARVARDPRODUCTS.COM                                   
0005201019JOHNATHON           8006483415JSARA@HARVARDPRODUCTS.COM                                   
0005201029LARRY     LOGAN     8159477431LARRY@HARVARDPRODUCTS.COM                                   
0005201039BRIAN               0000000000CHRIS@HARVARDPRODUCTS.COM                                   
0005500029JEFF      PETERSON            JEFF.PETERSON@APIGROUPINC.US                                
0005500039IRA       PAVEL     0000000000IRA.PAVEL@APIGROUPINC.US                                    
0005500049DAVID     CRABB     2568720370DAVID.CRABB@APIGROUPINC.US                                  
0005540019JON J                         JONJ@BLUEDUCT.COM                                           
0005540029JEFF      PRICKEL   0000000000JEFFP@AQC-IND.COM                                           
0005541009ALEX S                        ALEXS@BLUEDUCT.COM                                          
0005541019JON J                         JONJ@AQC-IND.COM                                            
0005600019MATT      ALTHAUS   0000000000MALTHAUS@AR-MECH.COM                                        
0005600029HEIDI     VANWINKLE 2173674227HVANWINKLE@AR-MECH.COM                                      
0005600039JORDAN    FLEX      0000000000JFLEX@AR-MECH.COM                                           
0005900019KIM                           KIMATOZ@CENTURYTEL.NET                                      
0005901019SHANE     HEGG      0000000000SHEGG@ATOZSHEETMETAL.COM                                    
0006500019ERIC      ROHDE               ERIC.ROHDE@ABBOTT.COM                                       
0006501039CHRYSTINE                     CHRYSTINE.CARPENTER@ABBOTT.COM                              
0006501059ROBERT                        ROBERT.J.BROWN@ABBOTT.COM                                   
0006501069SCOTT     DOYLE     8478782298SCOTT.DOYLE@ABBOTT.COM                                      
0006501079DEBBIE    MCCARTHY  8479381546DEBORAH.MCCARTHY@ABBOTT.COM                                 
0006501089KIM       BILLINGS  0000000000K.BILLINGS@ABBOTT.COM                                       
0006501099CHAD      DAVIS     8478784943CHAD.E.DAVIS@ABBOTT.COM                                     
0006501109SANTHOSH  PONNURU   0000000000SANTHOSH.PONNURU@ABBOTT.COM                                 
0006551009                              MIKE.BUTLER@ABBOTT.COM                                      
0006551019ERIC R                        ERIC.ROHDE@ABBVIE.COM                                       
0006551029RACHEL                        RACHEL.MCGUIRE@ABBVIE.COM                                   
0006551039ADAM      WAGENBERG 8479354313ADAM.WAGENBERG@ABBVIE.COM                                   
0006551049STEPHEN   LOWE      8479356243STEPHEN.LOWE@ABBVIE.COM                                     
0006551059JEFF      ROBERTS   5709571789JJROBERTS@STOREROOMSOLUTIONS.COM                            
0006551069VINCENT   BIXBY     2246361942VINCENT.BIXBY@ABBVIE.COM                                    
0006551079CHRYS     CARPENTER 8479356395CCARPENTER@SYNOVOS.COM                                      
0006551089DARIN     STRONG    8475611406DARIN.STRONG@ABBVIE.COM                                     
0006551099STEVE     KLEMME    0000000000KLEMME72@HOTMAIL.COM                                        
0006551109HERNANDO  CRUZ      0000000000HCRUZ@SYNOVOS.COM                                           
0006551119JACLYN    QUATTRONE 0000000000JACLYN.QUATTRONE@SDI.COM                                    
0006551129JENNIFER  NGUYEN    0000000000JENNIFER.NGUYEN@SDI.COM                                     
0007000019P         HOLM                PHOLM@ABELONSITE.COM                                        
0007000029DOUG                          DOUGDNIMS@AOL.COM                                           
0007000039LOUIE                         LOUIESR@HOTMAIL.COM                                         
0007000049FRED                0000000000FRIDLER@ABELONSITE.COM                                      
0007000059JASON     HOEFT     0000000000HOEFTJ0@GMAIL.COM                                           
0007600019MARK                          MKRANZ@ABSMECH.COM                                          
0007601009MARK                          MKRANZ@ABSMECH.COM                                          
0007651009JIM                           JKELLNER@ABSMECH.COM                                        
0007651039JOE       BELISLE   0000000000JBELISLE@ABSMECH.COM                                        
0007651059MIKE                0000000000MIKETHEHEATINGMAN@GMAIL.COM                                 
0007800019GREG      ABTS      0000000000GREGJABTS@GMAIL.COM                                         
0008100019MARK      LOGAN     0000000000MARK.LOGAN@ACCULIFT.COM                                     
0008100029AMANDA    HUNT      0000000000AMANDA.HUNT@ACCULIFT.COM                                    
0008100039                    0000000000PURCHASING@ACCULIFT.COM                                     
0008900019CRAIG     SMITH     0000000000CRAIG@ACCURATEAIRSOLUTIONS.COM                              
0010000019JOHN                          JOHN.H@ACE-AIRCONTROLESSENTIALS.COM                         
0010000029JESSIE    RICHARDSON0000000000JESSIER@SMCDUCT.COM                                         
0010000039MATT      H         0000000000MATT.H@ACE-AIRCONTROLESSENTIALS.COM                         
0010700019JON A                         JON@ACKELSONSHEETMETAL.COM                                  
0010701009                              LISA@ACKELSONSHEETMETAL.COM                                 
0010701019SCOTT     SHARP     0000000000SCOTT@ACKELSONSHEETMETAL.COM                                
0010850019KURT      HUMPHREY            KURT.HUMPHREY@ETS-LINDGREN.COM                              
0011100019                    0000000000                                                            
0011100029JOHN      MACKESEY  6082731900JOHN@ACTIONHEATINGMADISON.COM                               
0011500019VIRGIL    WHETSEL   0000000000VWHETSEL@ACTIONMEC.COM                                      
0011500029CHRIS     HANSEN              CHANSEN@ACTIONMEC.COM                                       
0011500039LARRY     BAKER               LBAKER@ACTIONMEC.COM                                        
0011501009CHRIS H                       CHANSEN@ACTIONMEC.COM                                       
0011501019                              KVERMEULEN@ACTIONMEC.COM                                    
0011501039JOHN      HAMMOND JR0000000000JHAMMOND@ACTIONMEC.COM                                      
0011600019SCOTT     HADY      0000000000SHADY@ACTIONPLUMBINGHEATING.NET                             
0012000019DON R                         DONR@ACTIVEHEATINGINC.COM                                   
0012000039COREY     NELSON    0000000000COREYN@ACTIVEHEATINGINC.COM                                 
0012000049BELINDA   HANSON    0000000000BELINDAH@ACTIVEHEATINGINC.COM                               
0012100019K         SEGALA              K.SEGALA@ADAMSPHINC.COM                                     
0012100029SHANE     LAUNDRY             S.LAUNDRY@ADAMSPHINC.COM                                    
0012150019                    0000000000                                                            
0012150029DAVID     SMITH     3097625581DAVIDS@ADELWHOLESALERS.COM                                  
0012150039DAVID     SMITH     0000000000DAVIDS@ADEL-WHOLESALERS-INC.COM                             
0012150049AMBER     DAVIS     5634413205AMBERD@ADEL-WHOLESALERS-INC.COM                             
0012150059JOE       FRANCESCON5635293423JOEF@ADELWHOLESALERS.COM                                    
0012150069LISA                0000000000ACCOUNTSPAYABLE@ADELWHOLESALERS.COM                         
0012350019CHARLIE   YOUNG     0000000000CYOUNG@ADMORHVAC.COM                                        
0013001009RANDY S                       RJS@ADVANCESYSTEMS.COM                                      
0013001029JOE                           JPD@ADVANCESYTEMS.COM                                       
0013100019LIZZIE    SICKELS   0000000000LSICKELS@ADV-BEND.COM                                       
0013100029                    0000000000NHAHM@ADV-BLEND.COM                                         
0013100039JOE       GARDON    0000000000JGARDON@ADV-BLEND.COM                                       
0013200019                    0000000000                                                            
0013450019                    0000000000                                                            
0015600019MARK      KRANZ               MKRANZ@ADV-MECH.COM                                         
0015600029BRIAN     BENZ      0000000000BRIANB@ADVANCED-MECHANICAL.COM                              
0015701009                              DRUIZ@IREXCORP.COM                                          
0016600019                    0000000000                                                            
0016600029KENT      BURDICK   0000000000KENTBURDICK@YAHOO.COM                                       
0016800019TERRY     GOTTER              TGOTTER@ADREFINC.COM                                        
0016801009                              FFISCHER@ADREFINC.COM                                       
0016851049CHRIS H                       CHARRISON@ADVANTAGESHEETMETAL.COM                           
0016851059DENNIS    WILLETT   0000000000DWILLETT@ADVANTAGESHEETMETAL.COM                            
0016900019BOB J                         BOB@AERDUX.NET                                              
0016900029ROBERT    JOHNSTON            ROBERTEJOHNSTON@COMCAST.NET                                 
0016900039JAY                           JAY@AERDUX.NET                                              
0017950019JEFF      RYKS      6122900699JEFF@API-PLUMBING.COM                                       
0018000019TEST 1800 LNAME     0000000888TEST@MAIL.COM                                               
0018000029JAKE      KOVARIK   0000000000APOLLOJAKEK@GMAIL.COM                                       
0018210019SCOTT     THIELEN             SCOTT@AGAPEMECHANICAL.COM                                   
0018211009                              SERVICE@AGAPEMECHANICAL.COM                                 
0018211039JASON     CROW      0000000000JASON.SOUTHMETRO@GMAIL.COM                                  
0018211050MIKE      WRIGHT    0000000000MIKEW.AGAPEMECHANICAL@GMAIL.COM                             
0018211079LONNY               0000000000LJTFOUR@GMAIL.COM                                           
0018211089JASON     BUCKINGHAM0000000000BUCK.SOUTHMETRO@GMAIL.COM                                   
0018211109ANDREW    EGGEBRECHT0000000000ANDREWEGG@ICLOUD.COM                                        
0018211119DARREN    ROEHRICH  6123662038DARREN@MECHPROS.COM                                         
0018211129JASON     CROW      6122900806JASON@MECHPROS.COM                                          
0018211149KYLE      THOMPSON  0000000000KYLET@AGAPEMECHANICAL.COM                                   
0018211189COLIN     JONES     9522408583COLINJ@PHILOSMECHANICAL.COM                                 
0018211199MARK      NORDELL   9522709015MARKN@PHILOSMECHANICAL.COM                                  
0018211209BOB       THIELEN   6124905615BANTIROOSTER1@GMAIL.COM                                     
0018211219JOHN      BLACK     6128020335JOHNB@PHILOSMECHANICAL.COM                                  
0018220019ALLEN                         ARO@IDEAONE.NET                                             
0018220029RILEY               0000000000RILEY@AGASSIZMECHANICAL.COM                                 
0018220039ROB                 0000000000ROB@AGASSIZMECHANICAL.COM                                   
0018220049ALLEN               0000000000ALLEN@AGASSIZMECHANICAL.COM                                 
0018300019MARK      ROBINSON            MROBINSON@AGRAIND.COM                                       
0018301019JULIE     KREMSREITE          JKREMSREITER@AGRAIND.COM                                    
0018800019CALEB     SHERMAN             CSHERMAN@JFAHERN.COM                                        
0018800029DAVE      LEISSES             DLEISSES@JFAHERN.COM                                        
0018800079ROY       NATION    9209603737RNATION@JFAHERN.COM                                         
0018801109TOM       BOGENHAGEN9209075578SHMTSHOP@JFAHERN.COM                                        
0018801129BRIAN     STANKE    0000000000BSTANKE@JFAHERN.COM                                         
0018801139STEPHANIE GAINER    0000000000SGAINER@JFAHERN.COM                                         
0018801159SHAUN     MESSER    0000000000SMESSER@JFAHERN.COM                                         
0018801169CINDY     POLSTER   0000000000CPOLSTER@JFAHERN.COM                                        
0018801189JASON     NENONEN   0000000000JNENONEN@JFAHERN.COM                                        
0018801199ROBERT    FISCHER   9209075181BFISCHER@JFAHERN.COM                                        
0018801209MARK      KRAUS     0000000000MKRAUS@JFAHERN.COM                                          
0018801219JOHN      RANSOM    9209075525JRANSOM@JFAHERN.COM                                         
0018801229ELIZABETH KITZMAN   9209075404EKITZMAN@JFAHERN.COM                                        
0018801239JACOB     MAJOR     9209219020JMAJOR@JFAHERN.COM                                          
0018801249SCOTT     WOICEK    0000000000SWOICEK@JFAHERN.COM                                         
0018801259SUE       STRANDS   9209075355SLSTRANDS@JFAHERN.COM                                       
0018801269TRAVIS    BUSHY     7154096381TBUSHEY@JFAHERN.COM                                         
0018801279MICHAEL   SPITTLER  9209791360MSPITTLER@JFAHERN.COM                                       
0018801289BRAD      SNIDER    0000000000BSNIDER@JFAHERN.COM                                         
0018801309GLEN      GROESCHEL 0000000000GGROESCHEL@JFAHERN.COM                                      
0018801329COLIN     MCCARTHY  0000000000CMCCARTHY@JFAHERN.COM                                       
0018801339JEFF      EISENHUT  0000000000JEISENHUT@JFAHERN.COM                                       
0018801359NEIL      GROESCHEL 0000000000NGROESCHEL@JFAHERN.COM                                      
0018801379JAMIE     PETERSEN  4148405972JPETERSEN@JFAHERN.COM                                       
0018801389MOLLY     BRADFISH  0000000000MBRADFISH@JFAHERN.COM                                       
0018801409ERIC      PONGRATZ  0000000000EPONGRATZ@JFAHERN.COM                                       
0018801449LUCAS     KLEINSCHDT0000000000LKLEINSCHMIDT@JFAHERN.COM                                   
0018801459SHAUN     NEUBAUER  0000000000SNEUBAUER@JFAHERN.COM                                       
0018801469GARRETT   RASMUSSEN 9209075586GRASMUSSEN@JFAHERN.COM                                      
0018801479TARYN     JOHNSTON  0000000000TJOHNSTON@JFAHERN.COM                                       
0018801480NIKKI     WRIGHT    0000000000NWRIGHT@JFAHERN.COM                                         
0018801499MATT      GROESCHEL 0000000000MGROESCHEL@JFAHERN.COM                                      
0018801509ANDREW    MECUS     0000000000AMECUS@JFAHERN.COM                                          
0018801519JACOB     BAKER     0000000000JBAKER@JFAHERN.COM                                          
0018801539MATT      DILLING   0000000000MDILLING@JFAHERN.COM                                        
0018801549CHRIS     BEHRENDT  0000000000CBEHRENDT@JFAHERN.COM                                       
0018801559ANDY      WAGNER    0000000000AWAGNER@JFAHERN.COM                                         
0019500019CHAD G                        CHADG@AIRCAREINC.COM                                        
0019501029DAN                           OPS@AIRCAREINC.COM                                          
0019501039JOHN                          JKOLL@AIRCAREINC.COM                                        
0019501049JEFF      HEMBREE   0000000000JEFFH@AIRMOVING.NET                                         
0019750019DAN                           DAN@AIRCLEANENVIRONMENTS.COM                                
0019800029TONY      HOUSE     0000000000TONYHOUSE@CLEANAIRGUYS.COM                                  
0019800039BOB       HOUSE     0000000000BOBHOUSE@CLEANAIRGUYS.COM                                   
0019800049RITA      HOLLAND   0000000000RITA@ACTDUSTCOLLECTORS.COM                                  
0019800059JERRY     XIONG     0000000000JERRY@ACTDUSTCOLLECTORS.COM                                 
0019800069KARISSA   DREVER    0000000000KARISSA@AMINDUST.COM                                        
0019800079CONFIRMINGCONFIRMING0000000000PURCHASING@AMINDUST.COM                                     
0019970019GUY                           GUYACS@COMCAST.NET                                          
0020000049LORI      TUCKER    0000000000LTUCKER@AIRCONMECHANICAL.COM                                
0020000059BRIAN     GEORGE    5152080580BGEORGE@AIRCONMECHANICAL.COM                                
0020500019PAT       WEILAND   8473364128PATW@AIRCON-RH.COM                                          
0020500029BOB       STONE     8473364128BOB.STONE@AIRCON-RH.COM                                     
0021001029DREW      L         6512486214DREWL@ACAMN.COM                                             
0022000039KEN       B         0000000000KENB@AIRCONTROLS.COM                                        
0022001019MELANIE                       MELANIEA2AIRCONTROLS.COM                                    
0022001029GENE                0000000000GENE@AIRCONTROLS.COM                                        
0022001039KEVIN     STRINGHAM 0000000000KSTRINGHAM.ACC@GMAIL.COM                                    
0022001049JAY       CEDERBERG 0000000000JAYC@AIRCONTROLS.COM                                        
0022951009BILL                          BILLB@BRILCO.COM                                            
0022951019JIM                           JREESE@BRILCO.COM                                           
0023000019MARK M                        MARK@AIRCONTROLPRODUCTS.COM                                 
0024000079RICHARD   KISSNER   0000000000KISSNER78@GMAIL.COM                                         
0024000179CHAD      ANDERSON  6123669260MRANDERSON61783@YAHOO.COM                                   
0024001069MIKE                          MHANSON.UNIONCURBS.COM                                      
0024001089PAYABLE                       ACCOUNTSPAYABLE@AIRCORPMECHANICAL.COM                       
0024001109ROGER     SCHLAG    6123667870SHOP@AIRCORPMECHANICAL.COM                                  
0024001119RICK      KISSNER   6123667094KISSNERAIR@GMAIL.COM                                        
0024001139ROGER     SCHLAG    6123667870ROGERSCHLAG@AOL.COM                                         
0024001149SHANNON   HAWLEY    0000000000SHAWLEY@AIRCORPMECHANICAL.COM                               
0024340019FRANK     HERBERT             FHERBERT@AIRDESIGN.COM                                      
0024340049RUSS      MCCOY               RMCCOY@AIRDESIGN.COM                                        
0024340069BRYAN     SYRIA     0000000000BRAYN.SYRIA@YAHOO.COM                                       
0024340079ANDREW    WEBSTER   0000000000AWEBSTER@AIRDESIGN.COM                                      
0024380019PETER     SIMONETTI 0000000000PSIMONETTI@AIRDESIGNSYS.COM                                 
0024380029RAY       RODRIGUEZ 0000000000RRODRIGUEZ@AIRDESIGNSYS.COM                                 
0024460019GINA                          RONORATO@ADSDUCT.COM                                        
0024470019TIM       ARMOUR    0000000000TGARMOUR1@SBCGLOBAL.NET                                     
0025001009                              AIRDUCTINC@MSN.COM                                          
0026500019BRIAN     DEWITT              BDEWITT@AIRENTERPRISES.COM                                  
0026500029MIKE      KAVALI              KAVALI@AIRENTERPRISES.COM                                   
0026500039MAX       CONNELLY  3303295721MCONNELLY@AIRENTERPRISES.COM                                
0026500049DAVID     ONEST     0000000000ONEST@AIRENTERPRISES.COM                                    
0027000029BRIAN     MALVIN    5633590333SALES@AIREQUIPSALES.COM                                     
0027000039DAVE      DEASY     5639400393DDEASY@AIREQUIPSALES.COM                                    
0027000049BRIAN     MELVIN    0000000000BMELVIN@AIREQUIPSALES.COM                                   
0028000010ALI       DIB       6306281138ALI@AIRFLOWCO.NET                                           
0028001009                              RENATA@AIRFLOWCO.NET                                        
0029000029KEN       GLINIECKI 4145883628KEN@AIRFLOWREPS.COM                                         
0029200019ROB       SCHWIEBERT4195760073RSCHWIEBERT@AIRFORCEONE.COM                                 
0029200029KEN       HEIGHT    0000000000KHEIGHT@AIRFORCEONE.COM                                     
0029620019KELLY     EHERT     0000000000KELLY@AIR-IT.COM                                            
0029800019BRUCE     EDWARDS             BEDWARDS@AIRMACDIST.COM                                     
0029800029ED        COBELLI             ECOBELLI@AIRMACDIST.COM                                     
0029800039JIHN      SANTORO             JSANTORO@AIRMACDIST.COM                                     
0031100039CHRIS F                       GEOTHERMAL@AIRMECHANICAL.COM                                
0031100049JOE                           GEOJOBSUP@AIRMECHANICAL.COM                                 
0031100059MIKE      FAIRBANKS           MFAIRBANKS@AIRMECHANICAL.COM                                
0031100069CHRIS     .         0000000000COMMERCIAL@AIRMECHANICAL.COM                                
0031100079CATIE     PECK-LONG 0000000000NCDISPATCH@AIRMECHANICAL.COM                                
0031100119MIKE      BARNES    0000000000MBARNES@AIRMECHANICAL.COM                                   
0031100129                    0000000000AORJOBSUP@AIRMECHANICAL.COM                                 
0031100139BRAD      HENDRICKS 0000000000BHENDRICKSON@AIRMECHANICAL.COM                              
0031100149EMILY     ZIMBA     0000000000PURCHASING@AIRMECHANICAL.COM                                
0031251019JACK D                        JACK@AIRMOVING.NET                                          
0031251039JUSTIN    HAWKINS   0000000000JUSTIN@AIRMOVING.NET                                        
0031251049TERRY     MILES     0000000000TERRY@AIRMOVING.NET                                         
0031251059DON       HEMBREE   0000000000DONHEMBREE@AIRMOVING.NET                                    
0032161009VICKIE H.                     VHARRIS@AIRPURIFICATIONCOMPANY.COM                          
0032200029PAUL      STANTON   0000000000PSTANTON@AIR-QUALITY-ENG.COM                                
0032200039MARK      SCHREIBER 0000000000MSCHREIBER@AIR-QUALITY-ENG.COM                              
0033180019                    0000000000                                                            
0035500019MARISA                        MARISA@AIRSYSTEMSWV.COM                                     
0035500029MARGIE    MOSS      0000000000MARGIE@AIRSYSTEMSWV.COM                                     
0036500029RANDY     HERRICK   6084381243RANDY.AIRTEMP@GMAIL.COM                                     
0036500039TODD      MAROTZ    6082572600TYLERM@AIRTEMPERATURE.COM                                   
0036501019DANIELLE                      INFO@AIRTEMPERATURE.COM                                     
0036501039RYAN      DODGE     0000000000RDODGE@AIRTEMPERATURE.COM                                   
0036501069REBECCA   HEADLEY   6082572600RHEADLEY@AIRTEMPERATURE.COM                                 
0036501079DANNY     JOHNSON   0000000000DJOHNSON@AIRTEMPERATURE.COM                                 
0036501089RICK      SORENSON  6082797425RSSOMETHINGELSE@YAHOO.COM                                   
0036501099STEVE     NADOLSKI  0000000000SNADOLSKI@AIRTEMPERATURE.COM                                
0036501119DANIELLE  SPEIDEL   0000000000DSPEIDEL@AIRTEMPERATURE.COM                                 
0036501129RICK      SORENSEN  6082797425RICK.AIRTEMP@GMAIL.COM                                      
0036501149TED       SCHNAARE  6084381349TED.AIRTEMP@GMAIL.COM                                       
0036501159JOEY      SCHWARZ   0000000000JSCHWARZ@AIRTEMPERATURE.COM                                 
0036501169BRITTNEY  HELMING   0000000000BHELMING@AIRTEMPERATURE.COM                                 
0036501189DAVE      PAULUS    6084381245DAVE@AIRTEMPERATURE.COM                                     
0036501199          BURNS     0000000000TBURNS@AIRTEMPERATURE.COM                                   
0036601009LISA                          AP@MULTI-CRAFT.NET                                          
0036601019NEVADA                        NBF@MULTI-CRAFT.NET                                         
0036601029LAYMON              0000000000LXF@MULTI-CRAFT.NET                                         
0036601039DALE      BOATRIGHT 0000000000DRB@MULTI-CRAFT.NET                                         
0038100029JACQUE    SIMPKINS  0000000000JACQUE.AIRESERV@GMAIL.COM                                   
0038200029RYAN      DUEDE     0000000000RDUEDE12@GMAIL.COM                                          
0038200049ADAM      WILL      0000000000ADAMWILL42@YAHOO.COM                                        
0038200059ROBERT    HERUBIN   0000000000ROBERTH@AIRICS-HEATING.COM                                  
0039400059MARK      BROSCH    0000000000MBROSCH@AIRTECHTHERMEX.COM                                  
0039400089DENNIS    OLSON     0000000000DOLSON@AIRTECHTHERMEX.COM                                   
0039400119MARK      BLOOMDAHL 0000000000MBLOOMDAHL@AIRTECHTHERMEX.COM                               
0039420019DARWIN S                      AIRTECHHEATINGAC@YAHOO.COM                                  
0039440019                    0000000000                                                            
0040450019MIKE      MEYERHOFER2622064627AJELECTRICMM@GMAIL.COM                                      
0040450029KEVIN               2627490798KJK162@YAHOO.COM                                            
0042000069BRANDON   HANSON              BHANSEN@ALBERSCO.COM                                        
0042000109CHAD      HOPPE               CHOPPE@ALBERSCO.COM                                         
0042000119DAN       COLBERT             DCOLBERT@ALBERSCO.COM                                       
0042000129GARY      MULVILLE            GMULVILLE@ALBERSCO.COM                                      
0042001099BRIAN     S.        0000000000BRIAN@ALBERSCO.COM                                          
0042001209ROD       ALBERS    0000000000RALBERS@NWSME.COM                                           
0042001229RYNE      SULLIVAN  5634599887RYNE@DUCTSANDCLEATS.COM                                     
0042001239TRAVIS    ALBERS    0000000000TALBERS@ALBERSCO.COM                                        
0042101009TODD                          TWSAXTON@WINNELSON.COM                                      
0042500019STEVE     NOWORATZKY9204585558STEVE_N@ALDAGHONOLD.COM                                     
0042501029CARLA                         CARLA_B@ALDAGHONOLD.COM                                     
0042501049TOM       SKRZYPCHAK0000000000TOM_S@ALDAGHONOLD.COM                                       
0042501059                    0000000000                                                            
0042501069                    0000000000                                                            
0043500019                              TJZDSAX@HOTMAIL.COM                                         
0043500049          MERICKSON 0000000000MERICKSON@WINNELSON.COM                                     
0043500079ANDY      MCPHERSON 0000000000AJMCPHERSON@WINNELSON.COM                                   
0043500099JUSTIN    FIEDLER   0000000000JAFIEDLER@WINNELSON.COM                                     
0044400019K         BACKMAN             KBACKMAN@ALLCLIMATEHVAC.COM                                 
0045500019DOUG                          DOUG@ALLSEASONSHEATINGSD.COM                                
0045500029JOE       METTILLE  5635828884JMETTILLE@ALLSEASONSHC.COM                                  
0045501049KEVIN                         KOTOOLE@ALLSEASONSHC.COM                                    
0045501059MEGHAN    GLENDENNIN5638528884MGLENDENNING@ALLSEASONSHC.COM                               
0045501069JESSIE    GOLDSSMITH0000000000JGOLDSMITH@ALLSEASONSHC.COM                                 
0045501079JOYCE     MERFELD   0000000000JMERFELD@ALLSEASONSHC.COM                                   
0045501089DAN                 0000000000DFENS@ALLSEASONSHC.COM                                      
0045501099MATT      SPLINTER  0000000000MSPLINTER@ALLSEASONSHC.COM                                  
0045630019                              ANGIE@ASPDULUTH.COM                                         
0045630029BEN EHLE                      BEN@ASPDULUTH.COM                                           
0045630039DOUG H                        DOUG@ASPDULUTH.COM                                          
0045630049LARS                          LARS@ASPDULUTH.COM                                          
0045630059MAX       BRUCKELMYE2187244412MAX@ASPDULUTH.COM                                           
0046001029                    0000000000EWEDEL@ALLANMECHANICAL.COM                                  
0047000019S         SMELSER             SSMELSER@ALLIANCEMECHANICAL.COM                             
0047000029RON       SATTLER             RSATTLER@ALLIANCEMECHANICAL.COM                             
0047000039BOB       GERMAIN   2489687400CHRYSLER300BOB@YAHOO.COM                                    
0047000049STEVE     ROMP      2489687400WAREHOUSE@ALLIANCEMECHANICAL.COM                            
0047000059MATT      BERSINE   2487222328WAREHOUSE@ALLIANCEMECHANICAL.COM                            
0047000069KEN       OSTACH    3137297389KOSTACH@ALLIANCEMECHANICAL.COM                              
0047100019KEN       ADAMS     0000000000KADAMS@ALLIANCEMECHANICAL.COM                               
0049800019MIKE      SIMMONS   0000000000MSIMMONS@AWIMETALFABRICATION.COM                            
0049801009JIM                           JSAVAGLIO@ALLOYWELD.COM                                     
0049801019LOUIE     ORLANDO             LORLANDO@AWIMETALFABRIATION.COM                             
0049801029LOUIE     ORLANDO   2629890590LORLANDO@ALLOYWELD.COM                                      
0049801039ANDY      HAMELINK  2244890033AHAMELINK@ALLOYWELD.COM                                     
0049801049DAN       WEGENKE   0000000000DWEGENKE@ALLOYWELD.COM                                      
0049900019MIKE      SONDAG    0000000000MSONDAG@ALLTECHENGINEERING.COM                              
0050301009KEVIN     LACROIX   0000000000KLACROIX.ALSCABINETS@INTEGRA.NET                            
0050500019JOE                           JOE@CLEARWATERPHC.COM                                       
0050601009                              GLENNA.ALTAMONT@GMAIL.COM                                   
0050601019MAXWELL   BAIRD     0000000000MAX.ALTAMONT@GMAIL.COM                                      
0050800029JASON     CROW      6122900806JASON@MECHPROS.COM                                          
0051000019MIKE      FOERSTERM 8157084299FOERSTERM@ALTHOFFIND.COM                                    
0051000069JESSICA             0000000000BAUMANNJ@ALTHOFFIND.COM                                     
0051001029JEANNE                        BAMBINIJ@ALTHOFFIND.COM                                     
0051001039TIFFANY                       ACCOUNTS.PAYABLE@ALTHOFFIND.COM                             
0051001049TANYA     SADLER    0000000000SADLERT@ALTHOFFIND.COM                                      
0051200019ANDY      HANSON    0000000000AHANSON@ALUMAFAB.COM                                        
0051500019                    0000000000                                                            
0052000019                              SYERKES@AMBERMECH.COM                                       
0052300029SEAN                          S3BOLTON@YAHOO.COM                                          
0052300039RANDY               0000000000RANDAMORR@AOL.COM                                           
0053000019                    0000000000                                                            
0054500029PATTY     SPRAGUE   0000000000PSPRAGUE@AMERICANMETALSSUPPLY.COM                           
0054500039JIM       MORTON              JMORTON@AMERICANMETALSSUPPLY.COM                            
0054500049KEITH     HUBBS               KHUBBS@AMERICANMETALSSUPPLY.COM                             
0054500059LAURA     LEHMKUHL  0000000000LLEHMKUHL@AMERICANMETALSUPPLY.COM                           
0054500069LAURA     LEHMKUHL  6363495560LLEHMKUHL@AMERICANMETALSSUPPLY.COM                          
0054500089BRANDON   GREGORY   0000000000BGREGORY@AMERICANMETALSSUPPLY.COM                           
0054501019JERRY P.                      JPINNON@AMERICANMETALSSUPPLY.COM                            
0054501029PATTY     BAXTER    0000000000PBAXTER@AMERICANMETALSSUPPLY.COM                            
0054501039GREG      ANDERSON  0000000000GANDERSON@AMERICANMETALSSUPPLY.COM                          
0054501049LETHA     FRANKLIN  0000000000LFRANKLIN@AMERICANMETALSSUPPLY.COM                          
0054501069                    0000000000                                                            
0054501089JORDAN    STADING   6363495560JSTADING@AMERICANMETALSSUPPLY.COM                           
0054501099MATT      HITCHCOCK 0000000000MHITCHCOCK@AMERICANMETALSSUPPLY.COM                         
0054650019NANCY     MOORE               NMOORE@AMESLAB.GOV                                          
0054800019                    0000000000                                                            
0055010019S         S         0000001234WOOD@SMCDUCT.COM                                            
0055020029WOOD2     LAST2     0222222222WOOD@SMCUCT.COM                                             
0055020049CHANGED   YAY YAY YA0000000000JMR99RULES@YAYYAYYA.COM                                     
0055020069WOOD-X    X-NAME    5555555555WOOD@SMCDUCT.COM                                            
0055050010                    0000000000MAIL@MAIL.COM                                               
0055300019                    0000000000                                                            
0055300029GARY      MARSH     4107606401GARY@AMPLESHEETMETAL.COM                                    
0056200019JOHN      ANDERSON  9204108858TINMAN003@NTD.NET                                           
0056201009                              ANDERSONHVACLLC@GMAIL.COM                                   
0056201019JOHN      ANDERSON  9204108858SKIDOOPILOT@GMAIL.COM                                       
0057000019MIKE                          MIKES@ANDORINC.COM                                          
0057051009                              PURCHAP@ANOKA.K12.MN.US                                     
0058000019TYLER     PETERSON  2187796702TPETERSON@APPAREO.COM                                       
0060201009                              CLOVERINK@VALMONT.COM                                       
0060210019                              JULIE@TIKKAPLUMBING.USM                                     
0060211009                              JULIE@TIKKAPLUMBING.USM                                     
0060220019                    0000000000                                                            
0060220039KALI      KILLINGSWO0000000000KKILLINGSWORTH@APPLIED.COM                                  
0060290019                    0000000000                                                            
0060350019TIM       SPLONSKOW.0000000000TIM@AQUAAIREMECH.COM                                        
0060350029CURT      SCHAFF    0000000000CURT@AQUAAIREMECH.COM                                       
0060440079JOHN      SOGGE     0000000000JOHNS@ARCHERMECHANICAL.COM                                  
0060440089NATHAN    JOYCE     0000000000NATHANJOYCE@ARCHERMECHANICAL.COM                            
0060460019KATHY     ALMS                KATHY.ALMS@ADM.COM                                          
0060460029KEITH     KAISER    0000000000KEITH.KAISER@ADM.COM                                        
0060470059Ken       Tarr      6124362250Ken@archmech.net                                            
0060470099RANDY     KASTNER   0000000000RJKASTNER@FRONTIERNET.NET                                   
0060470139JODI      A/P       0000000000JODI@ARCHMECH.NET                                           
0060470150TATE      GERAETS   0000000000TATE@ARCHMECH.NET                                           
0060480019CARMEN                        CARMEN@ARDINO.BIZ                                           
0060490019LISA      CROPP               LISA.CROPP@AREAMECHANICAL.COM                               
0060490039JACK      JENSEN    8152226444JJANSSEN@AREAMECHANICAL.COM                                 
0060490049PAUL      MULDER    0000000000PMULDER17@GMAIL.COM                                         
0060490059GENE      MEAD      0000000000GM@AREAMECHANICAL.COM                                       
0060490079MIKE      SABIN     0000000000MIKE.SABIN@AREAMECHANICAL.COM                               
0060490089DON       HAYS      0000000000D.HAYS@AREAMECHANICAL.COM                                   
0060490109TERRY               0000000000MADKINS2001@COMCAST.NET                                     
0060490119TODD      DORN      8157035766T.DORN@AREAMECHANICAL.COM                                   
0060490129BILL                0000000000WMS@AREAMECHANICAL.COM                                      
0060490139MARK      SIEVERT   8158717161MARKSIEVERT7714@GMAIL.COM                                   
0060490149MARK      SIEVERT   8158717161MARKSIEVERT@ICLOUD.COM                                      
0060490169BILL      SPRAGUE   8155092158WMS1967@FRONTIER.COM                                        
0060490189                    0000000000PARTS@AREAMECHANICAL.COM                                    
0060490199NICK      VALENTI   0000000000N.VALENTI@AREAMECHANICAL.COM                                
0060700019                              STEVE@ARENSHEATINGANDCOOLING.COM                            
0060770019GREG      KRUMDICK  0000000000GKRUMDICK@ANL.GOV                                           
0060770029MIKE      FURLAN    0000000000MFURLAN@ANL.GOV                                             
0060771029KIM                           KADAVIS@ANL.GOV                                             
0060771039RANDALL                       RMIRABELLI@ANL.GOV                                          
0060771049ROMAS     SENKEVICUS0000000000ROMAS@ANL.GOV                                               
0060771059JEFF      SPANGENBER0000000000JSPANGENBERGER@ANL.GOV                                      
0060771069CHARLES   DIETZ     0000000000CDIETZ@ANL.GOV                                              
0060771079SOWUNMI   KHARIMATIL0000000000KSOWUNMI@ANL.GOV                                            
0060771089CRAIG     SCHMITZ   6302523235CGSCHMITZ@ANL.GOV                                           
0060800019TIM       WILLIAMS  0000000000TWILLIAMS@ARIZONAAIRPRODUCTS.COM                            
0061500019                              WWW.ARNOLD-BROWN.COM                                        
0061500029SKIP                          SKIP@ARNOLD-BROWN.COM                                       
0061601009                                                                                          
0061601019LORRI     KEITHLEY  0000000000MARNOLD@ARNOLDREF.COM                                       
0061800019JOE       STITZ     0000000000JOE@ARROWTANK.COM                                           
0061800029BARB      HIMLE     0000000000BARB@ARROWTANK.COM                                          
0062520019                    0000000000                                                            
0062520029JESSE     RIPPE     0000000000JRIPPE@ARCTICENGINEERING.COM                                
0063000039Scott     Drennen   2185907411scott.drennen@jamarcompany.us                               
0063000059Jim       Brown     2183908690jim.brown@jamarcompany.us                                   
0063000079Greg      Carlson             greg.carlson@jamarcompany.us                                
0063000119BRENT     TONNER    0000000000BRENT.TONNER@JAMARCOMPANY.US                                
0063000129MATTHEW   FRANCKOWIA2183919555MATTHEW.FRANCKOWIAK@JAMARCOMPANY.US                         
0063000229SCOTT     MUNGER    0000000000SCOTT.MUNGER@JAMARCOMPANY.US                                
0063000239PAUL      SWITZER   2183551645PAUL.SWITZER@JAMARCOMPANY.US                                
0063001019                              NATALIE.HELLAND@JAMARCOMPANY.US                             
0063001039CHRIS     JOHNSON             CHRIS.JOHNSON@JAMARCOMPANY.US                               
0063001059ERIC E                        ERIC.ECKLUND@JAMARCOMPANY.US                                
0063001079JACOB                         JACOB.TORNQUIST@JAMARCOMPANY.US                             
0063001129MARK      SWANSON             MARK.SWANSON@JAMARCOMPANY.US                                
0063001149NATALIE                       NATALIE.HELLAND@JAMARCOMPANY.US                             
0063001159CHARLIE   ROLLINS   0000000000CHARLIE.ROLLINS@JAMARCOMPANY.US                             
0063001179JON       SANDERS   0000000000JON.SANDERS@JAMARCOMPANY.US                                 
0063001219ANDREW    NELSON    0000000000ANDREW.NELSON@JAMARCOMPANY.US                               
0063001229SCOTT     HANN      0000000000PAUL.SWITZER@JAMARCOMPANY.US                                
0063001279ANDY      PARRY     0000000000ANDY.PARRY@JAMARCOMPANY.US                                  
0063001289RICK      NYSTROM   0000000000RICHARD.NYSTROM@JAMARCOMPANY.US                             
0063200019TOM       SAMPSON   0000000000TOM.SAMPSON@YAHOO.COM                                       
0063301009MARK                          ASPENVENT@GMAIL.COM                                         
0063500019CHARLIE   MCFARLAND           CMCFARLAND@WSMIND.COM                                       
0064000049Chris     Demann    6123630471cdemann@associatedmechanical.com                            
0064000059BARRY     NELSON    6123852818BNELSON@ASSOCIATEDMECHANICAL.COM                            
0064000079ROSS      HANSON    0000000000RHANSON@ASSOCIATEDMECHANICAL.COM                            
0064001049GREG      MILLER    6123639173GMILLER@ASSOCIATEDMECHANICAL.COM                            
0064001059DON       HARTMAN   6123633547DHARTMAN@ASSOCIATEDMECHANICAL.COM                           
0064001069BOB       CHAMBERLND0000000000BCHAMBERLAND@ASSOCIATEDMECHANICAL.COM                       
0065451019STEVE                         STEVE@ATMECHANICAL                                          
0065600019                    0000000000.                                                           
0065620019BRUCE     ANDERSON  0000000000BANDER1@FRONTIER.COM                                        
0065620029MATT      ANDERSON  0000000000MATTSTACIANDERSON@LIVE.COM                                  
0066800019JOE       MURPHY              JOE_MURPHY@AIS-KC.COM                                       
0066801019TYLER                         TYLER_OBRIEN@AIS-KC.COM                                     
0067000019                    0000000000                                                            
0067000029MIKE      WEBSTER   0000000000AUTOENVSYS@COMCAST.NET                                      
