574730000  MM_F3          FOLLOWING WITH E-Z FLANGE                                                                 E-Z 0LANGE  M      01  00003                                    
57473000111SG2622         26"-22GA X 10'SPIRAL PIPE GALV00014          O C1EA00129300     00000000 0010891N 000129300       0000LC 00000113SG262210       0000000000300000010890    
57473000212E269022S       26" 90 22GA ELBOW W/SP GALV   00004          O E2EA00090000     00000000       1N 000090000       0000LE 00000125E269022S       0000000000300000005220    
57473000311SG1426         14"-26GA X 10'SPIRAL PIPE GALV00002          O C1EA00046100     00000000 0003791N 000046100       0000LC 00000111SG142610       0000000000300000003790    
57473000412E149024S       14" 90 24GA ELBOW W/SP GALV   00001          O E1EA00015850     00000000 0005921S 000015850       0000LI 00000124E149024S       0000000000300000000592    
57473000511SG2224         22"-24GA X 10'SPIRAL PIPE GALV00003          O C1EA00089800     00000000 0007571N 000089800       0000LC 00000112SG222410       0000000000300000007570    
57473000611SG1824         18"-24GA X 10'SPIRAL PIPE GALV00002          O C1EA00073500     00000000 0006191N 000073500       0000LC 00000112SG182410       0000000000300000006190    
57473000711R24            22/18 24GA REDUCER            00001          O F EA00040000     00000000       1N 000040000       0000LF 00000116R242218        0000000000300000000439    
57473000811R24            22/14 24GA REDUCER            00001          O F EA00040000     00000000       1N 000040000       0000LF 00000116R242214        0000000000300000000439    
57473000911SW9            22 ON 26 90 24GA SWEDGE SADDLE00002          O H1EA00033100     00000000       1N 000033100       0000LH 00000125SW9242226      0000000000300000000593    
57473001012EC2622S        26" END CAP 22GA SE GALV      00001          O H1EA00036350     00000000 0007281N 000036350       0000LH 00000110EC2622S        0000000000300000000728    
57473001112PEC18S         18" 22GA PRESSED END CAP W/SP 00001          O G6EA00018120     00000000 0003301S 000018120       0000LI 000001  PEC18S         0000000000300000000330    
57473001212EFS14          14" EZ FLANGE FULL SET GALV   00001          O S EA00015600     00000000 0002361S 000015600       0000LI 00000010EFS14          0000000000000000000236    
57473001312EFS18          18" EZ FLANGE FULL SET GALV   00001          O S EA00016800     00000000 0003031S 000016800       0000LI 00000010EFS18          0000000000000000000303    
57473001412EFS22          22" EZ FLANGE FULL SET GALV   00002          O S EA00023650     00000000 0003671S 000023650       0000LI 00000010EFS22          0000000000000000000367    
57473001512EFS26          26" EZ FLANGE FULL SET GALV   00004          O S EA00027400     00003600 0012021S 000027400       0000LI 00000010EFS26          0000000000000000001202    
57473001612DSC            LESS QUANTITY DISCOUNT/SPIRAL 0000q          O C1NT00231880     00000000 0000001N 000231880      10000L  00000099DSC            0000000000000000000000    
57473070011JEFI26         26" EZ FLANGE INSTALLED       00014          O S EA00025000     00000000 0010891N9000129300      00000LS 00000164JEFI26         0000000000000000010890    
57473070011JEFI26         26" EZ FLANGE INSTALLED       00014          O S EA00025000     00000000 0010891N9000129300      00000LS 00000164JEFI26         0000000000000000010890    
57473070011JEB26          26"-16GA BARREL CLAMP GALV    00014          O S EA00010100     00000000 0010891N9000129300      00000LS 00000160JEB26          0000000000000000010890    
57473070012JEFI26         26" EZ FLANGE INSTALLED       00004          O S EA00025000     00000000       1N9000090000      00000LS 00000164JEFI26         0000000000000000005220    
57473070012JEFI26         26" EZ FLANGE INSTALLED       00004          O S EA00025000     00000000       1N9000090000      00000LS 00000164JEFI26         0000000000000000005220    
57473070012JEB26          26"-16GA BARREL CLAMP GALV    00004          O S EA00010100     00000000       1N9000090000      00000LS 00000160JEB26          0000000000000000005220    
57473070011JEB14          14"-16GA BARREL CLAMP GALV    00002          O S EA00006800     00000000 0003791N9000046100      00000LS 00000160JEB14          0000000000000000003790    
57473070012JEB14          14"-16GA BARREL CLAMP GALV    00001          O S EA00006800     00000000 0005921N9000015850      00000LS 00000160JEB14          0000000000000000000592    
57473070011JEB22          22"-16GA BARREL CLAMP GALV    00003          O S EA00006800     00000000 0007571N9000089800      00000LS 00000160JEB22          0000000000000000007570    
57473070011JEB18          18"-16GA BARREL CLAMP GALV    00002          O S EA00006800     00000000 0006191N9000073500      00000LS 00000160JEB18          0000000000000000006190    
57473070011JEB18          18"-16GA BARREL CLAMP GALV    00001          O S EA00006800     00000000       1N9000040000      00000LS 00000160JEB18          0000000000000000000439    
57473070011JEB14          14"-16GA BARREL CLAMP GALV    00001          O S EA00006800     00000000       1N9000040000      00000LS 00000160JEB14          0000000000000000000439    
57473070011JEB22          22"-16GA BARREL CLAMP GALV    00002          O S EA00006800     00000000       1N9000033100      00000LS 00000160JEB22          0000000000000000000593    
57473070012JTG            TDC/EZ FLANGE GASKET     50'RL0000300000     O J RL00007150     00000000 0003301N9000018120      00000LI 00000065JTG            0000000000000000000330    
57473070012JJG            EZ FLANGE JR. GASKET     25'RL0000400000     O J RL00003000     00000000 0003301N9000018120      00000LI 00000065JJG            0000000000000000000330    
