E2000002001                                    1RYAN      BARNES         0000000000RYANB@SMCDUCT.COM                                               
E2000002002                                    1TROY      LARSON         0000000000TROYL@SMCDUCT.COM                                               
E2000002003                                    1JESSIE    RICHARDSON     9999999999JESSIER@SMCDUCT.COM                                             
E2000030001                                    0LONNIE                             THECLEANAIRGUY@LIVE.COM                                         
E2000100001                                    0SCOTT                              SYOUNGDAHL@ABESYS.COM                                           
E2000190001                                    0PAUL K                             PKREILING@ACCPLAN.COM                                           
E2000250001                                    0ALICIA                             ACLARK@ACIMECH.COM                                              
E2000250002                                    0BRUCE M                            BMARTIN@ACIMECH.COM                                             
E2000250003                                    0CHAD G                             CGOURLEY@ACIMECH.COM                                            
E2000250004                                    0DON                                DSIENKNECHT@ACIMECH.COM                                         
E2000250005                                    0GREG B                             GBRAGA@ACIMECH.COM                                              
E2000250006                                    0GREG K                             GKNAU@ACIMECH.COM                                               
E2000250007                                    0JOE D                              JDIEDRICHS@ACIMECH.COM                                          
E2000250008                                    0KELLI                              KBUTTERMORE@ACIMECH.COM                                         
E2000250009                                    0KENT                               KMEYN@ACIMECH.COM                                               
E2000250010                                    0LARRY M                            LMEINERS@ACIMECH.COM                                            
E2000250011                                    0MICHAEL                            MJMCCOY@ACIMECH.COM                                             
E2000250012                                    0MONTY M                            MMULLER@ACIMECH.COM                                             
E2000250013                                    0NICK B                             NBEMENT@ACIMECH.COM                                             
E2000250014                                    0RANDON P                           RANDON.PARKS@COMFORTSYSTEMSUSA.COM                              
E2000258001                                    0DAVID                              DRAIDEN@ACPSHEETMETAL.COM                                       
E2000258002                                    0JOHN                               JMATCHEN@ACPSHEETMETAL.COM                                      
E2000258003                                    0TERRI K                            TERRIK@ACPSHEETMETAL.COM                                        
E2000295001                                    0                                   ASI@AEMHUTCH.COM                                                
E2000300001                                    0JAMES                              AEPLUMBING@REA-ALP.COM                                          
E2000500001                                    0                                   KITTY@AMAHEATING.COM                                            
E2000500002                                    0CHAD L                             CHAD@AMAHEATING.COM                                             
E2000500003                                    0MATT K                             MATT@AMAHEATING.COM                                             
E2000550001                                    0DAN H                              DAN.HANLON@APIGROUPINC.US                                       
E2000550002                                    0JEFF P                             JEFF.PETERSON@APIGROUPINC.US                                    
E2000554001                                    0JON J                              JONJ@BLUEDUCT.COM                                               
E2000556001                                    0GARY                               GBROWN@POPP.NET                                                 
E2000590001                                    0KIM                                KIMATOZ@CENTURYTEL.NET                                          
E2000650001                                    0ERIC                               ERIC.ROHDE@ABBOTT.COM                                           
E2000700001                                    0                                   PHOLM@ABELONSITE.COM                                            
E2000700002                                    0DOUG                               DOUGDNIMS@AOL.COM                                               
E2000700003                                    0LOUIE                              LOUIESR@HOTMAIL.COM                                             
E2000760001                                    0MARK                               MKRANZ@ABSMECH.COM                                              
E2000765001                                    0JIM                                JKELLNER@ABSMECH.COM                                            
E2000765002                                    0MARK                               MKRANZ@ABSMECH.COM                                              
E2000765003                                    0MIKE E                             MERICSON@ABSMECH.COM                                            
E2000800001                                    0                                   GBSCHULZE@CABLEONE.NET                                          
E2000805001                                    0ROB S.                             RSWAGERTY@ACCUDUCT.COM                                          
E2001000001                                    0JOHN                               JOHN.H@ACE-AIRCONTROLESSENTIALS.COM                             
E2001070001                                    0JON A                              JON@ACKELSONSHEETMETAL.COM                                      
E2001085001                                    0KURT H                             KURT.HUMPHREY@ETS-LINDGREN.COM                                  
E2001150001                                    0                                   CHANSEN@ACTIONMEC.COM                                           
E2001150002                                    0CHRIS H                            CHANSEN@ACTIONMEC.COM                                           
E2001150003                                    0LARRY                              LBAKER@ACTIONMEC.COM                                            
E2001200001                                    0DON R                              ACTIVE@QWESTOFFICE.NET                                          
E2001200002                                    0JASON                              JASONACTIVE@QWESTOFFICE.NET                                     
E2001210001                                    0                                   K.SEGALA@ADAMSPHINC.COM                                         
E2001210002                                    0SHANE                              S.LAUNDRY@ADAMSPHINC.COM                                        
E2001550001                                    0                                   JESSIER@SMCDUCT.COM                                             
E2001550002                                    0BRIAN B                            BRIANB@ADVANCED-MECHANICAL.COM                                  
E2001560001                                    0MARK K                             MKRANZ@ADV-MECH.COM                                             
E2001673001                                    0                                   LROHAN@ADVANTAGE-INC.NET                                        
E2001680001                                    0TERRY                              TGOTTER@ADREFINC.COM                                            
E2001685001                                    0CHRIS                              CHARRISON@ADVANTAGESHEETMETAL.COM                               
E2001690001                                    0BOB J                              BOB@AERDUX.NET                                                  
E2001690002                                    0BOB J.                             ROBERTEJOHNSTON@COMCAST.NET                                     
E2001690003                                    0JAY                                JAY@AERDUX.NET                                                  
E2001821001                                    0SCOTT T                            SCOTT@AGAPEMECHANICAL.COM                                       
E2001822001                                    0ALLEN                              ARO@IDEAONE.NET                                                 
E2001830001                                    0MARK                               MROBINSON@AGRAIND.COM                                           
E2001840001                                    0JOHNY                              JSTARNES@ASI-INDUSTRIAL.COM                                     
E2001840002                                    0TED                                TREIMCHE@AGRISYSTEMS.NET                                        
E2001880001                                    0CALEB S                            SHERMAN@JFAHERN.COM                                             
E2001880002                                    0DAVE L                             DLEISSES@JFAHERN.COM                                            
E2001880003                                    0JOE                                JHOFMAN@JFAHERN.COM                                             
E2001880004                                    0KRISTINA                           KNIGL@JFAHERN.COM                                               
E2001880005                                    0MIKE G                             MGREEN@JFAHERN.COM                                              
E2001880006                                    0TIM                                TCHAPIN@JFAHERN.COM                                             
E2001900001                                    0BRUCE H.                           HEUCHERT@NEWULMTEL.NET                                          
E2001900002                                    0JOHN                               AHRENSHEATING@NEWULMTEL.NET                                     
E2001950001                                    0CHAD G                             CHADG@AIRCAREINC.COM                                            
E2001975001                                    0DAN                                DAN@AIRCLEANENVIRONMENTS.COM                                    
E2001980001                                    0DAVE                               DAVE@CLEANAIRGUYS.COM                                           
E2001980002                                    0TONY                               TONYHOUSE@CLEANAIRGUYS.COM                                      
E2001997001                                    0GUY                                GUYACS@COMCAST.NET                                              
E2002000001                                    0                                   RPICKARD@AIRCONMECHANICAL.COM                                   
E2002000002                                    0MARK B                             MBOWER@AIRCONMECHANICAL.COM                                     
E2002000003                                    0ROBERT M.                          RMORRIS@AIRCONMECHANICAL.COM                                    
E20021001001                                                            0000000000                                                                 
E2002250001                                    0                                   DEVERS@NETSCAPE.COM                                             
E2002295001                                    0BILL                               BILLB@BRILCO.COM                                                
E2002295002                                    0JIM                                JREESE@BRILCO.COM                                               
E2002300001                                    0MARK M                             MARK@AIRCONTROLPRODUCTS.COM                                     
E2002400001                                    0                                   LBRODTMANN@AIRCORPMECHANICAL.COM                                
E2002400002                                    0DEBORAH                            DWILL@AIRCORPMECHANICAL.COM                                     
E2002400003                                    0IAN                                IMENZIES@AIRCORPMECHANICAL.COM                                  
E2002400004                                    0JEFF E                             JELLINGSON@AIRCORPMECHANICAL.COM                                
E2002400005                                    0JIM                                JKELLNER@AIRCORPMECHANICAL.COM                                  
E2002400006                                    0LORI                               LBRODTMANN@AIRCORPMECHANICAL.COM                                
E2002400007                                    0MAGGY                              MKOTTMAN@AIRCORPMECHANICAL.COM                                  
E2002400008                                    0MIKE                               MHANSON.UNIONCURBS.COM                                          
E2002400009                                    0PAUL                               PYORK@AIRCORPMECHANICAL.COM                                     
E2002400010                                    0PAUL YORK                          PYORK@AIRCORPMECHANICAL.COM                                     
E2002400011                                    0TOM S                              TSAHLI@AIRCORPMECHANICAL.COM                                    
E2002434001                                    0FRANK                              FHERBERT@AIRDESIGN.COM                                          
E2002434002                                    0RICK                               RHOFFMAN@AIRDESIGN.COM                                          
E2002434003                                    0ROB                                RCLIMIE@AIRDESIGN.COM                                           
E2002434004                                    0RUSS                               RMCCOY@AIRDESIGN.COM                                            
E2002446001                                    0GINA                               RONORATO@ADSDUCT.COM                                            
E2002650001                                    0BRIAN D.                           BDEWITT@AIRENTERPRISES.COM                                      
E2002650002                                    0MIKE K.                            KAVALI@AIRENTERPRISES.COM                                       
E2002980001                                    0BRUCE                              BEDWARDS@AIRMACDIST.COM                                         
E2002980002                                    0ED C.                              ECOBELLI@AIRMACDIST.COM                                         
E2002980003                                    0JOHN S                             JSANTORO@AIRMACDIST.COM                                         
E2003100001                                    0GREG                               GREGO@AIR-MECH.COM                                              
E2003100002                                    0JEFF                               JLOR@AIR-MECH.COM                                               
E2003110001                                    0                                   CONTROLLER@AIRMECHANICALINC.COM                                 
E2003110002                                    0BRAD L                             BLINK@AIRMECHANICAL.COM                                         
E2003110003                                    0CHRIS F                            GEOTHERMAL@AIRMECHANICAL.COM                                    
E2003110004                                    0JOE                                GEOJOBSUP@AIRMECHANICAL.COM                                     
E2003110005                                    0MIKE F                             MFAIRBANKS@AIRMECHANICAL.COM                                    
E2003218001                                    0BECKY S                            AQCLLC@FRONTIER.COM                                             
E2003220001                                    0IRA G                              PURCHASING@AIR-QUALITY-ENG.COM                                  
E2003550001                                    0MARISA                             MARISA@AIRSYSTEMSWV.COM                                         
E2003650001                                    0JUSTIN                             JUSTINJ@SMCDUCT.COM                                             
E2003940001                                    0                                   NPIERSON@AIRTECHTHERMEX.COM                                     
E2003940002                                    0ROBERT                             RBAHR@AIRTECHTHERMEX.COM                                        
E2003942001                                    0DARWIN S                           AIRTECHHEATINGAC@YAHOO.COM                                      
E2004200001                                    0                                   DCOLBERT@ALBERSCO.COM                                           
E2004200002                                    0ALI                                ASOROUR@ALBERSCO.COM                                            
E2004200003                                    0BOB                                BSMITH@ALBERSCO.COM                                             
E2004200004                                    0BRAD                               BSWANSON@ALBERSCO.COM                                           
E2004200005                                    0BRAD H                             BHUBER@ALBERSCO.COM                                             
E2004200006                                    0BRANDON                            BHANSEN@ALBERSCO.COM                                            
E2004200007                                    0BRIAN                              BSCHMITZ@ALBERSCO.COM                                           
E2004200008                                    0BRIAN L.                           BLIBBY@ALBERSCO.COM                                             
E2004200009                                    0BRIAN SCH                          BRIAN@DUCTSANDCLEATS.COM                                        
E2004200010                                    0CHAD                               CHOPPE@ALBERSCO.COM                                             
E2004200011                                    0DAN                                DCOLBERT@ALBERSCO.COM                                           
E2004200012                                    0GARY                               GMULVILLE@ALBERSCO.COM                                          
E2004200013                                    0JODY                               JHERRMANN@ALBERSCO.COM                                          
E2004200014                                    0MIKE                               MGALLATIN@ALBERSCO.COM                                          
E2004200015                                    0PETE                               PCULLY@DUCTSANDCLEATS.COM                                       
E2004200016                                    0RANDY                              RPETERSEN@ALBERSCO.COM                                          
E2004200017                                    0STEVE W                            SWILLEMS@ALBERSCO.COM                                           
E2004200018                                    0TED                                NORTHCOUNTRYEMBR@GMAIL.COM                                      
E2004350001                                    0                                   TJZDSAX@HOTMAIL.COM                                             
E2004350002                                    0JESSE M                            J_MALVIN@HOTMAIL.COM                                            
E2004350003                                    0TODD S                             TWSAXTON@WINNELSON.COM                                          
E2004395001                                    0DARRIN N                           DARRIN@AAPH.CO                                                  
E2004440001                                    0                                   KBACKMAN@ALLCLIMATEHVAC.COM                                     
E2004550001                                    0DOUG                               DOUG@ALLSEASONSHEATINGSD.COM                                    
E2004563001                                    0                                   ANGIE@ASPDULUTH.COM                                             
E2004563002                                    0BEN EHLE                           BEN@ASPDULUTH.COM                                               
E2004563003                                    0DOUG H                             DOUG@ASPDULUTH.COM                                              
E2004563004                                    0LARS                               LARS@ASPDULUTH.COM                                              
E2004565001                                    0                                   JSPENCER@ALLSYSTEMSMECH.COM                                     
E2004600001                                    0                                   JWEDEL@ALLANMECHANICAL.COM                                      
E2004700001                                    0                                   SSMELSER@ALLIANCEMECHANICAL.COM                                 
E2004700002                                    0RON S                              RSATTLER@ALLIANCEMECHANICAL.COM                                 
E2004845001                                    0                                   AKS1@CHARTER.NET                                                
E2004990001                                    0                                   JLOYVA@ALLTECHENGINEERING                                       
E2005050001                                    0JOE                                JOE@CLEARWATERPHC.COM                                           
E2005200001                                    0                                   SYERKES@AMBERMECH.COM                                           
E2005230001                                    0DAN M                              DMCCULLA1@YAHOO.COM                                             
E2005230002                                    0SEAN                               S3BOLTON@YAHOO.COM                                              
E2005450001                                    0CHRIS M.                           CMOHLER@AMERICANMETALSSUPPLY.COM                                
E2005450002                                    0JAMES                              JAMESO@SMCDUCT.COM                                              
E2005450003                                    0JIM M                              JMORTON@AMERICANMETALSSUPPLY.COM                                
E2005450004                                    0KEITH                              KHUBBS@AMERICANMETALSSUPPLY.COM                                 
E2005465001                                    0NANCY M                            NMOORE@AMESLAB.GOV                                              
E2005502001                                    1WOOD      WOOD           1112223333WOOD@SMCDUCT.COM                                                
E2005630001                                    0                                   DON@ANDERSONHEATING.BIZ                                         
E2005700001                                    0MIKE                               MIKES@ANDORINC.COM                                              
E2005700002                                    0PAUL T                             PAULT@ANDORINC.COM                                              
E2006021001                                    0                                   JULIE@TIKKAPLUMBING.USM                                         
E2006044001                                    0LYNN                               LYNN@ARCHERMECHANICAL.COM                                       
E2006044002                                    0SCOTT                              SDM4254@YAHOO.COM                                               
E2006044003                                    0SHANE                              SHANEJOYCE@ARCHERMECHANICAL.COM                                 
E2006046001                                    0                                   KATHY.ALMS@ADM.COM                                              
E2006047001                                    0STEVE S                            SSCHULTZE@ARCHMECH.NET                                          
E2006048001                                    0CARMEN                             CARMEN@ARDINO.BIZ                                               
E2006049001                                    0                                   LISA.CROPP@AREAMECHANICAL.COM                                   
E2006070001                                    0                                   STEVE@ARENSHEATINGANDCOOLING.COM                                
E2006095001                                    0                                   ARNESONHVAC@COMCAST.NET                                         
E2006150001                                    0                                   WWW.ARNOLD-BROWN.COM                                            
E2006150002                                    0SKIP                               SKIP@ARNOLD-BROWN.COM                                           
E2006300001                                    08                                  PAT.DEGROOD@JAMARCOMPANY.US                                     
E2006300002                                    0CASEY S                            CASEY.SPREEMAN@JAMARCOMPANY.US                                  
E2006300003                                    0CHIRS J                            CHRIS.JOHNSON@JAMARCOMPANY.US                                   
E2006300004                                    0DALE T                             DALE.THRUN@JAMARCOMPANY.US                                      
E2006300005                                    0ERIC E                             ERIC.ECKLUND@JAMARCOMPANY.US                                    
E2006300006                                    0GREG C                             GREG.CARLSON@JAMARCOMPANY.US                                    
E2006300007                                    0JACOB                              JACOB.TORNQUIST@JAMARCOMPANY.US                                 
E2006300008                                    0JIM B                              JIM.BROWN@JAMARCOMPANY.US                                       
E2006300009                                    0JOE K                              JOE.KOLODGE@JAMARCOMPANY.US                                     
E2006300010                                    0KEVIN D                            KEVIN.DOUVILLE@JAMARCOMPANY.US                                  
E2006300011                                    0MARK                               MARK.SWANSON@JAMARCOMPANY.US                                    
E2006300012                                    0MIKE G                             MIKE.GIESE@JAMARCOMPANY.US                                      
E2006300013                                    0NATALIE                            NATALIE.HELLAND@JAMARCOMPANY.US                                 
E2006300014                                    0PAT                                PAT.DEGROOD@JAMARCOMPANY.US                                     
E2006350001                                    0CHARLIE                            CMCFARLAND@WSMIND.COM                                           
E2006400001                                    0ANDY                               ANELSON@ASSOCIATEDMECHANICAL.COM                                
E2006400002                                    0DON                                DLARSON@ASSOCIATEDMECHANICAL.COM                                
E2006400003                                    0LU ANN                             LSCHMITZ@ASSOCIATEDMECHANICAL.COM                               
E2006570001                                    0TIM                                TIM@AUBURNPLUMBINGHEATING.COM                                   
E2006680001                                    0JOE M                              JOE_MURPHY@AIS-KC.COM                                           
E2006854001                                    0BRANDON                            BRANDON@BCIMECHANICAL.BIZ                                       
E2006854002                                    0BRIAN                              BRIANLIVINGSTON@BCIMECHANICAL.BIZ                               
E2006854003                                    0JAMES L                            JAMES@BCIMECHANICAL.BIZ                                         
E2006854004                                    0LORI                               LORI@BCIMECHANICAL.BIZ                                          
E2006860001                                    0                                   JSENDZIK@BDPLUMBERS.COM                                         
E2006920001                                    0CHAD                               BGHVACCHAD@IOWATELECOM.NET                                      
E2006920002                                    0CHAD G                             BGHVAC@IOWATELECOM.NET                                          
E2006920003                                    0JAMIE                              JAMIERCOULTER@YAHOO.COM                                         
E2006950001                                    0                                   BHHEAT@RAP.MIDCO.NET                                            
E2007088001                                    0CHRIS                              CREIDBHV@BELLSOUTH.NET                                          
E2007090001                                    0CHRIS R                            CREIDBHV@BELLSOUTH.NET                                          
E2007100001                                    0DAVID                              DCOX@BHWSM.COM                                                  
E2007100002                                    0LAMAR                              LJENKINS@BHWSM.COM                                              
E2007182001                                    0NEAL                               BNOSHEETMETALINC@GMAIL.COM                                      
E2007350001                                    0                                   CRAIG@BTUMANAGEMENT.COM                                         
E2007360001                                    0                                   BRUCE@BWSCOMPANIES.COM                                          
E2007480001                                    0                                   BADGER@BADGERHTG.COM                                            
E2007490001                                    0                                   BSM.MJOYCE@CENTURYTEL.NET                                       
E2007490002                                    0MEGAN W                            MEGANW@BSMW.COM                                                 
E2007650001                                    0                                   NATE@BAETEFORSETH.COM                                           
E2007650002                                    0BOGEY                              BOGEY@BAETEFORSETH.COM                                          
E2007650003                                    0CHAD                               CHAD@BAETEFORSETH.COM                                           
E2007650004                                    0MARK L                             MLARSONBAETE@MCHSI.COM                                          
E2007650005                                    0MIKE V                             MIKE@BAETEFORSETH.COM                                           
E2007650006                                    0NATE                               NATE@BAETEFORSETH.COM                                           
E2007650007                                    0PENNY                              PENNY@BAETEFORSETH.COM                                          
E2007650008                                    0ROB                                ROB@BAETEFORSETH.COM                                            
E2007730001                                    0                                   BELLK@THEBAKERGROUP.COM                                         
E2007730002                                    0AUSTIN                             LUCASA@BAKERGROUP.COM                                           
E2007730003                                    0BELL                               BELLK@THEBAKERGROUP.COM                                         
E2007730004                                    0BOB                                DARLINGB@THEBAKERGROUP.COM                                      
E2007730005                                    0BRETT                              LAWLERB@THEBAKERGROUP.COM                                       
E2007730006                                    0DAN                                DOVED@THEBAKERGROUP.COM                                         
E2007730007                                    0JAMES                              JAMESO@SMCDUCT.COM                                              
E2007730008                                    0KIM                                BELLK@THEBAKERGROUP.COM                                         
E2007730009                                    0KIMBERLEY                          BELLK@THEBAKERGROUP.COM                                         
E2007730010                                    0KIMBERLY                           BELLK@THEBAKERGOURP.COM                                         
E2007730011                                    0KIMBERLY+                          KBELL@THEBAKERGROUP.COM                                         
E2007730012                                    0MATT                               MILLERMA@THEBAKERGROUP.COM                                      
E2007730013                                    0PATIENCE                           SCHNOORP@THEBAKERGROUP.COM                                      
E2007730014                                    0TOM                                WENGERTT@THEBAKERGROUP.COM                                      
E2007730015                                    0TOM R.                             ROSEBERRYT@THEBAKERGROUP.COM                                    
E2007760001                                    0MIKE                               MJSCHELL@QWESTOFFICE.NET                                        
E2007805001                                    0KARL                               KKAST@BALDWINFILTERS.COM                                        
E2007850001                                    0RAY                                BAMFORD@CITLINK.NET                                             
E2008350001                                    0                                   ROY.IMMEL@BASSETTMECHANICAL.COM                                 
E2008350002                                    0DAVE L                             DAVE.LEWANDOSKI@BASSETTMECHANICAL.COM                           
E2008350003                                    0DAWN L                             DAWN.LEWIS@BASSETTMECHANICAL.COM                                
E2008350004                                    0JERRY                              JERRY.RAUSCH@BASSETTMECHICAL.COM                                
E2008350005                                    0MARGARET                           MARGARET.VICKMAN@BASSETTMECHANICAL.COM                          
E2008350006                                    0MARIE M                            MARIE.MCNEESE@BASSETTMECHANICAL.COM                             
E2008350007                                    0MIKE N                             MIKE.NIHART@BASSETTMECHANICAL.COM                               
E2008350008                                    0PAUL V                             PAUL.VAN@BASSETTMECHANICAL.COM                                  
E2008350009                                    0RANDY M                            RANDY.MEYER@BASSETTMECHANICAL.COM                               
E2008350010                                    0ROY I                              ROY.IMMEL@BASSETTMECHANICAL.COM                                 
E2008350011                                    0TANYA                              TANYA.WOLOSEK@BASSETTMECHANICAL.COM                             
E2008400001                                    0CAROL                              CAROL.VARGO@BGCOMPANIES.COM                                     
E2008400002                                    0CHAD                               CHAD.MERRITT@BGCOMPANIES.COM                                    
E2008400003                                    0DENNIS                             DENNIS.BURHOP@BGCOMPANIES.COM                                   
E2008420001                                    0BRAD B                             BRADB@BAUMGARTMECHANICAL.COM                                    
E2008440001                                    0JIM                                JSNODGRASS@BAYINSULATION.COM                                    
E2008440002                                    0NICOLE                             NJACOBS@BAYINDUSTRIES.COM                                       
E2008440003                                    0RHONDA                             RMURPHY@BAYINDUSTRIES.COM                                       
E2008458001                                    0                                   BAYERBUILT.COM                                                  
E2008580001                                    0                                   BEARMECHANICALINC.COM                                           
E2008590001                                    0TIM                                BWHTG@FRONTIERNET.NET                                           
E2008810001                                    0                                   HEATHER.LINEHAN@FRAUENSHUH.COM                                  
E2008810002                                    0RON B.                             RON.BELL@FRAUENSHUH.COM                                         
E2008860001                                    0BILL G                             BILLGREENE@BELAIRHEATCOOL.COM                                   
E2008870001                                    0JASON                              JASONG@BELLBROTHERS.COM                                         
E2008870002                                    0LARRY                              LARRYD@BELLBROTHERS.COM                                         
E2009005001                                    0JEFF G                             JEFFGLAWE@BELONGER.NET                                          
E2009005002                                    0JOE                                JOEREGAN@BELONGER.NET                                           
E2009105001                                    0                                   BENBOWBRIAN@YAHOO.COM                                           
E2009110001                                    0BRIAN M                            BRIAN@BENCHINDUSTRIES.COM                                       
E2009110002                                    0DWANE                              GRIZ692002@YAHOO.COM                                            
E2009120001                                    0                                   MICHAELRIXMANN@GMAIL.COM                                        
E2009120002                                    0DAVID B                            DBENCK@SOMTEL.NET                                               
E2009120003                                    0JASON                              BAILEEJCH@GMAIL.COM                                             
E2009122001                                    0BILL                               BILLM@BENDRITE.COM                                              
E2009400001                                    0                                   BERGLUND@PAULBUNYAN.NET                                         
E2009450001                                    0BILL J                             BSMWCJ@MCHSI.COM                                                
E2009480001                                    0                                   JMAJOR@GWBERKHEIMER.COM                                         
E2009480002                                    0KEN                                KENKOMAN@GWBERKHEIMER.COM                                       
E2009603001                                    0                                   BEST_HCE@YAHOO.COM                                              
E2009604001                                    0                                   T.BESTMECHANICAL@GMAIL.COM                                      
E2009610001                                    0KEVIN B                            KEVINB@BETTERAIRINC.COM                                         
E2009700001                                    0DENNIS B                           DENNIS@BIGGERSTAFFS.COM                                         
E2009700002                                    0KYLE                               KYLE@BIGGERSTAFFS.COM                                           
E2009800001                                    0BOB                                BOB@BINDERHEATING.COM                                           
E2009800002                                    0KATHY                              KATHY@BINDERHEATING.COM                                         
E2009950001                                    0JACK                               JMEAD@BISBEEPH.COM                                              
E2009975001                                    0LARRY                              LHILL48@HOTMAIL.COM                                             
E2009980001                                    0                                   BISONHEATING@HOTMAIL.COM                                        
E2010050001                                    0                                   BLACKANDSONS.COM                                                
E2010160001                                    0BOB G                              BGANTER-BEMI@VERIZON.NET                                        
E2010170001                                    0                                   BLINDAUERS@ATT.NET                                              
E2010270001                                    0J.D.                               JD@BLUESKY-ENERGY.COM                                           
E2010280001                                    0CORY M                             CMIDDLETON@BLUEWATERMECHANICAL.COM                              
E2010280002                                    0DUANE B                            DBANKS@BLUEWATERMECHANICAL.COM                                  
E2010280003                                    0TOM                                TOM@BLUEWATERMECHANICAL.COM                                     
E2010380001                                    0SHAWN                              SHAWN@PAINTBOOTH.COM                                            
E2010380002                                    0SHAWN E.                           SHAWN@BODYSHOPEQUIPMENT.NET                                     
E2010555001                                    0HUE                                ARTICBLASTER@MSN.COM                                            
E2010800001                                    0GENE                               EHENDRICKS@BONLANDHVAC.COM                                      
E2010950001                                    0BOB                                BVRANICAR@BOSTROM.BIZ                                           
E2010950002                                    0JAY J                              JJOHNSON@BOSTROM.BIZ                                            
E2010950003                                    0JERRY H                            JERRYH@SMCDUCT.COM                                              
E2010950004                                    0KELLY                              KSUMMERVILLE@BOSTROM.BIZ                                        
E2010950005                                    0LARAE                              LMILLER@BOSTROM.BIZ                                             
E2010950006                                    0MATT                               MATTHEW.GRANDSTAFF@GMAIL.COM                                    
E2010950007                                    0ROBERT                             RVRANICAR@BOSTROM.BIZ                                           
E2011133001                                    0GRANT                              GBOWMAN@BWIG.NET                                                
E2011240001                                    0MIKE                               MHF@BRABAZON.COM                                                
E2011240002                                    0MIKE K                             MJK@BRABAZON.COM                                                
E2011395001                                    0DENISE                             DENISE@JLBRADYCO.COM                                            
E2011400001                                    0JP                                 JP@WMHBRADY.COM                                                 
E2011560001                                    0                                   KRISTA.REIS@BRATNEY.COM                                         
E2011582001                                    0                                   BREEZYSHVAC@YAHOO.COM                                           
E2011780001                                    0                                   LEIGHTY_8@HOTMAIL.COM                                           
E2011820001                                    0BILL                               BILLB@BRILCO.COM                                                
E2011820002                                    0JIM                                JREESE@BRILCO.COM                                               
E2011820003                                    0MIKE                               MIKEJ@BRILCO.COM                                                
E2011850001                                    0JIM                                BRITTONPLUMBING@MYCLEARWAVE.NET                                 
E2011895001                                    0                                   BECKY@1HVAC.COM                                                 
E2011895002                                    0BECKY                              BECKY1@12HVAC.COM                                               
E2011895003                                    0JOHN                               JOHN@1HVAC.COM                                                  
E2011895004                                    0LUKE                               LUKE@1HVAC.COM                                                  
E2011895005                                    0MARC T.                            MARC@1HVAC.COM                                                  
E2011895006                                    0MICK                               MICK@1HVAC.COM                                                  
E2011895007                                    0PATRICK                            PATRICK@1HVAC.COM                                               
E2011895008                                    0QUOTES                             QUOTES@1HVAC.COM                                                
E2011895009                                    0SPENCER                            SPENCER@1HVAC.COM                                               
E2011895010                                    0TODD                               TODD@1HVAC.COM                                                  
E2011900001                                    0CALE S                             CSAMBERG@BROCKWAYCOMPANY.COM                                    
E2011900002                                    0MATT B                             MBROCKWAY@BROCKWAYCOMPANY.COM                                   
E2011900003                                    0RANDY                              RSAMBERG@BROCKWAYCOMPANY.COM                                    
E2011950001                                    0                                   RWICKS@BROCKWAYMECHANICAL.COM                                   
E2011950002                                    0CALE S                             CSAMBERG@BROCKWAYCOMPANY.COM                                    
E2011950003                                    0MATT                               MBROCKWAY@BROCKWAYCOMPANY.COM                                   
E2011950004                                    0RODNEY                             RHAKE@BROCKWAYMECHANICAL.COM                                    
E2011950005                                    0RYAN B                             RBROCKWAY@BROCKWAYMECHANICAL.COM                                
E2011950006                                    0SCOTT S                            SSTEPHAN@BROCKWAYMECHANICAL.COM                                 
E2012050001                                    0                                   ROXY@BROGANHEATING.COM                                          
E2012350001                                    0KEVIN                              KEVIN.CROMER@BPC.COM                                            
E2012550001                                    0                                   DELOYSTARK@BRYANTLINCOLN.COM                                    
E2012550002                                    0DELOY                              DELOYSTARK@BRYANTLINCOLN.COM                                    
E2013200001                                    0                                   MIMI@SWERVO.COM                                                 
E2013200002                                    0MIKE P                             MIKE@SWERVO.COM                                                 
E2013200003                                    0MIKE P.                            HVACMIKEP@GMAIL.COM                                             
E2013210001                                    0                                   JKURZ@BUTTERSFETTING.COM                                        
E2013298001                                    0                                   CCHVAC@IZOOM.NET                                                
E2013300001                                    0DON C                              DONCCPH@SRT.COM                                                 
E2013300002                                    0JAMIE L                            JAMIECCPH@SRT.COM                                               
E2013450001                                    0                                   CONNIEJ@CURBSANDDAMPERS.COM                                     
E2013454001                                    0RON H                              RHILL@COOLINGEQUIP.COM                                          
E2013492001                                    0PHIL                               CHIMFG@AOL.COM                                                  
E2013492002                                    0PHIL S                             PSCHARREL@AOL.COM                                               
E2013492003                                    0RYAN S.                            RYAN@CHIMFG.COM                                                 
E2013495001                                    0                                   JSCOTT@C-H2.COM                                                 
E2013495002                                    0DON                                DFOOS@C-H2.COM                                                  
E2013500001                                    0CHUCK                              CKICHUCK@MCHSI.COM                                              
E2013500002                                    0GLEN                               GLENDIPPOLD@CALLCANDK.COM                                       
E2013515001                                    0STALEY                             RSTALEY@CMKPLUMBINGINC.COM                                      
E2013670001                                    0ANDY                               AVISLISEL@CRCONVEYING.COM                                       
E2013672001                                    0RON                                RAUBUCHON@CRDUCTFAB.COM                                         
E2013715001                                    0MIKE                               MICHAEL_CALAIR@YAHOO.COM                                        
E2013720001                                    0MIKE                               MICHAEL_CALAIR@YAHOO.COM                                        
E2013720002                                    0STEVE                              SNT768@SBCGLOBAL.NET                                            
E2013720003                                    0STEVE T                            SNT768@SBCGLOBAL.NET                                            
E2013750001                                    0ANDY                               ANDYE@CAMBLINMECHANICAL.COM                                     
E2013750002                                    0ANDY E                             ANDYE@CAMBLINMECHANICAL.COM                                     
E2013755001                                    0BILL                               BILL.METHENY@CAMBREX.COM                                        
E2013755002                                    0KEN S                              KEN.SQUIER@CAMBREX.COM                                          
E2013755003                                    0STEVE C                            STEVE.COLASUONNO@CAMBREX.COM                                    
E2013760001                                    0DALE                               DALES@CAMCORPINC.COM                                            
E2013760002                                    0DOUG                               DOUGB@CAMCORPINC.COM                                            
E2013760003                                    0JOHN                               JOHNB@CAMCORPINC.COM                                            
E2013760004                                    0RICK                               RICKB@CAMCORPINC.COM                                            
E2013760005                                    0TED                                TEDR@CAMCORPINC.COM                                             
E2013945001                                    0                                   MAPFEL@ELGENMFG.COM                                             
E2013948001                                    0                                   AP@CAPITOLGROUPINC.COM                                          
E2013948002                                    0DANIEL                             DLEACH@CAPITOLGROUPINC.COM                                      
E2013950001                                    0CAROL                              CAROL@CAPITALMECHANICAL.COM                                     
E2014050001                                    0MIKE                               MJSERAZ@AOL.COM                                                 
E2014150001                                    0                                   TSTOLL@CARGILLHEATING.COM                                       
E2014150002                                    0MIKE                               MGALSTAD@CARGILLHEATING.COM                                     
E2014250001                                    0ERIC                               ERIC@COCARLSON.COM                                              
E2014260001                                    0                                   KARIE@CARLSONDULUTH.COM                                         
E2014260002                                    0CRAIG                              CRAIG@CARLSONDULUTH.COM                                         
E2014260003                                    1CRAIG C.                           CRAIG@CARLSONDULUTH.COM                                         
E2014334001                                    0ROGER W                            RWARREN@EDWARDSINC.COM                                          
E2014335001                                    0CHRIS                              CHRISBRANDT@CARRSUPPLY.COM                                      
E2014335002                                    0MATT V                             MATTVOLK@CARRSUPPLY.COM                                         
E2014335003                                    0ROD E                              RODESSIG@CARRSUPPLY.COM                                         
E2014335004                                    0SCOTT                              SCOTTA@CARRSUPPLY.COM                                           
E2014350001                                    0                                   CARWILEMECH.COM                                                 
E2014540001                                    0                                   BJOHNSON@CCHEATING.COM                                          
E2014550001                                    0CHRIS                              CASSIDYMECHANICAL@LIVE.COM                                      
E2014550002                                    0CHRISTINE                          CHRISTINE_SMALLEY@HOTMAIL.COM                                   
E2014743001                                    0ERIC K                             ERIC@CENFAB.NET                                                 
E2014750001                                    0                                   CEVENSON@CENTRAIRE.COM                                          
E2014750002                                    0BRENT C                            BCONTRERAS@CENTRAIRE.COM                                        
E2014750003                                    0LEE S                              LSEURER@CENTRAIRE.COM                                           
E2014750004                                    0RON                                RSPANDE@CENTRAIRE.COM                                           
E2014750005                                    0TOM                                TPACKER@CENTRAIRE.COM                                           
E2014880001                                    0KEVIN                              KEVIN.CHA@MIDCONETWORK.COM                                      
E2014895001                                    0SHAWN                              SHAWN@CENTRALIOWABUILDINGSUPPLY.COM                             
E2014895002                                    0VIC                                VIC@CENTRALIOWABUILDINGSUPPY.COM                                
E2014900001                                    0                                   JVIGON@CIMECH.COM                                               
E2014900002                                    0JIM K                              JKELLER@CIMECH.COM                                              
E2014900003                                    0JON WALL                           JWALL@CIMECH.COM                                                
E2014950001                                    0                                   MARSHA.FAIR@CENTRALMECHANICAL.COM                               
E2015000001                                    0JEFF G                             JEFFG.CENTMECH@MIDCONETWORK.COM                                 
E2015020001                                    0JERRY H                            J_HARTLE@FRONTIER.COM                                           
E2015030001                                    0CARL                               CARL@CMRHVAC.COM                                                
E2015030002                                    0GARY                               GARY@CMRHVAC.COM                                                
E2015065001                                    0PAT                                PAT.BAHNMILLER@CENTRALPH.COM                                    
E2015252001                                    0                                   JVG@CENTRALTEMPERATURE.COM                                      
E2015300001                                    0SHAUN                              SHAUNM@CERTIFIED-PLUMBING-HEATING.COM                           
E2015430001                                    0                                   CHAMPIONPLUMBING.NET                                            
E2015600001                                    0JIMMY MC                           JMCCORMACK@CHAPPELLCENTRAL.COM                                  
E2015600002                                    0JOE                                JMEYER@CHAPPELLCENTRAL.COM                                      
E2015600003                                    0MIKE                               MGROSSMAN@CHAPPELLCENTRAL.COM                                   
E2015600004                                    0MONA                               MBERNING@CHAPPELLCENTRAL.COM                                    
E2015600005                                    0ROSS L                             ROSSL@CHAPPELLCENTRAL.COM                                       
E2015800001                                    0TODD D                             CSM@SMUNET.NET                                                  
E2015800002                                    0TONY                               TSCSM@SMUNET.NET                                                
E2016050001                                    0                                   KEVIN@CITYAIRMECHANICAL.COM                                     
E2016050002                                    0DAVE W                             DAVID@CITYAIRMECHANICAL.COM                                     
E2016050003                                    0RAY                                RAY@CITYAIRMECHANICAL.COM                                       
E2016050004                                    0TROY                               TROY@CITYAIRMECHANICAL.COM                                      
E2016060001                                    0JERRY                              JERRYBARNHART@CITYWIDENE.COM                                    
E2016140001                                    0JEFF                               JEFF.LEE@CLARIANT.COM                                           
E2016251001                                    0LONNIE                             THECLEANAIRGUY@LIVE.COM                                         
E2016282001                                    0CAM                                CLIMATECONTROL@NRCTV.COM                                        
E2016282002                                    0KRISTIE                            KRISTIE@CLIMATECONTROLPROFESSIONALS.COM                         
E2016300001                                    0                                   SCARNEY@CLIMATE-ENGR.COM                                        
E2016300002                                    0KAREN                              KATWATER@CLIMATE-ENGR.COM                                       
E2016365001                                    0JOEL C                             JOELC@CLIMATEMAKERSINC.COM                                      
E2016365002                                    0MARC D                             MARCD@CLIMATEMAKERSINC.COM                                      
E2016380001                                    0                                   RKUBAT@CLIMATE-ENGR.COM                                         
E2016380002                                    0JOEL                               JMILLER@CLIMATE-ENGR.COM                                        
E2016382001                                    0                                   CLIMATESOLUTIONS123@GMAIL.COM                                   
E2016400001                                    0LES                                LSANTELER@CLIMATEMP.COM                                         
E2016490001                                    0BOB T                              BTILDEN@COASTALHVACSUPPLY.COM                                   
E2016800001                                    0LOREN                              LOREN@GADBURY.COM                                               
E2016800002                                    0SHERRY                             SHERRY@GADBURY.COM                                              
E2016950001                                    0                                   LINDA@COLONYHEATING.COM                                         
E2016950002                                    0RYAN E                             RERICKSON@COLONYHEATING.COM                                     
E2016950003                                    0SHANNON R                          SHANNONR@COLONYHEATING.COM                                      
E2016950004                                    0TROY M                             TROYM@COLONYHEATING.COM                                         
E2017000001                                    0SCOTT                              SMEYERS@COLUMBIAPIPE.COM                                        
E2017110001                                    0GREG                               COMET@KMTEL.COM                                                 
E2017390001                                    0                                   ACCOUNTING@CONNORCO.COM                                         
E2017390002                                    0BRETT J                            BJOHNSON@CONNORCO.COM                                           
E2017390003                                    0DAVE                               DSMITH@CONNORCO.COM                                             
E2017390004                                    0JEFF W                             JDWILSON@CONNORCO.COM                                           
E2017400001                                    0GARY                               GGILLUM02@AOL.COM                                               
E2017445001                                    0CHRIS                              CHRISCSI@HICKORYTECH.NET                                        
E2017445002                                    0GARY G                             GARYCSI@HICKORYTECH.NET                                         
E2017510001                                    0CARY H                             CCH.COMFORTAIRE@CHARTER.NET                                     
E2017520001                                    0JESSIE                             JJCOMFORTEC@YAHOO.COM                                           
E2017615001                                    0KEVIN                              KEWOR@AOL.COM                                                   
E2017630001                                    0BOB                                BDISRUD@CPANDH.COM                                              
E2017630002                                    0DICK E                             DELLINGSWORTH@CPANDH.COM                                        
E2017630003                                    0JENNIFER                           JRAWSKI@CPANDH.COM                                              
E2017630004                                    0RANDY R                            RRUST@CPANDH.COM                                                
E2017630005                                    0SHOP                               AGAUTAM@CPANDH.COM                                              
E2017645001                                    0                                   COMMREFRIG@CONSOLIDATED.NET                                     
E2017673001                                    0                                   ELIZABETH.STORMOEN@COMPLETE-CONTROL.COM                         
E2017673002                                    0DALE B                             DALE.BERGMAN@COMPLETE-CONTROL.COM                               
E2017673003                                    0MIKE                               MIKE.BANT@COMPLETE-CONTROL.COM                                  
E2017700001                                    0JOHN                               JOHN@CONDAIRDESIGN.COM                                          
E2017725001                                    0                                   LOUANNM@SCONLEYSALESINC.COM                                     
E2017725002                                    0AARON L                            AARONL@SCONLEYSALESINC.COM                                      
E2017725003                                    0AMY H                              AMYH@SCONLEYSALESINC.COM                                        
E2017725004                                    0BILL F                             BILLF@SCONLEYSALESINC.COM                                       
E2017725005                                    0BRIAN M                            BRIANM@SCONLEYSALESINC.COM                                      
E2017725006                                    0GARY                               GARYA@SCONLEYSALESINC.COM                                       
E2017725007                                    0GARY W.                            GARYW@SCONLEYSALESINC.COM                                       
E2017725008                                    0JAMIE G                            JAMIEG@SCONLEYSALESINC.COM                                      
E2017725009                                    0KAELYN R                           KAELYNR@SCONLEYSALESINC.COM                                     
E2017725010                                    0RYAN                               RYAND@SCONLEYSALESINC.COM                                       
E2017725011                                    0SCOT                               SCOTS@SCONLEYSALESINC.COM                                       
E2017750001                                    0LARRY                              CONSOM@SRT.COM                                                  
E2017755001                                    0WENDI                              WENDI@CONNORSPLUMBINGANDHEATING.COM                             
E2017850001                                    0STEVE                              STEVE@CONRADSHEETMETAL.COM                                      
E2017950001                                    0                                   TBENSON350@HOTMAIL.COM                                          
E2017950002                                    0JERRY                              JERRY@CONMECHSERVICES.COM                                       
E2018158001                                    0JIM C                              JCONVERSE@CCAHVAC.COM                                           
E2018158002                                    0MATT C                             MCONVERSE@CCAHVAC.COM                                           
E2018158003                                    0MIKE M                             MMULLEN@CCAHVAC.COM                                             
E2018250001                                    0MARK                               MARKM@COOLAIRMECHANICAL.COM                                     
E2018250002                                    0TYLER H                            TYLER@COOLAIRMECHANICAL.COM                                     
E2018450001                                    0                                   DOUGG@CORNSTATES.COM                                            
E2018452001                                    0                                   TARJAR113@COMCAST.NET                                           
E2018460001                                    0TROY                               TROY@CORNHUSKERHTG.COM                                          
E2018520001                                    0                                   DYOST.CORPORATEMECHANICAL.COM                                   
E2018520002                                    0CORY F                             CFOUQUETTE@CORPORATEMECHANICAL.COM                              
E2018520003                                    0JASON                              JALBRECHT@CORPORATEMECHANICAL.COM                               
E2018520004                                    0KURT B                             KBONGARD@CORPORATEMECHANICAL.COM                                
E2018520005                                    0MATT                               MSTEVENSON@CORPORATEMECHANICAL.COM                              
E2018520006                                    0PAT                                POBRIEN@CORPORATEMECHANICAL.COM                                 
E2018520007                                    0TIM L                              TLANGEVIN@CORPORATEMECHANICAL.COM                               
E2018524001                                    0                                   ALEE@CORVALGROUP.COM                                            
E2018524002                                    0AL                                 AHANSON@CORVALGROUP.COM                                         
E2018524003                                    0BRENDA                             BHAZLEDINE@CORVALGROUP.COM                                      
E2018524004                                    0DAVE S                             DSTADLER@CORVALGROUP.COM                                        
E2018524005                                    0ERIC                               ELARSON@CORVALGROUP.COM                                         
E2018524006                                    0JEFF                               JJOHNSON@CORVALGROUP.COM                                        
E2018524007                                    0NORM                               NMURRAY@CORVALGROUP.COM                                         
E2018524008                                    0PAM                                PJOHNSON@CORVALGROUP.COM                                        
E2018524009                                    0THERESA                            TMANTHEY@CORVALGROUP.COM                                        
E2018524010                                    0TIM D                              TDONOHOE@CORVALGROUP.COM                                        
E2018524011                                    0TIM V                              TVANHEEL@CORVALGROUP.COM                                        
E2018524012                                    0TOM                                TROLSETH@CORVALGROUP.COM                                        
E2018580001                                    0KATIE                              OFFICE@COUNTRYSIDEALEXANDRIA.COM                                
E2018590001                                    0BRIAN                              BRIAN@CHCSERVICE.COM                                            
E2018615001                                    0BRUCE                              CRH@HICKORYTECH.NET                                             
E2018630001                                    0DEL                                DELBERT.WIRTH@COXAIRSYSTEMS.COM                                 
E2018630002                                    0NATHAN                             NATHAN.STAMPER@COXAIRSYSTEMS.COM                                
E2018630003                                    0STUART                             STUART.GROOMS@COXAIRSYSTEMS.COM                                 
E2018755001                                    0MATT                               MATT@RLCRAIGCO.COM                                              
E2018950001                                    0JOHN                               JKELLY@CROSBYBROWNLIE.COM                                       
E2018950002                                    0SCOTT A                            SALMAN@CROSBYBROWNLIE.COM                                       
E2018980001                                    0                                   DAVE@CROSSTOWNMECH.COM                                          
E2019035001                                    0                                   CROWN913@YAHOO.COM                                              
E2019035002                                    0LEROY                              LEROYB@CROWNMECHANICALLLC.COM                                   
E2019200001                                    0                                   KELSBERRY@CUNNINGHAMINC.COM                                     
E2019250001                                    0                                   RDELP@CUSTOMAIRE.NET                                            
E2019250002                                    0JAKE                               JLEDO@CUSTOMAIRE.NET                                            
E2019250003                                    0RICK                               RBOHM@CUSTOMAIRE.NET                                            
E2019250004                                    0TOM                                TADAM@CUSTOMAIRE.NET                                            
E2019355001                                    0DAMON                              DB.CUSTOMDUCT@YAHOO.COM                                         
E2019355002                                    0MANNY                              MANNYCUSTOM1@YAHOO.COM                                          
E2019355003                                    0TAD                                TMTRANSOU@HOTMAIL.COM                                           
E2019800001                                    0GREGG                              GEHRETH@GMAIL.COM                                               
E2019809001                                    0BUSTER                             CSMITH@DANDFINDUSTIES.COM                                       
E2019809002                                    0ROSIE                              RDAVILA@DANDFINDUSTRIES.COM                                     
E2019835001                                    0STEVE W                            SWOODING@EMBARQMAIL.COM                                         
E2019855001                                    0TOM G                              TGROMMON@DS-SHEETMETAL.COM                                      
E2019900001                                    0BEN                                BEN@DAHLAIR.COM                                                 
E2019930001                                    0JEREMY                             DAHLEN5@FRONTIERNET.NET                                         
E2019935001                                    0                                   DAHLMANONE@COMCAST.NET                                          
E2020030001                                    0                                   JASONPEKRON@HOTMAIL.COM                                         
E2020050001                                    0                                   DAKOTAHEATING@YAHOO.COM                                         
E2020050002                                    0DAN B                              DAKOTAHEATING@YAHOO.COM                                         
E2020060001                                    0                                   AFRASL@SUMMITFIRE.COM                                           
E2020060002                                    0JILL                               JLARSON@SUMMITFIRE.COM                                          
E2020061001                                    0JASON H                            JASON@DAKOTAMETALFAB.COM                                        
E2020063001                                    0                                   GBOSSE@DSGINC.BIZ                                               
E2020063002                                    0CODY E                             CENGER@DSGINC.BIZ                                               
E2020080001                                    0STEPHEN                            STEPHEN@DALEPH.NET                                              
E2020210001                                    0DAYTON                             DAYTON@SIRENTEL.NET                                             
E2020395001                                    0JODI                               JODI@DAVISCOMFORTSYSTEMS.COM                                    
E2020395002                                    0KEN                                KEN@DAVISCOMFORTSYSTEMS.COM                                     
E2020397001                                    0                                   PSMITH@DAVISMECHMN.COM                                          
E2020560001                                    0TERRY H                            TERRY.HOLSTEIN@VALMONT.COM                                      
E2020580001                                    0                                   DAYPHC@FRONTIER.COM                                             
E2020800001                                    0                                   DEAN@DEANSREFRIGERATION.COM                                     
E2020800002                                    0DEAN B                             DEAN@DEANSREFRIGERATION.COM                                     
E2021000001                                    0GLENN L                            GLENNL@DEECRAMER.COM                                            
E2021190001                                    0MAUREEN                            MMORAN@MECOGROUP.COM                                            
E2021190002                                    0MAUREEN M                          MMORAN@MECOGROUP.COM                                            
E2021480001                                    0DIRK J                             DIRK@DIRKJOHNSON.ORG                                            
E2021480002                                    0TOM F.                             TOMF@WAYNEDENNIS.COM                                            
E2021600001                                    0                                   KGREENLEAF@EJDESETA.COM                                         
E2021640001                                    0                                   ACCOUNTING@DESIGNAIR.COM                                        
E2021850001                                    0JEFF                               JEFF.ARMBRUSTER@DIRECTDIGITAL.COM                               
E2021870001                                    0SEAN W                             SEAN@DIRIGSHEETMETAL.COM                                        
E2022172001                                    0BOB                                BOBDSMINC@SBCGLOBAL.NET                                         
E2022192001                                    0                                   ARTUROM@DORSE.COM                                               
E2022192002                                    0BRANDON                            BRANDONK@SMCDUCT.COM                                            
E2022192003                                    0DAVID                              DAVIDS@DORSE.COM                                                
E2022390001                                    0MIKE                               MIKED@DRAGOOMETAL.COM                                           
E2022400001                                    0                                   APAWLETZKI@DREESCO.COM                                          
E2022400002                                    0JEANA                              JRENZE@DREESCO.COM                                              
E2022420001                                    0                                   J.DEPETRO@DMICHARTERMI.NET                                      
E2022550001                                    0                                   SMEISTER@CONNORCO.COM                                           
E2022740001                                    0                                   TMCCARTHY@CONQUESTMEP.COM                                       
E2022740002                                    0NATHAN                             NDECKER@DUCTCONNECTION.COM                                      
E2022740003                                    0SHAWN                              SOGUIN@DUCTCONNECTION.COM                                       
E2022800001                                    0DAN MC                             DUCTMASTERSDAN@180COM.NET                                       
E2022916001                                    0BRENT                              BRENTRETZLAFF@BENESHVAC.COM                                     
E2022916002                                    0DIANA                              DIANAMETTSCHER@BENESHVAC.COM                                    
E2022916003                                    0GENE                               GENEBENES@BENESHVAC.COM                                         
E2022916004                                    0JESSIE                             JERRIER@SMCDUCT.COM                                             
E2022916005                                    0MARCIE                             MSKLENAR@BENESHVAC.COM                                          
E2022950001                                    0MARK J                             MJAM@DULUTHSHEETMETAL.COM                                       
E2022990001                                    0JIM                                JIM.FABRICATORE@DASCOSUPPLY.COM                                 
E2022990002                                    0JOHN                               JOHN.ECKENRODE@DASCOSUPPLY.COM                                  
E2023030001                                    0                                   AP@DUREXINC.COM                                                 
E2023040001                                    0DAVE                               DAVID.FEYMA@DUEXPRODUCTS.COM                                    
E2023155001                                    0LYNN                               LSCHMIDT@DYNACOIL.COM                                           
E2023167001                                    0PAT M                              ECODUCTPAT@GMAIL.COM                                            
E2023168001                                    0GREGG                              GMADER@EGIMECH.COM                                              
E2023168002                                    0JODY                               JGORGES@EGIMECH.COM                                             
E2023168003                                    0KEVIN                              KHAUSLER@EGIMECH.COM                                            
E2023169001                                    0BOB                                BOB@ECSPOLLUTIONCONTROL.COM                                     
E2023554001                                    0                                   WIKI43@YAHOO.COM                                                
E2023554002                                    0JESSIE                             JESSIER@SMCDUCT.COM                                             
E2023556001                                    0                                   RPRYOR@ECMDI.COM                                                
E2023556002                                    0GORDON                             GFERRELL@ECMDI.COM                                              
E2023556003                                    0GUY                                GROGERS@ECMDI.COM                                               
E2023556004                                    0JAMES O                            JAMESO@SMCDUCT.COM                                              
E2023556005                                    0JOE                                JROBINSON@ECMDI.COM                                             
E2023556006                                    0JOHN C                             JCHANDLER@ECMDI.COM                                             
E2023556007                                    0MIKE C                             MCARROLL@ECMDI.COM                                              
E2023556008                                    0RANDY                              RLUCAS@ECMDI.COM                                                
E2023556009                                    0RODNEY                             RMARLER@ECMDI.COM                                               
E2023556010                                    0RUSTY                              RWILLIAMS@ECMDI.COM                                             
E2023556011                                    0WAYNE C                            WCASTLE@ECMDI.COM                                               
E2023568001                                    0DEAN                               DWEST@EATONFAB.COM                                              
E2023570001                                    0                                   EATON@CENTURYTEL.NET                                            
E2024050001                                    0                                   APCHECKS@EGANCO.COM                                             
E2024050002                                    0BETH                               EMSCHELDRUP@EGANCO.COM                                          
E2024050003                                    0DAVE                               DJPROCHASKA@EGANCO.COM                                          
E2024050004                                    0JAMIE                              JWHOYT@EGANCO.COM                                               
E2024050005                                    0MARK                               MKC@EGANCO.COM                                                  
E2024050006                                    0MIKE                               MPCAMPBELL@EGANCO.COM                                           
E2024050007                                    0RICHARD                            RHSORENSEN@EGANCO.COM                                           
E2024050008                                    0RICK                               RHS@EGANCO.COM.                                                 
E2024050009                                    0RYAN                               RCRESS@EGANCO.COM                                               
E2024050010                                    0RYAN P.                            RJPROCTOR@EGANCO.COM                                            
E2024050011                                    0SANDY                              SKS@EGANCO.COM                                                  
E2024050012                                    0SANDY S.                           SKSWANSON@EGANCO.COM                                            
E2024070001                                    0                                   REITA.KLAUSER@TFEHRHART.COM                                     
E2024070002                                    0DAVE M                             DAVE.MEYER@TFEHRHART.COM                                        
E2024070003                                    0RANDY R.                           RANDY.ROSS@TFEHRHART.COM                                        
E2024070004                                    0SCOTT                              SCOTT.GOODWIN@TFEHRHART.COM                                     
E2024082001                                    0                                   EIKENBERRY@WMCCINC.COM                                          
E2024200001                                    0                                   ELECTAIRINC@ELECTAIR.NET                                        
E2024200002                                    0CHRIS F.                           CFRICK@ELECTAIR.NET                                             
E2024240001                                    0ALAN                               ALANRK3@YAHOO.COM                                               
E2024240002                                    0BRIAN                              ESCO@BEVCOMM.NET                                                
E2024325001                                    0FRED S                             FREDS@ELITE-MECHANICAL.COM                                      
E2024450001                                    0CORY                               CRK@ELLINGSONS.COM                                              
E2024450002                                    0JON                                JLADWIG@ELLINGSONS.COM                                          
E2024450003                                    0LINDA                              LPETERS@MILWAUKEEINSULATION.COM                                 
E2024450004                                    0SCOTT O                            SLO@ELLINGSONS.COM                                              
E2024450005                                    0STEVE                              STEVEM@ELLINGSONS.COM                                           
E2024450006                                    0STEVE M                            STEVEM@ELLINGSONS.COM                                           
E2024450007                                    0TRAVIS                             TLAY@ELLINGSONS.COM                                             
E2024690001                                    0JERRY                              JERRY@EDALLC.NET                                                
E2024690002                                    0MIKE                               MIKE@EDALLC.NET                                                 
E20248000001                                   SCOTT     GRONSETH       0000000000EASI@ENERGYANDAIR.NET                                            
E2025120001                                    0ANDY                               ANDY@ARENGHHVAC.COM                                             
E2025120002                                    0BRIAN                              BRIAN@ARENGHHVAC.COM                                            
E2025120003                                    0PAULA                              PAULA@ARENGHHVAC.COM                                            
E2025123001                                    0LARRY                              LARRY.HANSEN@EAINONOISE.COM                                     
E2025300001                                    0                                   SSIKOWSKI@ENVIRATECH.COM                                        
E2025400001                                    0CRAIG K                            CRAIG@ENVIRON-CON.COM                                           
E2025400002                                    0GARY                               GARY@ENVIRONCON.COM                                             
E2025400003                                    0VINCE                              VINCE@ENVIRON-CON.COM                                           
E2025600001                                    0J.MOBILE                           ENVPRODUCTS1@GMAIL.COM                                          
E2025600002                                    0JIM E                              JIM.ELLIS@ENVPRODUCTS.COM                                       
E2025930001                                    0JOE I.                             JICENHOUR@ESSERINC.COM                                          
E2025930002                                    0JOE JR                             JOEJR@ESSERINC.COM                                              
E2025930003                                    0JOE SR.                            JOESR@ESSERINC.COM                                              
E2025930004                                    0JOHN R                             JROBINSON@ESSERINC.COM                                          
E2025935001                                    0JOEL                               JOEL@THINGTONHEATING.COM                                        
E2025935002                                    0TOM                                TOM@ETHINGTONHEATING.COM                                        
E2025945001                                    0                                   AT@EVAPCOIA.COM                                                 
E2025945002                                    0LARRY W                            LJWELLS@EVAPCOMN.COM                                            
E2025950001                                    0CRAIG L                            CRAIG@EVENAIRESYSTEMS.COM                                       
E2025950002                                    0DON                                DON@EVENAIRESYSTEMS.COM                                         
E20260450001                                   STEVE     MARCELLO       0000000000SMARCELLO@EXCELAIRLLC.COM                                        
E2026200001                                    0BRIAN                              BCHEEVER@FMSHEETMETAL.COM                                       
