8513750011222GF           22GA GALV FITTINGS FULL ASMBL 0005100000     O L LB00002540     0000000000000001N 0       LE/SP   0000LL 0000004622GF           00000000000               
85137500212SR             SQUARE TO ROUND ASSEMBLY      0000200000     O M EA00045000     000011000      1N 0       LE/SP  10000LM 00000020SR             00000000000               
85137500312SR.            SQUARE TO ROUNDS              0000200000     O M EA00000000     000000000      1N 0       LE/SP   0000LM 00000020SR.            00000000000               
