652367000  MM_F1          2" DOUBLEWALL (ID) SOLID INNER                                                            2"D/0 SOLID M  01      0008301                                  
652367000  MM_F2          FOLLOWING ARE (FULL SWEEP)                                                                FULL SWEEP  M    01    00032                                    
652367000  MM_F3          FOLLOWING WITH E-Z FLANGE                                                                 E-Z 0LANGE  M      01  00003                                    
65236700111T9             48/48/44 90 20GA TEE          000010000000000O0H1EA01389150     000000000      1N 00039690020  N010350LH101000136T920484844     0830000000300000012816    
65236700211R20            48/24 20GA REDUCER            000010000000000O0F EA00785400     000000000      1N 000224400    N010350LF 01000101R204824        0830000000300000001484    
65236700310GA444520       44" 45 20GA GORELOCK ANG GALV 000010000000000O0F EA01071245     0000000000089361N 000306070    N010000LF 01010136GA444520       0830320000300000008936    
65236700411SG4420         44"-20GA X 10'SPIRAL PIPE GALV000040000000000O0C1EA00000000     0000000000021711N 000000000    N0 0000LC101000114SG442010       0830000000300000021710    
65236700510GA444520       44" 45 20GA GORELOCK ANG GALV 000020000000000O0F EA01071245     0000000000089361N 000306070    N010000LF 01010136GA444520       0830320000300000008936    
65236700611T9             44/44/16 90 20GA TEE          000020000000000O0H1EA00549850     000000000      1N 00015710020  N010350LH101000136T920444416     0830000000300000006862    
65236700711R204438        44/38 20GA REDUCER            000010000000000O0K3EA00693000     000000000      1N 000198000    N010350LF 01000101R204438        0830000000300000001353    
65236700811SG3820         38"-20GA X 10'SPIRAL PIPE GALV000050000000000O0C1EA00000000     0000000000018751N 000000000    N0 0000LC101000114SG382010       0830000000300000018750    
65236700912EC3820S        38"-20GA END CAP SE GALV      000010000000000O0K3EA00345730     0000000000013301N 000098780    N010350LK301000106EC3820S        0830000000300000001330    
65236701011T9             38/38/16 90 20GA TEE          000020000000000O0H1EA00497770     000000000      1N 00014222020  N010350LH101000136T920383816     0830000000300000005519    
65236701111C9             38/38/26/18 90 20GA CROSS     000010000000000O0H1EA00989765     0000000000000001N 00028279020  N010350LH101000138C92038382618   0830000000300000008210    
65236701211SG2822         28"-22GA X 10'SPIRAL PIPE GALV000040000000000O0C1EA00000000     0000000000011731N 000000000    N0 0000LC101000113SG282210       0830000000300000011730    
65236701312GE289022       28" 90 22GA GORELOCK ELL GALV 000010000000000O0F EA00385000     0000000000060331N 000110000    N010350LF 01010131GE289022       0830320000300000006033    
65236701412GA284522       28" 45 22GA GORELOCK ANG GALV 000020000000000O0F EA00327250     0000000000031871N 000093500    N010350LF 01010135GA284522       0830320000300000003187    
65236701511SG2622         26"-22GA X 10'SPIRAL PIPE GALV000030000000000O0C1EA00000000     0000000000010891N 000000000    N0 0000LC101000113SG262210       0830000000300000010890    
65236701611T9             26/26/14 90 22GA TEE          000020000000000O0H1EA00259665     000000000      1N 000074190    N010350LH101000136T922262614     0830000000300000002682    
65236701711R222620        26/20 22GA REDUCER            000010000000000O0F EA00238700     000000000      1N 000068200    N010350LF 01000140R222620        0830000000300000000647    
65236701811SG2024         20"-24GA X 10'SPIRAL PIPE GALV000030000000000O0C1EA00000000     0000000000006881N 000000000    N0 0000LC101000112SG202410       0830000000300000006880    
65236701911T924202016     20/20/16 90 24GA TEE          000010000000000O0H1EA00215565     000000000      1N 000061590    N010350LH101000136T924202016     0830000000300000001785    
65236702011R242016        20/16 24GA REDUCER            000010000000000O0F EA00134750     000000000      1N 000038500    N010350LF 01000116R242016        0830000000300000000393    
65236702111SG1824         18"-24GA X 10'SPIRAL PIPE GALV000030000000000O0C1EA00000000     0000000000006191N 000000000    N0 0000LC101000112SG182410       0830000000300000006190    
65236702211T924181814     18/18/14 90 24GA TEE          000010000000000O0H1EA00187285     000000000      1N 000053510    N010350LH101000136T924181814     0830000000300000001479    
65236702311R241814        18/14 24GA REDUCER            000010000000000O0H1EA00115500     0000000000003601N 000033000    N010350LF 01000116R241814        0830000000300000000346    
65236702411SG1624         16"-24GA X 10'SPIRAL PIPE GALV000040000000000O0C1EA00000000     0000000000005511N 000000000    N0 0000LC101000112SG162410       0830000000300000005510    
65236702512GE169024       16" 90 24GA GORELOCK ELL GALV 000020000000000O0F EA00066000     0000000000013001N 000066000    N0 0000LF 01010130GE169024       0830320000300000001300    
65236702712GE169024       16" 90 24GA GORELOCK ELL GALV 000020000000000O0F EA00231000     0000000000013001N 000066000    N010350LF 01010130GE169024       0830320000300000001300    
65236702810SG1424         14"-24GA X 10'SPIRAL PIPE GALV000040000000000O0C1EA00000000     0000000000004821N 000000000    N0 0000LC101000112SG142410       0830000000300000004820    
65236702912GE149024       14" 90 24GA GORELOCK ELL GALV 000010000000000O0F EA00222320     0000000000012941N 000063520    N010350LF 01010130GE149024       0830320000300000001294    
65236703010DWSP           NET COST FOR DUAL WALL SPIRAL 000010000000000O0C1EA13630420     0000000000000001N 013630420    N110000LC1010000  DWSP           0830000000000000000000    
65236703112GA244522       24" 45 24GA GORELOCK ANG GALV 000020000000000O0F EA00269500     0000000000023941N 000077000    N010350LF 01010135GA244524       0830320000300000002394    
652367700  JEFI48         48" EZ FLANGE INSTALLED       0000100000       S EA00091880              0023691N9          20   00    S 01000164JEFI48         08300000000     000926    
652367700  JEFI48         48" EZ FLANGE INSTALLED       0000100000       S EA00091880              0023691N9          20   00    S 01000164JEFI48         08300000000     000926    
652367700  JEB52          52"-16GA BARREL CLAMP GALV    00001            S EA00020700              0023691N9          20   00    S 00000160JEB52          08300000000     000395    
652367700  JEFI44         44" EZ FLANGE INSTALLED       0000100000       S EA00085750                    1N9          20   00    S 01000164JEFI44         08300000000     000849    
652367700  JEB48          48"-16GA BARREL CLAMP GALV    00001            S EA00018900                    1N9          20   00    S 00000160JEB48          08300000000     000361    
652367700  JEFI38         38" EZ FLANGE INSTALLED       0000100000       S EA00079380              0018751N9          20   00    S 01000164JEFI38         08300000000     000733    
652367700  JEFI38         38" EZ FLANGE INSTALLED       0000100000       S EA00079380              0018751N9          20   00    S 01000164JEFI38         08300000000     000733    
652367700  JEB42          42"-16GA BARREL CLAMP GALV    00001            S EA00016200              0018751N9          20   00    S 00000160JEB42          08300000000     000319    
652367700  JEFI26         26" EZ FLANGE INSTALLED       0000100000       S EA00062500                    1N9          20   00    S 01000164JEFI26         08300000000     000502    
652367700  JEB30          30"-16GA BARREL CLAMP GALV    00001            S EA00011300                    1N9          20   00    S 00000160JEB30          08300000000     000228    
652367700  JEFI18         18" EZ FLANGE INSTALLED       0000100000       S EA00022200                    1N9          20   00    S 01000164JEFI18         08300000000     000083    
652367700  JEB22          22"-16GA BARREL CLAMP GALV    00001            S EA00006800                    1N9          20   00    S 00000160JEB22          08300000000     000164    
65236770011JEFI48         48" EZ FLANGE INSTALLED       000010000000000O0S EA00091880     000000000      1N9000224400    N000350LS 01000164JEFI48         0830000000000000000926    
65236770011JEFI24         24" EZ FLANGE INSTALLED       000010000000000O0S EA00060630     000000000      1N9000224400    N000350LS 01000164JEFI24         0830000000000000000112    
65236770011JEB28          28"-16GA BARREL CLAMP GALV    000010000000000O0S EA00010650     000000000      1N9000224400    N000350LS 00000160JEB28          0830000000000000000213    
65236770010JEFI44         44" EZ FLANGE INSTALLED       000010000000000O0S EA00085750     0000000000089361N9000306070    N000000LS 01010164JEFI44         0830000000000000000849    
65236770010JEFI44         44" EZ FLANGE INSTALLED       000010000000000O0S EA00085750     0000000000089361N9000306070    N000000LS 01010164JEFI44         0830000000000000000849    
65236770010JEB48          48"-16GA BARREL CLAMP GALV    000010000000000O0S EA00018900     0000000000089361N9000306070    N000000LS 00010160JEB48          0830000000000000000361    
65236770011JEFI44         44" EZ FLANGE INSTALLED       000040000000000O0S EA00085750     0000000000021711N9000000000    N000000LS 01000164JEFI44         0830000000000000000849    
65236770011JEFI44         44" EZ FLANGE INSTALLED       000040000000000O0S EA00085750     0000000000021711N9000000000    N000000LS 01000164JEFI44         0830000000000000000849    
65236770011JEB48          48"-16GA BARREL CLAMP GALV    000040000000000O0S EA00018900     0000000000021711N9000000000    N000000LS 00000160JEB48          0830000000000000000361    
65236770010JEFI44         44" EZ FLANGE INSTALLED       000020000000000O0S EA00085750     0000000000089361N9000306070    N000000LS 01010164JEFI44         0830000000000000000849    
65236770010JEFI44         44" EZ FLANGE INSTALLED       000020000000000O0S EA00085750     0000000000089361N9000306070    N000000LS 01010164JEFI44         0830000000000000000849    
65236770010JEB48          48"-16GA BARREL CLAMP GALV    000020000000000O0S EA00018900     0000000000089361N9000306070    N000000LS 00010160JEB48          0830000000000000000361    
65236770011JEFI44         44" EZ FLANGE INSTALLED       000020000000000O0S EA00085750     000000000      1N900015710020  N000350LS 01000164JEFI44         0830000000000000000849    
65236770011JEFI44         44" EZ FLANGE INSTALLED       000020000000000O0S EA00085750     000000000      1N900015710020  N000350LS 01000164JEFI44         0830000000000000000849    
65236770011JEB48          48"-16GA BARREL CLAMP GALV    000020000000000O0S EA00018900     000000000      1N900015710020  N000350LS 00000160JEB48          0830000000000000000361    
65236770011JEFI16         16" EZ FLANGE INSTALLED       000020000000000O0S EA00021600     000000000      1N900015710020  N000350LS 01000164JEFI16         0830000000000000000074    
65236770011JEB20          20"-16GA BARREL CLAMP GALV    000020000000000O0S EA00006800     000000000      1N900015710020  N000350LS 00000160JEB20          0830000000000000000152    
65236770011JEFI44         44" EZ FLANGE INSTALLED       000010000000000O0S EA00085750     000000000      1N9000198000    N000350LS 01000164JEFI44         0830000000000000000849    
65236770011JEFI38         38" EZ FLANGE INSTALLED       000010000000000O0S EA00079380     000000000      1N9000198000    N000350LS 01000164JEFI38         0830000000000000000733    
65236770011JEB42          42"-16GA BARREL CLAMP GALV    000010000000000O0S EA00016200     000000000      1N9000198000    N000350LS 00000160JEB42          0830000000000000000319    
65236770011JEFI38         38" EZ FLANGE INSTALLED       000050000000000O0S EA00079380     0000000000018751N9000000000    N000000LS 01000164JEFI38         0830000000000000000733    
65236770011JEFI38         38" EZ FLANGE INSTALLED       000050000000000O0S EA00079380     0000000000018751N9000000000    N000000LS 01000164JEFI38         0830000000000000000733    
65236770011JEB42          42"-16GA BARREL CLAMP GALV    000050000000000O0S EA00016200     0000000000018751N9000000000    N000000LS 00000160JEB42          0830000000000000000319    
65236770011JEFI38         38" EZ FLANGE INSTALLED       000020000000000O0S EA00079380     000000000      1N900014222020  N000350LS 01000164JEFI38         0830000000000000000733    
65236770011JEFI38         38" EZ FLANGE INSTALLED       000020000000000O0S EA00079380     000000000      1N900014222020  N000350LS 01000164JEFI38         0830000000000000000733    
65236770011JEB42          42"-16GA BARREL CLAMP GALV    000020000000000O0S EA00016200     000000000      1N900014222020  N000350LS 00000160JEB42          0830000000000000000319    
65236770011JEFI16         16" EZ FLANGE INSTALLED       000020000000000O0S EA00021600     000000000      1N900014222020  N000350LS 01000164JEFI16         0830000000000000000074    
65236770011JEB20          20"-16GA BARREL CLAMP GALV    000020000000000O0S EA00006800     000000000      1N900014222020  N000350LS 00000160JEB20          0830000000000000000152    
65236770011JEFI28         28" EZ FLANGE INSTALLED       000040000000000O0S EA00064250     0000000000011731N9000000000    N000000LS 01000164JEFI28         0830000000000000000540    
65236770011JEFI28         28" EZ FLANGE INSTALLED       000040000000000O0S EA00064250     0000000000011731N9000000000    N000000LS 01000164JEFI28         0830000000000000000540    
65236770011JEB32          32"-16GA BARREL CLAMP GALV    000040000000000O0S EA00011900     0000000000011731N9000000000    N000000LS 00000160JEB32          0830000000000000000243    
65236770012JEFI28         28" EZ FLANGE INSTALLED       000010000000000O0S EA00064250     0000000000060331N9000110000    N000350LS 01010164JEFI28         0830000000000000000540    
65236770012JEFI28         28" EZ FLANGE INSTALLED       000010000000000O0S EA00064250     0000000000060331N9000110000    N000350LS 01010164JEFI28         0830000000000000000540    
65236770012JEB32          32"-16GA BARREL CLAMP GALV    000010000000000O0S EA00011900     0000000000060331N9000110000    N000350LS 00010160JEB32          0830000000000000000243    
65236770012JEFI28         28" EZ FLANGE INSTALLED       000020000000000O0S EA00064250     0000000000031871N9000093500    N000350LS 01010164JEFI28         0830000000000000000540    
65236770012JEFI28         28" EZ FLANGE INSTALLED       000020000000000O0S EA00064250     0000000000031871N9000093500    N000350LS 01010164JEFI28         0830000000000000000540    
65236770012JEB32          32"-16GA BARREL CLAMP GALV    000020000000000O0S EA00011900     0000000000031871N9000093500    N000350LS 00010160JEB32          0830000000000000000243    
65236770011JEFI26         26" EZ FLANGE INSTALLED       000030000000000O0S EA00062500     0000000000010891N9000000000    N000000LS 01000164JEFI26         0830000000000000000502    
65236770011JEFI26         26" EZ FLANGE INSTALLED       000030000000000O0S EA00062500     0000000000010891N9000000000    N000000LS 01000164JEFI26         0830000000000000000502    
65236770011JEB30          30"-16GA BARREL CLAMP GALV    000030000000000O0S EA00011300     0000000000010891N9000000000    N000000LS 00000160JEB30          0830000000000000000228    
65236770011JEFI26         26" EZ FLANGE INSTALLED       000020000000000O0S EA00062500     000000000      1N9000074190    N000350LS 01000164JEFI26         0830000000000000000502    
65236770011JEFI26         26" EZ FLANGE INSTALLED       000020000000000O0S EA00062500     000000000      1N9000074190    N000350LS 01000164JEFI26         0830000000000000000502    
65236770011JEB30          30"-16GA BARREL CLAMP GALV    000020000000000O0S EA00011300     000000000      1N9000074190    N000350LS 00000160JEB30          0830000000000000000228    
65236770011JEFI14         14" EZ FLANGE INSTALLED       000020000000000O0S EA00021300     000000000      1N9000074190    N000350LS 01000164JEFI14         0830000000000000000065    
65236770011JEB18          18"-16GA BARREL CLAMP GALV    000020000000000O0S EA00006800     000000000      1N9000074190    N000350LS 00000160JEB18          0830000000000000000137    
65236770011JEFI26         26" EZ FLANGE INSTALLED       000010000000000O0S EA00062500     000000000      1N9000068200    N000350LS 01000164JEFI26         0830000000000000000502    
65236770011JEFI20         20" EZ FLANGE INSTALLED       000010000000000O0S EA00022800     000000000      1N9000068200    N000350LS 01000164JEFI20         0830000000000000000092    
65236770011JEB24          24"-16GA BARREL CLAMP GALV    000010000000000O0S EA00006800     000000000      1N9000068200    N000350LS 00000160JEB24          0830000000000000000182    
65236770011JEFI20         20" EZ FLANGE INSTALLED       000030000000000O0S EA00022800     0000000000006881N9000000000    N000000LS 01000164JEFI20         0830000000000000000092    
65236770011JEFI20         20" EZ FLANGE INSTALLED       000030000000000O0S EA00022800     0000000000006881N9000000000    N000000LS 01000164JEFI20         0830000000000000000092    
65236770011JEB24          24"-16GA BARREL CLAMP GALV    000030000000000O0S EA00006800     0000000000006881N9000000000    N000000LS 00000160JEB24          0830000000000000000182    
65236770011JEFI20         20" EZ FLANGE INSTALLED       000010000000000O0S EA00022800     000000000      1N9000061590    N000350LS 01000164JEFI20         0830000000000000000092    
65236770011JEFI20         20" EZ FLANGE INSTALLED       000010000000000O0S EA00022800     000000000      1N9000061590    N000350LS 01000164JEFI20         0830000000000000000092    
65236770011JEB24          24"-16GA BARREL CLAMP GALV    000010000000000O0S EA00006800     000000000      1N9000061590    N000350LS 00000160JEB24          0830000000000000000182    
65236770011JEFI16         16" EZ FLANGE INSTALLED       000010000000000O0S EA00021600     000000000      1N9000061590    N000350LS 01000164JEFI16         0830000000000000000074    
65236770011JEB20          20"-16GA BARREL CLAMP GALV    000010000000000O0S EA00006800     000000000      1N9000061590    N000350LS 00000160JEB20          0830000000000000000152    
65236770011JEFI20         20" EZ FLANGE INSTALLED       000010000000000O0S EA00022800     000000000      1N9000038500    N000350LS 01000164JEFI20         0830000000000000000092    
65236770011JEFI16         16" EZ FLANGE INSTALLED       000010000000000O0S EA00021600     000000000      1N9000038500    N000350LS 01000164JEFI16         0830000000000000000074    
65236770011JEB20          20"-16GA BARREL CLAMP GALV    000010000000000O0S EA00006800     000000000      1N9000038500    N000350LS 00000160JEB20          0830000000000000000152    
65236770011JEFI18         18" EZ FLANGE INSTALLED       000030000000000O0S EA00022200     0000000000006191N9000000000    N000000LS 01000164JEFI18         0830000000000000000083    
65236770011JEFI18         18" EZ FLANGE INSTALLED       000030000000000O0S EA00022200     0000000000006191N9000000000    N000000LS 01000164JEFI18         0830000000000000000083    
65236770011JEB22          22"-16GA BARREL CLAMP GALV    000030000000000O0S EA00006800     0000000000006191N9000000000    N000000LS 00000160JEB22          0830000000000000000164    
65236770011JEFI18         18" EZ FLANGE INSTALLED       000010000000000O0S EA00022200     000000000      1N9000053510    N000350LS 01000164JEFI18         0830000000000000000083    
65236770011JEFI18         18" EZ FLANGE INSTALLED       000010000000000O0S EA00022200     000000000      1N9000053510    N000350LS 01000164JEFI18         0830000000000000000083    
65236770011JEB22          22"-16GA BARREL CLAMP GALV    000010000000000O0S EA00006800     000000000      1N9000053510    N000350LS 00000160JEB22          0830000000000000000164    
65236770011JEFI14         14" EZ FLANGE INSTALLED       000010000000000O0S EA00021300     000000000      1N9000053510    N000350LS 01000164JEFI14         0830000000000000000065    
65236770011JEB18          18"-16GA BARREL CLAMP GALV    000010000000000O0S EA00006800     000000000      1N9000053510    N000350LS 00000160JEB18          0830000000000000000137    
65236770011JEFI18         18" EZ FLANGE INSTALLED       000010000000000O0S EA00022200     0000000000003601N9000033000    N000350LS 01000164JEFI18         0830000000000000000083    
65236770011JEFI14         14" EZ FLANGE INSTALLED       000010000000000O0S EA00021300     0000000000003601N9000033000    N000350LS 01000164JEFI14         0830000000000000000065    
65236770011JEB18          18"-16GA BARREL CLAMP GALV    000010000000000O0S EA00006800     0000000000003601N9000033000    N000350LS 00000160JEB18          0830000000000000000137    
65236770011JEFI16         16" EZ FLANGE INSTALLED       000040000000000O0S EA00021600     0000000000005511N9000000000    N000000LS 01000164JEFI16         0830000000000000000074    
65236770011JEFI16         16" EZ FLANGE INSTALLED       000040000000000O0S EA00021600     0000000000005511N9000000000    N000000LS 01000164JEFI16         0830000000000000000074    
65236770011JEB20          20"-16GA BARREL CLAMP GALV    000040000000000O0S EA00006800     0000000000005511N9000000000    N000000LS 00000160JEB20          0830000000000000000152    
65236770012JEFI16         16" EZ FLANGE INSTALLED       000020000000000O0S EA00021600     0000000000013001N9000066000    N000000LS 01010164JEFI16         0830000000000000000074    
65236770012JEFI16         16" EZ FLANGE INSTALLED       000020000000000O0S EA00021600     0000000000013001N9000066000    N000000LS 01010164JEFI16         0830000000000000000074    
65236770012JEB20          20"-16GA BARREL CLAMP GALV    000020000000000O0S EA00006800     0000000000013001N9000066000    N000000LS 00010160JEB20          0830000000000000000152    
65236770012JEFI16         16" EZ FLANGE INSTALLED       000020000000000O0S EA00021600     0000000000013001N9000066000    N000350LS 01010164JEFI16         0830000000000000000074    
65236770012JEFI16         16" EZ FLANGE INSTALLED       000020000000000O0S EA00021600     0000000000013001N9000066000    N000350LS 01010164JEFI16         0830000000000000000074    
65236770012JEB20          20"-16GA BARREL CLAMP GALV    000020000000000O0S EA00006800     0000000000013001N9000066000    N000350LS 00010160JEB20          0830000000000000000152    
65236770010JEFI14         14" EZ FLANGE INSTALLED       000040000000000O0S EA00021300     0000000000004821N9000000000    N000000LS 01000164JEFI14         0830000000000000000065    
65236770010JEFI14         14" EZ FLANGE INSTALLED       000040000000000O0S EA00021300     0000000000004821N9000000000    N000000LS 01000164JEFI14         0830000000000000000065    
65236770010JEB18          18"-16GA BARREL CLAMP GALV    000040000000000O0S EA00006800     0000000000004821N9000000000    N000000LS 00000160JEB18          0830000000000000000137    
65236770012JEFI14         14" EZ FLANGE INSTALLED       000010000000000O0S EA00021300     0000000000012941N9000063520    N000350LS 01010164JEFI14         0830000000000000000065    
65236770012JEFI14         14" EZ FLANGE INSTALLED       000010000000000O0S EA00021300     0000000000012941N9000063520    N000350LS 01010164JEFI14         0830000000000000000065    
65236770012JEB18          18"-16GA BARREL CLAMP GALV    000010000000000O0S EA00006800     0000000000012941N9000063520    N000350LS 00010160JEB18          0830000000000000000137    
65236770012JEFI24         24" EZ FLANGE INSTALLED       000020000000000O0S EA00060630     0000000000023941N9000077000    N000350LS 01010164JEFI24         0830000000000000000112    
65236770012JEFI24         24" EZ FLANGE INSTALLED       000020000000000O0S EA00060630     0000000000023941N9000077000    N000350LS 01010164JEFI24         0830000000000000000112    
65236770012JEB28          28"-16GA BARREL CLAMP GALV    000020000000000O0S EA00010650     0000000000023941N9000077000    N000350LS 00010160JEB28          0830000000000000000213    
65236770012JTG            TDC/EZ FLANGE GASKET     50'RL000110000000000O0J RL00007150     0000000000023941N9000077000    N000350LI 00000065JTG            0000000000000000000000    
