870955000  MM_F2          FOLLOWING ARE CUSTOM FITTINGS WITH 67"X 15" REG. TAKE-OFFS  INSTALLED BOTH SIDES OF PIPE  CUSTOM      M    01    00031                                    
870955000  MM_F2          FOLLOWING ARE CUSTOM FITTINGS WITH 67" X 15" REG. TAK-OFF   INSTALLED ON ONE SIDE         CUSTOM      M    02    00031                                    
870955000  MM_F2          FOLLOWING ARE CUSTOM FITTINGS                                                             CUSTOM      M    03    00031                                    
870955000  MM_F2          FOLLOWING ARE CUSTOM FITTINGS OFFSET 9", 42" LONG                                         CUSTOM      M    04    00031                                    
870955000  MM_F2          FOLLOWING ARE CUSTOM FITTINGS OFFSET 18", 36.75" LONG                                     CUSTOM      M    05    00031                                    
870955000  MM_F2          FOLLOWING ARE (FULL SWEEP)                                                                FULL SWEEP  M    06    00032                                    
870955000  MM_F3          FOLLOWING WITH E-Z FLANGE                                                                 E-Z FLANGE  M      01  00003                                    
87095500010JEFI58         58" EZ FLANGE INSTALLED       00002          E S EA00064800     00000000 0000001N9000695000      00000LS 00060164JEFI58         0000000000000000          
87095500111SG5618         56"-18GA X  96"LONG SPIRL GALV00003          E C1EA00309520     00000000 0000001N 0               0000LC100010115SG5618+96      0000310000300000          
87095500111T4             12/12/10 45 26GA LATERAL      00001          E H1EA00028350     00000000       1N 000028350       0000LH 00000136T426121210     0000000000300000          
87095500110JEB58          58"-16GA BARREL CLAMP GALV    00002          E S EA00023400     00000000 0000001N9000695000      00000LS 00060160JEB58          0000000000000000          
87095500211SG4620         46"-20GA X  96"LONG SPIRL GALV00005          E C1EA00197360     00000000       1N 0               0000LC100010114SG4620+96      0000310000300000          
87095500211T424141406     14/14/6 45 24GA LATERAL       00001          E H1EA00029400     00000000       1N 000029400       0000LH100000136T424141406     0000000000300000          
87095500211JEB20          20"-16GA BARREL CLAMP GALV    00018          E S EA00006800     00000000       1N9000075800      00000LS 00000160JEB20          0000000000000000          
87095500311SG5618         56"-18GA X  96"LONG SPIRL GALV00002          E C1EA00309520     00000000 0000001N 0               0000LC100010115SG5618+96      0000310000300000          
87095500311T424141406     14/14/6 45 24GA LATERAL       00001          E H1EA00029400     00000000       1N 000029400       0000LH100000136T424141406     0000000000300000          
87095500310JEFI58         58" EZ FLANGE INSTALLED       00002          E S EA00064800     00000000 0000001N9000695000      00000LS 00060164JEFI58         0000000000000000          
87095500411SG3622         36"-22GA X  96"LONG SPIRL GALV00001          E C1EA00129360     00000000       1N 0               0000LC100010113SG3622+96      0000310000300000          
87095500411T424141412     14/14/12 45 24GA LATERAL      00001          E H1EA00043450     00000000       1N 000043450       0000LH 00000136T424141412     0000000000300000          
87095500410JEFI58         58" EZ FLANGE INSTALLED       00002          E S EA00064800     00000000 0000001N9000695000      00000LS 00060164JEFI58         0000000000000000          
87095500511SG5618         56"-18GA X  96"LONG SPIRL GALV00007          E C1EA00309520     00000000 0000001N 0               0000LC100010115SG5618+96      0000310000300000          
87095500511T424141412     14/14/12 45 24GA LATERAL      00001          E H1EA00043450     00000000       1N 000043450       0000LH 00000136T424141412     0000000000300000          
87095500510JEB58          58"-16GA BARREL CLAMP GALV    00002          E S EA00023400     00000000 0000001N9000695000      00000LS 00060160JEB58          0000000000000000          
87095500611SG4420         44"-20GA X  96"LONG SPIRL GALV00008          E C1EA00188720     00000000       1N 0               0000LC100020114SG4420+96      0000310000300000          
87095500611T424141410     14/14/10 45 24GA LATERAL      00001          E H1EA00037700     00000000       1N 000037700       0000LH 00000136T424141410     0000000000300000          
87095500611JEB22          22"-16GA BARREL CLAMP GALV    00022          E S EA00006800     00000000       1N9000083400      00000LS 00000160JEB22          0000000000000000          
87095500711SG3622         36"-22GA X  96"LONG SPIRL GALV00001          E C1EA00129360     00000000       1N 0               0000LC100020113SG3622+96      0000310000300000          
87095500711T424141410     14/14/10 45 24GA LATERAL      00001          E H1EA00037700     00000000       1N 000037700       0000LH 00000136T424141410     0000000000300000          
87095500712JEFI64         64" EZ FLANGE INSTALLED       00001          E S EA00072000     00000000 0000001N900148000018    00000LS 00000164JEFI64         0000000000000000          
87095500811SG4420         44"-20GA X  96"LONG SPIRL GALV00006          E C1EA00188720     00000000       1N 0               0000LC100020114SG4420+96      0000310000300000          
87095500811T424141410     14/14/10 45 24GA LATERAL      00002          E H1EA00037700     00000000       1N 000037700       0000LH 00000136T424141410     0000000000300000          
87095500812JEFI64         64" EZ FLANGE INSTALLED       00001          E S EA00072000     00000000 0000001N900148000018    00000LS 00000164JEFI64         0000000000000000          
87095500911SG3622         36"-22GA X  96"LONG SPIRL GALV00002          E C1EA00129360     00000000       1N 0               0000LC100020113SG3622+96      0000310000300000          
87095500911T424181814     18/18/14 45 24GA LATERAL      00001          E H1EA00056400     00000000       1N 000056400       0000LH 00000136T424181814     0000000000300000          
87095500912JEB64          64"-16GA BARREL CLAMP GALV    00001          E S EA00026100     00000000 0000001N900148000018    00000LS 00000160JEB64          0000000000000000          
87095501011SG5618         56"-18GA X  96"LONG SPIRL GALV00002          E C1EA00309520     00000000 0000001N 0               0000LC100020115SG5618+96      0000310000300000          
87095501011T4             18/18/10 45 24GA LATERAL      00001          E H1EA00041500     00000000       1N 000041500       0000LH 00000136T424181810     0000000000300000          
87095501011JEB24          24"-16GA BARREL CLAMP GALV    00022          E S EA00006800     00000000       1N9000091000      00000LS 00000160JEB24          0000000000000000          
87095501111RT22           67/15 ON 56"RD 22GA REG. T.O. 00006          E H1EA00094300     00000000 0000001N 000094300       0000LH100010053RT671556       0000310000000000          
87095501111T424202012     20/20/12 45 24GA LATERAL      00001          E H1EA00049150     00000000       1N 000049150       0000LH 00000136T424202012     0000000000300000          
87095501112JEFI64         64" EZ FLANGE INSTALLED       00001          E S EA00072000     00000000 0000001N900148000018    00000LS 00000164JEFI64         0000000000000000          
87095501211RT22           67/15 ON 46"RD 22GA REG. T.O. 00010          E H1EA00094300     00000000 0000001N 000094300       0000LH100010053RT671546       0000310000000000          
87095501211T4             20/20/10 45 24GA LATERAL      00001          E H1EA00043400     00000000       1N 000043400       0000LH 00000136T424202010     0000000000300000          
87095501212JEFI64         64" EZ FLANGE INSTALLED       00001          E S EA00072000     00000000 0000001N900148000018    00000LS 00000164JEFI64         0000000000000000          
87095501311RT22           67/15 ON 56"RD 22GA REG. T.O. 00004          E H1EA00094300     00000000 0000001N 000094300       0000LH100010053RT671556       0000310000000000          
87095501311T424222212     22/22/12 45 24GA LATERAL      00001          E H1EA00051000     00000000       1N 000051000       0000LH100000136T424222212     0000000000300000          
87095501312JEB64          64"-16GA BARREL CLAMP GALV    00001          E S EA00026100     00000000 0000001N900148000018    00000LS 00000160JEB64          0000000000000000          
87095501411RT22           67/15 ON 36"RD 22GA REG. T.O. 00002          E H1EA00094300     00000000 0000001N 000094300       0000LH100010053RT671536       0000310000000000          
87095501411T4             24/24/8 45 22GA LATERAL       00001          E H1EA00052600     00000000       1N 000052600       0000LH 00000136T422242408     0000000000300000          
87095501411JEFI26         26" EZ FLANGE INSTALLED       00018          E S EA00025000     00000000       1N9000116800      00000LS 00000164JEFI26         0000000000000000          
87095501511RT22           67/15 ON 56"RD 22GA REG. T.O. 00014          E H1EA00094300     00000000 0000001N 000094300       0000LH100010053RT671556       0000310000000000          
87095501511T424242414     24/24/14 45 24GA LATERAL      00001          E H1EA00062050     00000000       1N 000062050       0000LH 00000136T424242414     0000000000300000          
87095501511JEFI26         26" EZ FLANGE INSTALLED       00018          E S EA00025000     00000000       1N9000116800      00000LS 00000164JEFI26         0000000000000000          
87095501611RT22           67/15 ON 44"RD 22GA REG. T.O. 00008          E H1EA00094300     00000000 0000001N 000094300       0000LH100020053RT671544       0000310000000000          
87095501611T424242418     24/24/18 45 24GA LATERAL      00001          E H1EA00076350     00000000       1N 000076350       0000LH100000136T424242418     0000000000300000          
87095501611JEB26          26"-16GA BARREL CLAMP GALV    00018          E S EA00010100     00000000       1N9000116800      00000LS 00000160JEB26          0000000000000000          
87095501711RT22           67/15 ON 36"RD 22GA REG. T.O. 00001          E H1EA00094300     00000000 0000001N 000094300       0000LH100020053RT671536       0000310000000000          
87095501711T422262610     26/26/10 45 22GA LATERAL      00003          E H1EA00059600     00000000       1N 000059600       0000LH100000136T422262610     0000000000300000          
87095501711JEB14          14"-16GA BARREL CLAMP GALV    00010          E S EA00006800     00000000       1N9000031050      00000LS 00000160JEB14          0000000000000000          
87095501811RT22           67/15 ON 44"RD 22GA REG. T.O. 00006          E H1EA00094300     00000000 0000001N 000094300       0000LH100020053RT671544       0000310000000000          
87095501811T422262610     26/26/10 45 22GA LATERAL      00002          E H1EA00059600     00000000       1N 000059600       0000LH100000136T422262610     0000000000300000          
87095501811JEFI28         28" EZ FLANGE INSTALLED       00003          E S EA00025700     00000000       1N9000125800      00000LS 00000164JEFI28         0000000000000000          
87095501911RT22           67/15 ON 36"RD 22GA REG. T.O. 00002          E H1EA00094300     00000000 0000001N 000094300       0000LH100020053RT671536       0000310000000000          
87095501911T4             26/26/12 45 22GA LATERAL      00001          E H1EA00066300     00000000       1N 000066300       0000LH 00000136T422262612     0000000000300000          
87095501911JEFI28         28" EZ FLANGE INSTALLED       00003          E S EA00025700     00000000       1N9000125800      00000LS 00000164JEFI28         0000000000000000          
87095502011RT22           67/15 ON 56"RD 22GA REG. T.O. 00002          E H1EA00094300     00000000 0000001N 000094300       0000LH100020053RT671556       0000310000000000          
87095502010T422262610     26/26/10 45 22GA LATERAL      00002          E H1EA00059600     00000000       1N 000059600       0000LH100000136T422262610     0000000000300000          
87095502011JEB28          28"-16GA BARREL CLAMP GALV    00003          E S EA00010650     00000000       1N9000125800      00000LS 00000160JEB28          0000000000000000          
87095502112GWF            STANDARD WIRE FEED WELDING    00752          E K3FT00015000     00000000 0000001N 000015000       0000LK3000200  GWF            0000310000000000          
87095502111T4             30/30/14 45 22GA LATERAL      00001          E H1EA00082550     00000000       1N 000082550       0000LH 00000136T422303014     0000000000300000          
87095502111JEFI36         36" EZ FLANGE INSTALLED       00001          E S EA00030400     00000000       1N9000147700      00000LS 00000164JEFI36         0000000000000000          
87095502211R223626        36/26 22GA REDUCER            00001          E F EA00110000     00000000       1N 000110000       0000LF 00000140R223626        0000000000300000          
87095502211T4             30/30/10 45 22GA LATERAL      00002          E H1EA00065150     00000000       1N 000065150       0000LH 00000136T422303010     0000000000300000          
87095502211JEFI36         36" EZ FLANGE INSTALLED       00001          E S EA00030400     00000000       1N9000147700      00000LS 00000164JEFI36         0000000000000000          
87095502311R204636        46/36 20GA REDUCER            00001          E F EA00192000     00000000       1N 000192000       0000LF 00000101R204636        0000000000300000          
87095502311T4             30/30/24 45 22GA LATERAL      00001          E H1EA00128150     00000000       1N 000128150       0000LH 00000136T422303024     0000000000300000          
87095502311JEB36          36"-16GA BARREL CLAMP GALV    00001          E S EA00013500     00000000       1N9000147700      00000LS 00000160JEB36          0000000000000000          
87095502411R18            56/46 18GA REDUCER            00001          E K3EA00296000     00000000 0000001N 000296000       0000LF 000001  R185646        0000000000300000          
87095502410T422343424     34/34/24 45 22GA LATERAL      00001          E H1EA00134450     00000000       1N 000134450       0000LH 00000136T422343424     0000000000300000          
87095502411JEFI26         26" EZ FLANGE INSTALLED       00001          E S EA00025000     00000000       1N9000147700      00000LS 00000164JEFI26         0000000000000000          
87095502511R18            56/46 18GA REDUCER            00001          E K3EA00296000     00000000 0000001N 000296000       0000LF 000001  R185646        0000000000300000          
87095502511T4             36/36/28 45 22GA LATERAL      00002          E H1EA00158700     00000000       1N 0               0000LH 00000136T422363628     0000000000300000          
87095502511JEB26          26"-16GA BARREL CLAMP GALV    00001          E S EA00010100     00000000       1N9000147700      00000LS 00000160JEB26          0000000000000000          
87095502611RW16           64/58 16GA WELD REDUCER       00001          E K3EA00528000     00000000 0000001N 00052800018     0000LK 000001  RW166458       0000000000300000          
87095502611T4             36/36/10 45 22GA LATERAL      00001          E H1EA00074600     00000000       1N 000074600       0000LH 00000136T422363610     0000000000300000          
87095502611JEFI30         30" EZ FLANGE INSTALLED       00014          E S EA00026650     00000000       1N9000134700      00000LS 00000164JEFI30         0000000000000000          
87095502712EC2622S        26" END CAP 22GA SE GALV      00001          E H1EA00036350     00000000 0007281N 000036350       0000LH 00000110EC2622S        0000000000300000          
87095502711T422363636     36/36/36 45 22GA LATERAL      00001          E H1EA00215700     00000000       1N 000215700       0000LH100000136T422363636     0000000000300000          
87095502711JEFI30         30" EZ FLANGE INSTALLED       00014          E S EA00026650     00000000       1N9000134700      00000LS 00000164JEFI30         0000000000000000          
87095502812EC2622S        26" END CAP 22GA SE GALV      00001          E H1EA00036350     00000000 0007281N 000036350       0000LH 00000110EC2622S        0000000000300000          
87095502811T4             38/38/22 45 22GA LATERAL      00001          E H1EA00129150     00000000       1N 000129150       0000LH 00000136T422383822     0000000000300000          
87095502811JEB30          30"-16GA BARREL CLAMP GALV    00014          E S EA00011300     00000000       1N9000134700      00000LS 00000160JEB30          0000000000000000          
87095502912EC4620S        46"-20GA END CAP SE GALV      00001          E K3EA00122850     00000000       1N 000122850       0000LK 00000106EC4620S        0000000000300000          
87095502911T4             38/38/26 45 22GA LATERAL      00001          E H1EA00149250     00000000       1N 000149250       0000LH 00000136T422383826     0000000000300000          
87095502911JEFI64         64" EZ FLANGE INSTALLED       00001          E S EA00072000     00000000       1N900078000018    00000LS 00000164JEFI64         0000000000000000          
87095503010GE269022       26" 90 22GA GORELOCK ELL GALV 00001          E F EA00112350     00000000       1N 000112350       0000LF 00060131GE269022       0000320000300000          
87095503011T4             40/40/20 45 22GA LATERAL      00001          E H1EA00123150     00000000       1N 000123150       0000LH 00000136T422404020     0000000000300000          
87095503011JEFI64         64" EZ FLANGE INSTALLED       00001          E S EA00072000     00000000       1N900078000018    00000LS 00000164JEFI64         0000000000000000          
87095503110GE269022       26" 90 22GA GORELOCK ELL GALV 00001          E F EA00112350     00000000       1N 000112350       0000LF 00060131GE269022       0000320000300000          
87095503111T4             44/44/30 45 22GA LATERAL      00001          E H1EA00183700     00000000       1N 000183700       0000LH 00000136T422444430     0000000000300000          
87095503111JEB64          64"-16GA BARREL CLAMP GALV    00001          E S EA00026100     00000000       1N900078000018    00000LS 00000160JEB64          0000000000000000          
87095503210GA264522       26" 45 22GA GORELOCK ANG GALV 00001          E F EA00079700     00000000       1N 000079700       0000LF 00060135GA264522       0000320000300000          
87095503211T4             54/54/20 45 18GA LATERAL      00001          E K3EA00307310     00000000       1N 00030731018     0000LK 00000136T418545420     0000000000300000          
87095503211JEFI64         64" EZ FLANGE INSTALLED       00001          E S EA00072000     00000000       1N900078000018    00000LS 00000164JEFI64         0000000000000000          
87095503310GA564518       56"45 18GA GORELOCK ANGLE GALV00001          E F EA00555000     00000000 0000001N 000555000       0000LF 000601  GA564518       0000320000300000          
87095503311T4             54/54/34 45 18GA LATERAL      00001          E K3EA00453000     00000000       1N 00045300018     0000LK 00000136T418545434     0000000000300000          
87095503311JEB64          64"-16GA BARREL CLAMP GALV    00001          E S EA00026100     00000000       1N900078000018    00000LS 00000160JEB64          0000000000000000          
87095503410GA564518       56"45 18GA GORELOCK ANGLE GALV00001          E F EA00555000     00000000 0000001N 000555000       0000LF 000601  GA564518       0000320000300000          
87095503411T4             56/56/38 45 18GA LATERAL      00001          E K3EA00501860     00000000       1N 00050186018     0000LK 00000136T418565638     0000000000300000          
87095503411JEFI34         34" EZ FLANGE INSTALLED       00016          E S EA00029200     00000000       1N9000152700      00000LS 00000164JEFI34         0000000000000000          
87095503510GA564518       56"45 18GA GORELOCK ANGLE GALV00001          E F EA00555000     00000000 0000001N 000555000       0000LF 000601  GA564518       0000320000300000          
87095503511SG0626         06"-26GA X 10'SPIRAL PIPE GALV00002          E C1EA00019600     00000000 0000001N 000019600       0000LC 00000111SG062610       0000000000300000          
87095503511JEFI34         34" EZ FLANGE INSTALLED       00016          E S EA00029200     00000000       1N9000152700      00000LS 00000164JEFI34         0000000000000000          
87095503610GE569018       56" 90 18GA GORELOCK ELL GALV 00001          E F EA01212750     00000000 0000001N 001212750       0000LF 00060133GE569018       0000320000300000          
87095503611SG0826         08"-26GA X 10'SPIRAL PIPE GALV00024          E C1EA00026100     00000000 0000001N 000026100       0000LC 00000111SG082610       0000000000300000          
87095503611JEB34          34"-16GA BARREL CLAMP GALV    00016          E S EA00012600     00000000       1N9000152700      00000LS 00000160JEB34          0000000000000000          
87095503710GE569018       56" 90 18GA GORELOCK ELL GALV 00001          E F EA01212750     00000000 0000001N 001212750       0000LF 00060133GE569018       0000320000300000          
87095503711SG1026         10"-26GA X 10'SPIRAL PIPE GALV00055          E C1EA00032600     00000000 0000001N 000032600       0000LC 00000111SG102610       0000000000300000          
87095503711JEB14          14"-16GA BARREL CLAMP GALV    00010          E S EA00006800     00000000       1N9000045500      00000LS 00000160JEB14          0000000000000000          
87095503810GA584518       58" 45 18GA GORELOCK ANG GALV 00001          E F EA00695000     00000000 0000001N 000695000       0000LF 000601  GA584518       0000320000300000          
87095503811SG1226         12"-26GA X 10'SPIRAL PIPE GALV00016          E C1EA00039000     00000000 0000001N 000039000       0000LC 00000111SG122610       0000000000300000          
87095503811JEFI36         36" EZ FLANGE INSTALLED       00022          E S EA00030400     00000000       1N9000161700      00000LS 00000164JEFI36         0000000000000000          
87095503910GA584518       58" 45 18GA GORELOCK ANG GALV 00001          E F EA00695000     00000000 0000001N 000695000       0000LF 000601  GA584518       0000320000300000          
87095503911SG1426         14"-26GA X 10'SPIRAL PIPE GALV00028          E C1EA00045500     00000000       1N 000045500       0000LC 00000111SG142610       0000000000300000          
87095503911JEFI36         36" EZ FLANGE INSTALLED       00022          E S EA00030400     00000000       1N9000161700      00000LS 00000164JEFI36         0000000000000000          
87095504010GA584518       58" 45 18GA GORELOCK ANG GALV 00002          E F EA00695000     00000000 0000001N 000695000       0000LF 000601  GA584518       0000320000300000          
87095504011SG1624         16"-24GA X 10'SPIRAL PIPE GALV00001          E C1EA00060700     00000000       1N 000060700       0000LC 00000112SG162410       0000000000300000          
87095504011JEB36          36"-16GA BARREL CLAMP GALV    00022          E S EA00013500     00000000       1N9000161700      00000LS 00000160JEB36          0000000000000000          
87095504110GA584518       58" 45 18GA GORELOCK ANG GALV 00002          E F EA00695000     00000000 0000001N 000695000       0000LF 000601  GA584518       0000320000300000          
87095504111SG1824         18"-24GA X 10'SPIRAL PIPE GALV00008          E C1EA00068200     00000000       1N 000068200       0000LC 00000112SG182410       0000000000300000          
87095504111JEFI26         26" EZ FLANGE INSTALLED       00014          E S EA00025000     00000000       1N9000116800      00000LS 00000164JEFI26         0000000000000000          
87095504210GA584518       58" 45 18GA GORELOCK ANG GALV 00002          E F EA00695000     00000000 0000001N 000695000       0000LF 000601  GA584518       0000320000300000          
87095504211SG2024         20"-24GA X 10'SPIRAL PIPE GALV00018          E C1EA00075800     00000000       1N 000075800       0000LC 00000112SG202410       0000000000300000          
87095504211JEFI26         26" EZ FLANGE INSTALLED       00014          E S EA00025000     00000000       1N9000116800      00000LS 00000164JEFI26         0000000000000000          
87095504310GA584518       58" 45 18GA GORELOCK ANG GALV 00002          E F EA00695000     00000000 0000001N 000695000       0000LF 000601  GA584518       0000320000300000          
87095504311SG2224         22"-24GA X 10'SPIRAL PIPE GALV00022          E C1EA00083400     00000000       1N 000083400       0000LC 00000112SG222410       0000000000300000          
87095504311JEB26          26"-16GA BARREL CLAMP GALV    00014          E S EA00010100     00000000       1N9000116800      00000LS 00000160JEB26          0000000000000000          
87095504412EG644516       64"-45 16GA GOR WLD ANG GALV  00001          E K3EA01480000     00000000 0000001N 00148000018     0000LK300000125EG644516       0000000000300000          
87095504411SG2424         24"-24GA X 10'SPIRAL PIPE GALV00022          E C1EA00091000     00000000       1N 000091000       0000LC 00000112SG242410       0000000000300000          
87095504411JEFI38         38" EZ FLANGE INSTALLED       00013          E S EA00031750     00000000       1N9000203800      00000LS 00000164JEFI38         0000000000000000          
87095504512EG644516       64"-45 16GA GOR WLD ANG GALV  00001          E K3EA01480000     00000000 0000001N 00148000018     0000LK300000125EG644516       0000000000300000          
87095504511SG2622         26"-22GA X 10'SPIRAL PIPE GALV00018          E C1EA00116800     00000000       1N 000116800       0000LC 00000113SG262210       0000000000300000          
87095504511JEFI38         38" EZ FLANGE INSTALLED       00013          E S EA00031750     00000000       1N9000203800      00000LS 00000164JEFI38         0000000000000000          
87095504611SC9241426      14 ON 26 90 24GA CONICAL SADDL00010          E H1EA00031050     00000000       1N 000031050       0000LH 00000130SC9241426      0000000000300000          
87095504611SG2822         28"-22GA X 10'SPIRAL PIPE GALV00003          E C1EA00125800     00000000       1N 000125800       0000LC 00000113SG282210       0000000000300000          
87095504611JEB38          38"-16GA BARREL CLAMP GALV    00013          E S EA00014400     00000000       1N9000203800      00000LS 00000160JEB38          0000000000000000          
87095504711T4             36/36/26 45 22GA LATERAL      00001          E H1EA00147700     00000000       1N 000147700       0000LH 00000136T422363626     0000000000300000          
87095504711SG3022         30"-22GA X 10'SPIRAL PIPE GALV00014          E C1EA00134700     00000000       1N 000134700       0000LC 00000113SG302210       0000000000300000          
87095504711JEFI36         36" EZ FLANGE INSTALLED       00002          E S EA00030400     00000000       1N9000161700      00000LS 00000164JEFI36         0000000000000000          
87095504811T9             64/64/64 90 16GA TEE          00001          E K3EA00780000     00000000       1N 00078000018     0000LK 00000136T916646464     0000000000300000          
87095504811SG3422         34"-22GA X 10'SPIRAL PIPE GALV00016          E C1EA00152700     00000000       1N 000152700       0000LC 00000113SG342210       0000000000300000          
87095504811JEFI36         36" EZ FLANGE INSTALLED       00002          E S EA00030400     00000000       1N9000161700      00000LS 00000164JEFI36         0000000000000000          
87095504911SG1426         14"-26GA X 10'SPIRAL PIPE GALV00010          E C1EA00045500     00000000       1N 000045500       0000LC 00000111SG142610       0000000000300000          
87095504911SG3622         36"-22GA X 10'SPIRAL PIPE GALV00022          E C1EA00161700     00000000       1N 000161700       0000LC 00000113SG362210       0000000000300000          
87095504911JEB36          36"-16GA BARREL CLAMP GALV    00002          E S EA00013500     00000000       1N9000161700      00000LS 00000160JEB36          0000000000000000          
87095505011SG2622         26"-22GA X 10'SPIRAL PIPE GALV00014          E C1EA00116800     00000000       1N 000116800       0000LC 00000113SG262210       0000000000300000          
87095505011SG3820         38"-20GA X 10'SPIRAL PIPE GALV00013          E C1EA00203800     00000000       1N 000203800       0000LC 00000114SG382010       0000000000300000          
87095505011JEFI40         40" EZ FLANGE INSTALLED       00011          E S EA00032700     00000000       1N9000214500      00000LS 00000164JEFI40         0000000000000000          
87095505111SG3622         36"-22GA X 10'SPIRAL PIPE GALV00002          E C1EA00161700     00000000       1N 000161700       0000LC 00000113SG362210       0000000000300000          
87095505111SG4020         40"-20GA X 10'SPIRAL PIPE GALV00011          E C1EA00214500     00000000       1N 000214500       0000LC 00000114SG402010       0000000000300000          
87095505111JEFI40         40" EZ FLANGE INSTALLED       00011          E S EA00032700     00000000       1N9000214500      00000LS 00000164JEFI40         0000000000000000          
87095505211SG4620         46"-20GA X 10'SPIRAL PIPE GALV00017          E C1EA00246700     00000000       1N 000246700       0000LC 00000114SG462010       0000000000300000          
87095505211SG4420         44"-20GA X 10'SPIRAL PIPE GALV00004          E C1EA00235900     00000000       1N 000235900       0000LC 00000114SG442010       0000000000300000          
87095505211JEB40          40"-16GA BARREL CLAMP GALV    00011          E S EA00015300     00000000       1N9000214500      00000LS 00000160JEB40          0000000000000000          
87095505311SG5618         56"-18GA X 10'SPIRAL PIPE GALV00039          E C1EA00386900     00000000 0000001N 000386900       0000LC 00000115SG561810       0000000000300000          
87095505311SG5418         54"-18GA X 10'SPIRAL PIPE GALV00020          E C1EA00373000     00000000 0000001N 000373000       0000LC 00000115SG541810       0000000000300000          
87095505311JEFI46         46" EZ FLANGE INSTALLED       00017          E S EA00035500     00000000       1N9000246700      00000LS 00000164JEFI46         0000000000000000          
87095505411SG5818         58"-18GA X 10'SPIRAL PIPE GALV00024          E C1EA00400700     00000000 0000001N 000400700       0000LC 00000115SG581810       0000000000300000          
87095505411SG5618         56"-18GA X 10'SPIRAL PIPE GALV00007          E C1EA00386900     00000000 0000001N 000386900       0000LC 00000115SG561810       0000000000300000          
87095505411JEFI46         46" EZ FLANGE INSTALLED       00017          E S EA00035500     00000000       1N9000246700      00000LS 00000164JEFI46         0000000000000000          
87095505511SG6418         64"-18GA X 10'SPIRAL PIPE GALV00001          E C1EA00521200     00000000 0000001N 000521200       0000LC 00000115SG641810       0000000000300000          
87095505512DSC            LESS QUANTITY DISCOUNT/SPIRAL 0000q          E C1NT20545700     00000000 0000001N 020545700      10000L  00000099DSC            0000000000000000          
87095505511JEB46          46"-16GA BARREL CLAMP GALV    00017          E S EA00018000     00000000       1N9000246700      00000LS 00000160JEB46          0000000000000000          
87095505612R1006          10/6 24GA PRESSED REDUCER     00001          E H3EA00014700     00000000 0001701S 000014700       0000LI 000001  R1006          0000000000300000          
87095505611JEFI44         44" EZ FLANGE INSTALLED       00004          E S EA00034300     00000000       1N9000235900      00000LS 00000164JEFI44         0000000000000000          
87095505712R1008          10/8 24GA PRESSED REDUCER     00001          E H3EA00014700     00000000 0001851S 000014700       0000LI 000001  R1008          0000000000300000          
87095505711JEFI44         44" EZ FLANGE INSTALLED       00004          E S EA00034300     00000000       1N9000235900      00000LS 00000164JEFI44         0000000000000000          
87095505812R1208          12/8 24GA PRESSED REDUCER     00001          E H3EA00016800     00000000 0002401S 000016800       0000LI 000001  R1208          0000000000300000          
87095505811JEB44          44"-16GA BARREL CLAMP GALV    00004          E S EA00017100     00000000       1N9000235900      00000LS 00000160JEB44          0000000000000000          
87095505912R1412          14/12 22GA PRESSED REDUCER    00001          E H3EA00018000     00000000 0002351S 000018000       0000LI 000001  R1412          0000000000300000          
87095505911JEFI56         56" EZ FLANGE INSTALLED       00039          E S EA00062400     00000000 0000001N9000386900      00000LS 00000164JEFI56         0000000000000000          
87095506012R1410          14/10 22GA PRESSED REDUCER    00001          E H3EA00018000     00000000 0002751S 000018000       0000LI 000001  R1410          0000000000300000          
87095506011JEFI56         56" EZ FLANGE INSTALLED       00039          E S EA00062400     00000000 0000001N9000386900      00000LS 00000164JEFI56         0000000000000000          
87095506110R1410          14/10 22GA PRESSED REDUCER    00002          E H3EA00018000     00000000 0002751S 000018000       0000LI 000001  R1410          0000000000300000          
87095506111JEB56          56"-16GA BARREL CLAMP GALV    00039          E S EA00022500     00000000 0000001N9000386900      00000LS 00000160JEB56          0000000000000000          
87095506211R241810        18/10 24GA REDUCER            00001          E F EA00030000     00000000       1N 000030000       0000LF 00000116R241810        0000000000300000          
87095506211JEFI54         54" EZ FLANGE INSTALLED       00020          E S EA00045850     00000000 0000001N9000373000      00000LS 00000164JEFI54         0000000000000000          
87095506311R242018        20/18 24GA REDUCER            00001          E F EA00035000     00000000       1N 000035000       0000LF 00000116R242018        0000000000300000          
87095506311JEFI54         54" EZ FLANGE INSTALLED       00020          E S EA00045850     00000000 0000001N9000373000      00000LS 00000164JEFI54         0000000000000000          
87095506411R242016        20/16 24GA REDUCER            00001          E F EA00035000     00000000       1S 000035000       0000LI 00000116R242016        0000000000300000          
87095506411JEB54          54"-16GA BARREL CLAMP GALV    00020          E S EA00021600     00000000 0000001N9000373000      00000LS 00000160JEB54          0000000000000000          
87095506511R222418        24/18 22GA REDUCER            00001          E F EA00058000     00000000       1N 000058000       0000LF 00000140R222418        0000000000300000          
87095506511JEFI58         58" EZ FLANGE INSTALLED       00024          E S EA00064800     00000000 0000001N9000400700      00000LS 00000164JEFI58         0000000000000000          
87095506611R222420        24/20 22GA REDUCER            00001          E F EA00058000     00000000       1N 000058000       0000LF 00000140R222420        0000000000300000          
87095506611JEFI58         58" EZ FLANGE INSTALLED       00024          E S EA00064800     00000000 0000001N9000400700      00000LS 00000164JEFI58         0000000000000000          
87095506711R222614        26/14 22GA REDUCER            00001          E F EA00062000     00000000       1N 000062000       0000LF 00000140R222614        0000000000300000          
87095506711JEB58          58"-16GA BARREL CLAMP GALV    00024          E S EA00023400     00000000 0000001N9000400700      00000LS 00000160JEB58          0000000000000000          
87095506811R222612        26/12 22GA REDUCER            00001          E F EA00062000     00000000       1N 000062000       0000LF 00000140R222612        0000000000300000          
87095506811JEFI56         56" EZ FLANGE INSTALLED       00007          E S EA00062400     00000000 0000001N9000386900      00000LS 00000164JEFI56         0000000000000000          
87095506911R222622        26/22 22GA REDUCER            00001          E F EA00062000     00000000       1N 000062000       0000LF 00000140R222622        0000000000300000          
87095506911JEFI56         56" EZ FLANGE INSTALLED       00007          E S EA00062400     00000000 0000001N9000386900      00000LS 00000164JEFI56         0000000000000000          
87095507011R223014        30/14 22GA REDUCER            00001          E F EA00080000     00000000       1N 000080000       0000LF 00000140R223014        0000000000300000          
87095507011JEB56          56"-16GA BARREL CLAMP GALV    00007          E S EA00022500     00000000 0000001N9000386900      00000LS 00000160JEB56          0000000000000000          
87095507111R223426        34/26 22GA REDUCER            00001          E F EA00100000     00000000       1N 000100000       0000LF 00000140R223426        0000000000300000          
87095507111JEFI64         64" EZ FLANGE INSTALLED       00001          E S EA00072000     00000000 0000001N9000521200      00000LS 00000164JEFI64         0000000000000000          
87095507211R223620        36/20 22GA REDUCER            00001          E F EA00110000     00000000       1N 000110000       0000LF 00000140R223620        0000000000300000          
87095507211JEFI64         64" EZ FLANGE INSTALLED       00001          E S EA00072000     00000000 0000001N9000521200      00000LS 00000164JEFI64         0000000000000000          
87095507311R223834        38/34 22GA REDUCER            00001          E F EA00120000     00000000       1N 000120000       0000LF 00000140R223834        0000000000300000          
87095507311JEB64          64"-16GA BARREL CLAMP GALV    00001          E S EA00026100     00000000 0000001N9000521200      00000LS 00000160JEB64          0000000000000000          
87095507411R224036        40/36 22GA REDUCER            00001          E F EA00130000     00000000       1N 000130000       0000LF 00000140R224036        0000000000300000          
87095507412JEB06          06"-16GA BARREL CLAMP GALV    00001          E S EA00006800     00000000 0001701N9000014700      00000LS 00000160JEB06          0000000000000000          
87095507511R224436        44/36 22GA REDUCER            00001          E F EA00150000     00000000       1N 000150000       0000LF 00000140R224436        0000000000300000          
87095507512JEB08          08"-16GA BARREL CLAMP GALV    00001          E S EA00006800     00000000 0001851N9000014700      00000LS 00000160JEB08          0000000000000000          
87095507611R18            54/44 18GA REDUCER            00001          E K3EA00288000     00000000 0000001N 000288000       0000LF 000001  R185444        0000000000300000          
87095507612JEB08          08"-16GA BARREL CLAMP GALV    00001          E S EA00006800     00000000 0002401N9000016800      00000LS 00000160JEB08          0000000000000000          
87095507711R18            56/40 18GA REDUCER            00001          E K3EA00296000     00000000 0000001N 000296000       0000LF 000001  R185640        0000000000300000          
87095507712JEB12          12"-16GA BARREL CLAMP GALV    00001          E S EA00006800     00000000 0002351N9000018000      00000LS 00000160JEB12          0000000000000000          
87095507812PEC10S         10" 24GA PRESSED END CAP W/SP 00001          E H3EA00009640     00000000 0001281S 000009640       0000LI 000001  PEC10S         0000000000300000          
87095507812JEB10          10"-16GA BARREL CLAMP GALV    00001          E S EA00006800     00000000 0002751N9000018000      00000LS 00000160JEB10          0000000000000000          
87095507912PEC14S         14" 22GA PRESSED END CAP W/SP 00001          E H3EA00016460     00000000 0001951S 000016460       0000LI 000001  PEC14S         0000000000300000          
87095507910JEB10          10"-16GA BARREL CLAMP GALV    00002          E S EA00006800     00000000 0002751N9000018000      00000LS 00000160JEB10          0000000000000000          
87095508012EC3622S        36"-22GA END CAP SE GALV      00001          E H1EA00055650     00000000       1N 000055650       0000LH 00000110EC3622S        0000000000300000          
87095508011JEB10          10"-16GA BARREL CLAMP GALV    00001          E S EA00006800     00000000       1N9000030000      00000LS 00000160JEB10          0000000000000000          
87095508110GE089024       6" 90 24GA GORELOCK ELL GALV  00001          E F EA00046200     00000000       1N 000046200       0000LF 00060130GE089024       0000320000300000          
87095508111JEB18          18"-16GA BARREL CLAMP GALV    00001          E S EA00006800     00000000       1N9000035000      00000LS 00000160JEB18          0000000000000000          
87095508210GE089024       8" 90 24GA GORELOCK ELL GALV  00001          E F EA00046200     00000000       1N 000046200       0000LF 00060130GE089024       0000320000300000          
87095508211JEB16          16"-16GA BARREL CLAMP GALV    00001          E S EA00006800     00000000       1N9000035000      00000LS 00000160JEB16          0000000000000000          
87095508310GA084524       8" 45 24GA GORELOCK ANG GALV  00001          E F EA00032350     00000000       1N 0               0000LF 00060134GA084524       0000320000300000          
87095508311JEB18          18"-16GA BARREL CLAMP GALV    00001          E S EA00006800     00000000       1N9000058000      00000LS 00000160JEB18          0000000000000000          
87095508410GE089024       8" 90 24GA GORELOCK ELL GALV  00001          E F EA00046200     00000000       1N 000046200       0000LF 00060130GE089024       0000320000300000          
87095508411JEB20          20"-16GA BARREL CLAMP GALV    00001          E S EA00006800     00000000       1N9000058000      00000LS 00000160JEB20          0000000000000000          
87095508510GE089024       8" 90 24GA GORELOCK ELL GALV  00001          E F EA00046200     00000000       1N 000046200       0000LF 00060130GE089024       0000320000300000          
87095508511JEFI26         26" EZ FLANGE INSTALLED       00001          E S EA00025000     00000000       1N9000062000      00000LS 00000164JEFI26         0000000000000000          
87095508610GA084524       8" 45 24GA GORELOCK ANG GALV  00001          E F EA00032350     00000000       1N 000032350       0000LF 00060134GA084524       0000320000300000          
87095508611JEB14          14"-16GA BARREL CLAMP GALV    00001          E S EA00006800     00000000       1N9000062000      00000LS 00000160JEB14          0000000000000000          
87095508710GE089024       8" 90 24GA GORELOCK ELL GALV  00001          E F EA00046200     00000000       1N 000046200       0000LF 00060130GE089024       0000320000300000          
87095508711JEFI26         26" EZ FLANGE INSTALLED       00001          E S EA00025000     00000000       1N9000062000      00000LS 00000164JEFI26         0000000000000000          
87095508810GE089024       8" 90 24GA GORELOCK ELL GALV  00001          E F EA00046200     00000000       1N 000046200       0000LF 00060130GE089024       0000320000300000          
87095508811JEB12          12"-16GA BARREL CLAMP GALV    00001          E S EA00006800     00000000       1N9000062000      00000LS 00000160JEB12          0000000000000000          
87095508910GE089024       8" 90 24GA GORELOCK ELL GALV  00001          E F EA00046200     00000000       1N 000046200       0000LF 00060130GE089024       0000320000300000          
87095508911JEFI26         26" EZ FLANGE INSTALLED       00001          E S EA00025000     00000000       1N9000062000      00000LS 00000164JEFI26         0000000000000000          
87095509010GE089024       8" 90 24GA GORELOCK ELL GALV  00001          E F EA00046200     00000000       1N 000046200       0000LF 00060130GE089024       0000320000300000          
87095509011JEB22          22"-16GA BARREL CLAMP GALV    00001          E S EA00006800     00000000       1N9000062000      00000LS 00000160JEB22          0000000000000000          
87095509110GA084524       8" 45 24GA GORELOCK ANG GALV  00002          E F EA00032350     00000000       1N 000032350       0000LF 00060134GA084524       0000320000300000          
87095509111JEFI30         30" EZ FLANGE INSTALLED       00001          E S EA00026650     00000000       1N9000080000      00000LS 00000164JEFI30         0000000000000000          
87095509210GE089024       8" 90 24GA GORELOCK ELL GALV  00001          E F EA00046200     00000000       1N 000046200       0000LF 00060130GE089024       0000320000300000          
87095509211JEB14          14"-16GA BARREL CLAMP GALV    00001          E S EA00006800     00000000       1N9000080000      00000LS 00000160JEB14          0000000000000000          
87095509310GE109024       10" 90 24GA GORELOCK ELL GALV 00002          E F EA00049700     00000000       1S 000049700       0000LI 00060130GE109024       0000320000300000          
87095509311JEFI34         34" EZ FLANGE INSTALLED       00001          E S EA00029200     00000000       1N9000100000      00000LS 00000164JEFI34         0000000000000000          
87095509410GA104524       10" 45 24GA GORELOCK ANG GALV 00001          E F EA00034650     00000000       1N 000034650       0000LF 00060134GA104524       0000320000300000          
87095509411JEFI26         26" EZ FLANGE INSTALLED       00001          E S EA00025000     00000000       1N9000100000      00000LS 00000164JEFI26         0000000000000000          
87095509510GE109024       10" 90 24GA GORELOCK ELL GALV 00002          E F EA00049700     00000000       1S 000049700       0000LI 00060130GE109024       0000320000300000          
87095509511JEB26          26"-16GA BARREL CLAMP GALV    00001          E S EA00010100     00000000       1N9000100000      00000LS 00000160JEB26          0000000000000000          
87095509610GE109024       10" 90 24GA GORELOCK ELL GALV 00001          E F EA00049700     00000000       1S 000049700       0000LI 00060130GE109024       0000320000300000          
87095509611JEFI36         36" EZ FLANGE INSTALLED       00001          E S EA00030400     00000000       1N9000110000      00000LS 00000164JEFI36         0000000000000000          
87095509710GA104524       10" 45 24GA GORELOCK ANG GALV 00001          E F EA00034650     00000000       1N 000034650       0000LF 00060134GA104524       0000320000300000          
87095509711JEB20          20"-16GA BARREL CLAMP GALV    00001          E S EA00006800     00000000       1N9000110000      00000LS 00000160JEB20          0000000000000000          
87095509810GA104524       10" 45 24GA GORELOCK ANG GALV 00001          E F EA00034650     00000000       1N 000034650       0000LF 00060134GA104524       0000320000300000          
87095509811JEFI38         38" EZ FLANGE INSTALLED       00001          E S EA00031750     00000000       1N9000120000      00000LS 00000164JEFI38         0000000000000000          
87095509910GE109024       10" 90 24GA GORELOCK ELL GALV 00001          E F EA00049700     00000000       1S 000049700       0000LI 00060130GE109024       0000320000300000          
87095509911JEFI34         34" EZ FLANGE INSTALLED       00001          E S EA00029200     00000000       1N9000120000      00000LS 00000164JEFI34         0000000000000000          
87095510010GE109024       10" 90 24GA GORELOCK ELL GALV 00001          E F EA00049700     00000000       1S 000049700       0000LI 00060130GE109024       0000320000300000          
87095510011JEB34          34"-16GA BARREL CLAMP GALV    00001          E S EA00012600     00000000       1N9000120000      00000LS 00000160JEB34          0000000000000000          
87095510110GA104524       10" 45 24GA GORELOCK ANG GALV 00001          E F EA00034650     00000000       1N 000034650       0000LF 00060134GA104524       0000320000300000          
87095510111JEFI40         40" EZ FLANGE INSTALLED       00001          E S EA00032700     00000000       1N9000130000      00000LS 00000164JEFI40         0000000000000000          
87095510210GE109024       10" 90 24GA GORELOCK ELL GALV 00002          E F EA00049700     00000000       1S 000049700       0000LI 00060130GE109024       0000320000300000          
87095510211JEFI36         36" EZ FLANGE INSTALLED       00001          E S EA00030400     00000000       1N9000130000      00000LS 00000164JEFI36         0000000000000000          
87095510310GA104524       10" 45 24GA GORELOCK ANG GALV 00002          E F EA00034650     00000000       1N 000034650       0000LF 00060134GA104524       0000320000300000          
87095510311JEB36          36"-16GA BARREL CLAMP GALV    00001          E S EA00013500     00000000       1N9000130000      00000LS 00000160JEB36          0000000000000000          
87095510410GA104524       10" 45 24GA GORELOCK ANG GALV 00001          E F EA00034650     00000000       1N 000034650       0000LF 00060134GA104524       0000320000300000          
87095510411JEFI44         44" EZ FLANGE INSTALLED       00001          E S EA00034300     00000000       1N9000150000      00000LS 00000164JEFI44         0000000000000000          
87095510510GE109024       10" 90 24GA GORELOCK ELL GALV 00001          E F EA00049700     00000000       1S 000049700       0000LI 00060130GE109024       0000320000300000          
87095510511JEFI36         36" EZ FLANGE INSTALLED       00001          E S EA00030400     00000000       1N9000150000      00000LS 00000164JEFI36         0000000000000000          
87095510610GA104524       10" 45 24GA GORELOCK ANG GALV 00001          E F EA00034650     00000000       1N 000034650       0000LF 00060134GA104524       0000320000300000          
87095510611JEB36          36"-16GA BARREL CLAMP GALV    00001          E S EA00013500     00000000       1N9000150000      00000LS 00000160JEB36          0000000000000000          
87095510710GA104524       10" 45 24GA GORELOCK ANG GALV 00001          E F EA00034650     00000000       1N 000034650       0000LF 00060134GA104524       0000320000300000          
87095510711JEFI54         54" EZ FLANGE INSTALLED       00001          E S EA00045850     00000000 0000001N9000288000      00000LS 00000164JEFI54         0000000000000000          
87095510810GE109024       10" 90 24GA GORELOCK ELL GALV 00001          E F EA00049700     00000000       1S 000049700       0000LI 00060130GE109024       0000320000300000          
87095510811JEFI44         44" EZ FLANGE INSTALLED       00001          E S EA00034300     00000000 0000001N9000288000      00000LS 00000164JEFI44         0000000000000000          
87095510910GE109024       10" 90 24GA GORELOCK ELL GALV 00001          E F EA00049700     00000000       1S 000049700       0000LI 00060130GE109024       0000320000300000          
87095510911JEB44          44"-16GA BARREL CLAMP GALV    00001          E S EA00017100     00000000 0000001N9000288000      00000LS 00000160JEB44          0000000000000000          
87095511010GE109024       10" 90 24GA GORELOCK ELL GALV 00001          E F EA00049700     00000000       1S 000049700       0000LI 00060130GE109024       0000320000300000          
87095511011JEFI56         56" EZ FLANGE INSTALLED       00001          E S EA00062400     00000000 0000001N9000296000      00000LS 00000164JEFI56         0000000000000000          
87095511110GE109024       10" 90 24GA GORELOCK ELL GALV 00001          E F EA00049700     00000000       1S 000049700       0000LI 00060130GE109024       0000320000300000          
87095511111JEFI40         40" EZ FLANGE INSTALLED       00001          E S EA00032700     00000000 0000001N9000296000      00000LS 00000164JEFI40         0000000000000000          
87095511210GA104524       10" 45 24GA GORELOCK ANG GALV 00001          E F EA00034650     00000000       1N 000034650       0000LF 00060134GA104524       0000320000300000          
87095511211JEB40          40"-16GA BARREL CLAMP GALV    00001          E S EA00015300     00000000 0000001N9000296000      00000LS 00000160JEB40          0000000000000000          
87095511310GE109024       10" 90 24GA GORELOCK ELL GALV 00001          E F EA00049700     00000000       1S 000049700       0000LI 00060130GE109024       0000320000300000          
87095511310JEB08          08"-16GA BARREL CLAMP GALV    00001          E S EA00006800     00000000       1N9000046200      00000LS 00060160JEB08          0000000000000000          
87095511410GE109024       10" 90 24GA GORELOCK ELL GALV 00001          E F EA00049700     00000000       1S 000049700       0000LI 00060130GE109024       0000320000300000          
87095511410JEB08          08"-16GA BARREL CLAMP GALV    00001          E S EA00006800     00000000       1N9000046200      00000LS 00060160JEB08          0000000000000000          
87095511510GE109024       10" 90 24GA GORELOCK ELL GALV 00001          E F EA00049700     00000000       1S 000049700       0000LI 00060130GE109024       0000320000300000          
87095511510JEB08          08"-16GA BARREL CLAMP GALV    00001          E S EA00006800     00000000       1N90              00000LS 00060160JEB08          0000000000000000          
87095511610GA104524       10" 45 24GA GORELOCK ANG GALV 00001          E F EA00034650     00000000       1N 000034650       0000LF 00060134GA104524       0000320000300000          
87095511610JEB08          08"-16GA BARREL CLAMP GALV    00001          E S EA00006800     00000000       1N9000046200      00000LS 00060160JEB08          0000000000000000          
87095511710GA104524       10" 45 24GA GORELOCK ANG GALV 00001          E F EA00034650     00000000       1N 000034650       0000LF 00060134GA104524       0000320000300000          
87095511710JEB08          08"-16GA BARREL CLAMP GALV    00001          E S EA00006800     00000000       1N9000046200      00000LS 00060160JEB08          0000000000000000          
87095511810GE109024       10" 90 24GA GORELOCK ELL GALV 00001          E F EA00049700     00000000       1S 000049700       0000LI 00060130GE109024       0000320000300000          
87095511810JEB08          08"-16GA BARREL CLAMP GALV    00001          E S EA00006800     00000000       1N9000032350      00000LS 00060160JEB08          0000000000000000          
87095511910GE109024       10" 90 24GA GORELOCK ELL GALV 00001          E F EA00049700     00000000       1S 000049700       0000LI 00060130GE109024       0000320000300000          
87095511910JEB08          08"-16GA BARREL CLAMP GALV    00001          E S EA00006800     00000000       1N9000046200      00000LS 00060160JEB08          0000000000000000          
87095512010GA104524       10" 45 24GA GORELOCK ANG GALV 00002          E F EA00034650     00000000       1N 000034650       0000LF 00060134GA104524       0000320000300000          
87095512010JEB08          08"-16GA BARREL CLAMP GALV    00001          E S EA00006800     00000000       1N9000046200      00000LS 00060160JEB08          0000000000000000          
87095512110GE109024       10" 90 24GA GORELOCK ELL GALV 00001          E F EA00049700     00000000       1S 000049700       0000LI 00060130GE109024       0000320000300000          
87095512110JEB08          08"-16GA BARREL CLAMP GALV    00001          E S EA00006800     00000000       1N9000046200      00000LS 00060160JEB08          0000000000000000          
87095512210GE109024       10" 90 24GA GORELOCK ELL GALV 00001          E F EA00049700     00000000       1S 000049700       0000LI 00060130GE109024       0000320000300000          
87095512210JEB08          08"-16GA BARREL CLAMP GALV    00001          E S EA00006800     00000000       1N9000046200      00000LS 00060160JEB08          0000000000000000          
87095512310GA104524       10" 45 24GA GORELOCK ANG GALV 00001          E F EA00034650     00000000       1N 000034650       0000LF 00060134GA104524       0000320000300000          
87095512310JEB08          08"-16GA BARREL CLAMP GALV    00002          E S EA00006800     00000000       1N9000032350      00000LS 00060160JEB08          0000000000000000          
87095512410GE109024       10" 90 24GA GORELOCK ELL GALV 00001          E F EA00049700     00000000       1S 000049700       0000LI 00060130GE109024       0000320000300000          
87095512410JEB08          08"-16GA BARREL CLAMP GALV    00001          E S EA00006800     00000000       1N9000046200      00000LS 00060160JEB08          0000000000000000          
87095512510GA124524       12" 45 24GA GORELOCK ANG GALV 00001          E F EA00037000     00000000       1S 000037000       0000LI 00060134GA124524       0000320000300000          
87095512510JEB10          10"-16GA BARREL CLAMP GALV    00002          E S EA00006800     00000000       1N9000049700      00000LS 00060160JEB10          0000000000000000          
87095512610GE129024       12" 90 24GA GORELOCK ELL GALV 00001          E F EA00052000     00000000       1S 000052000       0000LI 00060130GE129024       0000320000300000          
87095512610JEB10          10"-16GA BARREL CLAMP GALV    00001          E S EA00006800     00000000       1N9000034650      00000LS 00060160JEB10          0000000000000000          
87095512710GE129024       12" 90 24GA GORELOCK ELL GALV 00001          E F EA00052000     00000000       1S 000052000       0000LI 00060130GE129024       0000320000300000          
87095512710JEB10          10"-16GA BARREL CLAMP GALV    00002          E S EA00006800     00000000       1N9000049700      00000LS 00060160JEB10          0000000000000000          
87095512810GE129024       12" 90 24GA GORELOCK ELL GALV 00001          E F EA00052000     00000000       1S 000052000       0000LI 00060130GE129024       0000320000300000          
87095512810JEB10          10"-16GA BARREL CLAMP GALV    00001          E S EA00006800     00000000       1N9000049700      00000LS 00060160JEB10          0000000000000000          
87095512910GA124524       12" 45 24GA GORELOCK ANG GALV 00001          E F EA00037000     00000000       1S 000037000       0000LI 00060134GA124524       0000320000300000          
87095512910JEB10          10"-16GA BARREL CLAMP GALV    00001          E S EA00006800     00000000       1N9000034650      00000LS 00060160JEB10          0000000000000000          
87095513010GE129024       12" 90 24GA GORELOCK ELL GALV 00001          E F EA00052000     00000000       1S 000052000       0000LI 00060130GE129024       0000320000300000          
87095513010JEB10          10"-16GA BARREL CLAMP GALV    00001          E S EA00006800     00000000       1N9000034650      00000LS 00060160JEB10          0000000000000000          
87095513110GA124524       12" 45 24GA GORELOCK ANG GALV 00001          E F EA00037000     00000000       1S 000037000       0000LI 00060134GA124524       0000320000300000          
87095513110JEB10          10"-16GA BARREL CLAMP GALV    00001          E S EA00006800     00000000       1N9000049700      00000LS 00060160JEB10          0000000000000000          
87095513210GE129024       12" 90 24GA GORELOCK ELL GALV 00001          E F EA00052000     00000000       1S 000052000       0000LI 00060130GE129024       0000320000300000          
87095513210JEB10          10"-16GA BARREL CLAMP GALV    00001          E S EA00006800     00000000       1N9000049700      00000LS 00060160JEB10          0000000000000000          
87095513310GE129024       12" 90 24GA GORELOCK ELL GALV 00001          E F EA00052000     00000000       1S 000052000       0000LI 00060130GE129024       0000320000300000          
87095513310JEB10          10"-16GA BARREL CLAMP GALV    00001          E S EA00006800     00000000       1N9000034650      00000LS 00060160JEB10          0000000000000000          
87095513410GE129024       12" 90 24GA GORELOCK ELL GALV 00001          E F EA00052000     00000000       1S 000052000       0000LI 00060130GE129024       0000320000300000          
87095513410JEB10          10"-16GA BARREL CLAMP GALV    00002          E S EA00006800     00000000       1N9000049700      00000LS 00060160JEB10          0000000000000000          
87095513510GE129024       12" 90 24GA GORELOCK ELL GALV 00001          E F EA00052000     00000000       1S 000052000       0000LI 00060130GE129024       0000320000300000          
87095513510JEB10          10"-16GA BARREL CLAMP GALV    00002          E S EA00006800     00000000       1N9000034650      00000LS 00060160JEB10          0000000000000000          
87095513610GA124524       12" 45 24GA GORELOCK ANG GALV 00001          E F EA00037000     00000000       1S 000037000       0000LI 00060134GA124524       0000320000300000          
87095513610JEB10          10"-16GA BARREL CLAMP GALV    00001          E S EA00006800     00000000       1N9000034650      00000LS 00060160JEB10          0000000000000000          
87095513710GE149024       14" 90 24GA GORELOCK ELL GALV 00001          E F EA00057750     00000000       1S 000057750       0000LI 00060130GE149024       0000320000300000          
87095513710JEB10          10"-16GA BARREL CLAMP GALV    00001          E S EA00006800     00000000       1N9000049700      00000LS 00060160JEB10          0000000000000000          
87095513810GE149024       14" 90 24GA GORELOCK ELL GALV 00001          E F EA00057750     00000000       1S 000057750       0000LI 00060130GE149024       0000320000300000          
87095513810JEB10          10"-16GA BARREL CLAMP GALV    00001          E S EA00006800     00000000       1N9000034650      00000LS 00060160JEB10          0000000000000000          
87095513910GA144524       14" 45 24GA GORELOCK ANG GALV 00001          E F EA00040450     00000000       1S 000040450       0000LF 00060134GA144524       0000320000300000          
87095513910JEB10          10"-16GA BARREL CLAMP GALV    00001          E S EA00006800     00000000       1N9000034650      00000LS 00060160JEB10          0000000000000000          
87095514010GA184524       18" 45 24GA GORELOCK ANG GALV 00001          E F EA00050850     00000000       1S 0               0000LI 00060134GA184524       0000320000300000          
87095514010JEB10          10"-16GA BARREL CLAMP GALV    00001          E S EA00006800     00000000       1N9000049700      00000LS 00060160JEB10          0000000000000000          
87095514110GE189024       18" 90 24GA GORELOCK ELL GALV 00001          E F EA00070950     00000000       1S 000070950       0000LI 00060130GE189024       0000320000300000          
87095514110JEB10          10"-16GA BARREL CLAMP GALV    00001          E S EA00006800     00000000       1N9000049700      00000LS 00060160JEB10          0000000000000000          
87095514210GE209024       20" 90 24GA GORELOCK ELL GALV 00001          E F EA00077700     00000000       1S 000077700       0000LI 00060130GE209024       0000320000300000          
87095514210JEB10          10"-16GA BARREL CLAMP GALV    00001          E S EA00006800     00000000       1N9000049700      00000LS 00060160JEB10          0000000000000000          
87095514310GA204524       20" 45 24GA GORELOCK ANG GALV 00001          E F EA00054100     00000000       1S 000054100       0000LF 00060134GA204524       0000320000300000          
87095514310JEB10          10"-16GA BARREL CLAMP GALV    00001          E S EA00006800     00000000       1N9000049700      00000LS 00060160JEB10          0000000000000000          
87095514410GE209024       20" 90 24GA GORELOCK ELL GALV 00001          E F EA00077700     00000000       1S 000077700       0000LI 00060130GE209024       0000320000300000          
87095514410JEB10          10"-16GA BARREL CLAMP GALV    00001          E S EA00006800     00000000       1N9000034650      00000LS 00060160JEB10          0000000000000000          
87095514510GE209024       20" 90 24GA GORELOCK ELL GALV 00001          E F EA00077700     00000000       1S 000077700       0000LI 00060130GE209024       0000320000300000          
87095514510JEB10          10"-16GA BARREL CLAMP GALV    00001          E S EA00006800     00000000       1N9000049700      00000LS 00060160JEB10          0000000000000000          
87095514610GA204524       20" 45 24GA GORELOCK ANG GALV 00001          E F EA00054100     00000000       1S 000054100       0000LF 00060134GA204524       0000320000300000          
87095514610JEB10          10"-16GA BARREL CLAMP GALV    00001          E S EA00006800     00000000       1N9000049700      00000LS 00060160JEB10          0000000000000000          
87095514710GA204524       20" 45 24GA GORELOCK ANG GALV 00001          E F EA00054100     00000000       1S 000054100       0000LF 00060134GA204524       0000320000300000          
87095514710JEB10          10"-16GA BARREL CLAMP GALV    00001          E S EA00006800     00000000       1N9000049700      00000LS 00060160JEB10          0000000000000000          
87095514810GA204524       20" 45 24GA GORELOCK ANG GALV 00001          E F EA00054100     00000000       1S 000054100       0000LF 00060134GA204524       0000320000300000          
87095514810JEB10          10"-16GA BARREL CLAMP GALV    00001          E S EA00006800     00000000       1N9000034650      00000LS 00060160JEB10          0000000000000000          
87095514910GE229024       22" 90 24GA GORELOCK ELL GALV 00001          E F EA00094500     00000000 0000001N 000094500       0000LF 00060133GE229024       0000320000300000          
87095514910JEB10          10"-16GA BARREL CLAMP GALV    00001          E S EA00006800     00000000       1N9000034650      00000LS 00060160JEB10          0000000000000000          
87095515010GE229024       22" 90 24GA GORELOCK ELL GALV 00001          E F EA00094500     00000000 0000001N 000094500       0000LF 00060133GE229024       0000320000300000          
87095515010JEB10          10"-16GA BARREL CLAMP GALV    00001          E S EA00006800     00000000       1N9000049700      00000LS 00060160JEB10          0000000000000000          
87095515110GE229024       22" 90 24GA GORELOCK ELL GALV 00001          E F EA00094500     00000000 0000001N 000094500       0000LF 00060133GE229024       0000320000300000          
87095515110JEB10          10"-16GA BARREL CLAMP GALV    00001          E S EA00006800     00000000       1N9000049700      00000LS 00060160JEB10          0000000000000000          
87095515210GE249022       24" 90 24GA GORELOCK ELL GALV 00001          E F EA00105000     00000000       1S 000105000       0000LF 00060131GE249024       0000320000300000          
87095515210JEB10          10"-16GA BARREL CLAMP GALV    00002          E S EA00006800     00000000       1N9000034650      00000LS 00060160JEB10          0000000000000000          
87095515310GE249022       24" 90 24GA GORELOCK ELL GALV 00001          E F EA00105000     00000000       1S 000105000       0000LF 00060131GE249024       0000320000300000          
87095515310JEB10          10"-16GA BARREL CLAMP GALV    00001          E S EA00006800     00000000       1N9000049700      00000LS 00060160JEB10          0000000000000000          
87095515410GE249022       24" 90 24GA GORELOCK ELL GALV 00001          E F EA00105000     00000000       1S 000105000       0000LF 00060131GE249024       0000320000300000          
87095515410JEB10          10"-16GA BARREL CLAMP GALV    00001          E S EA00006800     00000000       1N9000049700      00000LS 00060160JEB10          0000000000000000          
87095515510GE249022       24" 90 24GA GORELOCK ELL GALV 00001          E F EA00105000     00000000       1S 000105000       0000LF 00060131GE249024       0000320000300000          
87095515510JEB10          10"-16GA BARREL CLAMP GALV    00001          E S EA00006800     00000000       1N9000034650      00000LS 00060160JEB10          0000000000000000          
87095515610GA244522       24" 45 24GA GORELOCK ANG GALV 00001          E F EA00065900     00000000       1S 000065900       0000LF 00060135GA244524       0000320000300000          
87095515610JEB10          10"-16GA BARREL CLAMP GALV    00001          E S EA00006800     00000000       1N9000049700      00000LS 00060160JEB10          0000000000000000          
87095515710GE269022       26" 90 22GA GORELOCK ELL GALV 00001          E F EA00112350     00000000       1N 000112350       0000LF 00060131GE269022       0000320000300000          
87095515710JEB12          12"-16GA BARREL CLAMP GALV    00001          E S EA00006800     00000000       1N9000037000      00000LS 00060160JEB12          0000000000000000          
87095515810GA264522       26" 45 22GA GORELOCK ANG GALV 00001          E F EA00079700     00000000       1N 000079700       0000LF 00060135GA264522       0000320000300000          
87095515810JEB12          12"-16GA BARREL CLAMP GALV    00001          E S EA00006800     00000000       1N9000052000      00000LS 00060160JEB12          0000000000000000          
87095515910GA264522       26" 45 22GA GORELOCK ANG GALV 00001          E F EA00079700     00000000       1N 000079700       0000LF 00060135GA264522       0000320000300000          
87095515910JEB12          12"-16GA BARREL CLAMP GALV    00001          E S EA00006800     00000000       1N9000052000      00000LS 00060160JEB12          0000000000000000          
87095516010GA264522       26" 45 22GA GORELOCK ANG GALV 00001          E F EA00079700     00000000       1N 000079700       0000LF 00060135GA264522       0000320000300000          
87095516010JEB12          12"-16GA BARREL CLAMP GALV    00001          E S EA00006800     00000000       1N9000052000      00000LS 00060160JEB12          0000000000000000          
87095516110GA264522       26" 45 22GA GORELOCK ANG GALV 00001          E F EA00079700     00000000       1N 000079700       0000LF 00060135GA264522       0000320000300000          
87095516110JEB12          12"-16GA BARREL CLAMP GALV    00001          E S EA00006800     00000000       1N9000037000      00000LS 00060160JEB12          0000000000000000          
87095516210GE269022       26" 90 22GA GORELOCK ELL GALV 00001          E F EA00112350     00000000       1N 000112350       0000LF 00060131GE269022       0000320000300000          
87095516210JEB12          12"-16GA BARREL CLAMP GALV    00001          E S EA00006800     00000000       1N9000052000      00000LS 00060160JEB12          0000000000000000          
87095516310GE269022       26" 90 22GA GORELOCK ELL GALV 00001          E F EA00112350     00000000       1N 000112350       0000LF 00060131GE269022       0000320000300000          
87095516310JEB12          12"-16GA BARREL CLAMP GALV    00001          E S EA00006800     00000000       1N9000037000      00000LS 00060160JEB12          0000000000000000          
87095516410GE289022       28" 90 22GA GORELOCK ELL GALV 00001          E F EA00119700     00000000       1S 000119700       0000LF 00060131GE289022       0000320000300000          
87095516410JEB12          12"-16GA BARREL CLAMP GALV    00001          E S EA00006800     00000000       1N9000052000      00000LS 00060160JEB12          0000000000000000          
87095516510GA284522       28" 45 22GA GORELOCK ANG GALV 00001          E F EA00084350     00000000       1N 000084350       0000LF 00060135GA284522       0000320000300000          
87095516510JEB12          12"-16GA BARREL CLAMP GALV    00001          E S EA00006800     00000000       1N9000052000      00000LS 00060160JEB12          0000000000000000          
87095516610GE289022       28" 90 22GA GORELOCK ELL GALV 00001          E F EA00119700     00000000       1S 000119700       0000LF 00060131GE289022       0000320000300000          
87095516610JEB12          12"-16GA BARREL CLAMP GALV    00001          E S EA00006800     00000000       1N9000052000      00000LS 00060160JEB12          0000000000000000          
87095516710GE309022       30" 90 22GA GORELOCK ELL GALV 00001          E F EA00144900     00000000       1N 000144900       0000LF 00060131GE309022       0000320000300000          
87095516710JEB12          12"-16GA BARREL CLAMP GALV    00001          E S EA00006800     00000000       1N9000052000      00000LS 00060160JEB12          0000000000000000          
87095516810GE349022       34" 90 22GA GORELOCK ELL GALV 00001          E F EA00189000     00000000       1N 000189000       0000LF 00060131GE349022       0000320000300000          
87095516810JEB12          12"-16GA BARREL CLAMP GALV    00001          E S EA00006800     00000000       1N9000037000      00000LS 00060160JEB12          0000000000000000          
87095516910GA344522       34" 45 22GA GORELOCK ANG GALV 00001          E F EA00155400     00000000       1N 000155400       0000LF 00060135GA344522       0000320000300000          
87095516910JEB14          14"-16GA BARREL CLAMP GALV    00001          E S EA00006800     00000000       1N9000057750      00000LS 00060160JEB14          0000000000000000          
87095517010GE369022       36" 90 22GA GORELOCK ELL GALV 00001          E F EA00222600     00000000       1N 000222600       0000LF 00060131GE369022       0000320000300000          
87095517010JEB14          14"-16GA BARREL CLAMP GALV    00001          E S EA00006800     00000000       1N9000057750      00000LS 00060160JEB14          0000000000000000          
87095517110GA364522       36" 45 22GA GORELOCK ANG GALV 00001          E F EA00178500     00000000       1N 000178500       0000LF 00060135GA364522       0000320000300000          
87095517110JEB14          14"-16GA BARREL CLAMP GALV    00001          E S EA00006800     00000000       1N9000040450      00000LS 00060160JEB14          0000000000000000          
87095517210GA384520       38" 45 20GA GORELOCK ANG GALV 00001          E F EA00201600     00000000       1N 000201600       0000LF 00060136GA384520       0000320000300000          
87095517210JEB18          18"-16GA BARREL CLAMP GALV    00001          E S EA00006800     00000000       1N90              00000LS 00060160JEB18          0000000000000000          
87095517310GA444520       44" 45 20GA GORELOCK ANG GALV 00001          E F EA00278250     00000000 0000001N 000278250       0000LF 00060136GA444520       0000320000300000          
87095517310JEB18          18"-16GA BARREL CLAMP GALV    00001          E S EA00006800     00000000       1N9000070950      00000LS 00060160JEB18          0000000000000000          
87095517410GA444520       44" 45 20GA GORELOCK ANG GALV 00001          E F EA00278250     00000000 0000001N 000278250       0000LF 00060136GA444520       0000320000300000          
87095517410JEB20          20"-16GA BARREL CLAMP GALV    00001          E S EA00006800     00000000       1N9000077700      00000LS 00060160JEB20          0000000000000000          
87095517510GE549018       54" 90 18GA GORELOCK ELL GALV 00001          E F EA01034250     00000000 0000001N 001034250       0000LF 00060133GE549018       0000320000300000          
87095517510JEB20          20"-16GA BARREL CLAMP GALV    00001          E S EA00006800     00000000       1N9000054100      00000LS 00060160JEB20          0000000000000000          
87095517610GA544518       54" 45 18GA GORELOCK ANG GALV 00001          E F EA00535000     00000000 0000001N 000535000       0000LF 00060137GA544518       0000320000300000          
87095517610JEB20          20"-16GA BARREL CLAMP GALV    00001          E S EA00006800     00000000       1N9000077700      00000LS 00060160JEB20          0000000000000000          
87095517710GE549018       54" 90 18GA GORELOCK ELL GALV 00001          E F EA01034250     00000000 0000001N 001034250       0000LF 00060133GE549018       0000320000300000          
87095517710JEB20          20"-16GA BARREL CLAMP GALV    00001          E S EA00006800     00000000       1N9000077700      00000LS 00060160JEB20          0000000000000000          
87095517812GE349022       34/34-42" LONG OFFSET 22GA GAL00001          E F EA00189000     00000000       1N 0               0000LF 00040131GE349022       0000310000300000          
87095517810JEB20          20"-16GA BARREL CLAMP GALV    00001          E S EA00006800     00000000       1N9000054100      00000LS 00060160JEB20          0000000000000000          
87095517912GE369022       36/36-37" LONG OFFSET 22GA GAL00001          E F EA00222600     00000000       1N 000222600       0000LF 00050131GE369022       0000310000300000          
87095517910JEB20          20"-16GA BARREL CLAMP GALV    00001          E S EA00006800     00000000       1N9000054100      00000LS 00060160JEB20          0000000000000000          
87095518011P4             22/6/6 45 24GA PAIR/PANTS     00001          E H1EA00065630     00000000 0000001N 000065630       0000LH 00000140P424220606     0000000000300000          
87095518010JEB20          20"-16GA BARREL CLAMP GALV    00001          E S EA00006800     00000000       1N9000054100      00000LS 00060160JEB20          0000000000000000          
87095518111P4             26/6/8 45 22GA PAIR/PANTS     00001          E H1EA00093940     00000000 0000001N 000093940       0000LH 00000140P422260608     0000000000300000          
87095518110JEB22          22"-16GA BARREL CLAMP GALV    00001          E S EA00006800     00000000 0000001N9000094500      00000LS 00060160JEB22          0000000000000000          
87095518211T426101010     10/10/10 45 26GA LATERAL      00001          E H1EA00027100     00000000       1N 0               0000LH 00000136T426101010     0000000000300000          
87095518210JEB22          22"-16GA BARREL CLAMP GALV    00001          E S EA00006800     00000000 0000001N9000094500      00000LS 00060160JEB22          0000000000000000          
87095518311T426101008     10/10/8 45 26GA LATERAL       00001          E H1EA00024050     00000000       1N 000024050       0000LH 00000136T426101008     0000000000300000          
87095518310JEB22          22"-16GA BARREL CLAMP GALV    00001          E S EA00006800     00000000 0000001N9000094500      00000LS 00060160JEB22          0000000000000000          
87095518411T426101008     10/10/8 45 26GA LATERAL       00002          E H1EA00024050     00000000       1N 000024050       0000LH 00000136T426101008     0000000000300000          
87095518410JEB24          24"-16GA BARREL CLAMP GALV    00001          E S EA00006800     00000000       1N9000105000      00000LS 00060160JEB24          0000000000000000          
87095518510JEB24          24"-16GA BARREL CLAMP GALV    00001          E S EA00006800     00000000       1N9000105000      00000LS 00060160JEB24          0000000000000000          
87095518610JEB24          24"-16GA BARREL CLAMP GALV    00001          E S EA00006800     00000000       1N9000105000      00000LS 00060160JEB24          0000000000000000          
87095518710JEB24          24"-16GA BARREL CLAMP GALV    00001          E S EA00006800     00000000       1N9000105000      00000LS 00060160JEB24          0000000000000000          
87095518810JEB24          24"-16GA BARREL CLAMP GALV    00001          E S EA00006800     00000000       1N9000065900      00000LS 00060160JEB24          0000000000000000          
87095518910JEFI26         26" EZ FLANGE INSTALLED       00001          E S EA00025000     00000000       1N9000112350      00000LS 00060164JEFI26         0000000000000000          
87095519010JEFI26         26" EZ FLANGE INSTALLED       00001          E S EA00025000     00000000       1N9000112350      00000LS 00060164JEFI26         0000000000000000          
87095519110JEB26          26"-16GA BARREL CLAMP GALV    00001          E S EA00010100     00000000       1N9000112350      00000LS 00060160JEB26          0000000000000000          
87095519210JEFI26         26" EZ FLANGE INSTALLED       00001          E S EA00025000     00000000       1N9000079700      00000LS 00060164JEFI26         0000000000000000          
87095519310JEFI26         26" EZ FLANGE INSTALLED       00001          E S EA00025000     00000000       1N9000079700      00000LS 00060164JEFI26         0000000000000000          
87095519410JEB26          26"-16GA BARREL CLAMP GALV    00001          E S EA00010100     00000000       1N9000079700      00000LS 00060160JEB26          0000000000000000          
87095519510JEFI26         26" EZ FLANGE INSTALLED       00001          E S EA00025000     00000000       1N9000079700      00000LS 00060164JEFI26         0000000000000000          
87095519610JEFI26         26" EZ FLANGE INSTALLED       00001          E S EA00025000     00000000       1N9000079700      00000LS 00060164JEFI26         0000000000000000          
87095519710JEB26          26"-16GA BARREL CLAMP GALV    00001          E S EA00010100     00000000       1N9000079700      00000LS 00060160JEB26          0000000000000000          
87095519810JEFI26         26" EZ FLANGE INSTALLED       00001          E S EA00025000     00000000       1N9000079700      00000LS 00060164JEFI26         0000000000000000          
87095519910JEFI26         26" EZ FLANGE INSTALLED       00001          E S EA00025000     00000000       1N9000079700      00000LS 00060164JEFI26         0000000000000000          
87095520010JEB26          26"-16GA BARREL CLAMP GALV    00001          E S EA00010100     00000000       1N9000079700      00000LS 00060160JEB26          0000000000000000          
87095520110JEFI26         26" EZ FLANGE INSTALLED       00001          E S EA00025000     00000000       1N9000079700      00000LS 00060164JEFI26         0000000000000000          
87095520210JEFI26         26" EZ FLANGE INSTALLED       00001          E S EA00025000     00000000       1N9000079700      00000LS 00060164JEFI26         0000000000000000          
87095520310JEB26          26"-16GA BARREL CLAMP GALV    00001          E S EA00010100     00000000       1N9000079700      00000LS 00060160JEB26          0000000000000000          
87095520410JEFI26         26" EZ FLANGE INSTALLED       00001          E S EA00025000     00000000       1N9000112350      00000LS 00060164JEFI26         0000000000000000          
87095520510JEFI26         26" EZ FLANGE INSTALLED       00001          E S EA00025000     00000000       1N9000112350      00000LS 00060164JEFI26         0000000000000000          
87095520610JEB26          26"-16GA BARREL CLAMP GALV    00001          E S EA00010100     00000000       1N9000112350      00000LS 00060160JEB26          0000000000000000          
87095520710JEFI26         26" EZ FLANGE INSTALLED       00001          E S EA00025000     00000000       1N9000112350      00000LS 00060164JEFI26         0000000000000000          
87095520810JEFI26         26" EZ FLANGE INSTALLED       00001          E S EA00025000     00000000       1N9000112350      00000LS 00060164JEFI26         0000000000000000          
87095520910JEB26          26"-16GA BARREL CLAMP GALV    00001          E S EA00010100     00000000       1N9000112350      00000LS 00060160JEB26          0000000000000000          
87095521010JEFI28         28" EZ FLANGE INSTALLED       00001          E S EA00025700     00000000       1N9000119700      00000LS 00060164JEFI28         0000000000000000          
87095521110JEFI28         28" EZ FLANGE INSTALLED       00001          E S EA00025700     00000000       1N9000119700      00000LS 00060164JEFI28         0000000000000000          
87095521210JEB28          28"-16GA BARREL CLAMP GALV    00001          E S EA00010650     00000000       1N9000119700      00000LS 00060160JEB28          0000000000000000          
87095521310JEFI28         28" EZ FLANGE INSTALLED       00001          E S EA00025700     00000000       1N9000084350      00000LS 00060164JEFI28         0000000000000000          
87095521410JEFI28         28" EZ FLANGE INSTALLED       00001          E S EA00025700     00000000       1N9000084350      00000LS 00060164JEFI28         0000000000000000          
87095521510JEB28          28"-16GA BARREL CLAMP GALV    00001          E S EA00010650     00000000       1N9000084350      00000LS 00060160JEB28          0000000000000000          
87095521610JEFI28         28" EZ FLANGE INSTALLED       00001          E S EA00025700     00000000       1N9000119700      00000LS 00060164JEFI28         0000000000000000          
87095521710JEFI28         28" EZ FLANGE INSTALLED       00001          E S EA00025700     00000000       1N9000119700      00000LS 00060164JEFI28         0000000000000000          
87095521810JEB28          28"-16GA BARREL CLAMP GALV    00001          E S EA00010650     00000000       1N9000119700      00000LS 00060160JEB28          0000000000000000          
87095521910JEFI30         30" EZ FLANGE INSTALLED       00001          E S EA00026650     00000000       1N9000144900      00000LS 00060164JEFI30         0000000000000000          
87095522010JEFI30         30" EZ FLANGE INSTALLED       00001          E S EA00026650     00000000       1N9000144900      00000LS 00060164JEFI30         0000000000000000          
87095522110JEB30          30"-16GA BARREL CLAMP GALV    00001          E S EA00011300     00000000       1N9000144900      00000LS 00060160JEB30          0000000000000000          
87095522210JEFI34         34" EZ FLANGE INSTALLED       00001          E S EA00029200     00000000       1N9000189000      00000LS 00060164JEFI34         0000000000000000          
87095522310JEFI34         34" EZ FLANGE INSTALLED       00001          E S EA00029200     00000000       1N9000189000      00000LS 00060164JEFI34         0000000000000000          
87095522410JEB34          34"-16GA BARREL CLAMP GALV    00001          E S EA00012600     00000000       1N9000189000      00000LS 00060160JEB34          0000000000000000          
87095522510JEFI34         34" EZ FLANGE INSTALLED       00001          E S EA00029200     00000000       1N9000155400      00000LS 00060164JEFI34         0000000000000000          
87095522610JEFI34         34" EZ FLANGE INSTALLED       00001          E S EA00029200     00000000       1N9000155400      00000LS 00060164JEFI34         0000000000000000          
87095522710JEB34          34"-16GA BARREL CLAMP GALV    00001          E S EA00012600     00000000       1N9000155400      00000LS 00060160JEB34          0000000000000000          
87095522810JEFI36         36" EZ FLANGE INSTALLED       00001          E S EA00030400     00000000       1N9000222600      00000LS 00060164JEFI36         0000000000000000          
87095522910JEFI36         36" EZ FLANGE INSTALLED       00001          E S EA00030400     00000000       1N9000222600      00000LS 00060164JEFI36         0000000000000000          
87095523010JEB36          36"-16GA BARREL CLAMP GALV    00001          E S EA00013500     00000000       1N9000222600      00000LS 00060160JEB36          0000000000000000          
87095523110JEFI36         36" EZ FLANGE INSTALLED       00001          E S EA00030400     00000000       1N9000178500      00000LS 00060164JEFI36         0000000000000000          
87095523210JEFI36         36" EZ FLANGE INSTALLED       00001          E S EA00030400     00000000       1N9000178500      00000LS 00060164JEFI36         0000000000000000          
87095523310JEB36          36"-16GA BARREL CLAMP GALV    00001          E S EA00013500     00000000       1N9000178500      00000LS 00060160JEB36          0000000000000000          
87095523410JEFI38         38" EZ FLANGE INSTALLED       00001          E S EA00031750     00000000       1N9000201600      00000LS 00060164JEFI38         0000000000000000          
87095523510JEFI38         38" EZ FLANGE INSTALLED       00001          E S EA00031750     00000000       1N9000201600      00000LS 00060164JEFI38         0000000000000000          
87095523610JEB38          38"-16GA BARREL CLAMP GALV    00001          E S EA00014400     00000000       1N9000201600      00000LS 00060160JEB38          0000000000000000          
87095523710JEFI44         44" EZ FLANGE INSTALLED       00001          E S EA00034300     00000000 0000001N9000278250      00000LS 00060164JEFI44         0000000000000000          
87095523810JEFI44         44" EZ FLANGE INSTALLED       00001          E S EA00034300     00000000 0000001N9000278250      00000LS 00060164JEFI44         0000000000000000          
87095523910JEB44          44"-16GA BARREL CLAMP GALV    00001          E S EA00017100     00000000 0000001N9000278250      00000LS 00060160JEB44          0000000000000000          
87095524010JEFI44         44" EZ FLANGE INSTALLED       00001          E S EA00034300     00000000 0000001N9000278250      00000LS 00060164JEFI44         0000000000000000          
87095524110JEFI44         44" EZ FLANGE INSTALLED       00001          E S EA00034300     00000000 0000001N9000278250      00000LS 00060164JEFI44         0000000000000000          
87095524210JEB44          44"-16GA BARREL CLAMP GALV    00001          E S EA00017100     00000000 0000001N9000278250      00000LS 00060160JEB44          0000000000000000          
87095524310JEFI54         54" EZ FLANGE INSTALLED       00001          E S EA00045850     00000000 0000001N9001034250      00000LS 00060164JEFI54         0000000000000000          
87095524410JEFI54         54" EZ FLANGE INSTALLED       00001          E S EA00045850     00000000 0000001N9001034250      00000LS 00060164JEFI54         0000000000000000          
87095524510JEB54          54"-16GA BARREL CLAMP GALV    00001          E S EA00021600     00000000 0000001N9001034250      00000LS 00060160JEB54          0000000000000000          
87095524610JEFI54         54" EZ FLANGE INSTALLED       00001          E S EA00045850     00000000 0000001N9000535000      00000LS 00060164JEFI54         0000000000000000          
87095524710JEFI54         54" EZ FLANGE INSTALLED       00001          E S EA00045850     00000000 0000001N9000535000      00000LS 00060164JEFI54         0000000000000000          
87095524810JEB54          54"-16GA BARREL CLAMP GALV    00001          E S EA00021600     00000000 0000001N9000535000      00000LS 00060160JEB54          0000000000000000          
87095524910JEFI54         54" EZ FLANGE INSTALLED       00001          E S EA00045850     00000000 0000001N9001034250      00000LS 00060164JEFI54         0000000000000000          
87095525010JEFI54         54" EZ FLANGE INSTALLED       00001          E S EA00045850     00000000 0000001N9001034250      00000LS 00060164JEFI54         0000000000000000          
87095525110JEB54          54"-16GA BARREL CLAMP GALV    00001          E S EA00021600     00000000 0000001N9001034250      00000LS 00060160JEB54          0000000000000000          
87095525212JEFI34         34" EZ FLANGE INSTALLED       00001          E S EA00029200     00000000       1N90              00000LS 00040164JEFI34         0000000000000000          
87095525312JEFI34         34" EZ FLANGE INSTALLED       00001          E S EA00029200     00000000       1N90              00000LS 00040164JEFI34         0000000000000000          
87095525412JEB34          34"-16GA BARREL CLAMP GALV    00001          E S EA00012600     00000000       1N90              00000LS 00040160JEB34          0000000000000000          
87095525512JEFI36         36" EZ FLANGE INSTALLED       00001          E S EA00030400     00000000       1N9000222600      00000LS 00050164JEFI36         0000000000000000          
87095525612JEFI36         36" EZ FLANGE INSTALLED       00001          E S EA00030400     00000000       1N9000222600      00000LS 00050164JEFI36         0000000000000000          
87095525712JEB36          36"-16GA BARREL CLAMP GALV    00001          E S EA00013500     00000000       1N9000222600      00000LS 00050160JEB36          0000000000000000          
87095525811JEB06          06"-16GA BARREL CLAMP GALV    00001          E S EA00006800     00000000 0000001N9000065630      00000LS 00000160JEB06          0000000000000000          
87095525911JEB06          06"-16GA BARREL CLAMP GALV    00001          E S EA00006800     00000000 0000001N9000065630      00000LS 00000160JEB06          0000000000000000          
87095526011JEFI26         26" EZ FLANGE INSTALLED       00001          E S EA00025000     00000000 0000001N9000093940      00000LS 00000164JEFI26         0000000000000000          
87095526111JEB06          06"-16GA BARREL CLAMP GALV    00001          E S EA00006800     00000000 0000001N9000093940      00000LS 00000160JEB06          0000000000000000          
87095526211JEB08          08"-16GA BARREL CLAMP GALV    00001          E S EA00006800     00000000 0000001N9000093940      00000LS 00000160JEB08          0000000000000000          
87095526311JEB10          10"-16GA BARREL CLAMP GALV    00001          E S EA00006800     00000000       1N90              00000LS 00000160JEB10          0000000000000000          
87095526411JEB10          10"-16GA BARREL CLAMP GALV    00001          E S EA00006800     00000000       1N90              00000LS 00000160JEB10          0000000000000000          
87095526511JEB10          10"-16GA BARREL CLAMP GALV    00001          E S EA00006800     00000000       1N9000024050      00000LS 00000160JEB10          0000000000000000          
87095526611JEB08          08"-16GA BARREL CLAMP GALV    00001          E S EA00006800     00000000       1N9000024050      00000LS 00000160JEB08          0000000000000000          
87095526711JEB10          10"-16GA BARREL CLAMP GALV    00002          E S EA00006800     00000000       1N9000024050      00000LS 00000160JEB10          0000000000000000          
87095526811JEB08          08"-16GA BARREL CLAMP GALV    00002          E S EA00006800     00000000       1N9000024050      00000LS 00000160JEB08          0000000000000000          
87095526911JTG            TDC/EZ FLANGE GASKET     50'RL0008800000     E J RL00006250     00000000       1N9000024050      00000LI 00000065JTG            0000000000000000          
87095527011JJG            EZ FLANGE JR. GASKET     25'RL0006200000     E J RL00002750     00000000       1N9000024050      00000LI 00000065JJG            0000000000000000          
87095580111JEFI56         56" EZ FLANGE INSTALLED       00003          E S EA00062400     00000000 0000001N90              00000LS 00010164JEFI56         0000000000000000          
87095580211JEFI56         56" EZ FLANGE INSTALLED       00003          E S EA00062400     00000000 0000001N90              00000LS 00010164JEFI56         0000000000000000          
87095580311JEB56          56"-16GA BARREL CLAMP GALV    00003          E S EA00022500     00000000 0000001N90              00000LS 00010160JEB56          0000000000000000          
87095580411JEB12          12"-16GA BARREL CLAMP GALV    00001          E S EA00006800     00000000       1N9000028350      00000LS 00000160JEB12          0000000000000000          
87095580511JEB10          10"-16GA BARREL CLAMP GALV    00001          E S EA00006800     00000000       1N9000028350      00000LS 00000160JEB10          0000000000000000          
87095580611JEFI46         46" EZ FLANGE INSTALLED       00005          E S EA00035500     00000000       1N90              00000LS 00010164JEFI46         0000000000000000          
87095580711JEFI46         46" EZ FLANGE INSTALLED       00005          E S EA00035500     00000000       1N90              00000LS 00010164JEFI46         0000000000000000          
87095580811JEB46          46"-16GA BARREL CLAMP GALV    00005          E S EA00018000     00000000       1N90              00000LS 00010160JEB46          0000000000000000          
87095580911JEB14          14"-16GA BARREL CLAMP GALV    00001          E S EA00006800     00000000       1N9000029400      00000LS 00000160JEB14          0000000000000000          
87095581011JEB06          06"-16GA BARREL CLAMP GALV    00001          E S EA00006800     00000000       1N9000029400      00000LS 00000160JEB06          0000000000000000          
87095581111JEFI56         56" EZ FLANGE INSTALLED       00002          E S EA00062400     00000000 0000001N90              00000LS 00010164JEFI56         0000000000000000          
87095581211JEFI56         56" EZ FLANGE INSTALLED       00002          E S EA00062400     00000000 0000001N90              00000LS 00010164JEFI56         0000000000000000          
87095581311JEB56          56"-16GA BARREL CLAMP GALV    00002          E S EA00022500     00000000 0000001N90              00000LS 00010160JEB56          0000000000000000          
87095581411JEB14          14"-16GA BARREL CLAMP GALV    00001          E S EA00006800     00000000       1N9000029400      00000LS 00000160JEB14          0000000000000000          
87095581511JEB06          06"-16GA BARREL CLAMP GALV    00001          E S EA00006800     00000000       1N9000029400      00000LS 00000160JEB06          0000000000000000          
87095581611JEFI36         36" EZ FLANGE INSTALLED       00001          E S EA00030400     00000000       1N90              00000LS 00010164JEFI36         0000000000000000          
87095581711JEFI36         36" EZ FLANGE INSTALLED       00001          E S EA00030400     00000000       1N90              00000LS 00010164JEFI36         0000000000000000          
87095581811JEB36          36"-16GA BARREL CLAMP GALV    00001          E S EA00013500     00000000       1N90              00000LS 00010160JEB36          0000000000000000          
87095581911JEB14          14"-16GA BARREL CLAMP GALV    00001          E S EA00006800     00000000       1N9000043450      00000LS 00000160JEB14          0000000000000000          
87095582011JEB12          12"-16GA BARREL CLAMP GALV    00001          E S EA00006800     00000000       1N9000043450      00000LS 00000160JEB12          0000000000000000          
87095582111JEFI56         56" EZ FLANGE INSTALLED       00007          E S EA00062400     00000000 0000001N90              00000LS 00010164JEFI56         0000000000000000          
87095582211JEFI56         56" EZ FLANGE INSTALLED       00007          E S EA00062400     00000000 0000001N90              00000LS 00010164JEFI56         0000000000000000          
87095582311JEB56          56"-16GA BARREL CLAMP GALV    00007          E S EA00022500     00000000 0000001N90              00000LS 00010160JEB56          0000000000000000          
87095582411JEB14          14"-16GA BARREL CLAMP GALV    00001          E S EA00006800     00000000       1N9000043450      00000LS 00000160JEB14          0000000000000000          
87095582511JEB12          12"-16GA BARREL CLAMP GALV    00001          E S EA00006800     00000000       1N9000043450      00000LS 00000160JEB12          0000000000000000          
87095582611JEFI44         44" EZ FLANGE INSTALLED       00008          E S EA00034300     00000000       1N90              00000LS 00020164JEFI44         0000000000000000          
87095582711JEFI44         44" EZ FLANGE INSTALLED       00008          E S EA00034300     00000000       1N90              00000LS 00020164JEFI44         0000000000000000          
87095582811JEB44          44"-16GA BARREL CLAMP GALV    00008          E S EA00017100     00000000       1N90              00000LS 00020160JEB44          0000000000000000          
87095582911JEB14          14"-16GA BARREL CLAMP GALV    00001          E S EA00006800     00000000       1N9000037700      00000LS 00000160JEB14          0000000000000000          
87095583011JEB10          10"-16GA BARREL CLAMP GALV    00001          E S EA00006800     00000000       1N9000037700      00000LS 00000160JEB10          0000000000000000          
87095583111JEFI36         36" EZ FLANGE INSTALLED       00001          E S EA00030400     00000000       1N90              00000LS 00020164JEFI36         0000000000000000          
87095583211JEFI36         36" EZ FLANGE INSTALLED       00001          E S EA00030400     00000000       1N90              00000LS 00020164JEFI36         0000000000000000          
