80243710101000007PIECES SPIRAL PIPE - GALVANIZED           000000150       
80243710102000018PIECES FITTINGS - MISC. GALVANIZED        000000125       
80243710103000001CARTONSDUCTCAP                            000000050       
80401610101000000                                          000000999       
80401610102000000       RAY 906-482-0220                   000000999       
80401610103000000                                          000000999       
80401610104000000       REPLACE DAMAGE ON                  000000999       
80401610105000000       PRO # 7506223457                   000000999       
80401610106000000                                          000000999       
80401610107000001CRATE  SPIRAL PIPE - GALVANIZED           000430150       
80401610108000000       (6-PCS 16"X10')                    000000999       
80579410101000000 806043TAG ALONG                          000000888       
80579410102000001SKIDS  MISC. DUCT                         000000060       
80579410103000017JOINTS MISC. DUCT                         000000060       
80579410104000006BUNDLESSLIPS, DRIVES          106-260     000000050       
80604310101000000       ORDER SHIPPED W/ 805794.1.01       000000999       
80624810101000000 807737TAG ALONG                          000000888       
80624810102000004PIECES SPIRAL PIPE - GALVANIZED           000000150       
80624810103000001BOXES  FITTINGS - MISC. GALVANIZED        000000125       
80624810104000001CARTONSDUCT SEALER & BRUSHES              000000050       
80721110101000000       ORDER SHIPPED W/ 807389.1.01       000000999       
80722610101000001PIECES FITTINGS - MISC. GALVANIZED        000000125       
80722610102000003PIECES SEAM CLOSED PIPE                   000000060       
80735310101000000                                          000000999       
80735310102000000       SHANE  507-951-3393                000000999       
80735310103000000                                          000000999       
80735310104000000 807470TAG ALONG                          000000888       
80735310105000000 807550TAG ALONG                          000000888       
80735310106000000                                          000000999       
80735310107000001LOT    MISC DUCT,FITTINGS,ACCES           008965060       
80736710101000018PIECES SPIRAL PIPE - GALVANIZED           000000150       
80736710102000002GYLORDSFITTINGS - MISC. GALVANIZED        000000125       
80738610101000000       ORDER SHIPPED W/ 807388.1.01       000000999       
80738810101000000 807386TAG ALONG                          000000888       
80738810102000030JOINTS MISC. DUCT                         000000060       
80738810103000004BUNDLESTDC ACCESSORIES                    000000050       
80738910101000000 807211TAG ALONG                          000000888       
80738910102000004PIECES SPIRAL PIPE - GALVANIZED           000000150       
80738910103000001GYLORDSFITTINGS - MISC. GALVANIZED        000000125       
80738910104000001BOXES  FITTINGS - MISC. GALVANIZED        000000125       
80738910105000001BUNDLESSLIPS, DRIVES          106-260     000000050       
80742210101000002PIECES FITTINGS - WELDED                  000000125       
8074241010100000110'BOX SPIRAL PIPE - STAINLESS STEEL      000030150       
80742410102000000       (2-PCS 4"X10')                     000000999       
80742410103000001SKID   FITTINGS - STAINLESS STEEL         000205150       
80742410104000000       (2-GAYLORDS,1-BOX)                 000000999       
80745910101000000                                          000000999       
80745910102000000       CALL WITH DELIVERY TIME            000000999       
80745910103000000       WILL MEET AT SITE                  000000999       
80745910104000000                                          000000999       
80745910105000000       BURT 218-739-4584                  000000999       
80745910106000000                                          000000999       
80745910107000000 807611TAG ALONG                          000000888       
80745910108000000                                          000000999       
80745910109000001SKID   FITTINGS - MISC. GALVANIZED        000330125       
80745910110000000       DUCT,ACCES                         000000999       
80745910111000005PCS    REC ASSEM FITTINGS                 000210150       
80745910112000001GAYLORDFITTINGS - MISC. GALVANIZED        000090150       
80745910113000000       & ACCES                            000000999       
80747010101000000       ORDER SHIPPED W/ 807353.1.01       000000999       
80747410101000033PIECES SPIRAL PIPE - GALVANIZED           003500150       
80747410102000001SKIDS  FITTINGS - MISC. GALVANIZED        000170125       
80749010101000001PIECES SPIRAL PIPE - GALVANIZED           000000150       
80749010102000013PIECES SPIRAL PIPE - ALUM                 000000150       
80749010103000002PIECES FITTINGS - GORELOCK                000000125       
80749010104000001CARTONSGASKET                             000000050       
80749020101000013PIECES SPIRAL PIPE - ALUM                 000000150       
80750010101000003PCS    SPIRAL PIPE - GALVANIZED           000150150       
80750010102000000       (10"X10')                          000000999       
80750010103000001BOX    FITTINGS - MISC. GALVANIZED        000040125       
80751810101000006BOXES  FITTINGS - MISC. ALUM              000000125       
80755010101000000                                          000000999       
80755010102000000       SHANE 507-951-3393                 000000999       
80755010103000000                                          000000999       
80755010104000001BOX    FITTINGS - MISC. GALVANIZED        000090125       
8075631010100000510'PCS SPIRAL PIPE - GALVANIZED           000250150       
80756310102000000       (W/EZ FLANGE 3-12" 2-18")          000000999       
80756310103000001GAYLORDFITTINGS - MISC. GALVANIZED        000080125       
8075631010400000210'PCS SPIRAL PIPE - GALVANIZED           000045150       
80756310105000001GAYLORDFITTINGS - MISC. GALVANIZED        000065125       
80756310106000000                                          000000999       
80756310107000000 807838TAG ALONG                          000000888       
80756610101000004PIECES SPIRAL PIPE - STAINLESS STEEL      000000150       
80756610102000001GYLORDSFITTINGS - MISC. S.S.              000000125       
80756610103000002PIECES S.S. ACME LOCK PIPE                000000060       
80756810101000016JOINTS MISC. DUCT                         000000060       
80756810102000012PIECES MISC. PLASMA FITTINGS              000000060       
80756810103000002BUNDLESSLIPS, DRIVES          106-260     000000050       
80757010101000000                                          000000999       
80757010102000000 807625TAG ALONG                          000000888       
80757010103000000                                          000000999       
80757010104000001SKID   MISC. PLASMA FITTINGS              000220060       
80757010105000000       DUCT,ACCES                         000000999       
8075701010600000110'BDL HANGER BAND                        000050050       
80757010107000001BOX    VOLUME DAMPERS,REGULATORS          000010125       
80757110101000000 807775TAG ALONG                          000000888       
80757110102000005PIECES SPIRAL PIPE - GALVANIZED           000000150       
80757110103000002BOXES  FITTINGS - MISC. GALVANIZED        000000125       
80757110104000001LOTS   MISC. DUCT                         000000060       
80757110105000001LOTS   MISC. PLASMA FITTINGS              000000060       
80757110106000002CARTONSTDC ACCESSORIES                    000000050       
80757110107000001BUNDLESSLIPS, DRIVES          106-260     000000050       
80757110108000001LOT    FITTINGS - WELDED                  000000125       
80757110109000001PIECES COMPANION RINGS                    000000050       
80757410101000001PIECES MISC. S/L PIPE-SEAM NOT CLOSED     000000060       
80757410102000016PIECES MISC. PLASMA FITTINGS              000000060       
80757410103000001LOT    SLIPS, DRIVES          106-260     000000050       
80757410104000001PIECES S.S.HANGERBAND                     000000050       
80757510101000004PCS    SPIRAL PIPE - GALVANIZED           000120150       
80757510102000000       (10"X10')                          000000999       
80757510103000001BOX    FITTINGS - MISC. GALVANIZED        000045125       
80758710101000012PIECES MISC. PLASMA FITTINGS              000000060       
80758710102000001JOINT  MISC. PLASMA FITTINGS              000000060       
80758710103000001BUNDLESSLIPS, DRIVES          106-260     000000050       
80761110101000000       ORDER SHIPPED W/ 807459.1.01       000000999       
80761510101000001GAYLORDGALV 14"X5' SPIRAL PIPE(8-PCS)     000255150       
80761610101000000       ORDER SHIPPED W/ 807661.1.01       000000999       
80761710101000001BOX    GALV 3"X5' SPIRAL PIPE(45-PCS)     000165125       
80761910101000001GAYLORDGALV 14"X5' SPIRAL PIPE(5-PCS)     000130150       
80761910102000001GAYLORDFITTINGS - MISC. GALVANIZED        000050150       
80762510101000000       ORDER SHIPPED W/ 807570.1.01       000000999       
80763210101000004PCS    SPIRAL PIPE - GALVANIZED           000165150       
80763210102000000       (12"X10')                          000000999       
80763210103000002GYLORDSFITTINGS - MISC. GALVANIZED        000140150       
80764310101000002PCS    SPIRAL PIPE - GALVANIZED           000060150       
80764310102000000       (10"X10')                          000000999       
80764310103000001GAYLORDFITTINGS - MISC. GALVANIZED        000110125       
80764310104000000       DUCT,ACCES                         000000999       
8076471010100000110'BOX SPIRAL PIPE - STAINLESS STEEL      000030150       
80764710102000000       (1-PC 8"X10')                      000000999       
80764710103000001BOX    FITTINGS - STAINLESS STEEL         000015125       
80765010101000002SKIDS  FITTINGS - MISC. GALVANIZED        000405125       
80765010102000000       (4-GAYLORDS)                       000000999       
80765110101000000 807653TAG ALONG                          000000888       
80765110102000002CARTONSTDC ACCESSORIES                    000000050       
80765110103000004PIECES TDC ACCESSORIES                    000000050       
80765310101000000       ORDER SHIPPED W/ 807651.1.01       000000999       
80765610101000039PIECES SPIRAL PIPE - GALVANIZED           000000150       
80765610102000001GYLORDSFITTINGS - MISC. GALVANIZED        000000125       
80766110101000000 807616TAG ALONG                          000000888       
80766110102000000 807814TAG ALONG                          000000888       
80766110103000138PIECES SPIRAL PIPE - GALVANIZED           000000150       
80766110104000007GYLORDSFITTINGS - MISC. GALVANIZED        000000125       
80766110105000001BOXES  FITTINGS - MISC. GALVANIZED        000000125       
80766110106000001LOTS   MISC. DUCT                         000000060       
80766110107000001LOTS   MISC. PLASMA FITTINGS              000000060       
80766110108000001PIECES SPIRAL PIPE - ALUM                 000000150       
80766110109000001PIECES FITTINGS - MISC. ALUM              000000125       
80766110110000001LOT    TDC ACCESSORIES                    000000050       
80766120101000032PIECES FITTINGS - WELDED                  000000125       
80766120102000000 808039TAG ALONG                          000000888       
80766120103000004CARTONSDUCTCAP                            000000050       
80766510101000000       ORDER SHIPPED W/ 807717.1.01       000000999       
80766610101000000       ORDER SHIPPED W/ 807717.1.01       000000999       
80766710101000000       ORDER SHIPPED W/ 807717.1.01       000000999       
80767510101000001SKID   FITTINGS - MISC. GALVANIZED        000230125       
80767510102000000       (2-GAYLORD)                        000000999       
80767510103000001SKID   MISC. S/L PIPE-SEAM NOT CLOSED     001105060       
80767510104000000       & FITTINGS(1-GAYLORD,2-BOXES)      000000999       
80768310101000002PIECES SPIRAL PIPE - GALVANIZED           000000150       
80768310102000002PIECES FITTINGS - MISC. GALVANIZED        000000125       
80769210101000026PIECES SPIRAL PIPE - GALVANIZED           000000150       
80769210102000003BOXES  FITTINGS - MISC. GALVANIZED        000000125       
80769410101000008PIECES SPIRAL PIPE - GALVANIZED           000000150       
80769410102000001GYLORDSFITTINGS - MISC. GALVANIZED        000000125       
80769610101000000       ORDER SHIPPED W/ 807736.1.01       000000999       
80769710101000000                                          000000999       
80769710102000000       QUOTE 288477                       000000999       
80769710103000000                                          000000999       
80769710104000002SKID   TDC CLEATS                         001875050       
80770510101000000 807710TAG ALONG                          000000888       
80770510102000000 807711TAG ALONG                          000000888       
80770510103000014PIECES SPIRAL PIPE - GALVANIZED           000000150       
80770510104000020PIECES SPIRAL PIPE - PAINT GRIP           000000150       
80770510105000003BOXES  FITTINGS - MISC. GALVANIZED        000000125       
80770510106000002BOXES  FITTINGS - MISC. P.G.              000000125       
80770510107000003PIECES MISC. S/L PIPE-SEAM NOT CLOSED     000000060       
80770510108000001LOTS   MISC. PLASMA FITTINGS              000000060       
80771010101000000       ORDER SHIPPED W/ 807705.1.01       000000999       
80771110101000000       ORDER SHIPPED W/ 807705.1.01       000000999       
80771410101000005PCS    SPIRAL PIPE - GALVANIZED           000135150       
80771410102000000       (10"X10')                          000000999       
80771410103000001GAYLORDFITTINGS - MISC. GALVANIZED        000055125       
80771510101000005BOXES  FITTINGS - MISC. GALVANIZED        000130125       
80771710101000000 807665TAG ALONG                          000000888       
80771710102000000 807667TAG ALONG                          000000888       
80771710103000000 807666TAG ALONG                          000000888       
80771710104000005BUNDLESGALV. TURNING VANE                 000000070       
80771710105000004CARTONSTURNING VANE RAIL                  000000060       
80771710106000002BUNDLESSLIPS, DRIVES          106-260     000000050       
80772010101000000                                          000000999       
80772010102000000       GREG 701-371-1201                  000000999       
80772010103000000                                          000000999       
80772010104000001SKID   FITTINGS - MISC. GALVANIZED        000345125       
80772010105000000       DUCT,ACCES                         000000999       
80772110101000001SKID   FITTINGS - MISC. GALVANIZED        000220125       
80772110102000000       (1-GAYLORD,4-BOXES)                000000999       
8077271010100000210'BDLSGALV. TURNING VANE                 000105070       
80772710102000001BOX    TDC GASKET                         000020150       
80773210101000002JOINTS MISC. DUCT                         000000060       
80773210102000006PIECES MISC. PLASMA FITTINGS              000000060       
80773210103000001BUNDLESSLIPS, DRIVES          106-260     000000050       
80773210104000002CARTONSTDC ACCESSORIES                    000000050       
80773410101000002GYLORDSFITTINGS - MISC. GALVANIZED        000000125       
80773410102000001BOXES  FITTINGS - MISC. GALVANIZED        000000125       
80773410103000001CARTONSCOMPANION RINGS                    000000050       
80773410104000003CARTONSSLIPS, DRIVES          106-260     000000050       
80773410105000009BUNDLESSLIPS, DRIVES          106-260     000000050       
80773610101000000 807696TAG ALONG                          000000888       
80773610102000009PIECES SPIRAL PIPE - GALVANIZED           000000150       
80773610103000002BOXES  FITTINGS - MISC. GALVANIZED        000000125       
80773710101000000       ORDER SHIPPED W/ 806248.1.01       000000999       
80774110101000000       ORDER SHIPPED W/ 807755.1.01       000000999       
80775310101000010PIECES R-ANGLE                            000000050       
80775510101000000                                          000000999       
80775510102000000 807741TAG ALONG                          000000888       
80775510103000000                                          000000999       
80775510104000004BOXES  FITTINGS - MISC. GALVANIZED        000105125       
80775710101000007PIECES MISC. PLASMA FITTINGS              000000060       
80775710102000001BUNDLESSLIPS, DRIVES          106-260     000000050       
80775710103000001CARTONSTDC ACCESSORIES                    000000050       
80776210101000003PIECES SPIRAL PIPE - GALVANIZED           000000150       
80776210102000004PIECES FITTINGS - MISC. GALVANIZED        000000125       
80776210103000001PIECES FITTINGS - GORELOCK                000000125       
80776210104000004PIECES MISC. PLASMA FITTINGS              000000060       
80776210105000001BUNDLESSLIPS, DRIVES          106-260     000000050       
80777010101000001SKID   MISC. S/L PIPE-SEAM NOT CLOSED     000370060       
80777010102000000       & FITTINGS                         000000999       
80777110101000030PIECES SPIRAL PIPE - GALVANIZED           000000150       
80777110102000004GYLORDSFITTINGS - MISC. GALVANIZED        000000125       
80777510101000000       ORDER SHIPPED W/ 807571.1.01       000000999       
80777710101000000 807981TAG ALONG                          000000888       
80777710102000005PIECES SPIRAL PIPE - GALVANIZED           000000150       
80777710103000002BOXES  FITTINGS - MISC. GALVANIZED        000000125       
80777710104000001JOINT  MISC. DUCT                         000000060       
80777710105000008PIECES MISC. PLASMA FITTINGS              000000060       
80777710106000001BUNDLESSLIPS, DRIVES          106-260     000000050       
80777710107000001CARTONSTDC ACCESSORIES                    000000050       
80777710108000001BUNDLES18GA HANGERBAND GALV.              000000050       
80777910101000015PIECES SPIRAL PIPE - GALVANIZED           000000150       
80777910102000002BOXES  FITTINGS - MISC. GALVANIZED        000000125       
80777910103000002CARTONSINSULATED FLEX PIPE                000000050       
80778210101000002PCS    SPIRAL PIPE - GALVANIZED           000040150       
80778210102000000       (8"X10')                           000000999       
80778210103000001BOX    FITTINGS - MISC. GALVANIZED        000010125       
80778310101000001CRATES R-ANGLE                            000000050       
80778410101000000       ORDER SHIPPED W/ 807916.1.01       000000999       
80778510101000000       ORDER SHIPPED W/ 807792.1.01       000000999       
80778810101000000       ORDER SHIPPED W/ 807792.1.01       000000999       
80779110101000000       ORDER SHIPPED W/ 807792.1.01       000000999       
80779210101000000 807788TAG ALONG                          000000888       
80779210102000000 807785TAG ALONG                          000000888       
80779210103000000 807952TAG ALONG                          000000888       
80779210104000000 807791TAG ALONG                          000000888       
80779210105000001LOTS   MISC. DUCT                         000000060       
80779210106000001LOT    R-ANGLE                            000000050       
80780610101000001PC     SPIRAL PIPE - GALVANIZED           000050150       
80780610102000002BOXES  FITTINGS - MISC. GALVANIZED        000050125       
80780610103000000       & HANGERS                          000000999       
80781310101000001GYLORDSFITTINGS - MISC. GALVANIZED        000000125       
80781310102000002BOXES  FITTINGS - MISC. GALVANIZED        000000125       
80781410101000000       ORDER SHIPPED W/ 807661.1.01       000000999       
80781610101000001SKID   TDC CLEATS                         000930050       
80781710101000003PIECES SPIRAL PIPE - GALVANIZED           000000150       
80781710102000001BOXES  FITTINGS - MISC. GALVANIZED        000000125       
80781710103000006PIECES MISC. S/L PIPE-SEAM NOT CLOSED     000000060       
80782010101000002BOXES  FITTINGS - MISC. GALVANIZED        000000125       
80782010102000005PIECES MISC. S/L PIPE-SEAM NOT CLOSED     000000060       
80782010103000001LOTS   MISC. DUCT                         000000060       
80782010104000001LOTS   MISC. PLASMA FITTINGS              000000060       
80782010105000002BUNDLESFITTINGS - MISC. GALVANIZED        000000125       
80782010106000001BUNDLESSLIPS, DRIVES          106-260     000000050       
80782010107000005CARTONSINSULATED FLEX PIPE                000000050       
80782210101000001SKID   60/120 PVS SHEETS(3-PCS)           000230085       
80783810101000000       ORDER SHIPPED W/ 807563.1.01       000000999       
80784510101000002PIECES SPIRAL PIPE - PAINT GRIP           000000150       
80784510102000010PIECES FITTINGS - GORELOCK                000000125       
80784510103000010PIECES FITTINGS - MISC. P.G.              000000125       
80784510104000010PIECES MISC. PLASMA FITTINGS              000000060       
80784510105000007PIECES SLIPS, DRIVES          106-260     000000050       
80784510106000001CARTONSGASKET                             000000050       
80784610101000001PIECES FITTINGS - MISC. GALVANIZED        000000125       
80784610102000001CARTONSINSULATED FLEX PIPE                000000050       
80784710101000000                                          000000999       
80784710102000000       QUOTE 288758                       000000999       
80784710103000000                                          000000999       
80784710104000003STACKS FITTINGS - MISC. GALVANIZED        000380125       
80784710105000000       (6-GAYLORDS)                       000000999       
80784710106000001GAYLORDFITTINGS - MISC. GALVANIZED        000080125       
80785010101000004GYLORDSFITTINGS - MISC. GALVANIZED        000000125       
80785010102000010BOXES  FITTINGS - MISC. GALVANIZED        000000125       
80785010103000001SKIDS  SLIPS, DRIVES          106-260     000000050       
80785010104000000       (FROM SMC ORDER 807734)            000000999       
8078541010100000510'PCS SPIRAL PIPE - GALVANIZED           000165150       
80785410102000000       (4-10' 1-16")                      000000999       
80785410103000001BOX    FITTINGS - MISC. GALVANIZED        000010125       
80785610101000000 807906TAG ALONG                          000000888       
80785610102000002GYLORDSFITTINGS - MISC. GALVANIZED        000000125       
80785610103000003BOXES  FITTINGS - MISC. GALVANIZED        000000125       
80785610104000005BUNDLESGALV. TURNING VANE                 000000070       
8078561010500000210' BOXTURNING VANE RAIL                  000000060       
80785610106000001SKIDS  TDC ACCESSORIES                    000000050       
80785610107000012CARTONSTDC ACCESSORIES                    000000050       
80786110101000000 807899TAG ALONG                          000000888       
80786110102000001BOXES  FITTINGS - MISC.ALUM               000000125       
80786110103000001JOINT  MISC. DUCT                         000000060       
80786110104000006PIECES MISC. PLASMA FITTINGS              000000060       
80786110105000003PIECES SLIPS, DRIVES          106-260     000000050       
80786110106000001PIECES MISC. S/L PIPE-SEAM NOT CLOSED     000000060       
80786610101000001GYLORDSFITTINGS - MISC. GALVANIZED        000000125       
80786610102000001BOXES  FITTINGS - MISC. GALVANIZED        000000125       
80786610103000003CARTONSINSULATED FLEX PIPE                000000050       
80786710101000001SKID   STAINLESS STEEL PIPE/FITTINGS      000205125       
80787210101000000                                          000000999       
80787210102000000       QUOTE 288976                       000000999       
80787210103000000                                          000000999       
80787210104000001CRATE  SPIRAL PIPE - GALVANIZED           000350150       
80787210105000002GYLORDSFITTINGS - MISC. GALVANIZED        000270125       
80787310101000001SKID   44" GALV EZ FLANGE SETS(3-SETS)    000100125       
80787410101000000 807883TAG ALONG                          000000888       
80787410102000011PIECES SPIRAL PIPE - GALVANIZED           000000150       
80787410103000003BOXES  FITTINGS - MISC. GALVANIZED        000000125       
80787410104000001BUNDLES18GA HANGERBAND GALV.              000000050       
80787510101000090PIECES SPIRAL PIPE - GALVANIZED           000000150       
80787510102000004GYLORDSFITTINGS - MISC. GALVANIZED        000000125       
80787510103000006PIECES FITTINGS - MISC. GALVANIZED        000000125       
80787510104000002BUNDLES18GA HANGERBAND GALV.              000000050       
80788210101000037PIECES FITTINGS - MISC. GALVANIZED        000000125       
80788210102000016PIECES MISC. S/L PIPE-SEAM NOT CLOSED     000000060       
80788310101000000       ORDER SHIPPED W/ 807874.1.01       000000999       
80788510101000003PIECES S.S. ACME LOCK PIPE                000000060       
80788510102000003PIECES FITTINGS - MISC. S.S.              000000125       
80789810101000002PIECES 60/120 24GA PVS (4X4)              000000060       
80789910101000000       ORDER SHIPPED W/ 807861.1.01       000000999       
80790610101000000       ORDER SHIPPED W/ 807856.1.01       000000999       
80790710101000000       ORDER SHIPPED W/ 807968.1.01       000000999       
80791210101000000                                          000000999       
80791210102000000       SHANE 507-951-3393                 000000999       
80791210103000000                                          000000999       
80791210104000001SKID   MISC. PLASMA FITTINGS              000240060       
80791210105000000       & ACCES                            000000999       
80791610101000000 807784TAG ALONG                          000000888       
80791610102000002BOXES  FITTINGS - MISC. GALVANIZED        000000125       
8079231010100001010'BDLSSLIPS, DRIVES          106-260     000580050       
80792310102000001SKID   DUCTCAP(10-BOXES)                  000140125       
80793710101000000 807977TAG ALONG                          000000888       
80793710102000001GYLORDSFITTINGS - MISC. GALVANIZED        000000125       
80793710103000002BOXES  FITTINGS - MISC. GALVANIZED        000000125       
80793710104000005CARTONSTDC ACCESSORIES                    000000050       
80794310101000003PCS    SPIRAL PIPE - GALVANIZED           000165150       
80794310102000000       (16"X10')                          000000999       
80794310103000001BOX    FITTINGS - MISC. GALVANIZED        000015125       
8079431010400001010'BDLSSLIPS, DRIVES          106-260     000580050       
80794310105000001BOX    TDC GASKET                         000005125       
80794310106000001BOX    VOL DAMPERS                        000025050       
80794310107000000                                          000000999       
80794310108000000 808003TAG ALONG                          000000888       
80794310109000000 808044TAG ALONG                          000000888       
80794510101000001PIECES FITTINGS - MISC. GALVANIZED        000000125       
80794710101000001PIECES SPIRAL PIPE - GALVANIZED           000000150       
80794710102000006PIECES FITTINGS - MISC. GALVANIZED        000000125       
80794810101000001PIECES SPIRAL PIPE - GALVANIZED           000000150       
80794810102000002BOXES  FITTINGS - MISC. GALVANIZED        000000125       
80795210101000000       ORDER SHIPPED W/ 807792.1.01       000000999       
80796710101000002PIECES SPIRAL PIPE - GALVANIZED           000000150       
80796710102000002GYLORDSFITTINGS - MISC. GALVANIZED        000000125       
80796810101000000 807907TAG ALONG                          000000888       
80796810102000041PIECES SPIRAL PIPE - GALVANIZED           000000150       
80796810103000009BOXES  FITTINGS - MISC. GALVANIZED        000000125       
80796810104000085PIECES MISC. S/L PIPE-SEAM NOT CLOSED     000000060       
80796810105000014CARTONSSLIPS, DRIVES          106-260     000000050       
80797410101000001SKID   FITTINGS - MISC. GALVANIZED        000220125       
80797410102000000       & ACCES                            000000999       
80797710101000000       ORDER SHIPPED W/ 807937.1.01       000000999       
80798110101000000       ORDER SHIPPED W/ 807777.1.01       000000999       
80798510101000000       ORDER SHIPPED W/ 807956.1.01       000000999       
80799410101000020PIECES FITTINGS - MISC. GALVANIZED        000000125       
80799410102000010PIECES MISC. S/L PIPE-SEAM NOT CLOSED     000000060       
80800010101000001BOXES  FITTINGS - MISC. GALVANIZED        000000125       
80800010102000008PIECES MISC. PLASMA FITTINGS              000000060       
80800210101000001SKID   5'GALV WIRE MESH(3-ROLLS)          000320085       
80800310101000000       ORDER SHIPPED W/ 807943.1.01       000000999       
80800410101000000 808086TAG ALONG                          000000888       
80800410102000000 808072TAG ALONG                          000000888       
80800410103000002GYLORDSFITTINGS - MISC. GALVANIZED        000000125       
80800410104000002SKIDS  FITTINGS - MISC. GALVANIZED        000000125       
80800410105000001GYLORDSFITTINGS - MISC. S.S.              000000125       
80800410106000001CARTONSCOMPANION RINGS                    000000050       
80800410107000007CARTONSSLIPS, DRIVES          106-260     000000050       
80800410108000010BUNDLESSLIPS, DRIVES          106-260     000000050       
80801510101000001BOXES  FITTINGS - MISC. S.S.              000000125       
80801510102000002PIECES S.S.ACME LOCK PIPE                 000000060       
80801710101000007PIECES FITTINGS - MISC. ALUM              000000125       
80801810101000007PIECES SPIRAL PIPE - GALVANIZED           000000150       
80801810102000001BOXES  FITTINGS - MISC. GALVANIZED        000000125       
8080281010100000810'BDLSHANGER BAND                        000400050       
80802810102000001BOX    FITTINGS - MISC. GALVANIZED        000035125       
80802810103000000                                          000000999       
80802810104000000 808047TAG ALONG                          000000888       
80803610101000020PCS    SPIRAL PIPE - GALVANIZED           000420150       
80803610102000000       (8"X10')                           000000999       
80803610103000001BOX    FITTINGS - MISC. GALVANIZED        000010125       
80803910101000000       ORDER SHIPPED W/ 807661.2.01       000000999       
80804410101000000       ORDER SHIPPED W/ 807943.1.01       000000999       
80804510101000001CRATE  GALV. TURNING VANE                 001020050       
8080451010200000610' BOXTURNING VANE RAIL                  000300060       
80804710101000000       ORDER SHIPPED W/ 808028.1.01       000000999       
80805010101000003PIECES SPIRAL PIPE - GALVANIZED           000000150       
80805010102000002BOXES  FITTINGS - MISC. GALVANIZED        000000125       
80805010103000001CARTONSMISC. PLASMA FITTINGS              000000060       
80805010104000003CARTONSINSULATED FLEX PIPE                000000050       
80805010105000000 808083TAG ALONG                          000000888       
80805110101000005PIECES SPIRAL PIPE - GALVANIZED           000000150       
80805110102000001BOXES  FITTINGS - MISC. GALVANIZED        000000125       
80805710101000001BOXES  FITTINGS - MISC. GALVANIZED        000000125       
80807210101000000       ORDER SHIPPED W/ 808004.1.01       000000999       
80808310101000000       ORDER SHIPPED W/ 808050.1.01       000000999       
80808610101000000       ORDER SHIPPED W/ 808004.1.01       000000999       
80810110101000001GYLORDSFITTINGS - MISC. GALVANIZED        000000125       
80810110102000012PIECES MISC. S/L PIPE-SEAM NOT CLOSED     000000060       
80813710101000001GYLORDSFITTINGS - MISC. GALVANIZED        000000125       
80813810101000001PIECES FITTINGS - MISC. S.S.              000001125       
80815910101000000 808164TAG ALONG                          000000888       
80815910102000001BOXES  FITTINGS - MISC. GALVANIZED        000000125       
80815910103000001BUNDLESSLIPS, DRIVES          106-260     000000050       
80815910104000004CARTONSINSULATED FLEX PIPE                000000050       
80816010101000002PIECES FITTINGS - MISC. GALVANIZED        000000125       
80816010102000004PIECES COMPANION RINGS                    000000050       
80816010103000000                                          000000999       
80816010104000000       2 GAYLORDS FITTINGS MISSED ON      000000999       
80816010105000000       LAST DELIVERY #808004              000000999       
80816410101000000       ORDER SHIPPED W/ 808159.1.01       000000999       
80817710101000009BOXES  FITTINGS - MISC. GALVANIZED        000000125       
80817710102000001CARTONSTDC ACCESSORIES                    000000050       
80817710103000006CARTONSFLEX PIPE                          000000050       
80819310101000001GYLORDSFITTINGS - MISC. GALVANIZED        000000125       
80819310102000011PIECES MISC. S/L PIPE-SEAM NOT CLOSED     000000060       
80819710101000022PIECES SPIRAL PIPE - GALVANIZED           000000150       
80819710102000118PIECES FITTINGS - MISC. GALVANIZED        000000125       
80822010101000001BOXES  FITTINGS - MISC. GALVANIZED        000000125       
80822010102000004CARTONSINSULATED FLEX PIPE                000000050       
