805794114112405040000   100007010000               0002920003600000000000083000000000q3
806043114112605010000   200006006000               0000800000830000000000093000000000q3
807115124112005060000   100011040000               0009170015910000000000078000000000q3
807353121112205050000   100009038000NOSING 1 SIDE  0006600009750006800000079000000650q3
807386124112405040000   100003018000               0001450001780000000000083000000000q3
807388124212005050000   100002018000               0001140001990000000000078000000000q3
807459124112605024000   100002020000               0000740000720000000000087000000000q3
807550121112205042000   100002018000NOSING 1 SIDE  0001000001490001040000079000000650q3
807568114112604010000   200004008000               0000480000490000000000093000000000q3
807570142112404018000   100002018000               0000480000600000500000083000000580q3
807571124112405028000   100001014000               0000350000430000000000083000000000q3
807587114112404014000   100001013000               0000180000230000000000083000000000q3
807608141112204042000   100002016000               0000780001160000810000079000000650q3
807616124112205050000   100001018000               0000570000850000000000079000000000q3
807643114112405014000   200004006000               0000670000870000000000089000000000q3
807669112112405010000   200004008000               0000600000780000620000089000000580q3
807720112112205025000   100001012000               0000310000470000320000079000000580q3
807732114112605010000   200002008000               0000300000310000000000093000000000q3
807775124112605020000   100001014000               0000290000280000000000087000000000q3
807777154112605014000   100001010000S&D / RAW      0000200000200000000000123000000000q3
807785114112405020000   100003017500               0000950001180000000000083000000000q3
807788124212205044000   100009034000               0005850008660000000000079000000000q3
807791124212205048000   100001016000               0000540000800000000000079000000000q3
807792124212005042000   100011036000               0007150012470000000000078000000000q3
807820111112404020000   100007012000               0001500001880001550000083000000650q3
807861214212205010000032200001010000               0000170000090000000000381000000000q3
807928112112405015500   100002008000               0000400000510000420000083000000580q3
807952124112205032000   100001010000               0000350000530000000000079000000000q3
808009112112405029500   100001029500               0000500000610000520000083000000580q3
