802437O FX20091015075100UNITED SHEET METAL       0000UNITED SHEET METAL            % U OF M CHILDRENS FAIRVIEW   2450 RIVERSIDE AVE.           MINNEAPOLIS, MN 55455         155244    1895      P10000000000C80243720100111000341661020100000000403010000000000000000000000022101000000000000000000600060431000010CONTACT: JERRY @ 651-775-5411                                         00000188       3I0132009101520091016MNN201001082   1000000                          1            200910151442               
804016O 9920091105999000FREIGHT CLAIMS           0921R C MECHANICAL                % PORTAGE HEALTH                921 SHARON AVENUE           HOUGHTON         MI 49931     V-LARRY   PHS H.C.  P10000000000 80401620100112000309741020100000000403010000000000000000000000019991000000000000000000000060421000015*** PD W/CK FROM OLD DOM #336549***                                   00000000       3 0022009110520091105MI 20100112ODFL0000000804016V-LARRY             1            200911051452               
805794O SM20091202049250METROPOLITAN MECH CONTR. 3801METROPOLITAN MECH CONTR.      % GILLETTE HOSPITAL           200 E UNIVERSITY AVE          ST.PAUL          MN 55108     ORDER 103 204M3801  P10000000000 80579420100111000637171020100000000403010000000000000000000000022101000000000000000000750060431000008*** THANKS FOR THE ORDER ***        WE APPRECIATE YOUR BUSINESS       00000000       3 0012010010420100104MNN201001082   1000000      ORDER 103           1            200912301525   J204A39203  
806043O SM20091204049250METROPOLITAN MECH CONTR. 3801METROPOLITAN MECH CONTR.      % GILLETTE HOSPITAL           200 E UNIVERSITY AVE          ST.PAUL          MN 55108     ORDER 104 204M3801  P10000000000 80604320100111000414281020100000000403010000000000000000000000022101000000000000000000000060431000008*** THANKS FOR THE ORDER ***        WE APPRECIATE YOUR BUSINESS       00000000       3 0012010010420100104MNN201001082   1000000      ORDER 104           1                           J204A39203  
806248O FX20091208018520CORPORATE MECHANICAL     0000CORPORATE MECHANICAL          % SANDSTROM                   515 MARYLAND AVE WEST         ST. PAUL, MN                  J1798     SANDSTROM P10000000000C80624820100111000260111020100000000403010000022010000160000008022001002200004220005000600060431000024*** THANKS FOR THE ORDER ***        WE APPRECIATE YOUR BUSINESS       00000088       3I0092010010420100104MN4201001082   1000000      J1798               1            201001041053               
806860O FX20091216062000RIVERSIDE MACHINE & ENGR.0000RIVERSIDE MACHINE & ENGR.     13760 BUSINESS CENTER DR.                                   ELK RIVER       MN  55330     94630               C10000000000 80686020100111000077811020100000000403010000000000000000000000022101000000000000000000000060421000018*** THANKS FOR THE ORDER ***        WE APPRECIATE YOUR BUSINESS       00000000       3 0012009121620100105MNN201001081   1000000      94630               1            201001051355               
806877O SM20091216050550MPLS. SPECIAL SCHOOL     0000MPLS. SPECIAL SCHOOL          DISTRICT #1                   807 N.E. BROADWAY             MINNEAPOLIS     MN  55413     27723               C10000000000 80687720100112000138991020100000000403010000000000000000000000022101000000000000000000000060421000010*** THANKS FOR THE ORDER ***        WE APPRECIATE YOUR BUSINESS       00000165       3 0012009121720100108MNN201001121   1000000      27723               1            201001081016               
807115O XX20091221052030NASSEFF MECHANICAL CONTRS0000NASSEFF MECHANICAL CONTRS     122 SOUTH WABASHA STREET      SUITE 101                     ST. PAUL,       MN  55107     5350-2              C10000000000 80711520100111004896371020100000000403010000336630001224000000022001002200050000000000000060421000010NEEDS TO PICK-UP 1/6/10. CALL      KEVIN @ 651-248-4042 WHEN DONE     00000000       3I0022010010520100105MNT201001081   1000000      110045              1            201001050830               
807211O SM20091222049250METROPOLITAN MECH CONTR. 0002METROPOLITAN MECH. CO         % ABBOTT HOSPITAL             800 E 28TH STREET             SO. MPLS         MN 55407     BL 8196   204M3761  P10000000000 80721120100111000162961020100000000403010000000000000000000000022101000000000000000000000060431000005*** THANKS FOR THE ORDER ***        WE APPRECIATE YOUR BUSINESS       00000000       3 0012010010520100105MNN201001082   1000000      BL 8196             1                           J204A38958  
807226O FX20091222075100UNITED SHEET METAL       0000UNITED SHEET METAL            1301 L ORIENT STREET                                        ST PAUL         MN  55117     157068    1533      P10000000000 80722620100111000107921020100000000403010000010510000076000003822001002200004220005000450060431000010*** THANKS FOR THE ORDER ***        WE APPRECIATE YOUR BUSINESS       00000000       3I0062010010420100104MN4201001082   1000000                          1            201001040924               
807353O FX20091223069947SUPERIOR MECH SYSTEMS INC0018SUPERIOR MECH SYSTEMS INC     % OLMSTEAD                    2117 CAMPUS DRIVE             ROCHESTER        MN 55904     RJ1420    OLMSTEAD  P10000000000 80735320100111009567791020100000000403010000681850004959000000022001002200003000000003500060421000024                                                                      00000737       3I0542009122820100104MN320100108X0091000000      RJ1420              1            200912301613002            
807367O FX20091223075100UNITED SHEET METAL       0000UNITED SHEET METAL            % ST. THOMAS AAC (2ND ORDER)  2115 SUMMIT AVE.              ST. PAUL, MN 55105            157071    6010      P10000000000C80736720100111004203141020100000000403010000297220002162000108122001002200004220005001200060431000010*** THANKS FOR THE ORDER ***        WE APPRECIATE YOUR BUSINESS       00001100       3I0042010010520100105MN4201001082   1000000                          1            201001051123               
807386O SM20091223049250METROPOLITAN MECH CONTR. 9577METROPOLITAN MECH CONTR.      % FAIRVIEW RIDGES / SHOP      201 EAST NICOLLET             BURNSVILLE       MN 55337     ORDER OR16202X9577  P10000000000 80738620100112000838181020100000000403010000057620000210000000022001002200050000000000000060431000008                                                                      00000000       3 0012009010520100107MNT201001122   1000000      ORDER OR16          1                           J202A27655  
807388O SM20091223049250METROPOLITAN MECH CONTR. 9577METROPOLITAN MECH CONTR.      % FAIRVIEW RIDGES / SHOP      201 EAST NICOLLET             BURNSVILLE       MN 55337     ORDER OR15202X9577  P10000000000 80738820100112001088851020100000000403010000081390000296000000022001002200050000000000950060431000008                                                                      00000000       3 0012010010520100107MNT201001122   1000000      ORDER OR15          1            201001061426   J202A27655  
807389O SM20091223049250METROPOLITAN MECH CONTR. 0002METROPOLITAN MECH. CO         % ABBOTT HOSPITAL             800 E 28TH STREET             SO. MPLS         MN 55407     ORDER 1   20419798  P10000000000 80738920100111000464151020100000000403010000000000000000000000022101000000000000000000600060431000008*** THANKS FOR THE ORDER ***        WE APPRECIATE YOUR BUSINESS       00000000       3 0012010010520100105MNN201001082   1000000      ORDER 1             1            201001041533   W204A19164  
807422O FX20091229006860B & D PLUMBING & HTG. INC0000B & D PLUMBING & HTG. INC     4145 MACKENZIE COURT N.E.                                   ST. MICHAEL,    MN  55376     27214               P10000000000 80742220100111000706401020100000000403010000053030000000000000022001000000000000000000650060431000010*** THANKS FOR THE ORDER ***        WE APPRECIATE YOUR BUSINESS       00000000       3 0012010010520100105MN 201001082   1000000                          1            201001051121               
807424O FX20091229032050GRUNAU COMPANY INC       0001GRUNAU COMPANY  INC           SHEET METAL SHOP ATTN:  FRED  1010 W ANDERSON CT            OAK CREEK        WI 53154     364730    5TH FLOOR P10000000000 80742420100111001773201020100000000403010000000000000000000000028101000000000000000000980060421000008*** THANKS FOR THE ORDER ***        WE APPRECIATE YOUR BUSINESS       00000235       3 0012009123020100104WIN20100108ODFL1000000      TRAVIS              1            201001041349               
807429O FX20091223017630COMMERCIAL PLBG. & HTG.  0000COMMERCIAL PLBG. & HTG.       24428 GREENWAY AVENUE                                       FOREST LAKE,    MN  55025-878422407     8105      C20000000000 80742920100111000120681020100000000403010000008300000030000000022001002200050000000000000060421000015CALL WHEN READY FOR PICK-UP        DAVE 612-685-1007                  00000000       3 0012009122920100104MNT201001081   1000000      22407               1            201001040907               
807450OCFX20091228055440PALO COMPANIES INC.      0000PALO COMPANIES INC.           14208 U.S. HWY. 12 EAST                                     COKATO,         MN  55321-4216NORTHWEST EYE       C50000000000 80745020100111000189671020100000000403010000013040000047000000022001002200050000000000000060421000024*** PD W/CK #17960 - THANK YOU! ***                                   00000000       3 0012009122820100105MNT20100108WC  0000000      NORTHWEST           1            201001050902               
807459O FX20091228054720OVERLAND MECH SERVICES   0000LIFE SMILES DENTAL             % OVERLAND MECH              225 WESTERN AVE               FERGUS FALLS,   MN  56537     90284     LIFESMILESP10000000000 80745920100112001028071020100000000403010000078590000000000000022001000000000000000001150060421000024*** THANKS FOR THE ORDER ***        WE APPRECIATE YOUR BUSINESS       00000316       3I0012009123020100105MN 20100112X0171000000      90284               1            201001051301002            
807470O FX20091228069947SUPERIOR MECH SYSTEMS INC0018SUPERIOR MECH SYSTEMS INC     % OLMSTEAD                    2117 CAMPUS DRIVE             ROCHESTER        MN 55904     RJ1422    OLMSTEAD  P10000000000 80747020100111007267331020100000000403010000499630003634000000022001002200003000000000000060421000024                                                                      00000000       3I0092009122920100104MN320100108X0091000000      RJ1422              1                                       
807474O FX20091228069947SUPERIOR MECH SYSTEMS INC0018SUPERIOR MECH SYSTEMS INC     % OLMSTEAD                    2117 CAMPUS DRIVE             ROCHESTER        MN 55904     RJ1422    OLMSTEAD  P10000000000 80747420100112007267331020100000000403010000520250003784000000022001002200003000000003000060431000024                                                                      00000000       3I0092009010720100108MN3201001122   1000000      RJ1422              1            201001071504               
807479O FX20091228071230TECOR INC.               0000TECOR INC.                    14250 JUDICIAL ROAD SOUTH                                   BURNSVILLE      MN  55306     2004                P10000000000 80747920100111000142501020100000000403010000000000000000000000022101000000000000000000070060421000018*** THANKS FOR THE ORDER ***        WE APPRECIATE YOUR BUSINESS       00001019       3 0012009122820100106MNN201001080   1000000      2004                2                                       
807490O FX20091228075100UNITED SHEET METAL       0000UNITED SHEET METAL            % ST. THOMAS AAC              2115 SUMMIT AVE               ST. PAUL, MN 55105            157130    6010      P10000000000C80749020100112011458911020100000000403010000000000000000000000022101000000000000000002400060431000010*** THANKS FOR THE ORDER ***        WE APPRECIATE YOUR BUSINESS       00042714       3I0052009123020090107MNN201001122   1000000                          1            201001081153               
807500O   20091230001980AIR CLEANING TECHNOLOGY  0000WALKER ENGINEERED PRODUCTS    902 2ND MAIN STREET                                         ELROY  WI   53929             838709              C10000000000C80750020100111000257241020100000000403010000012860000129000000028001002800029000000000000060421000018                                                                      00000000       3 0022009123020100104W2920100108X1501000000      TONY H.             1            201001041308               
807518O FX20091228037000INDUSTRIAL LOUVERS INC.  0000INDUSTRIAL LOUVERS INC.       511 SOUTH 7TH STREET                                        DELANO,         MN  55328     41977               P10000000000 80751820100111001417501020100000000403010000000000000000000000022101000000000000000000750060431000015*** THANKS FOR THE ORDER ***        WE APPRECIATE YOUR BUSINESS       00000000       3 0012010010420100104MNN201001082   1000000      41977               1            200912301520               
807537O JR20091229076895VOGEL SHEETMETAL INC.    0000VOGEL SHEETMETAL INC.         10684 LANSING AVE. NORTH                                    STILLWATER,     MN  55082     5210      WHITNEY   C10000000000 80753720100111002523001020100000000403010000173460000631000000022001002200050000000000000060421000016CALL DAVE WHEN DONE 651-430-9992                                      00000000       3 0012009123020100106MNT20100108WC  1000000      5210                1            201001061107               
807540O FX20091229071495TENNANT COMPANY          0000TENNANT COMPANY               701 NORTH LILAC DRIVE                                       GOLDEN VALLEY   MN  55422     MX1000-   53126     C60000000000 80754020100111000184001020100000000403010000012650000046000000022001002200050000000000000060421000010CALL DAN @ 651-398-6257            WHEN COMPLETE                      00000065       3 0012009122920100104MNT201001081   1000000      MX1000-             1            201001041252               
807542O FX20091229000250ACI MECHANICAL, INC.     0001ACI MECHANICAL, INC.          3116 SOUTH DUFF                                             AMES             IA 50010     33227     ISURP     C10000000000 80754220100111000227521020100000000403010000000000000000000000020101000000000000000000210060421000015*** THANKS FOR THE ORDER ***        WE APPRECIATE YOUR BUSINESS       00000000       3 0012009123020100104IAN201001080   1000000      JOE D.              1                                       
807550O FX20091229069947SUPERIOR MECH SYSTEMS INC0018SUPERIOR MECH SYSTEMS INC     % OLMSTEAD                    2117 CAMPUS DRIVE             ROCHESTER        MN 55904     RJ1423    OLMSTEAD  P10000000000 80755020100111007902501020100000000403010000543300003951000000022001002200003000000000000060421000024                                                                      00001016       3I0022009123020100104MN320100108MDGT1000000      RJ1423              1            201001041434               
807563O FX20091229024450ELLINGSON PLUMBING & HTG.0001ELLINGSON PLUMBING & HTG      2510 BROADWAY STREET SO.                                    ALEXANDRIA       MN 56308     5291      GLACIER   C20000000000 80756320100111000523491020100000000403010000035990000000000000022001000000000000000000000060421000024*** THANKS FOR THE ORDER ***        WE APPRECIATE YOUR BUSINESS       00000000       3I0012009122920100104MN 20100108X0101000000      5291                2            201001050756               
807566O FX20091230057650POLAR SEMICONDUCTOR      0000POLAR SEMICONDUCTOR           2800 EAST OLD SHAKOPEE RD                                   BLOOMINGTON     MN  55425     279693-207GSD 6     P10000000000 80756620100111001728751020100000000403010000124010000271000045122001002200014220005000750060431000018*** THANKS FOR THE ORDER ***        WE APPRECIATE YOUR BUSINESS       00000616       3 0012010010520100105MNH201001082   1000000      ERIC S.             1            201001041453               
807568O FX20091229006325ASPENAIR HEATING & COOLNG0003ASPENAIR HEATING & COOLNG     1465 1ST AVE. N.W.                                          NEW BRIGHTON     MN 55112     4028      JP ENTRPISP10000000000 80756820100111000663841020100000000403010000049760000181000000022001002200050000000000600060431000024*** THANKS FOR THE ORDER ***        WE APPRECIATE YOUR BUSINESS       00000000       3I0012010010420100104MNT201001082   1000000      4028                1            200912301508               
807570O FX20091229040720KLEMETSRUD'S PLBG & HTG  0000KLEMETSRUD'S PLBG & HTG       217 4TH STREET                PO BOX 648                    DEVILS LAKE     ND  58301     1806      DRAKE     C20000000000 80757020100111000460041020100000000403010000000000000000000000019991000000000000000000000060421000024*** THANKS FOR THE ORDER ***        WE APPRECIATE YOUR BUSINESS       00001164       3I0012009123020100104ND 20100108X0061000000      1806                1            201001041223               
807571O FX20091229017630COMMERCIAL PLBG. & HTG.  0000COMMERCIAL PLBG. & HTG.       % OAK PARK HEIGHTS CITY HALL  14168 OAK PARK BLVD N         OAK PARK HEIGHTS, MN 55082    22408               P20000000000C80757120100111003402641020100000000403010000240460000874000000022001002200050000000000950060431000010*** THANKS FOR THE ORDER ***        WE APPRECIATE YOUR BUSINESS       00003357       3 0022010010520100105MNT201001082   1000000                          1            201001050832               
807574O FX20091229053522NORTHLAND MECHANICAL     0000NORTHLAND MECHANICAL          % OPEN ARMS OF MN/MECHANICAL    2500 BLOOMINGTON AVE S        MINNEAPOLIS, MN             086160    09145     P10000000000C80757420100111000576811020100000000403010000044120000321000025722001002200001220001400650060431000015*** THANKS FOR THE ORDER ***        WE APPRECIATE YOUR BUSINESS       00001164       3 0012010010420100104MN1201001082   1000000      PHILLIP L.          1            200912301531               
807575O FX20091229064900SCHWICKERT COMPANY       0001SCHWICKERT  INC               330 POPULAR STREET                                          MANKATO          MN 56001     017089              C10000000000 80757520100111000350331020100000000403010000024090000175000000022001002200002000000000000060421000024*** THANKS FOR THE ORDER ***        WE APPRECIATE YOUR BUSINESS       00000000       3 0012009122920100104MN220100108C   1000000      017089              1            201001041223               
807579O FX20091229047250MASTER MECHANICAL, INC.  0000MASTER MECHANICAL, INC.       1027 GEMINI ROAD                                            EAGAN           MN  55113     42331               C20000000000 80757920100111000327101020100000000403010000022490000082000000022001002200050000000000000060421000015*** THANKS FOR THE ORDER ***        WE APPRECIATE YOUR BUSINESS       00000000       3 0012009122920100104MNT201001081   1000000      42331               1            201001040907               
807587O 9920091229033550HARRIS COMPANIES         0653HARRIS COMPANIES              %ST CROIX MEDICAL CENTER      235 STATE STREET              ST CROIX FALLS   WI 54024     ANITA     70653     P10000000000 80758720100111000465731020100000000403010000028040000280000000028001002800048000000000950060431000018*** THANKS FOR THE ORDER ***        WE APPRECIATE YOUR BUSINESS       00000000       3 0152010010420100104W48201001082   1000000      ANITA               1            201001040806001172934-7600 
807608OCFX20091229001345ADVANCED HEATING & AIR   0003ADVANCED HEATING & AIR        % WALMART                     200 12TH STREET S.W.          FOREST LAKE      MN 55025     FAX/ RUSS WALMART   CC0000000000 80760820100111001263591020100000000403010000086870000316000000022001002200050000000000000060421000024*** THANKS FOR THE ORDER ***        WE APPRECIATE YOUR BUSINESS       00000570       3 0052009123020100104MNT201001081   0000000      FAX/ RUSS           1            201001041114               
807611O FX20091229054720OVERLAND MECH SERVICES   0000LIFE SMILES DENTAL             % OVERLAND MECH              225 WESTERN AVE               FERGUS FALLS,   MN  56537     FAX/ BERT LIFESMILESP10000000000 80761120100112000158021020100000000403010000010860000000000000022001000000000000000000000060421000024                                                                      00000245       3 0012009123020100105MN 20100112X0171000000      FAX/ BERT           1                                       
807614O 9920091230017730CONMEK REPS INC.         0000CONMEK REPS INC.              2852 ANTHONY LANE SOUTH                                     MINNEAPOLIS     MN  55418     6721                C10000000000 80761420100111000109601020100000000403010000000000000000000000022101000000000000000000000060421000018CALL WHEN READY 612-788-7711                                          00000000       3 0012009123020100106MNN201001081   1000000      6721                1            201001061344               
807615O 9920091230046120MC MASTER-CARR SUPPLY CO.0002MC MASTER-CARR SUPPLY CO.     9630 NORWALK BLVD                                           SANTA FE SPRINGS CA 90670-2932GS78991930          C20000000000 80761520100111000212401020100000000403010000000000000000000000019991000000000000000000000060421000018SHIP VIA: UPS FREIGHT              ON ACCOUNT #Y6196E                 00000000       3 0012009123020100104CA 20100108X1523000000      GS78991930          1            201001041308               
807616O FX20091230017630COMMERCIAL PLBG. & HTG.  0000COMMERCIAL PLBG. & HTG.       % E.O.T.F.                    25 37TH AVENUE NORTH EAST     FRIDLEY, MN 55421             21916               P20000000000C80761620100111002128151020100000000403010000146310000532000000022001002200050000000000000060431000010*** THANKS FOR THE ORDER ***        WE APPRECIATE YOUR BUSINESS       00000101       3 0042010010420100105MNT201001082   1000000                          1                                       
807617O 9920091230046120MC MASTER-CARR SUPPLY CO.0003MC MASTER-CARR SUPPLY CO.     200 NEW CANTON WAY                                          ROBBINSVILLE     NJ 08691-2345LS78992040          C20000000000 80761720100111000441001020100000000403010000000000000000000000019991000000000000000000000060421000018SHIP VIA: UPS FREIGHT              ON ACCOUNT #Y6196E                 00000000       3 0012009123020100104NJ 20100108X1533000000      LS78992040          1            200912301419               
807619O 9920091230046120MC MASTER-CARR SUPPLY CO.0001MC MASTER-CARR SUPPLY COMPANY 600 COUNTY LINE ROAD                                        ELMHURST,        IL 60126-2081DO78991820          C20000000000 80761920100111000224551020100000000403010000000000000000000000021101000000000000000000000060421000018SHIP VIA: UPS FREIGHT              ON ACCOUNT #Y6196E                 00000000       3 0012009123020100104ILN20100108CWCE3000000      DO78991820          1            201001041309               
807625O FX20091230040720KLEMETSRUD'S PLBG & HTG  0000KLEMETSRUD'S PLBG & HTG       217 4TH STREET                PO BOX 648                    DEVILS LAKE     ND  58301     STOCK               C20000000000 80762520100111000110251020100000000403010000000000000000000000019991000000000000000000000060421000024                                                                      00000075       3 0012009123020100104ND 20100108X0061000000      STOCK               1                                       
807626O FX20091230080020WILLIS SHEET METAL CO.   0000WILLIS SHEET METAL CO.        1538 VERMONT STREET                                         DES MOINES,     IA  50314     10104-07X JACKSON   P10000000000 80762620100111000108941020100000000403010000000000000000000000020101000000000000000000070060421000024*** THANKS FOR THE ORDER ***        WE APPRECIATE YOUR BUSINESS       00000000       3I0012009123020100104IAN201001080   1000000      10104-07X           1                                       
807630O FX20091230004200ALBERS SHT MTL & VENT INC0000ALBERS SHT MTL & VENT INC     200 PLATO AVE W                                             ST PAUL         MN  55107-204557105-005           C10000000000 80763020100111000052901020100000000403010000003640000013000000022001002200050000000000000060421000010*** THANKS FOR THE ORDER ***        WE APPRECIATE YOUR BUSINESS       00000000       3 0032009123020100104MNT201001081   1000000      57105-005           1            201001041055               
807632O FX20091230026700FEDER/PHLAG MECHANICAL   0001FEDER/PHLAG MECHANICAL        18 DREW AVENUE N.E.                                         MADELIA,         MN 56062     V/LEE     MICHLFOODSC10000000000 80763220100111000777541020100000000403010000053460000000000000022001000000000000000000000060421000018*** THANKS FOR THE ORDER ***        WE APPRECIATE YOUR BUSINESS       00000000       3 0012009123020100104MN 20100108MDGT1000000      V/LEE               1            201001041434               
807635O FX20091230053000NORDIC SERVICES INC.     0000NORDIC SERVICES INC.          12006 12TH AVENUE SOUTH                                     BURNSVILLE,     MN  55337     22320               C10000000000 80763520100111001927171020100000000403010000132490000482000000022001002200050000000000000060421000015CALL WHEN READY FOR PICK-UP        TOM 952-237-2716                   00000000       3 0012009123020100104MNT201001081   1000000      22320               2            201001041505               
807641O FX20091230035900HORWITZ, INC.            0000HORWITZ, INC.                 4401 QUEBEC AVENUE NORTH                                    NEW HOPE        MN  55428     0925-1897           C10000000000 80764120100111000111981020100000000403010000007700000028000000022001002200050000000000000060421000015*** THANKS FOR THE ORDER ***        WE APPRECIATE YOUR BUSINESS       00000000       3 0012009123020100105MNT201001081   1000000      0925-1897           1            201001051355               
807643O FX20091230024800ENERGY & AIR SYSTEMS INC.0000ENERGY & AIR SYSTEMS INC.     806 HUGHITT AVENUE                                          SUPERIOR,       WI  54880     1122      LSC PLAZ  C10000000000 80764320100111000284701020100000000403010000000000000000000000028101000000000000000000000060421000024*** THANKS FOR THE ORDER ***        WE APPRECIATE YOUR BUSINESS       00000333       3I0022009010420100104WIN20100108X0071000000      1122                1            201001041308               
807647O FX20091230015300CERTIFIED INC.           0000CERTIFIED INC.                % LAKE COUNTRY DAIRY INC.     458 WESTERN BLVD              TURTLE LAKE, WI 54889         13462-74  LAKE CTY  P10000000000C80764720100111000249011020100000000403010000015250000153000000028001002800003000000000560060421000024*** THANKS FOR THE ORDER ***        WE APPRECIATE YOUR BUSINESS       00000365       3I0022009010420100105W0320100108DOTH1000000      13462-74            1            201001051301               
807648O FX20091230055330PALLET SERVICE CORP.     0000PALLET SERVICE CORP.          11201 90TH AVENUE NORTH                                     MAPLE GROVE,    MN  55369-4048V/ BOB              C10000000000 80764820100111000049751020100000000403010000003420000012000000022001002200050000000000000060421000024CALL WHEN READY                    BOB: 763-391-8020                  00000000       3 0012009010420100105MNT201001081   1000000      V/ BOB              1            201001051148               
807650O FX20091230061005REED MECH EQUIPMENT INC. 0003REED MECH EQUIPMENT INC.      15655 EAST US HWY 90                                        KINGSBURY        TX 78638     5079.6              P10000000000 80765020100111001795201020100000000403010000000000000000000000019991000000000000000001520060421000018                                                                      00000000       3 0012009123020100105TX 20100108X1831000000      5079.6              1                                       
807651O 9920091230033550HARRIS COMPANIES         0670HARRIS COMPANIES              %TRUSTONE                     2817 LYNDALE AVENUE S.        MPLS             MN 55408     ANITA     70670     P10000000000 80765120100111000149601020100000000403010000000000000000000000022101000000000000000000450060431000018*** THANKS FOR THE ORDER ***        WE APPRECIATE YOUR BUSINESS       00000000       3 0022010010420100104MNN201001082   1000000      ANITA               1            201001040933   172965-7000 
807652O FX20091230070760T N C INDUSTRIES INC     0001TNC INDUSTRIES  INC           7100 MEDICINE LAKE ROAD                                     NEW HOPE         MN 55427     V-DOUG    29797     C10000000000 80765220100111000062001020100000000403010000004260000016000000022001002200050000000000000060421000015*** THANKS FOR THE ORDER ***        WE APPRECIATE YOUR BUSINESS       00000000       3 0012009123020100104MNT201001081   1000000      V-DOUG              1            201001040907               
807653O 9920091230033550HARRIS COMPANIES         0670HARRIS COMPANIES              %TRUSTONE                     2817 LYNDALE AVENUE S.        MPLS             MN 55408     ANITA     70670     P10000000000 80765320100111000046501020100000000403010000000000000000000000022101000000000000000000000060431000018*** THANKS FOR THE ORDER ***        WE APPRECIATE YOUR BUSINESS       00000087       3 0012010010420100104MNN201001082   1000000      ANITA               1                           172966-7000 
807655OC9920100104000010MISCELLANEOUS CASH ACCT. 0000SUN AIR SHEET METAL           3250 EASY STREET                                            FAIRBANKS       AK  99701     1486                PC0000000000 80765520100111000887201020100000000403010000000000000000000000019991000000000000000000000060421000018PLEASE USE FED-EX ACCOUNT NUMBER                                      00006757       3 0012010010420100104AK 201001085   0000000      DONNA               1                                       
807656O FX20091230075100UNITED SHEET METAL       0000UNITED SHEET METAL            % CARLTON LOFTS               765 HAMPDEN AVE.              ST. PAUL, MN 55120            157171    9883      P10000000000C80765620100111001054951020100000000403010000077680000565000028222001002200004220005000750060431000010*** THANKS FOR THE ORDER ***        WE APPRECIATE YOUR BUSINESS       00000000       3I0112010010520100106MN4201001082   1000000                          1            201001051508               
807661O FX20091230017630COMMERCIAL PLBG. & HTG.  0000COMMERCIAL PLBG. & HTG.       % E.O.T.F.                    25 37TH AVENUE NORTH EAST     FRIDLEY, MN 55421             31916               P20000000000C80766120100111008796071020100000000403010000618140002248000000022001002200050000000001950060431000010*** THANKS FOR THE ORDER ***        WE APPRECIATE YOUR BUSINESS       00000000       3 0062010010520100106MNT201001082   1000000                          2            201001061301               
807664O FX20100104011820BRILCO, INC.             0000DAHL A/C                      601 MAIN STREET                                             VAN METER  IA   50261         2010-002            P20000000000C80766420100111001038601020100000000403010000000000000000000000020101000000000000000000500060421000018*** THANKS FOR THE ORDER ***        WE APPRECIATE YOUR BUSINESS       00008390       3 0142010010420100104IAN201001080   3000000      BILL B.             1                                       
807665O FX20091230042990LAWDAN INDUSTRIES, INC.  0001LAWDAN INDUSTRIES, INC.       1633 EUSTIS STREET                                          ST. PAUL,        MN 55108     L-13825             P10000000000 80766520100111000273001020100000000403010000000000000000000000022101000000000000000000000060431000018*** THANKS FOR THE ORDER ***        WE APPRECIATE YOUR BUSINESS       00000000       3 0012010010420100104MNN201001082   1000000      NORM                1                                       
807666O FX20091230042990LAWDAN INDUSTRIES, INC.  0001LAWDAN INDUSTRIES, INC.       1633 EUSTIS STREET                                          ST. PAUL,        MN 55108     L-13827             P10000000000 80766620100111000025501020100000000403010000000000000000000000022101000000000000000000000060431000018*** THANKS FOR THE ORDER ***        WE APPRECIATE YOUR BUSINESS       00000000       3 0012010010420100104MNN201001082   1000000      NORM                1                                       
807667O FX20091230042990LAWDAN INDUSTRIES, INC.  0001LAWDAN INDUSTRIES, INC.       1633 EUSTIS STREET                                          ST. PAUL,        MN 55108     L-13826             P10000000000 80766720100111000030001020100000000403010000000000000000000000022101000000000000000000000060431000018*** THANKS FOR THE ORDER ***        WE APPRECIATE YOUR BUSINESS       00000000       3 0012010010420100104MNN201001082   1000000      NORM                1                                       
807668O FX20091230053000NORDIC SERVICES INC.     0000NORDIC SERVICES INC.          12006 12TH AVENUE SOUTH                                     BURNSVILLE,     MN  55337     22320               C10000000000 80766820100111000041401020100000000403010000002850000010000000022001002200050000000000000060421000015*** THANKS FOR THE ORDER ***        WE APPRECIATE YOUR BUSINESS       00000000       3 0012009123020100104MNT201001081   1000000      22320               1            201001041441               
807669O SM20091230014250C.O. CARLSON CO.         0000C.O. CARLSON CO.              3449 2ND STREET NORTH                                       MPLS            MN  55412     8695                C10000000000 80766920100111000183271020100000000403010000012600000046000000022001002200050000000000000060421000018CALL TOM WHEN READY 612-532-5203                                      00000000       3 0012009123020100105MNT201001081   1000000      8695                1            201001051356               
807672O FX20091230070760T N C INDUSTRIES INC     0001TNC INDUSTRIES  INC           7100 MEDICINE LAKE ROAD                                     NEW HOPE         MN 55427     514-31              C10000000000 80767220100112000046201020100000000403010000003180000012000000022001002200050000000000000060421000024*** THANKS FOR THE ORDER ***        WE APPRECIATE YOUR BUSINESS       00001164       3 0012009010420100111MNT201001121   1000000      514-31              1            201001110754               
807675O FX20091230069410STROMBERG SHEET METAL    0000STROMBERG SHEET METAL         5812 TRIANGLE DRIVE                                         RALEIGH,        NC  27613     N16955    1905      P10000000000 80767520100111002110121020100000000403010000000000000000000000019991000000000000000002300060421000024*** THANKS FOR THE ORDER ***        WE APPRECIATE YOUR BUSINESS       00000000       3 0012009010420100105NC 20100108X1831000000      N16955              1                                       
807679O SM20091230056700PETERSON HEATING & A/C   0000PETERSON HEATING & A/C        6803 MERRIMAC LANE NORTH                                    MAPLE GROVE     MN  55311     V-PETERSON          C10000000000 80767920100111000034151020100000000403010000002350000009000000022001002200050000000000000060421000015*** THANKS FOR THE ORDER ***        WE APPRECIATE YOUR BUSINESS       00000000       3 0012009123020100104MNT201001081   1000000      V-PETERSON          1            201001040907               
807680O FX20091230064210SCHADEGG MECHANICAL      0000SCHADEGG MECHANICAL           225 BRIDGEPOINT DRIVE                                       SOUTH ST. PAUL, MN  55075     6969-     12803     C10000000000 807680201001110001794410201000000004030100000123400000450000000220010022000500000000000000604210000241262182620                                                            00000000       3I0122009123020100105MNT2010010810  1000000      6969-               1            201001050828               
807681O FX20091230004200ALBERS SHT MTL & VENT INC0000ALBERS SHT MTL & VENT INC     200 PLATO AVE W                                             ST PAUL         MN  55107-204519147-034           C10000000000 80768120100111000042201020100000000403010000002900000011000000022001002200050000000000000060421000015*** THANKS FOR THE ORDER ***        WE APPRECIATE YOUR BUSINESS       00000000       3 0012009123020100104MNT2010010810  1000000      19147-034           1            201001040907               
807682O FX20091230004600ALLAN MECHANICAL INC.    0000ALLAN MECHANICAL INC.         7875 FULLER ROAD                                            EDEN PRAIRIE,   MN  55344     5015                C10000000000 80768220100111000101141020100000000403010000006950000025000000022001002200050000000000000060421000014*** THANKS FOR THE ORDER ***        WE APPRECIATE YOUR BUSINESS       00000000       3 0012009123020100104MNT20100108WC  1000000      5015                1            201001040908               
807683O FX20091230076740VIKING DRILL & TOOL, INC.0000VIKING DRILL & TOOL, INC.     355 STATE STREET                                            ST. PAUL,       MN  55107     V-13853             P10000000000 80768320100111000082311020100000000403010000009100000066000003322001002200004220005000500060431000015*** THANKS FOR THE ORDER ***        WE APPRECIATE YOUR BUSINESS       00000000       3 0012010010420100104MN4201001082   1000000      V-13853             1            201001040930               
807684O SM20091230007650BAETE-FORSETH HVAC       0001BAETE FORSETH HTG & A/C       4700 NORTH NORTHVIEW AVENUE                                 SIOUX FALLS      SD 57107     117311    SDSU MICROP10000000000 80768420100111000111551020100000000403010000000000000000000000026101000000000000000000070060421000024*** THANKS FOR THE ORDER ***        WE APPRECIATE YOUR BUSINESS       00000566       3 0012009010420100105SDN201001080   1000000      117311              1                                       
807686O FX20100104004600ALLAN MECHANICAL INC.    0000ALLAN MECHANICAL INC.         7875 FULLER ROAD                                            EDEN PRAIRIE,   MN  55344     5048                C10000000000 80768620100111000173171020100000000403010000011910000043000000022001002200050000000000000060421000014*** THANKS FOR THE ORDER ***        WE APPRECIATE YOUR BUSINESS       00000000       3 0012010010420100104MNT20100108WC  1000000      5048                1            201001040908               
807687O   20100104051800NS/I MECHANICAL CONTR CO.0000NS/I MECHANICAL CONTR CO.     NORTHWESTERN SERVICE, INC     4401 QUEBEC AVENUE NO         NEW HOPE        MN  55428     3112-92330          C10000000000 80768720100111000045401020100000000403010000003120000011000000022001002200050000000000000060421000014*** THANKS FOR THE ORDER ***        WE APPRECIATE YOUR BUSINESS       00000303       3 0022010010420100104MNT20100108WC  1000000      3112-92330          1            201001040907               
807690O FX20100104065140SEMCO INCORPORATED       0001SEMCO INCORPORATED            1967 BLUE HILLS DRIVE NE                                    ROANOKE          VA 24012     RO25398             P20000000000 80769020100111000208001020100000000403010000000000000000000000019991000000000000000000740060421000018*** THANKS FOR THE ORDER ***        WE APPRECIATE YOUR BUSINESS       00000000       3 0012010010420100104VA 201001084   3000000      RO25398             1                                       
807691O 9920100104046120MC MASTER-CARR SUPPLY CO.0005MC MASTER-CARR SUPPLY CO.     200 AURORA INDUSTRIAL PARKWAY                               AURORA           OH 44202     UU79640160          P20000000000 80769120100111000087301020100000000403010000000000000000000000019991000000000000000000000060421000018PLEASE USE UPS ACCT #Y6196E                                           00000000       3 0012010010420100104OH 201001084   3000000      UU79640160          1                                       
807692O 9920100104033550HARRIS COMPANIES         0673HARRIS COMPANIES              %U OF M FAIRVIEW HOSPITAL     608 SOUTH 25TH AVENUE         MPLS             MN 55454     ANITA     70673     P10000000000 80769220100111000693151020100000000403010000000000000000000000022101000000000000000000750060431000018*** THANKS FOR THE ORDER ***        WE APPRECIATE YOUR BUSINESS       00000000       3 0102010010520100105MNN201001082   1000000      ANITA               1            201001041541   173039-7600 
807693O SM20100104002400AIR CORPS, LLC           0000AIR CORPS, LLC                3700 ANNAPOLIS LANE NORTH     SUITE 175                     PLYMOUTH        MN  55447-543510226               C10000000000 80769320100111000230901020100000000403010000015870000058000000022001002200050000000000000060421000005*** THANKS FOR THE ORDER ***        WE APPRECIATE YOUR BUSINESS       00000000       3 0012010010420100104MNT2010010810  1000000      10226               1            201001041055               
807694O 9920100104033550HARRIS COMPANIES         7299HARRIS COMPANIES              % TCF STADIUM                 2009 UNIVERSITY AVENUE        MPLS             MN 55414     ANITA     70532     P10000000000 80769420100111000477141020100000000403010000000000000000000000022101000000000000000000750060431000018*** THANKS FOR THE ORDER ***        WE APPRECIATE YOUR BUSINESS       00000165       3 0012010010420100106MNN201001082   1000000      ANITA               1            201001051422   173051-9626 
807695O SM20100104049250METROPOLITAN MECH CONTR. 0000METROPOLITAN MECH CONTR.      7340 WASHINGTON AVE. SO.                                    EDEN PRAIRIE    MN  55344-3582J204A39474204T7059  C10000000000 80769520100111000688211020100000000403010000047310000172000000022001002200050000000000000060421000010DRIVER ON HIS WAY. PLEASE          PACK A.S.A.P.                      00002727       3 0032010010420100104MNT201001081   1000000      J204A39474          1            201001041055               
807696O 9920100104033550HARRIS COMPANIES         7050HARRIS COMPANIES              %MPLS CHILDRENS HOSPITAL      2525 CHICAGO AVENUE           MINNEAPOLIS      MN 55404     ANITA     40280     P10000000000 80769620100111000235551020100000000403010000000000000000000000022101000000000000000000750060431000018*** THANKS FOR THE ORDER ***        WE APPRECIATE YOUR BUSINESS       00000000       3 0092010010520100105MNN201001082   1000000      ANITA               1                           173050-7600 
807697O FX20100104026200F M SHEET METAL COMPANY  0000F M SHEET METAL COMPANY       3000 PIERCE PARKWAY                                         SPRINGFIELD     OR  97477-796699-125              P10000000000 80769720100111001800001020100000000403010000000000000000000000019991000000000000000000000060421000010*** THANKS FOR THE ORDER ***        WE APPRECIATE YOUR BUSINESS       00000000       3 0012010010420100104OR 20100108X0051000000      99-125              1            201001041223               
807701O SM20100104049250METROPOLITAN MECH CONTR. 0000METROPOLITAN MECH CONTR.      7340 WASHINGTON AVE. SO.                                    EDEN PRAIRIE    MN  55344-3582W204A1921820419778  C10000000000 80770120100111000205001020100000000403010000014090000051000000022001002200050000000000000060421000005*** THANKS FOR THE ORDER ***        WE APPRECIATE YOUR BUSINESS       00000000       3 0012010010420100104MNT2010010810  1000000      W204A19218          2            201001040907               
807702O FX20100104043190LEGACY COMPANIES, INC.   0000LEGACY COMPANIES, INC.        8850 WENTWORTH AVENUE SO.                                   BLOOMINGTON     MN  55420     6283-     093034    C10000000000 807702201001110000570010201000000004030100000039200000140000000220010022000500000000000000604210000241262264760                                                            00000000       3I0032010010420100104MNT2010010810  1000000      6283-               1            201001040918               
807703O FX20100104043190LEGACY COMPANIES, INC.   0000LEGACY COMPANIES, INC.        8850 WENTWORTH AVENUE SO.                                   BLOOMINGTON     MN  55420     6284-     097004    C10000000000 807703201001110005992810201000000004030100000412000001500000000220010022000500000000000000604210000241262263560                                                            00000660       3I0232010010420100104MNT2010010810  1000000      6284-               1            201001040918               
807705O FX20100104017703CONDITIONED AIR, INC.    0052CONDITIONED AIR, INC.         C/O KNOCK                     1315 GLENWOOD AVE. N.         MINNEAPOLIS      MN 55405     KNOCK     RTU 3     P10000000000 80770520100111000862291020100000000403010000064440000469000037522001002200001220001400750060431000024*** THANKS FOR THE ORDER ***        WE APPRECIATE YOUR BUSINESS       00000044       3I0072009010520100106MN1201001082   1000000      KNOCK               1            201001051459               
807710O FX20100104017703CONDITIONED AIR, INC.    0052CONDITIONED AIR, INC.         C/O KNOCK                     1315 GLENWOOD AVE. N.         MINNEAPOLIS      MN 55405     KNOCK     HRV       P10000000000 80771020100111000324271020100000000403010000022290000162000013022001002200001220001400000060431000024*** THANKS FOR THE ORDER ***        WE APPRECIATE YOUR BUSINESS       00000000       3I0012009010520100106MN1201001082   1000000      KNOCK               1                                       
807711O FX20100104017703CONDITIONED AIR, INC.    0052CONDITIONED AIR, INC.         C/O KNOCK                     1315 GLENWOOD AVE. N.         MINNEAPOLIS      MN 55405     KNOCK     RTU 2     P10000000000 80771120100111000098251020100000000403010000006750000049000003922001002200001220001400000060431000024*** THANKS FOR THE ORDER ***        WE APPRECIATE YOUR BUSINESS       00000000       3I0012010010520100106MN1201001082   1000000      KNOCK               1                                       
807714O   20100104045600MC DOWALL COMPANY        0001MC DOWALL COMPANY             1431 PROSPER DRIVE                                          WAITE PARK       MN 56387     MD635               C10000000000 80771420100111000261751020100000000403010000018000000131000000022001002200006000000000000060421000005                                                                      00000000       3 0012010010420100104MN620100108SCGN1000000      MD635               1            201001041237               
807715O FX20100104065200SENTRA-SOTA SHT MTL INC  0001SENTRA-SOTA SHT METAL INC     3075 THIRD STREET SOUTH                                     WAITE PARK       MN 56387     DOUGLAS   COUNTY    C10000000000 80771520100111000466801020100000000403010000032090000233000000022001002200006000000000000060421000024                                                                      00000000       3I0042009010420100104MN620100108SCGN1000000      DOUGLAS             1            201001041223               
807717O FX20100104042990LAWDAN INDUSTRIES, INC.  0001LAWDAN INDUSTRIES, INC.       1633 EUSTIS STREET                                          ST. PAUL,        MN 55108     L13831              P10000000000 80771720100111000398001020100000000403010000000000000000000000022101000000000000000000550060431000005*** THANKS FOR THE ORDER ***        WE APPRECIATE YOUR BUSINESS       00000000       3 0012010010420100104MNN201001082   1000000                          1            201001040921               
807719O FX20100104059350R C MECHANICAL           0000R C MECHANICAL                51231 NORTH US 41                                           HANCOCK         MI  49930     7195                P10000000000 80771920100111000345101020100000000403010000000000000000000000019991000000000000000000110060421000005*** THANKS FOR THE ORDER ***        WE APPRECIATE YOUR BUSINESS       00002494       3 0012010010420100104MI 201001084   1000000                          1                                       
807720O FX20100104000800ACCEL MECHANICAL, LLC    0006ACCEL MECHANICAL, LLC         % FORD BUILDING               505 BROADWAY                  FARGO            ND 58102     FAX/ GREG FORD BLDG P10000000000 80772020100112000762231020100000000403010000000000000000000000019991000000000000000000590060421000024                                                                      00001164       3 0012010010520100105ND 20100112X0171000000      FAX/ GREG           1            201001051318               
807721O FX20100104036145HRANEC SHEET METAL INC.  0000G P I                         440 SHOUP MILL ROAD                                         DAYTON  OH   45409            2930SPIRALS13086    P20000000000C80772120100111000413201020100000000403010000000000000000000000000000000000000000000000950060421000018JOE OLIVER 614-402-0992                                               00000000       3 0012010010420100105PA 20100108ODFL3000000      2930SPIRAL          1            201001051301               
807723O FX20100104001560ADVANCED MECH SYSTEMS LLC0000ADVANCED MECH SYSTEMS LLC     17625 30TH PLACE NORTH                                      PLYMOUTH        MN  55447     1003ME    SOLO PIZZAC10000000000 80772320100111000220241020100000000403010000015140000055000000022001002200050000000000000060421000005*** THANKS FOR THE ORDER ***        WE APPRECIATE YOUR BUSINESS       00000000       3 0012010010520100105MNT20100108WC  1000000      MIKE ERICSON        1            201001050907               
807727O FX20100104009400BERGLUND HEATING, SHTMTL 0000BERGLUND HEATING, SHTMTL      % ICE ARENA                   801 FISHER AVE                CROOKSTON, MN 56716           V/DAVE    CROOKSTON P10000000000C80772720100111000285501020100000000403010000024170000000000000022001000000000000000000660060421000010*** THANKS FOR THE ORDER ***        WE APPRECIATE YOUR BUSINESS       00001302       3 0012010010420100104MN 20100108X0171000000      V/DAVE              1            201001041125               
807730O FX20100104060350RANDALL BROS. HTG. & A/C.0000RANDALL BROS. HTG. & A/C.     902 OLYMPIC DRIVE                                           CLOQUET,        MN  55720     CULVERS             P10000000000 80773020100111000035001020100000000403010000002820000000000000022001000000000000000000060060421000010*** THANKS FOR THE ORDER ***        WE APPRECIATE YOUR BUSINESS       00000000       3 0012010010420100104MN 201001080   1000000      CULVERS             1                                       
807732O FX20100104020060DAKOTA MECHANICAL        0000DAKOTA MECHANICAL             % PRAIRIE SEEDS               6200 WEST BROADWAY AVE        BROOKLYN PARK, MN 55428       904392              P10000000000C80773220100112000368391020100000000403010000000000000000000000022101000000000000000000600060431000010                                                                      00000050       3 0012010010520100108MNN201001122   1000000                          1            201001071513               
807734O 9920100104024050EGAN MECHANICAL CONTR.INC0000EGAN MECHANICAL CONTR.INC     7625 BOONE AVENUE NORTH                                     BROOKLYN PARK   MN  55428     SMGL000833          P20000000000 80773420100111002081551020100000000403010000143110000312000052022001002200014220005000000060431000018*** THANKS FOR THE ORDER ***        WE APPRECIATE YOUR BUSINESS       00000564       3 0012010010520100105MNH201001082   1000000      MIKE C.             1            201001050839               
807736O 9920100104033550HARRIS COMPANIES         7050HARRIS COMPANIES              %MPLS CHILDRENS HOSPITAL      2525 CHICAGO AVENUE           MINNEAPOLIS      MN 55404     ANITA     40280     P10000000000 80773620100111000190351020100000000403010000000000000000000000022101000000000000000000000060431000018*** THANKS FOR THE ORDER ***        WE APPRECIATE YOUR BUSINESS       00000094       3 0052010010520100105MNN201001082   1000000      ANITA               1            201001041538   173052-7600 
807737O FX20100104018520CORPORATE MECHANICAL     0000CORPORATE MECHANICAL          % SANDSTROM                   515 MARYLAND AVE WEST         ST. PAUL, MN                  J1798               P10000000000 80773720100111000015751020100000000403010000001080000008000000422001002200004220005000000060431000024*** THANKS FOR THE ORDER ***        WE APPRECIATE YOUR BUSINESS       00000100       3 0012009010420100104MN4201001082   1000000      J1798               1                                       
807740OC9920100104000010MISCELLANEOUS CASH ACCT. 0000FIDELITY MECHANICAL           756 WEST TIPTON STREET                                      TUCSON          AZ  85705     V/JIM               PC0000000000 80774020100111000012401020100000000403010000000000000000000000019991000000000000000000090060421000018*** THANKS FOR THE ORDER ***        WE APPRECIATE YOUR BUSINESS       00000095       3 0012010010420100104AZ 201001084   0000000      V/JIM               1                                       
807741O FX20100104078450WEIDNER SHEET METAL      0001WEIDNER SHEET METAL           29 WILSON AVENUE NE                                         ST CLOUD         MN 56304     PM334079  V.A.SDAY  C10000000000 80774120100111000110981020100000000403010000007630000055000000022001002200006000000000000060421000005*** THANKS FOR THE ORDER ***        WE APPRECIATE YOUR BUSINESS       00000000       3 0012010010420100104MN620100108SCGN1000000      PM334079            1                                       
807744OC9920100104000010MISCELLANEOUS CASH ACCT. 0000MIDWEST INSULATION LLC        % BRICKYARD                   408 EAST HOWARD ST            HIBBING         MN  55746                         CC0000000000C80774420100111000531541020100000000403010000036540000133000000022001002200050000000000000060421000014*** THANKS FOR THE ORDER ***        WE APPRECIATE YOUR BUSINESS       00000000       3 0012010010420100104MNT20100108WC  0000000                          1            201001041442               
807753O FX20100104010950BOSTROM SHEET METAL      0000BOSTROM SHEET METAL           %REFLEX MEDICAL               2480 7TH AVENUE E.            N.ST.PAUL  MN   55109         413117    REFLEXMED P10000000000C80775320100111000230001020100000000403010000020970000153000007622001002200004220005000750060431000018*** THANKS FOR THE ORDER ***        WE APPRECIATE YOUR BUSINESS       00000000       3 0012010010420100104MN4201001082   1000000      413117              1            201001041138               
807755O FX20100104078450WEIDNER SHEET METAL      0001WEIDNER SHEET METAL           29 WILSON AVENUE NE                                         ST CLOUD         MN 56304     PM334080  SHOP STOCKC10000000000 80775520100111000318211020100000000403010000021880000159000000022001002200006000000000000060421000005*** THANKS FOR THE ORDER ***        WE APPRECIATE YOUR BUSINESS       00000000       3 0012010010420100104MN620100108SCGN1000000      PM334080            1            201001041222               
807757O SM20100104046520MAJOR MECHANICAL INC.    0018MAJOR MECHANICAL INC.         %VADNAIS HEIGHTS SERVICE CNTR 665 EAST COUNTY ROAD "F"      VADNAIS HEIGHTS  MN           50724     V.H.S.C.  P10000000000 80775720100111000546641020100000000403010000041710000152000000022001002200050000000000600060431000018*** THANKS FOR THE ORDER ***        WE APPRECIATE YOUR BUSINESS       00000151       3 0012010010520100105MNT201001082   1000000      50724               1            201001050828               
807758O FX20100104053300NORTHERN AIR CORPORATION 0000NORTHERN AIR CORPORATION      1001 LABORE INDUS. COURT                                    VADNAIS HEIGHTS MN  55110     6275MB-   800J      C20000000000 807758201001110016497910201000000004030100001134200004120000000220010022000500000000000000604210000241262601180                                                            00001447       3I0242010010420100104MNT2010010810  1000000      6275MB-             1            201001041504               
807759O   20100104077550WALDINGER CORPORATION    0000WALDINGER CORPORATION         4226 SOUTH 80TH STREET                                      OMAHA,          NE  68127     107412              P10000000000 80775920100111000060501020100000000403010000000000000000000000024101000000000000000000110060421000008*** THANKS FOR THE ORDER ***        WE APPRECIATE YOUR BUSINESS       00000000       3 0012010010420100104NEN201001080   1000000      107412              1                                       
807762O FX20100104070760T N C INDUSTRIES INC     2510T N C INDUSTRIES INC          % MTS CHARTER SCHOOL          2860 LAKE STREET                MINNEAPOLIS    MN 55406     29797               P10000000000 80776220100111000905261020100000000403010000067390000490000039222001002200001220001400750060431000008*** THANKS FOR THE ORDER ***        WE APPRECIATE YOUR BUSINESS       00000000       3 0012010010620100106MN1201001082   1000000      29797               3            201001051420               
807769O SM20100104049250METROPOLITAN MECH CONTR. 0000METROPOLITAN MECH CONTR.      7340 WASHINGTON AVE. SO.                                    EDEN PRAIRIE    MN  55344-3582J202A24954202X8047  C10000000000 80776920100111000047431020100000000403010000003260000012000000022001002200050000000000000060421000024*** THANKS FOR THE ORDER ***        WE APPRECIATE YOUR BUSINESS       00000000       3 0042010010420100105MNT2010010810  1000000      J202A24954          1            201001050827               
807770O FX20100104006300ASDCO / DIV. OF JAMAR CO.0000ASDCO / DIV. OF JAMAR CO.     4701 MIKE COLALILLO DRIVE                                   DULUTH,         MN  55807     226545    C09009    C10000000000 80777020100111000591471020100000000403010000040660000591000000022001002200010000000000000060421000024                                                                      00000000       3I0122010010420100105MND20100108X0071000000      226545              1            201001051103               
807771O SM20100104049250METROPOLITAN MECH CONTR. 5985METROPOLITAN MECH CONTR.      % REGIONS HOSPITAL / SHOP     640 JACKSON STREET            ST.PAUL          MN 55101     ORDER 216 202G7012  P10000000000 80777120100111002278671020100000000403010000000000000000000000022101000000000000000000950060431000008*** THANKS FOR THE ORDER ***        WE APPRECIATE YOUR BUSINESS       00000678       3 0012010010520100106MNN201001082   1000000      ORDER 216           1            201001051510   J202A22674  
807773O FX20100104011820BRILCO, INC.             0000BRILCO, INC.                  3400 100TH STREET                                           URBANDALE       IA  50322-38112009-714            P20000000000 80777320100111000000001020100000000403010000000000000000000000020101000000000000000000000060421000018*** THANKS FOR THE ORDER ***        WE APPRECIATE YOUR BUSINESS       00000000       3 0012010010420100104IAN201001080   0000000      2009-714            1                                       
807775O FX20100104017630COMMERCIAL PLBG. & HTG.  0000COMMERCIAL PLBG. & HTG.       % OAK PARK HEIGHTS CITY HALL  14168 OAK PARK BLVD N         OAK PARK HEIGHTS, MN 55082    22408               P20000000000C80777520100111000079841020100000000403010000005490000020000000022001002200050000000000000060431000010*** THANKS FOR THE ORDER ***        WE APPRECIATE YOUR BUSINESS       00000000       3 0012010010520100105MNT201001082   1000000      22408               1                                       
807777O FX20100104070760T N C INDUSTRIES INC     0000T N C INDUSTRIES INC          C/O WELLS FARGO PL            7900 XERXES AVE               BLOOMINGTON, MN 55431         29447-33            P10000000000 80777720100112000929111020100000000403010000069030000151000025122001002200014220005000750060431000010                                                                      00001164       3 0032010010520100107MNH201001122   1000000                          1            201001061329               
807779O SM20100104049250METROPOLITAN MECH CONTR. 7479METROPOLITAN MECH CONTR.      % TWINS STADIUM / SHOP        1100 - 3RD AVE N              MPLS             MN 55403     ORDER 1140202X7479  P10000000000 80777920100111000510891020100000000403010000000000000000000000022101000000000000000000750060431000008BL 8217                                                               00000330       3 0012010010620100106MNN201001082   1000000      ORDER 1140          1            201001060845   J202A24177  
807780O 9920100104034390HERCULES INDUSTRIES      0000G M M I                       %GUNNISON HIGH SCHOOL         800 WEST OHIO AVENUE          GUNNISON  CO   81230          100427              P20000000000C80778020100111000214201020100000000403010000000000000000000000019991000000000000000000380060421000018ATTN: ERIC WAGNER                                                     00000000       3 0012010010420100104CO 201001084   3000000      100427              1                                       
807781O JR20100104053250NORTH COUNTRY SHEET METAL0000NORTH COUNTRY SHEET METAL     1463 HARBOR STREET                                          OGILVIE         MN  56358     V TODD              C50000000000C80778120100111000304001020100000000403010000020900000076000000022001002200050000000000000060421000008*** THANKS FOR THE ORDER ***        WE APPRECIATE YOUR BUSINESS       00000000       3 0012010010420100104MNT2010010810  1000000      V TODD              2            201001041525               
807782O FX20100104063750ST. CLOUD REFRIGERATION  0000ST. CLOUD REFRIGERATION       604 LINCOLN AVENUE N.E.                                     ST. CLOUD,      MN  56301     9946W               C10000000000 80778220100111000084651020100000000403010000005820000042000000022001002200006000000000000060421000010*** THANKS FOR THE ORDER ***        WE APPRECIATE YOUR BUSINESS       00000000       3 0012010010420100105MN620100108SCGN1000000      9946W               1            201001051103               
807783O FX20100104004200ALBERS SHT MTL & VENT INC0000ALBERS SHT MTL & VENT INC     200 PLATO AVE W                                             ST PAUL         MN  55107-20452277                P10000000000 80778320100111001100001020100000000403010000080780000588000029422001002200004220005000750060431000005*** THANKS FOR THE ORDER ***        WE APPRECIATE YOUR BUSINESS       00000000       3 0012010010520100105MN4201001082   1000000      2277                1            201001041535               
807784O SM20100104049250METROPOLITAN MECH CONTR. 8416METROPOLITAN MECH CONTR.      % MEDICAL BIOSCIENCE - SHOP   2101 - 6TH ST SE              MPLS.,           MN 55455     ORDER 204 202X8416  P10000000000 80778420100111000022751020100000000403010000001480000011000000922001992200001220001400000060431000008BL 8207                                                               00000000       3 0012010010520100106XN1201001082   1000000      ORDER 204           1                           J202A24445  
807785O SM20100104049250METROPOLITAN MECH CONTR. 5985METROPOLITAN MECH CONTR.      % REGIONS HOSPITAL / SHOP     640 JACKSON STREET            ST.PAUL          MN 55101     BL 8209   202G7012  P10000000000 80778520100112000359731020100000000403010000000000000000000000022101000000000000000000000060431000008*** THANKS FOR THE ORDER ***        WE APPRECIATE YOUR BUSINESS       00000000       3 0012010010620100107MNN201001122   1000000      BL 8209             1                           J202A22674  
807788O SM20100104049250METROPOLITAN MECH CONTR. 9022METROPOLITAN MECH CONTR.      % U OF M STSS / SHOP          222 PLEASENT ST SE            MPLS             MN 55455     BL 8202   202X9022  P10000000000 80778820100112000895641020100000000403010000058220000448000035822001992200001220001400000060431000008*** THANKS FOR THE ORDER ***        WE APPRECIATE YOUR BUSINESS       00000000       3 0012010011120100107XN1201001122   1000000      BL 8202             1                           J202A27721  
807790O FX20100104027295FIRST SUPPLY LLC         0002ROCHESTER SUPPLY COMPANY      3815 HIGHWAY 14 WEST                                        ROCHESTER        MN 55901     2111604             C20000000000 80779020100111000538751020100000000403010000000000000000000000022101000000000000000000000060421000015*** THANKS FOR THE ORDER ***        WE APPRECIATE YOUR BUSINESS       00000000       3 0012009010520100106MNN201001081   1000000      2111604             1            201001061107               
807791O SM20100104049250METROPOLITAN MECH CONTR. 9022METROPOLITAN MECH CONTR.      % U OF M STSS / SHOP          222 PLEASENT ST SE            MPLS             MN 55455     BL 8203   202X9022  P10000000000 80779120100112000262661020100000000403010000017070000131000010522001992200001220001400000060431000008                                                                      00000000       3 0012010011120100107XN1201001122   1000000      BL 8203             1                           J202A27721  
807792O SM20100104049250METROPOLITAN MECH CONTR. 9022METROPOLITAN MECH CONTR.      % U OF M STSS / SHOP          222 PLEASENT ST SE            MPLS             MN 55455     BL 8208   202X9022  P10000000000 80779220100112001231161020100000000403010000080030000616000049222001992200001220001400000060431000008*** THANKS FOR THE ORDER ***        WE APPRECIATE YOUR BUSINESS       00000000       3 0012010011120100107XN1201001122   1000000      BL 8208             1            201001061423   J202A27721  
807798O FX20100104029600GENERAL S/M COMPANY, LLC 0000GENERAL S/M COMPANY, LLC      2330 LOUISIANA AVE. NO.                                     GOLDEN VALLEY   MN  55427     50331     10-6685   C10000000000 80779820100111000256901020100000000403010000017660000064000000022001002200050000000000000060421000024*** THANKS FOR THE ORDER ***        WE APPRECIATE YOUR BUSINESS       00000188       3I0022010010520100106MNT20100108WC  1000000      50331               1            201001061344   PRO MED     
807802O FX20100105058279PRECISION SHEET METAL INC0000PRECISION SHEET METAL INC     1518 13TH STREET                                            BELLE PLAINE    IA  52208     TAMA PAPERBOARD     P10000000000C80780220100111000077751020100000000403010000000000000000000000020101000000000000000000110060421000010PLEASE SHIP TODAY 1/5/10                                              00000020       3 0022010010520100106IAN201001080   1000000      DAVE                1                                       
807805O FX20100104069945SUPERIOR HTG,A/C & ELEC. 0000SUPERIOR HTG,A/C & ELEC.      3731 THURSTON AVE N.W.        SUITE 108                     ANOKA,          MN  55303     4507                C10000000000 80780520100111002182891020100000000403010000150070000546000000022001002200050000000000000060421000018MARK 612-919-3166                                                     00000108       3 0022010010420100105MNT201001081   1000000      4507                1            201001051356               
807806O FX20100104062810ROYER'S INC              0000ROYER'S INC                   44 SOUTH MAIN STREET          BOX 693                       WINNEBAGO       MN  56098     V-DICK    KAHLER    C10000000000 80780620100111000161551020100000000403010000011110000000000000022001000000000000000000000060421000005*** THANKS FOR THE ORDER ***        WE APPRECIATE YOUR BUSINESS       00000000       3 0010000000020100105MN 20100108MDGT1000000      V-DICK              1            201001051301               
807807O 9920100104033550HARRIS COMPANIES         0398HARRIS COMPANIES                                            211 2ND AVENUE                AUSTIN           MN 55912     173062    80398-7600P10000000000 80780720100111000690651020100000000403010000049270000358000000022001002200016000000000260060421000018TAG BOX: ATTN RANDY W/HIMEC                                           00005744       3 0012010010420100105MNS201001080   1000000      173062              1                                       
807809O FX20100104043190LEGACY COMPANIES, INC.   0000LEGACY COMPANIES, INC.        8850 WENTWORTH AVENUE SO.                                   BLOOMINGTON     MN  55420     6331-     093004    C10000000000 807809201001110032993010201000000004030100002268300008250000000220010022000500000000000000604210000241262607780                                                            00000500       3I1282009010520100106MNT20100108WC  1000000      6331-               1            201001061107               
807813O FX20100104029600GENERAL S/M COMPANY, LLC 7135GENERAL S/M COMPANY, LLC      % EXCELSIOR CROSSING          9320 EXCELSIOR BLVD           HOPKINS          MN 55343     50332     09-7135   P10000000000 80781320100112000508501020100000000403010000039080000085000014222001002200014220005000600060431000024                                                                      00000000       3I0182009010820100108MNH201001122   1000000      50332               1            201001071509   ALLOVER     
807814O FX20100104017630COMMERCIAL PLBG. & HTG.  0000COMMERCIAL PLBG. & HTG.       % E.O.T.F.                    25 37TH AVENUE NORTH EAST     FRIDLEY, MN 55421             31916               P20000000000C80781420100111000116291020100000000403010000007990000029000000022001002200050000000000000060431000010*** THANKS FOR THE ORDER ***        WE APPRECIATE YOUR BUSINESS       00000000       3 0012010010420100105MNT201001082   1000000      31916               1                                       
807816O FX20100104052060NATIONAL HEATING & VENT  0000NATIONAL HEATING & VENT       818 IRON AVENUE S.E.                                        ALBUQUERQUE,    NM  87102-39451904                P10000000000 80781620100111001050001020100000000403010000000000000000000000019991000000000000000000000060421000005*** THANKS FOR THE ORDER ***        WE APPRECIATE YOUR BUSINESS       00000000       3 0012010010520100105NM 20100108X1831000000      1904                1                                       
807817O SM20100104049250METROPOLITAN MECH CONTR. 3781METROPOLITAN MECH CONTR.      % SOUTHSIDE DENTAL            4305 4TH AVE SO               MPLS             MN 55409     J204A39484204M3781  P10000000000C80781720100111000192301020100000000403010000017350000126000010122001002200001220001400600060431000005*** THANKS FOR THE ORDER ***        WE APPRECIATE YOUR BUSINESS       00000000       3 0012010010520100105MN1201001082   1000000      J204A39484          1            201001050847               
807818O 9920100104034390HERCULES INDUSTRIES      0005HERCULES INDUSTRIES - PHX     404 WEST 21ST ST                                            TEMPE            AZ 85282     100431              P20000000000 80781820100111000014251020100000000403010000000000000000000000019991000000000000000000080060421000018*** THANKS FOR THE ORDER ***        WE APPRECIATE YOUR BUSINESS       00000000       3 0012010010520100105AZ 201001084   3000000      100431              1                                       
807819O FX20100104055950PAUL'S SHEET METAL INC   0000PAUL'S SHEET METAL INC        1017 HAUGEN AVENUE                                          RICE LAKE       WI  54868     7-10-S              P10000000000C80781920100111000251001020100000000403010000000000000000000000028101000000000000000000180060421000005*** THANKS FOR THE ORDER ***        WE APPRECIATE YOUR BUSINESS       00000000       3 0012010010520100105WIN201001080   1000000      7-10-S              1                                       
807820O JR20100104076895VOGEL SHEETMETAL INC.    0000VOGEL SHEETMETAL INC.         % JOBSITE                     6111 EXCELSIOR BLVD           ST. LOUIS PARK, MN            5209      PAULA     P10000000000C80782020100111001244751020100000000403010000090730000660000052822001002200001220001400750060431000024CRAIG: 651-248-1536                                                   00000958       3I0012009010520100106MN1201001082   1000000      5209                1            201001060957               
807822O FX20100104048852METAL MASTERS, INC.      0000METAL MASTERS, INC.           3825 CRATER LAKE HWY.                                       MEDORD          OR  97504     102127-69           P10000000000 80782220100111000357211020100000000403010000000000000000000000019991000000000000000001480060421000015*** THANKS FOR THE ORDER ***        WE APPRECIATE YOUR BUSINESS       00000000       3 0012009010520100105OR 20100108ODFL1000000      QUOTE               1            201001051301               
807823O 9920100104047200MARVIN LUMBER & CEDAR CO 0001MARVIN LUMBER & CEDAR CO      401 STATES AVE                                              WARROAD          MN 56763     7123033WRD2348500   P10000000000 80782320100111000080801020100000000403010000006040000000000000022001000000000000000000070060421000008*** THANKS FOR THE ORDER ***        WE APPRECIATE YOUR BUSINESS       00000000       3 0012010010620100106MN 201001080   1000000      7123033WRD          1                                       
807826O FX20100104004600ALLAN MECHANICAL INC.    0000ALLAN MECHANICAL INC.         7875 FULLER ROAD                                            EDEN PRAIRIE,   MN  55344     5015                C10000000000 80782620100111000060001020100000000403010000004130000015000000022001002200050000000000000060421000014*** THANKS FOR THE ORDER ***        WE APPRECIATE YOUR BUSINESS       00000384       3 0022010010420100104MNT20100108WC  1000000      5015                1            201001041513               
807828O FX20100104006400ASSOCIATED MECH CONTR INC0001ASSOCIATED MECHANICAL CONTR   1257 MARSCHALL ROAD           SUITE 104                     SHAKOPEE         MN 55379     112814    STOCK     C10000000000 80782820100111000302101020100000000403010000020770000076000000022001002200050000000000000060421000005*** THANKS FOR THE ORDER ***        WE APPRECIATE YOUR BUSINESS       00000000       3I0012010010520100105MNT20100108WC  1000000      112814              1            201001050926               
807829O FX20100104068600STAINLESS SPECIALISTS INC0001STAINLESS SPECIALISTS INC     % RIVER VALLEY BANK           4107 BARBICAN AVE.            WESTON, WI 54476              048477    RIVERVALLYP20000000000C80782920100112000161651020100000000403010000000000000000000000028101000000000000000000140060421000024*** THANKS FOR THE ORDER ***        WE APPRECIATE YOUR BUSINESS       00000000       3I0012010010520100107WIN201001120   1000000      048477              1                                       
807831OC9920100104000010MISCELLANEOUS CASH ACCT. 0000TEXAS SHEET METAL             215 WEST CEVALLOS                                           SAN ANTONIO     TX  78204     14648               PC0000000000 80783120100111000152001020100000000403010000000000000000000000019991000000000000000000420060421000015*** THANKS FOR THE ORDER ***        WE APPRECIATE YOUR BUSINESS       00000000       3 0012009010520090105TX 201001084   3000000      14648               1                                       
807834OC9920100104000010MISCELLANEOUS CASH ACCT. 0000MIKE                          21411 TUNGSTEN STREET                                       NOW THEN        MN  55303     V-MIKE              CC0000000000 80783420100111000012541020100000000403010000000860000003000000022001002200050000000000000060421000015*** THANKS FOR THE ORDER ***        WE APPRECIATE YOUR BUSINESS       00000000       3 0012010010520090105MNT2010010810  0000000      V-MIKE              1            201001050830               
807836O SM20100105050950MODERN HEATING & AIR COND0001MODERN HEATING & AIR COND     2318 1ST STREET NE                                          MINNEAPOLIS      MN 55418     29763     R16658    C10000000000 80783620100111000065501020100000000403010000004500000016000000022001002200050000000000000060421000005*** THANKS FOR THE ORDER ***        WE APPRECIATE YOUR BUSINESS       00000332       3I0012010010520100105MNT20100108WC  1000000      29763               1            201001051355               
807837O SM20100105050950MODERN HEATING & AIR COND0001MODERN HEATING & AIR COND     2318 1ST STREET NE                                          MINNEAPOLIS      MN 55418     29764     R16507    C10000000000 80783720100111000022871020100000000403010000001570000006000000022001002200050000000000000060421000005*** THANKS FOR THE ORDER ***        WE APPRECIATE YOUR BUSINESS       00000127       3I0012010010520100105MNT20100108WC  1000000      29764               1            201001051355               
807838O FX20100105024450ELLINGSON PLUMBING & HTG.0001ELLINGSON PLUMBING & HTG      2510 BROADWAY STREET SO.                                    ALEXANDRIA       MN 56308     5291      GLACIER   C20000000000 80783820100111000405501020100000000403010000027880000000000000022001000000000000000000000060421000010                                                                      00000045       3 0012010010520090105MN 20100108X0101000000      5291                1                                       
807842O 9920100105046120MC MASTER-CARR SUPPLY CO.0004MC MASTER-CARR SUPPLY CO.     6100 FULTON INDUSTRIAL BLVD.                                ATLANTA          GA 30336-2852PB81025830          C20000000000 80784220100111000224501020100000000403010000000000000000000000019991000000000000000000000060421000018SHIP VIA: UPS FREIGHT              ON ACCOUNT #Y6196E                 00000000       3 0012010010620100106GA 201001084   3000000      PB81025830          1                                       
807843O XX20100105052030NASSEFF MECHANICAL CONTRS0000NASSEFF MECHANICAL CONTRS     122 SOUTH WABASHA STREET      SUITE 101                     ST. PAUL,       MN  55107     5350-H              C10000000000 80784320100111000576001020100000000403010000039600000144000000022001002200050000000000000060421000014*** THANKS FOR THE ORDER ***        WE APPRECIATE YOUR BUSINESS       00000750       3 0012010010520100105MNT20100108WC  1000000      5350-H              1            201001050830               
807845O FX20100105058545PRIORITY AIR MECHANICAL  0000PRIORITY AIR MECHANICAL       % ANOKA RAMSEY COMM COLLEGE   11200 MISSISSIPPI BLVD. NW    COON RAPIDS, MN 55433         1451      ADD SHEETSP10000000000C80784520100112005511761020100000000403010000385460001402000000022001002200050000000000950060431000010                                                                      00005968       3 0152010010620100107MNT201001122   1000000                          1            201001070928               
807846O SM20100105049250METROPOLITAN MECH CONTR. 7479METROPOLITAN MECH CONTR.      % TWINS STADIUM / SHOP        1100 - 3RD AVE N              MPLS             MN 55403     J202A24177202X7479  P10000000000 80784620100111000059451020100000000403010000000000000000000000022101000000000000000000350060431000005*** THANKS FOR THE ORDER ***        WE APPRECIATE YOUR BUSINESS       00000304       3 0012010010520100105MNN201001082   1000000      J202A24177          1            201001050826               
807847O FX20100105011820BRILCO, INC.             0000BRILCO, INC.                  3400 100TH STREET                                           URBANDALE       IA  50322-38112010-010            P20000000000 80784720100111000634201020100000000403010000000000000000000000020101000000000000000001400060421000018PLEASE SHIP TODAY 1-5-10                                              00000000       3 0012010010520100105IAN20100108X0053000000      2010-010            1            201001051337               
807849O SM20100105049250METROPOLITAN MECH CONTR. 0000METROPOLITAN MECH CONTR.      7340 WASHINGTON AVE. SO.                                    EDEN PRAIRIE    MN  55344-3582J204A39474204T7059  C10000000000 80784920100111000018251020100000000403010000001250000005000000022001002200050000000000000060421000014*** THANKS FOR THE ORDER ***        WE APPRECIATE YOUR BUSINESS       00000000       3 0012010010420100105MNT20100108WC  1000000      J204A39474          1            201001050830               
807850O 9920100105024050EGAN MECHANICAL CONTR.INC0000EGAN MECHANICAL CONTR.INC     7625 BOONE AVENUE NORTH                                     BROOKLYN PARK   MN  55428     SMGL000835          P20000000000 80785020100111002874941020100000000403010000197650000431000071922001002200014220005000000060431000018*** THANKS FOR THE ORDER ***        WE APPRECIATE YOUR BUSINESS       00000000       3 0012010010520100106MNH201001082   1000000      MIKE C.             1            201001060840               
807853O FX20100105002250AIR CONTROL HEATING INC  0000AIR CONTROL HEATING INC       3022 27TH AVENUE NORTH                                      GRAND FORKS     ND  58203     V/ MIKE             P10000000000 80785320100111000042601020100000000403010000000000000000000000019991000000000000000000070060421000024*** THANKS FOR THE ORDER ***        WE APPRECIATE YOUR BUSINESS       00000000       3 0012010010520100105ND 201001080   1000000      V/ MIKE             1                                       
807854O FX20100105069947SUPERIOR MECH SYSTEMS INC0000SUPERIOR MECH SYSTEMS INC     1244 60TH AVENUE N.W.         SUITE C                       ROCHESTER,      MN  55901     RJ1421    BROKER EX C10000000000 80785420100111000157051020100000000403010000010800000000000000022001000000000000000000000060421000024                                                                      00000000       3I0062010010520100105MN 20100108O   1000000      RJ1421              1            201001051301               
807856O FX20100105029600GENERAL S/M COMPANY, LLC 0000GENERAL S/M COMPANY, LLC      2330 LOUISIANA AVE. NO.                                     GOLDEN VALLEY   MN  55427     50333     10410     P10000000000 80785620100111002173101020100000000403010000149400000326000054322001002200014220005000000060431000024*** THANKS FOR THE ORDER ***        WE APPRECIATE YOUR BUSINESS       00000000       3I0012010010520100106MNH201001082   1000000      50333               1            201001060943   PRODUCTION  
807858O FX20100105011820BRILCO, INC.             0000BRILCO, INC.                  3400 100TH STREET                                           URBANDALE       IA  50322-38112010-010            P20000000000 80785820100111000129681020100000000403010000000000000000000000020101000000000000000000000060421000018SHIP WITH ORDER #807847                                               00000000       3 0012010010520100105IAN201001083   0000000      2010-010            1                                       
807861O SM20100105046520MAJOR MECHANICAL INC.    0017MAJOR MECHANICAL INC.         %NINE MILE                    2301 VILLAGE LANE             BLOOMINGTON      MN 55431     50736     NINE MILE P10000000000 80786120100112001223371020100000000403010000089260000195000032522001002200014220005000750060431000018                                                                      00000000       3 0012010010520100107MNH201001122   1000000      50736               1            201001061357001            
807862O   20100105049245METRO SHEET METAL INC.   0000METRO SHEET METAL INC.        3260 FANUM ROAD                                             ST. PAUL,       MN  55110     0751      M-8265    C10000000000 80786220100111000106501020100000000403010000007320000027000000022001002200050000000000000060421000024*** THANKS FOR THE ORDER ***        WE APPRECIATE YOUR BUSINESS       00000000       3 0012010010520100106MNT2010010810  1000000      0751                1            201001061502               
807863O FX20100105001560ADVANCED MECH SYSTEMS LLC0000ADVANCED MECH SYSTEMS LLC     17625 30TH PLACE NORTH                                      PLYMOUTH        MN  55447     V MIKE    BYERLYS   C10000000000 80786320100111000320271020100000000403010000022020000080000000022001002200050000000000000060421000008*** THANKS FOR THE ORDER ***        WE APPRECIATE YOUR BUSINESS       00000686       3 0032010010520100105MNT2010010810  1000000      V MIKE              1            201001050913               
807865O FX20100105065140SEMCO INCORPORATED       0001SEMCO INCORPORATED            1967 BLUE HILLS DRIVE NE                                    ROANOKE          VA 24012     RO25407             P20000000000 80786520100111000205201020100000000403010000000000000000000000019991000000000000000000560060421000018*** THANKS FOR THE ORDER ***        WE APPRECIATE YOUR BUSINESS       00000000       3 0012010010520100105VA 201001084   3000000      RO25407             1                                       
807866O SM20100105049250METROPOLITAN MECH CONTR. 9589METROPOLITAN MECH CONTR.      % MYSTIC LAKE CASINO / SHOP   2479 DAKOTA PKWY              PRIOR LAKE       MN 55372     J202A27928202X9589  P10000000000 80786620100111000369731020100000000403010000000000000000000000022101000000000000000000650060431000008*** THANKS FOR THE ORDER ***        WE APPRECIATE YOUR BUSINESS       00000913       3 0012010010520100105MNN201001082   1000000      J202A27928          1            201001051042               
807867O FX20100105013450CDP ENVIRONMENTAL INC.   0000CDP ENVIRONMENTAL INC.        16517 EASTLAND                                              ROSEVILLE,      MI  48066     V/JASON   STOCK     P20000000000 80786720100111000741801020100000000403010000000000000000000000019991000000000000000000890060421000018*** THANKS FOR THE ORDER ***        WE APPRECIATE YOUR BUSINESS       00000000       3 0012010010520100105MI 20100108ODFL3000000      V/JASON             1            201001051301               
807868OC9920100105000010MISCELLANEOUS CASH ACCT. 0000HOMETOWN PLBG. & HTG.         2340 56TH STREET N.E.                                       BUFFALO         MN  55313     V-MIKE              CC0000000000 80786820100111000079881020100000000403010000005490000020000000022001002200050000000000000060421000005*** THANKS FOR THE ORDER ***        WE APPRECIATE YOUR BUSINESS       00000000       3 0062010010520100106MNT201001081   0000000      MIKE                1            201001061109               
807872O FX20100105041460KRUCK PLBG & HTG CO INC  0000KRUCK PLBG & HTG CO INC       734 7TH STREET                PO BOX 189                    BOONE           IA  50036-0189F-CHAD H. ANKENY HS P10000000000 80787220100112000716801020100000000403010000000000000000000000020101000000000000000002260060421000015*** THANKS FOR THE ORDER ***        WE APPRECIATE YOUR BUSINESS       00000000       3 0012010010520100106IAN20100112X0051000000      F-CHAD H.           1            201001061303               
807873O FX20100105045800MC FARLANE, INC.         0001MC FARLANE, INC.              3473 NORTH WASHINGTON                                       GRAND FORKS      ND 58203     32055               C10000000000 80787320100111000127801020100000000403010000000000000000000000019991000000000000000000000060421000010*** THANKS FOR THE ORDER ***        WE APPRECIATE YOUR BUSINESS       00000000       3 0012010010520100105ND 20100108X0171000000      32055               1            201001051429               
807874O FX20100105029700GENZ-RYAN PLBG & HTG CO. 0000GENZ-RYAN PLBG & HTG CO.      2200 HIGHWAY 13 WEST                                        BURNSVILLE,     MN  55337-6024132605    2009-4200HP10000000000 80787420100111000666851020100000000403010000050310000000000000022001000000000000000000650060431000015*** THANKS FOR THE ORDER ***        WE APPRECIATE YOUR BUSINESS       00000000       3 0012009010520100106MN 201001082   1000000      132605              1            201001051502               
807875OC9920100105000010MISCELLANEOUS CASH ACCT. 0000AMERICAN AIR SUPPLY           % KARMEL VILLAGE              2848 PLEASANT AVE. S.         MINNEAPOLIS, MN 55408         V/JOHN              PC0000000000C80787520100111002866751020100000000403010000203620001481000118522001002200001220001400950060431000010*** THANKS FOR THE ORDER ***        WE APPRECIATE YOUR BUSINESS       00000000       3 0042010010520100106MN1201001082   0000000      V/JOHN              1            201001061109               
807876O FX20100105080955YEAROUT MECHANICAL, INC. 0000YEAROUT MECHANICAL, INC.      8501 WASHINGTON STREET NE                                   ALBUQUERQUE     NM  87113     708131A             P10000000000 80787620100111000200001020100000000403010000000000000000000000019991000000000000000000080060421000015*** THANKS FOR THE ORDER ***        WE APPRECIATE YOUR BUSINESS       00001400       3 0012009010520090105NM 201001084   1000000      708131A             1                                       
807880OC9920100105070250SVEE METALWORKS INC.     0000SVEE METALWORKS INC.          2204 7TH STREET                                             EAU CLAIRE,     WI  54703     09/50               PC0000000000 80788020100111000020101020100000000403010000000000000000000000028101000000000000000000060060421000015*** THANKS FOR THE ORDER ***        WE APPRECIATE YOUR BUSINESS       00000000       3 0012010010620100106WIN201001084   3000000      09/50               1                                       
807881O   20100105049245METRO SHEET METAL INC.   0000METRO SHEET METAL INC.        3260 FANUM ROAD                                             ST. PAUL,       MN  55110     0751                C10000000000 80788120100111000170001020100000000403010000011690000043000000022001002200050000000000000060421000015*** THANKS FOR THE ORDER ***        WE APPRECIATE YOUR BUSINESS       00000000       3 0012010010520100106MNT2010010810  1000000      0751                1            201001061502               
807882O FX20100105075100UNITED SHEET METAL       0000UNITED SHEET METAL            % U OF M CHILDRENS FAIRVIEW   2450 RIVERSIDE AVE            MINNEAPOLIS, MN 55455         157307    1896      P10000000000C80788220100111000387261020100000000403010000030750000224000017922001002200001220001400600060431000010*** THANKS FOR THE ORDER ***        WE APPRECIATE YOUR BUSINESS       00000000       3I0112010010520100106MN1201001082   1000000                          1            201001051442               
807883O FX20100105029700GENZ-RYAN PLBG & HTG CO. 0000GENZ-RYAN PLBG & HTG CO.      2200 HIGHWAY 13 WEST                                        BURNSVILLE,     MN  55337-6024132641              P10000000000 80788320100111000049801020100000000403010000003420000000000000022001000000000000000000000060431000015*** THANKS FOR THE ORDER ***        WE APPRECIATE YOUR BUSINESS       00000000       3 0012010010520100106MN 201001082   1000000      132641              1                                       
807884O FX20100105047250MASTER MECHANICAL, INC.  0000MASTER MECHANICAL, INC.       1027 GEMINI ROAD                                            EAGAN           MN  55113     50098               C20000000000 80788420100111000056701020100000000403010000003900000014000000022001002200050000000000000060421000005*** THANKS FOR THE ORDER ***        WE APPRECIATE YOUR BUSINESS       00000000       3 0012010010520100106MNT20100108WC  1000000      50098               1            201001061107               
807885O SM20100105049250METROPOLITAN MECH CONTR. 6383METROPOLITAN MECH CONTR.      % FAIRVIEW HOSPITAL           525 S 23RD AVE                MPLS             MN 55454     W204A1923420419914  P10000000000 80788520100112000562501020100000000403010000041770000304000024322001002200001220001400450060431000008*** THANKS FOR THE ORDER ***        WE APPRECIATE YOUR BUSINESS       00000000       3 0012010010520100107MN1201001122   1000000      STEVE K             1            201001061414               
807886O SM20100105014250C.O. CARLSON CO.         0000C.O. CARLSON CO.              3449 2ND STREET NORTH                                       MPLS            MN  55412     8745                C10000000000 80788620100111000134541020100000000403010000009250000034000000022001002200050000000000000060421000005*** THANKS FOR THE ORDER ***        WE APPRECIATE YOUR BUSINESS       00000252       3 0012010010520100105MNT2010010810  1000000      8745                1            201001051148               
807887O FX20100105006400ASSOCIATED MECH CONTR INC0001ASSOCIATED MECHANICAL CONTR   1257 MARSCHALL ROAD           SUITE 104                     SHAKOPEE         MN 55379     FA112810  SHOP STOCKC10000000000 80788720100111000195001020100000000403010000013410000049000000022001002200050000000000000060421000024*** THANKS FOR THE ORDER ***        WE APPRECIATE YOUR BUSINESS       00001307       3 0012010010520100106MNT201001081   1000000      FA112810            1            201001061107               
807888O XX20100105052030NASSEFF MECHANICAL CONTRS0000NASSEFF MECHANICAL CONTRS     122 SOUTH WABASHA STREET      SUITE 101                     ST. PAUL,       MN  55107     B00105013           C10000000000 80788820100111000372501020100000000403010000025610000093000000022001002200050000000000000060421000010CALL JEFF @ 651-248-4064           WHEN COMPLETE                      00000000       3 0012010010520100106MNT201001081   1000000      JEFF                1                                       
807891O FX20100105050465MILWAUKEE INSULATION CO. 0002INSULATION PLUS               6355 6TH STREET S.W.                                        CEDAR RAPIDS     IA 52404     85276               P20000000000 80789120100111000017501020100000000403010000000000000000000000020101000000000000000000060060421000018PLEASE SHIP TODAY 1-5-10                                              00000000       3 0012010010520100105IAN201001084   3000000      85276               1                                       
807892O FX20100105063750ST. CLOUD REFRIGERATION  0300ST. CLOUD REFRIGERATION                                     604 LINCOLN AVENUE N.E.       ST. CLOUD,   MN 56301         9946W               P10000000000 80789220100111000020301020100000000403010000001880000000000000022001000000000000000000070060421000005*** THANKS FOR THE ORDER ***        WE APPRECIATE YOUR BUSINESS       00000140       3 0012010010520100105MN 201001080   1000000      9946W               2                                       
807893O 9920100105024050EGAN MECHANICAL CONTR.INC0000EGAN MECHANICAL CONTR.INC     7625 BOONE AVENUE NORTH                                     BROOKLYN PARK   MN  55428     907690-   1-240     C20000000000 80789320100111000021751020100000000403010000001500000005000000022001002200050000000000000060421000018*** THANKS FOR THE ORDER ***        WE APPRECIATE YOUR BUSINESS       00000166       3 0012010010520100105MNT2010010810  1000000      907690-             1            201001051138               
807895O FX20100106032150GUNDLACH SHEET METAL     0000GUNDLACH SHEET METAL          910 COLUMBUS AVENUE                                         SANDUSKY        OH  44870     38898     FREEMAN   P20000000000 80789520100112000121751020100000000403010000000000000000000000019991000000000000000000350060421000008*** THANKS FOR THE ORDER ***        WE APPRECIATE YOUR BUSINESS       00000000       3 0010001061020100108OH 201001124   1000000      DAVE E              1                                       
807898O FX20100105080850YALE MECHANICAL,INC.     0000YALE MECHANICAL,INC.          9649 GIRARD AVENUE SO.                                      BLOOMINGTON     MN  55431     19117-    100066    P10000000000 80789820100111000235031020100000000403010000020280000044000007422001002200014220005000600060431000024*** THANKS FOR THE ORDER ***        WE APPRECIATE YOUR BUSINESS       00000000       3I0012010010620100106MNH201001082   1000000      19117-              1            201001051504               
807899O SM20100105046520MAJOR MECHANICAL INC.    0017MAJOR MECHANICAL INC.         %NINE MILE                    2301 VILLAGE LANE             BLOOMINGTON      MN 55431     50736-ADD NINE MILE P10000000000 80789920100112000079141020100000000403010000005440000012000002022001002200014220005000000060431000018                                                                      00000000       3 0012010010520100107MNH201001122   1000000      50736-ADD           1                                       
807901O FX20100105011950BROCKWAY MECH & ROOF CO  0000BROCKWAY MECH & ROOF CO       1025 OSBORN                                                 BURLINGTON      IA  52601     CS 16150            P10000000000C80790120100111000375001020100000000403010000022500000375000000020001002000029000000000150060421000008*** THANKS FOR THE ORDER ***        WE APPRECIATE YOUR BUSINESS       00002328       3 0012010010520100105I29201001084   1000000      CS 16150            1                                       
807906O FX20100105029600GENERAL S/M COMPANY, LLC 0000GENERAL S/M COMPANY, LLC      2330 LOUISIANA AVE. NO.                                     GOLDEN VALLEY   MN  55427     50342     10470     P10000000000 80790620100111001122351020100000000403010000077160000168000028122001002200014220005000000060431000024*** THANKS FOR THE ORDER ***        WE APPRECIATE YOUR BUSINESS       00000000       3I0132010010520100106MNH201001082   1000000      50342               1                           CONSUMABLES 
807907O FX20100105075100UNITED SHEET METAL       0000UNITED SHEET METAL            % U OF M CHILDRENS FAIRVIEW   2450 RIVERSIDE AVE            MINNEAPOLIS, MN 55455         157343    1897      P10000000000C80790720100112001111731020100000000403010000000000000000000000022101000000000000000000000060431000010                                                                      00000786       3I0202010010620100107MNN201001122   1000000                          1                                       
807911O FX20100105020060DAKOTA MECHANICAL        0000DAKOTA MECHANICAL             SUMMIT FIRE PROTECTION        575 MINNEHAHA AVE W.          ST. PAUL        MN  55103     90-4414   JIMMY J   C10000000000 80791120100112001148331020100000000403010000078950000287000000022001002200050000000000000060421000010NEEDS TO PICK-UP 1/7 AM.                                              00000154       3 0072010010620100108MNT201001121   1000000                          1            201001081016               
807912O FX20100105069947SUPERIOR MECH SYSTEMS INC0018SUPERIOR MECH SYSTEMS INC     % OLMSTEAD                    2117 CAMPUS DRIVE             ROCHESTER        MN 55904     RJ1420    OLMSTEAD  P10000000000 80791220100112000632671020100000000403010000047280000344000000022001002200003000000000550060421000024*** THANKS FOR THE ORDER ***        WE APPRECIATE YOUR BUSINESS       00000802       3 0022009010520100106MN320100112MDGT1000000      RJ1421              1            201001061402               
807915O SM20100105050950MODERN HEATING & AIR COND0001MODERN HEATING & AIR COND     2318 1ST STREET NE                                          MINNEAPOLIS      MN 55418     29767     A16739    C10000000000 80791520100111000091201020100000000403010000006270000023000000022001002200050000000000000060421000005*** THANKS FOR THE ORDER ***        WE APPRECIATE YOUR BUSINESS       00000762       3I0012010010520100105MNT20100108WC  1000000      29767               1            201001051355               
