802437000  MM_F1          D.C.SPIRAL/BOX&WRAP FITTINGS                                                              D.C.0PIRAL/BM  01      000000                                   
802437000  MM_F3          FOLLOWING WITH SPIRAL ENDS                                                                W/SP ENDS   M      01  00001                                    
80243700112IC             INTERNET DISCOUNT             0000q0000q     O C1DS00014980     0000000030000001N 0       1"D/W P10000LC100000099IC             00000000000               
80243700212IE             INTERNET DISCOUNT             0000q0000q     O E DS00002420     0000000030000001N 0       1"D/W P10000LE 00000090IE             00000000000               
80243700312IG3            INTERNET DISCOUNT             0000q0000q     O G3DS00008340     0000000030000001N 0       1"D/W P10000LG300000075IG3            00000000000               
80243700412IH1            INTERNET DISCOUNT             0000q0000q     O H1DS00000700     0000000030000001N 0       1"D/W P10000LH100000099IH1            00000000000               
80243700510DC1            DUCTCAP SIZE 6"-9"RD 25/CTN   0000100001     O J CN00024400     000018753      1S 0       1"D/W P 0000LI 00000045DC1            00000000000               
80243700610SG0826         08"-26GA X 10'SPIRAL PIPE GALV000070000700000O0C1EA00021400     0000000030000001N 0       1"D/W P 0000LC 01000011SG082610       00000000000               
80243700710E129024        12" 90 24GA ELBOW LE/SE GALV  000030000300000O0E EA00008550     0000000030006181S 0       1"D/W P 0000LI 01000014E129024        00000000004               
80243700810E189024        18" 90 24GA ELBOW LE/SE GALV  000020000200000O0E EA00024050     0000000030010321S 0       1"D/W P 0000LI 01000014E189024        00000000004               
80243700910E169024S       16" 90 24GA ELBOW W/SP GALV   000010000100000O0E EA00022750     0000000030009011S 0       1"D/W P 0000LI 01000024E169024S       00000000001               
80243701010SD0826S        8" SPIN IN COLL W/DAMP 26GA SE000060000600000O0G3EA00007050     0000000030001601S 0       1"D/W P 0000LI 01000034SD0826S        00000000001               
80243701110SD1026S        10" SPIN IN COLL W/DAMP 26G SE000050000500000O0G3EA00008220     0000000030002241S 0       1"D/W P 0000LI 01000034SD1026S        00000000001               
80243701210S90812         8 ON 12 24GA PRESSED SADDLE   000010000100000O0H3EA00014000     0000000030001361S 0       1"D/W P 1000LI 010001  SW924*0812     00000000001               
804016000  MM_F2          REFERENCE SMC INVOICE #       801219                                                      ERRO0 MSG.  M    01    00086                                    
80401600112DSC            LESS QUANTITY DISCOUNT/SPIRAL 0000q0000q     O C1NT00028860     0000000030000001N 0       1"D/W P10000L  00000099DSC            00000000000               
80401600211SG1624         16"-24GA X 10'SPIRAL PIPE GALV0000600006     O C1EA00048100     000000003      1N 0       1"D/W P 0000LC 00010012SG162410       00008600000               
80401600312C              CRATE CHARGE                  0000100001     O J EA00050000     000000003      1N 0       1"D/W P 0000LA 00010099C              00000000000               
805794001  CMGD           C.MATIC CORNERS (DUCT) GALV   000080000800000O J EA00000600000000000000030000001S  00031000           LO 00000065                          00000          
8057940021282424          1" STDG "S" CONN 24GA CTL  24"0001200012     O N1EA00001300     000000003      1S 000031000       0000LN 0000003082424          0000000000000000          
8057940031282240          1" STDG "S" CONN 22GA CTL  40"0002000020     O N1EA00002600     000000003      1S 000031000       0000LN 0000003182240          0000000000000000          
8057940041272414          1" FLAT "S" CONN 24GA CTL  14"0001000010     O N1EA00000750     000000003      1S 000031000       0000LN 0000003572414          0000000000000000          
80579400512608241         1" FLAT DRIVE 24GA CTL 8" GALV0001000010     O N1EA00000300     000000003      1S 000031000       0000LN 00000050608241         0000000000000000          
80579400612610241         1" FLT DRIVE 24GA CTL 10" GALV0003200032     O N1EA00000450     000000003      1S 000031000       0000LN 00000050610241         0000000000000000          
8060430011282418          1" STDG "S" CONN 24GA CTL  18"0001600016     O N1EA00001100     000000003      1S 0       REFE0EN 0000LN 0000003082418          00000000000               
8060430021282420          1" STDG "S" CONN 24GA CTL  20"0003000030     O N1EA00001100     000000003      1S 0       REFE0EN 0000LN 0000003082420          00000000000               
8060430031282428          1" STDG "S" CONN 24GA CTL  28"0003000030     O N1EA00001600     000000003      1S 0       REFE0EN 0000LN 0000003082428          00000000000               
8060430041272410          1" FLAT "S" CONN 24GA CTL  10"0002200022     O N1EA00000500     000000003      1S 0       REFE0EN 0000LN 0000003572410          00000000000               
80604300512606241         1" FLAT DRIVE 24GA CTL 6" GALV0008400084     O N1EA00000300     000000003      1S 0       REFE0EN 0000LN 00000050606241         00000000000               
80604300612608241         1" FLAT DRIVE 24GA CTL 8" GALV0001600016     O N1EA00000300     000000003      1S 0       REFE0EN 0000LN 00000050608241         00000000000               
80624800112SG1424         14"-24GA X 10'SPIRAL PIPE GALV000040000400000O0C1EA00042000     000000003      1N         G-90    0000LC 00000012SG142410       00000000000               
80624800212IC             INTERNET DISCOUNT             0000q0000q     O C1DS00016800     0000000030000001N 0       G-90   10000LC100000099IC             00000000000               
80624800312E149024S       14" 90 24GA ELBOW W/SP GALV   000010000100000O0E EA00015850     0000000030007151S         G-90    0000LI 00000024E149024S       00000000000               
80624800412IE             INTERNET DISCOUNT             0000q0000q     O E DS00000800     0000000030000001N 0       G-90   10000LE 00000090IE             00000000000               
80624800512E1424          14" E-Z TAP COLLAR 24GA       000030000300000O0G1EA00006060     0000000030001221S         G-90    0000LI 00000005E1424          00000000000               
80624800612IG1            INTERNET DISCOUNT             0000q0000q     O G1DS00000900     0000000030000001N 0       G-90   10000LG100000090IG1            00000000000               
80624800712PEC14S         14" 22GA PRESSED END CAP W/SP 000030000300000O0H3EA00014860     0000000030001951S         G-90    0000LI 000000  EC1424S        00000000000               
80624800812HDD14          14" HEAVY DUTY DAMPER W/QUAD. 000020000200000O0J EA00016000     0000043930001801S         G-90    0000LI 00000025HDD14          00000000000               
80686000110SG0626         06"-26GA X 10'SPIRAL PIPE GALV0000100001     O C1EA00016100     0000000030000001N 0       PAINT G 0000LC 00000011SG062610       00000000000               
80686000212E06            06" E-Z TAP COLLAR 26GA       0000300003     O G1EA00003520     0000000030000401S 0       PAINT G 0000LI 00000005E06            00000000000               
80686000312ED0690          6"-90 SOLID WELDED DIEFORM   0000300003     O K1EA00017050     0000000030003151S 0       PAINT G 0000LI 000000  ED0690         00000000000               
806877000  MM_F3          FOLLOWING WITH SPIRAL ENDS                                                                W/SP ENDS   M      01  00001                                    
80687700111SG1026         10"-26GA X 10'SPIRAL PIPE GALV0000200002     O C1EA00026700     0000000030000001N 0               0000LC 00000011SG102610       00000000000               
80687700212E109026S       10" 90 26GA ELBOW W/SP GALV   0000100001     O E EA00007400     0000000030003221S 0               0000LI 00000023E109026S       00000000000               
80687700312ED10           10" E-Z TAP COLLAR W/DAMP 26GA0000100001     O G1EA00008330     0000000030001761S 0               0000LI 00000006ED10           00000000000               
80687700412C1024          10" CONN SPIRAL PIPE 24GA GALV0000100001     O H1EA00002950     0000000030000921N 0               0000LI 00000005C1024          00000000000               
80687700512PEC10S         10" 24GA PRESSED END CAP W/SP 0000100001     O H3EA00009300     0000000030001281S 0               0000LI 000000  PEC10S         00000000000               
80687700612X08            8" INSULATED FLEX      25'/BOX0000100001     O J BX00020250     0000165030000001S 0               0000LI 00000035X08            00000000000               
80687700712R1008          10/8 24GA PRESSED REDUCER     0000200002     O H3EA00013000     0000000030001851S 0               0000LI 000001  R1008          00000000001               
80687700812S90810         8 ON 10 24GA PRESSED SADDLE   0000200002     O H3EA00005680     0000000030001461S 0               0000LI 000001  S90810         00000000001               
807115001 0TC             TDC CLEATS 22GA               005000050000000O A1EA00000170000000000000030000001S 0       W/SP EN  000LI 00000001               00000000000               
807115002  CD516          1/2" CONDUIT W/LOCKS 16" LONG 000030000300000O J EA00003700000000000000030000001S         W/SP EN     LN 00000060                                         
807115003  CD524          1/2" CONDUIT W/LOCKS 24" LONG 000120001200000O J EA00003700000000000000030000001S         W/SP EN     LN 00000060                                         
807115004  CD536          1/2" CONDUIT W/LOCKS 36" LONG 000080000800000O J EA00004800000000000000030000001S         W/SP EN     LN 00000060                                         
807115005  CD540          1/2" CONDUIT W/LOCKS 40" LONG 000330003300000O J EA00004800000000000000030000001S         W/SP EN     LN 00000060                                         
807115006  CD542          1/2" CONDUIT W/LOCKS 42" LONG 000080000800000O J EA00005500000000000000030000001S         W/SP EN     LN 00000060                                         
807115007  CD548          1/2" CONDUIT W/LOCKS 48" LONG 000080000800000O J EA00005500000000000000030000001S         W/SP EN     LN 00000060                                         
807115008  CD754          3/4" CONDUIT W/LOCKS 54" LONG 000080000800000O J EA00007000000000000000030000001S         W/SP EN     LN 00000060                                         
807115009  CD760          3/4" CONDUIT W/LOCKS 60" LONG 000110001100000O J EA00009600000000000000030000001S         W/SP EN     LN 00000060                                         
807115010  CD766          3/4" CONDUIT W/LOCKS 66" LONG 000080000800000O J EA00009600000000000000030000001S         W/SP EN     LN 00000060                                         
807115011  CD772          3/4" CONDUIT W/LOCKS 72" LONG 000080000800000O J EA00013100000000000000030000001S         W/SP EN     LN 00000060                                         
807115012  CD784          3/4" CONDUIT W/LOCKS 84" LONG 000300003000000O J EA00013100000000000000030000001S         W/SP EN     LN 00000060                                         
807115013  CMGD           C.MATIC CORNERS (DUCT) GALV   000720007200000O J EA00000600000000000000030000001S         W/SP EN     LO 00000065                                         
807115014 0TCR            TDC CORNERS                   001750017500000O J EA00000260000000000000030000001S 0       W/SP EN  000LI 00000065               00000000000               
807115015 0TG             TDC/EZ FLANGE GASKET     50'RL000150001500000O J RL00006250000000000000030000001S 0       W/SP EN  000LI 00000065               00000000000               
807115016 0TN             TDC 1" NUTS & BOLTS           001500015000000O J EA00000090000000000000030000001S 0       W/SP EN  000LI 00000065               00000000000               
807115017  HP             HOLES PUNCHED IN DUCTWORK     001370013700000O O EA00000500000000000000030000001N         W/SP EN     LO 00000001                                         
80711501812IO             INTERNET DISCOUNT             0458v0458v     O O DS00000050     0000000030000001N 0       W/SP EN10000LO 00000099IO             00000000000               
80721100112ES08           08" 304 EZ TAP 24GA S.S.      0000600006     O G1EA00007800     0000000030000001S 0       CUSTOM  0000LI 00000001ES08           00000000000               
80721100212E08            08" E-Z TAP COLLAR 26GA       0000600006     O G1EA00003610     0000000030000521S 0       CUSTOM  0000LI 00000005E08            00000000000               
80721100312ED08           8" E-Z TAP COLLAR W/DAMP 26GA 0000600006     O G1EA00007240     0000000030001321S 0       CUSTOM  0000LI 00000006ED08           00000000000               
80721100412PEC08L         8" 24GA PRESSED END CAP LE    0000600006     O H3EA00008510     0000000030000721S 0       CUSTOM  0000LI 000000  PEC08L         00000000000               
807226000  MM_F3          FOLLOWING WITH SPIRAL ENDS                                                                W/SP ENDS   M      01  00001                                    
80722600112PH180524       18"5' 24GA PIPE SEAM CLSD GALV000010000100000O0D EA00029000     0000000030028101S         B.I.0TR 0000LD 00000020PH180524       00000000000               
80722600212PH140522       14"5' 22GA PIPE SEAM CLSD GALV000020000200000O0D EA00027300     0000000030026721S         B.I.0TR 0000LD 00000022PH140522       00000000000               
80722600312ID             INTERNET DISCOUNT             0000q0000q     O D DS00004180     0000000030000001N 0       B.I.0TR10000LD 00000099ID             00000000000               
80722600412IH1            INTERNET DISCOUNT             0000q0000q     O H1DS00001500     0000000030000001N 0       B.I.0TR10000LH100000099IH1            00000000000               
80722600512R1814          18/14 22GA PRESSED REDUCER    000010000100000O0H3EA00030000     0000000030003601S         B.I.0TR 0000LI 000001  R241814        00000000001               
80735300112TC             TDC CLEATS 22GA               0040000400     O A1EA00000170     0000000030000121S 0       SWEDGE  0000LI 00000001TC             00000000000               
80735300211WRG            50/38   1.5/1.5 10GA RANGLE   0002700027     O B EA00023790     0000000030014091N 0       SWEDGE  0000LB 00000003WRG50-38       00000000000               
80735300311WRG            60/36   1.5/1.5 10GA RANGLE   0000100001     O B EA00025960     0000000030014091N 0       SWEDGE  0000LB 00000003WRG60-36       00000000000               
80735300411WRG            60/40   1.5/1.5 10GA RANGLE   0000100001     O B EA00027040     0000000030014091N 0       SWEDGE  0000LB 00000003WRG60-40       00000000000               
80735300511WRG            66/36   1.5/1.5 10GA RANGLE   0000900009     O B EA00027590     0000000030014091N 0       SWEDGE  0000LB 00000003WRG66-36       00000000000               
80735300612PH040524       4"5' 24GA PIPE SEAM CLSD GALV 0003000030     O D EA00020150     0000000030006841S 0       SWEDGE  0000LD 00000020PH040524       00000000000               
80735300712PH050524       5"5' 24GA PIPE SEAM CLSD GALV 0003000030     O D EA00020960     0000000030008361S 0       SWEDGE  0000LD 00000020PH050524       00000000000               
80735300812PH060524       6"5' 24GA PIPE SEAM CLSD GALV 0003000030     O D EA00018460     0000000030009691S 0       SWEDGE  0000LD 00000020PH060524       00000000000               
80735300912PH070524       7"5' 24GA PIPE SEAM CLSD GALV 0000300003     O D EA00019280     0000000030011381S 0       SWEDGE  0000LD 00000020PH070524       00000000000               
80735301012PH080524       8"5' 24GA PIPE SEAM CLSD GALV 0003000030     O D EA00020080     0000000030012891S 0       SWEDGE  0000LD 00000020PH080524       00000000000               
80735301112PH090524       9"5' 24GA PIPE SEAM CLSD GALV 0000100001     O D EA00021360     000000003      1N 0       SWEDGE  0000LD 00000020PH090524       00000000000               
80735301212PH120524       12"5' 24GA PIPE SEAM CLSD GALV0000200002     O D EA00023790     0000000030018951S 0       SWEDGE  0000LI 00000020PH120524       00000000000               
80735301312E049026        4" 90 26GA ELBOW LE/SE GALV   0004000040     O E EA00003700     0000000030000841S 0       SWEDGE  0000LI 00000013E049026        00000000000               
80735301412E059026        5" 90 26GA ELBOW LE/SE GALV   0004000040     O E EA00003700     0000000030001021S 0       SWEDGE  0000LI 00000013E059026        00000000000               
80735301512E069026        6" 90 26GA ELBOW LE/SE GALV   0003000030     O E EA00003700     0000000030001471S 0       SWEDGE  0000LI 00000013E069026        00000000000               
80735301612E079026        7" 90 26GA ELBOW LE/SE GALV   0001000010     O E EA00004150     0000000030001711S 0       SWEDGE  0000LI 00000013E079026        00000000000               
80735301712E089026        8" 90 26GA ELBOW LE/SE GALV   0005000050     O E EA00004600     0000000030002111S 0       SWEDGE  0000LI 00000013E089026        00000000000               
80735301812E099026        9" 90 26GA ELBOW LE/SE GALV   0000200002     O E EA00005050     0000000030002741S 0       SWEDGE  0000LI 00000013E099026        00000000000               
80735301912E129026        12" 90 26GA ELBOW LE/SE GALV  0000600006     O E EA00007450     0000000030004851S 0       SWEDGE  0000LI 00000013E129026        00000000000               
80735302012IE             INTERNET DISCOUNT             0000q0000q     O E DS00110000     0000000030000001N 0       SWEDGE 10000LE 00000090IE             00000000000               
80735302112EC04           04" CONICAL E-Z TAP 26GA      0003800038     O G1EA00009620     0000000030000001S 0       SWEDGE  0000LI 00000007EC04           00000000000               
80735302212EC05           05" CONICAL E-Z TAP 26GA      0003800038     O G1EA00009100     0000000030000921S 0       SWEDGE  0000LI 00000007EC05           00000000000               
80735302312EC06           06" CONICAL E-Z TAP 26GA      0002800028     O G1EA00007470     0000000030000561S 0       SWEDGE  0000LI 00000007EC06           00000000000               
80735302412EC07           07" CONICAL E-Z TAP 26GA      0000300003     O G1EA00013800     0000000030001201S 0       SWEDGE  0000LI 00000007EC07           00000000000               
80735302512EC08           08" CONICAL E-Z TAP 26GA      0004000040     O G1EA00007860     0000000030001381S 0       SWEDGE  0000LI 00000007EC08           00000000000               
80735302612EC09           09" CONICAL E-Z TAP 26GA      0000100001     O G1EA00017630     0000000030001561S 0       SWEDGE  0000LI 00000007EC09           00000000000               
80735302712EC1224         12" CONICAL E-Z TAP 24GA      0000100001     O G1EA00014770     0000000030002101S 0       SWEDGE  0000LI 00000007EC1224         00000000000               
80735302812IG1            INTERNET DISCOUNT             0000q0000q     O G1DS00261750     0000000030000001N 0       SWEDGE 10000LG100000090IG1            00000000000               
80735302912DP88           FIBERGLASS EDGE COATING       0000500005     O J EA00007150     0000059030000001S 0       SWEDGE  0000LJ 000000  DP88           00000000000               
807353030  CMGD           C.MATIC CORNERS (DUCT) GALV   000560005600000O J EA00000600000000000000030000001S         SWEDGE      LO 00000065                                         
807353031  TCR            TDC CORNERS                   001800018000000O J EA00000260000000000000030000001S         SWEDGE      LI 00000065                                         
80735303212TG             TDC/EZ FLANGE GASKET     50'RL0000800008     O J RL00006250     0000043430000001S 0       SWEDGE  0000LI 00000065TG             00000000000               
80735303312TN             TDC 1" NUTS & BOLTS           0013500135     O J EA00000090     0000000730000061S 0       SWEDGE  0000LI 00000065TN             00000000000               
80735303410???L           INSTALL NOSING ON DUCT & FTGS 0006700067     O L EA00005000             30000001  0       SWEDGE 10000LL 00000001???L           00000000000               
80735303510CAM.           CHANNELS & ANGLES             0006700067     O L EA00000000     0000000030000001N 0       SWEDGE  0000LL 00000010CAM.           00000000000               
80735303612ER.            RADIUS ELBOWS                 0000100001     O L EA00000000     000000003      1N 0       SWEDGE  0000LL 00000010ER.            00000000000               
80735303712OF.            OFFSETS                       0000200002     O L EA00000000     000000003      1N 0       SWEDGE  0000LL 00000010OF.            00000000000               
80735303812REV.           RECT. ELBOW W/VANES           0000400004     O L EA00000000     000000003      1N 0       SWEDGE  0000LL 00000010REV.           00000000000               
80735303912SD.            MISC. SHORT DUCTS             0000300003     O L JT00000000     000000003      1N 0       SWEDGE  0000LL 00000010SD.            00000000000               
80735304012TR.            TRANSITIONS                   0000400004     O L EA00000000     000000003      1N 0       SWEDGE  0000LL 00000010TR.            00000000000               
80735304112CAM            MATERIAL FOR CHANNELS & ANGLES0007300073     O L LB00004800     0000000030000001N 0       SWEDGE  0000LL 00000030CAM            00000000000               
8073530421220GK           20GA GALVANIZED FITTINGS K/D  0072700727     O L LB00001680     0000000030000001N 0       SWEDGE  0000LL 0000004420GK           00000000000               
8073530431222GK           22GA GALVANIZED FITTINGS K/D  0009700097     O L LB00001790     0000000030000001N 0       SWEDGE  0000LL 0000004622GK           00000000000               
8073530441224GK           24GA GALVANIZED FITTINGS K/D  0004900049     O L LB00001930     0000000030000001N 0       SWEDGE  0000LL 0000004824GK           00000000000               
8073530451226GK           26GA GALVANIZED FITTINGS K/D  0002300023     O L LB00002550     0000000030000001N 0       SWEDGE  0000LL 0000005026GK           00000000000               
80735304612DLF1           1" DUCT LINER FOR FITTINGS    0026500265     O L FT00001350     000000003      1N 0       SWEDGE  0000LL 00000060DLF1           00000000000               
8073530471272414          1" FLAT "S" CONN 24GA CTL  14"0000200002     O N1EA00000750     000000003      1S 0       SWEDGE  0000LN 0000003572414          00000000000               
80735304812618241         1" FLT DRIVE 24GA CTL 18" GALV0000200002     O N1EA00000650     000000003      1S 0       SWEDGE  0000LN 00000050618241         00000000000               
80735304910???O           PALLETIZE & SHRINK WRAP DUCT  0116201162     O O EA00000030             30000001  0       SWEDGE 10000LO 00000001???O           00000000000               
807353050  IO             INTERNET DISCOUNT             0116r0116r00000O O DS00000030000000000000030000001N         SWEDGE      LO 00000099                                         
807353051124000CTL        SINGLE WALL VANE CTL/FITTINGS 0002500025     O T FT00000880     000000003      1N 0       SWEDGE  0000LT 000000104000CTL        00000000000               
80735305210424CTL         4" VANE CUT FOR FITTINGS      0014200142     O T FT00001260     000000003      1N 0       SWEDGE  0000LT 00000010424CTL         00000000000               
807353053125000CTL        E Z RAIL II FOR FITTINGS      0001500015     O T FT00000920     000000003      1N 0       SWEDGE  0000LT 000000105000CTL        00000000000               
80735305410522CTL         4" RAIL CUT FOR FITTINGS      0001700017     O T FT00000880     000000003      1N 0       SWEDGE  0000LT 00000010522CTL         00000000000               
807367000  MM_F1          D.C. SPIRAL BOX&WRAP FITTINGS                                                             D.C. SPIRAL M  01      000000                                   
807367000  MM_F2          FOLLOWING ARE CUSTOM FITTINGS BRANCH ARE 6" LONG                                          CUST0M      M    01    00031                                    
807367000  MM_F2          USE TO WRAP SPIRAL                                                                        USE TO WRAP M    02    00000                                    
807367000  MM_F3          FOLLOWING WITH E-Z FLANGE                                                                 E-Z 0LANGES M      01  00015                                    
807367000  MM_F4          #119                                                                                      #119        M          00000                        01          
80736700112IC             INTERNET DISCOUNT             0000q0000q     O C1DS00465840     0000000030000001N 0       W/SP EN10000LC100000099IC             00000000000               
80736700212IH1            INTERNET DISCOUNT             0000q0000q     O H1DS00072720     0000000030000001N 0       W/SP EN10000LH100000099IH1            00000000000               
80736700310JJG            EZ FLANGE JR. GASKET     25'RL0000600006     O J RL00002750     000000003      1N90       W/SP EN00000LI 00000065JJG            00000000000               
80736700410JTG            TDC/EZ FLANGE GASKET     50'RL0000400004     O J RL00006250     000000003      1N90       W/SP EN00000LI 00000065JTG            00000000000               
80736700512DC6            DUCTCAP SIZE  30"-38"RD 25/CTN0000200002     O J CN00071600     0000550030000001S 0       W/SP EN 0000LI 00020045DC6            00000000000               
80736700610SG3622         36"-22GA X 10'SPIRAL PIPE GALV0001800018     O C1EA00129400     000000003      1N 0       W/SP EN 0000LC 01000113SG362210       00000000015               
80736700710JEB36          36"-16GA BARREL CLAMP W/HDWR  0001800018     O S EA00013500     000000003      1N90       W/SP EN00000LS 01000160JEB36          00000000000               
80736700810JEFI36         36" EZ FLANGE INSTALLED       0003600036     O S EA00030400     000000003      1N90       W/SP EN00000LS 01000164JEFI36         00000000000               
80736700910SW9            18 ON 36 90 22GA SWEDGE SADDLE0002400024     O H1EA00030300     000000003      1N 0       W/SP EN 0000LH101010125SW9221836      00003100015               
80736701010JEB18          18"-16GA BARREL CLAMP W/HDWR  0002400024     O S EA00006800     000000003      1N90       W/SP EN00000LS 01010160JEB18          00000000000               
807386001  CD516          1/2" CONDUIT W/LOCKS 16" LONG 000120001200000O J EA00003700000000000000030000001S         D.C. SP     LN 00000060                                         
807386002  CD518          1/2" CONDUIT W/LOCKS 18" LONG 000030000300000O J EA00003700000000000000030000001S         D.C. SP     LN 00000060                                         
807386003  CMGD           C.MATIC CORNERS (DUCT) GALV   000600006000000O J EA00000600000000000000030000001S         D.C. SP     LO 00000065                                         
80738600412???N           724-40"                       0000400004     O N1EA00001500             30000001  0       D.C. SP10000LN 00000001???N           00000000000               
80738600512???N           724-56"                       0000400004     O N1EA00002100             30000001  0       D.C. SP10000LN 00000001???N           00000000000               
8073860061272418          1" FLAT "S" CONN 24GA CTL  18"0000800008     O N1EA00000750     000000003      1S 0       D.C. SP 0000LN 0000003572418          00000000000               
807386007  HP             HOLES PUNCHED IN DUCTWORK     000150001500000O O EA00000500000000000000030000001N         D.C. SP     LO 00000001                                         
807388001  CD516          1/2" CONDUIT W/LOCKS 16" LONG 000300003000000O J EA00003700000000000000030000001S  00000750           LN 00000060                          00000          
807388002  CD518          1/2" CONDUIT W/LOCKS 18" LONG 000150001500000O J EA00003700000000000000030000001S  00000750           LN 00000060                          00000          
807388003  CMGD           C.MATIC CORNERS (DUCT) GALV   000600006000000O J EA00000600000000000000030000001S  00000750           LO 00000065                          00000          
807388004  HP             HOLES PUNCHED IN DUCTWORK     000450004500000O O EA00000500000000000000030000001N  00000750           LO 00000001                          00000          
807389000  MM_F3          FOLLOWING WITH E-Z FLANGE                                                                 E-Z 0LANGES M      01  00015                                    
80738900111JJG            EZ FLANGE JR. GASKET     25'RL0000300003     O J RL00002750     000000003      1N9000000750      00000LI 00000065JJG            0000000000000000          
8073890021272412          1" FLAT "S" CONN 24GA CTL  12"0001800018     O N1EA00000500     000000003      1S 000000750       0000LN 0000003572412          0000000000000000          
80738900312612241         1" FLT DRIVE 24GA CTL 12" GALV0001800018     O N1EA00000450     000000003      1S 000000750       0000LN 00000050612241         0000000000000000          
80738900412EFS14          14" EZ FLANGE FULL SET GALV   0000400004     O S EA00015600     0000000030002361S 000000750       0000LI 00000010EFS14          0000000000000000          
80738900511SG1424         14"-24GA X 10'SPIRAL PIPE GALV0000400004     O C1EA00042000     000000003      1N 000000750       0000LC 00000112SG142410       0000000001500000          
80738900612E149024S       14" 90 24GA ELBOW W/SP GALV   0000800008     O E EA00015850     0000000030005921S 000000750       0000LI 00000124E149024S       0000000001500000          
80738900712JEB14          14"-16GA BARREL CLAMP W/HDWR  0001200012     O S EA00006800     0000000030005921N9000000750      00000LS 00000160JEB14          0000000000000000          
807422000  MM_F1          ALL MATERIAL (GALVANIZED)                                                                 GALV0MTRL.  M  01      0007001                                  
807422000  MM_F2          FOLLOWING ARE CUSTOM FITTINGS 12" TRROAT RADIUS & SPECIAL   FABRICATED BLAST GATE         CUST0M      M    01    00031                                    
807422000  MM_F3          FOLLOWING W/FULL WELDED RINGS                                                             WELD0D RINGSM      01  00045                                    
80742200112???K           18" FABRICATED BLAST GATE     0000100001     O K3EA00410000             30000001  000000000      10000LK 00000001???K           0000000000000000          
80742200212CR18FW         18" COMP. RING FULL WELD      0000200002     O K3EA00061550     000000003      1S 000000000       0000LK300000138CR18FW         0000000004500000          
80742200310EG184520       18"-45 10GA GOR WLD ELL GALV  0000100001     O K3EA00173300     000000003      1N 000000000      10000LK301010125EG184520       0700310004500000          
807424000  MM_F1          STLS STL MATERIAL (304-2B)                                                                304-0B S.S. M  01      0006404                                  
807424000  MM_F2          WITH STLS STL BLADE                                                                       WITH STLS STM    01    00000                                    
80742400112SSSP           NET COST ON SPIRAL SST        0000100001     O C1NT00176700     0000000030000001N 0              10000LC101000031SSSP           06400000000               
80742400241SG0424         04"-24GA X 10'SPIRAL PIPE SST 0000200002     O C1EA00000000     0000000030000001N 0              10210LC 01000094SG042410       06400000000               
80742400312AS104524S      10"45 .024 ANGLE W/SP S.S.    0001000010     O E EA00028350     0000000030000001S 0               0000LI 01000051AS104524S      06400000000               
80742400412AS144524S      14"45 .024 ANGLE W/SP S.S.    0001000010     O E EA00047300     0000000030000001N 0               0000LE 01000051AS144524S      06400000000               
80742400512ES109024S      10"90 .024 ELBOW W/SP S.S.    0001000010     O E EA00034000     0000000030000001S 0               0000LI 01000052ES109024S      06400000000               
80742400612ES149024S      14"90 .024 ELBOW W/SP S.S.    0000500005     O E EA00060500     0000000030000001S 0               0000LI 01000052ES149024S      06400000000               
80742400712ES169024S      16"90 .024 ELBOW W/SP S.S.    0000100001     O E EA00082500     0000000030000001N 0               0000LE 01000052ES169024S      06400000000               
80742400812BG04           4" FULL CUT-OFF BLAST GATE    0000500005     O J EA00023000     0000046930001261N 0              10000LH 01010020BG04           00000000000               
80742900110CAM.           CHANNELS & ANGLES             0000700007     O L EA00005000     0000000030000001N 0       W/SP EN10000LL 00000010CAM.           00000000000               
80742900212CAM            MATERIAL FOR CHANNELS & ANGLES0000700007     O L LB00004800     0000000030000001N 0       W/SP EN 0000LL 00000030CAM            00000000000               
8074290031224GF           24GA GALV FITTINGS FULL ASMBL 0002100021     O L LB00002480     0000000030000001N 0       W/SP EN 0000LL 0000004824GF           00000000000               
807450000  MM_F3          FOLLOWING WITH SPIRAL ENDS                                                                W/SP ENDS   M      01  00001                                    
80745000111SG1226         12"-26GA X 10'SPIRAL PIPE GALV0000300003     O C1EA00032100     0000000030000001N 000018170       0000LC 00000011SG122610       0000000000000000          
80745000212IC             INTERNET DISCOUNT             0000q0000q     O C1DS00009600     0000000030000001N 000018170      10000LC100000099IC             0000000000000000          
80745000312DD0824         8" VOLUME DAMPER 24GA GALV    0000700007     O G3EA00003250     0000000030000381N 000018170       0000LI 00000003DD0824         0000000000000000          
80745000412N1424S         14"-24G NOTCHED COLLAR SE GALV0000100001     O G3EA00008200     0000000030000961S 000018170       0000LI 00000051N1424S         0000000000000000          
80745000512IH1            INTERNET DISCOUNT             0000q0000q     O H1DS00002750     0000000030000001N 000018170      10000LH100000099IH1            0000000000000000          
80745000612PEC12S         12" 22GA PRESSED END CAP W/SP 0000200002     O H3EA00009760     0000000030001281S 000018170       0000LI 000000  PEC12S         0000000000000000          
80745000712R1412          14/12 22GA PRESSED REDUCER    0000100001     O H3EA00015490     0000000030002351S 000018170       0000LI 000001  R1412          0000000000100000          
80745000812S90812         8 ON 12 24GA PRESSED SADDLE   0000500005     O H3EA00005680     0000000030001361S 000018170       0000LI 000001  S90812         0000000000100000          
80745000912S90814         8 ON 14 24GA PRESSED SADDLE   0000200002     O H3EA00005680     0000000030001361S 000018170       0000LI 000001  S90814         0000000000100000          
80745900112TC             TDC CLEATS 22GA               0013000130     O A1EA00000170     0000000030000121S 0       W/SP EN 0000LI 00000001TC             00000000000               
807459002  CMGD           C.MATIC CORNERS (DUCT) GALV   000160001600000O J EA00000600000000000000030000001S         W/SP EN     LO 00000065                                         
80745900312CMGF           C.MATIC CORNERS (FITTING) GALV0008000080     O J EA00001100     0000001830000001N 0       W/SP EN 0000LL 00000065CMGF           00000000000               
807459004  TCR            TDC CORNERS                   000200002000000O J EA00000260000000000000030000001S         W/SP EN     LI 00000065                                         
80745900512TG             TDC/EZ FLANGE GASKET     50'RL0000300003     O J RL00006250     0000043430000001S 0       W/SP EN 0000LI 00000065TG             00000000000               
80745900612TN             TDC 1" NUTS & BOLTS           0006000060     O J EA00000090     0000000730000061S 0       W/SP EN 0000LI 00000065TN             00000000000               
80745900712EC.            END CAPS                      0000100001     O L EA00000000     000000003      1N 0       W/SP EN 0000LL 00000010EC.            00000000000               
80745900812PR.            PARKER FITTING                0000100001     O L EA00000000     0000000030000001N 0       W/SP EN 0000LL 00000010PR.            00000000000               
80745900912REV.           RECT. ELBOW W/VANES           0000400004     O L EA00000000     000000003      1N 0       W/SP EN 0000LL 00000010REV.           00000000000               
80745901012TP.            TAP TAKE-OFFS                 0000300003     O L EA00000000     000000003      1N 0       W/SP EN 0000LL 00000010TP.            00000000000               
80745901112TR.            TRANSITIONS                   0000400004     O L EA00000000     000000003      1N 0       W/SP EN 0000LL 00000010TR.            00000000000               
8074590121224GF           24GA GALV FITTINGS FULL ASMBL 0013200132     O L LB00002480     0000000030000001N 0       W/SP EN 0000LL 0000004824GF           00000000000               
8074590131226GF           26GA GALV FITTINGS FULL ASMBL 0011800118     O L LB00003250     0000000030000001N 0       W/SP EN 0000LL 0000005026GF           00000000000               
8074590141272420          1" FLAT "S" CONN 24GA CTL 20" 0000400004     O N1EA00000750     0000000030000001S 0       W/SP EN 0000LN 0000003572420          00000000000               
80745901512610241         1" FLT DRIVE 24GA CTL 10" GALV0000200002     O N1EA00000450     000000003      1S 0       W/SP EN 0000LN 00000050610241         00000000000               
80745901612612241         1" FLT DRIVE 24GA CTL 12" GALV0000200002     O N1EA00000450     000000003      1S 0       W/SP EN 0000LN 00000050612241         00000000000               
807459017  IO             INTERNET DISCOUNT             0014y0014y00000O O DS00000030000000000000030000001N         W/SP EN     LO 00000099                                         
807459018124000A          4"SINGLEWALL VANE INSTALLED   0001300013     O T FT00002380     0000000030000001N 0       W/SP EN 0000LT 000000104000A          00000000000               
807459019125000A          4"SINGLEWALL RAIL INSTALLED   0000300003     O T FT00002420     0000000030000001N 0       W/SP EN 0000LT 000000105000A          00000000000               
807470000  MM_F1          1" DOUBLEWALL (ID) PERF. INNERWITH TEDLAR                                                 1"D/0 PERF  M  01      0008001                                  
807470000  MM_F3          FOLLOWING WITH E-Z FLANGE (**)                                                            EF B0 HAND  M      01  00016                                    
80747000112IC             INTERNET DISCOUNT             0000q0000q     O C1DS01598450     0000000030000001N 0       1"D/0 P10000LC100000099IC             00000000000               
80747000212SPH14          14"-14GA SP. PIPE HANGER SNGLE0004400044     O R EA00007750     0000000030003511S 0       1"D/0 P 0000LI 00000018SPH14          00000000000               
80747000312EB14           14"-16GA BARREL CLAMP W/HDWR  0003300033     O S EA00006800     0000000030001061S 0       1"D/0 P 0000LS 00000130EB14           00000000016               
80747000412???C           INSTALL TEDLAR IN SPIRAL DW   0097300973     O C1EA00001100             30000001  0       1"D/0 P10000LC 01000001???C           00000000000               
80747000512???H           INSTALL TEDLAR IN FITTINGS    0001600016     O H1EA00001100             30000001  0       1"D/0 P10000LH 01000001???H           00000000000               
80747000610SG1224         12"-24GA X  6'SPIRAL PIPE GALV0001100011     O C1EA00111780     0000000030000001N 0       1"D/0 P10000LC101000112SG122406       08000000016               
80747000710SG1224         12"-24GA X 10'SPIRAL PIPE GALV0002200022     O C1EA00186300     0000000030000001N 0       1"D/0 P10000LC101000112SG122410       08000000016               
80747000812EC1224S        12" END CAP 24GA SE GALV      0001100011     O H1EA00024300     0000000030001281N 0       1"D/0 P10300LH101000109EC1224S        08000000016               
80747000912EFI12          12" EZ FLANGE INSTALLED       0007700077     O S EA00021000     0000000030000001N 0       1"D/0 P 0000LS 01000155EFI12          08000000016               
807474000  MM_F1          1" DOUBLEWALL (ID) PERF. INNERWITH TEDLAR                                                 1"D/0 PERF  M  01      0008001                                  
807474000  MM_F3          FOLLOWING WITH E-Z FLANGE (**)                                                            EF B0 HAND  M      01  00016                                    
80747400112IC             INTERNET DISCOUNT             0000q0000q00000O0C1DS01598450     0000000030000001N 0       1"D/0 P10000LC100000099IC             00000000000               
80747400212SPH14          14"-14GA SP. PIPE HANGER SNGLE000440004400000O0R EA00007750     0000000030003511S 0       1"D/0 P 0000LI 00000018SPH14          00000000000               
80747400312EB14           14"-16GA BARREL CLAMP W/HDWR  000330003300000O0S EA00006800     0000000030001061S 0       1"D/0 P 0000LS 00000130EB14           00000000016               
80747400412???C           INSTALL TEDLAR IN SPIRAL DW   009730097300000O0C1EA00001100             30000001  0       1"D/0 P10000LC 01000001???C           00000000000               
80747400512???H           INSTALL TEDLAR IN FITTINGS    000160001600000O0H1EA00001100             30000001  0       1"D/0 P10000LH 01000001???H           00000000000               
80747400610SG1224         12"-24GA X  6'SPIRAL PIPE GALV000110001100000O0C1EA00111780     0000000030000001N 0       1"D/0 P10000LC101000112SG122406       08000000016               
80747400710SG1224         12"-24GA X 10'SPIRAL PIPE GALV000220002200000O0C1EA00186300     0000000030000001N 0       1"D/0 P10000LC101000112SG122410       08000000016               
80747400812EC1224S        12" END CAP 24GA SE GALV      000110001100000O0H1EA00024300     0000000030001281N 0       1"D/0 P10300LH101000109EC1224S        08000000016               
80747400912EFI12          12" EZ FLANGE INSTALLED       000770007700000O0S EA00021000     0000000030000001N 0       1"D/0 P 0000LS 01000155EFI12          08000000016               
807479000  MM_F2          BACK ORDER FROM SMC INVOICE#  807396                                                      BACK0RDER   M    01    00087                                    
80747900110CL20           WIRE ROPE DUCT HANGER 10/PKG. 0000500005     O J PK00028500     0000203830000001S 0       W/SP EN 0000LI 00010070CL20           00000000000               
807490000  MM_F1          ALL ALUMINUM MATERIAL 3003-H14                                                            ALUM0MTRL.  M  01      0006602                                  
807490000  MM_F2          FOLLOWING ARE CUSTOM FITTINGS                                                             CUST0M      M    01    00031                                    
807490000  MM_F2          FOLLOWING ARE CUSTOM FITTINGS FOLLOWING WITH 20" THROAT                                   CUST0M      M    02    00031                                    
807490000  MM_F3          FOLLOWING WITH E-Z FLANGE (**)                                                            EF B0 HAND  M      01  00016                                    
80749000110TG             TDC/EZ FLANGE GASKET     50'RL0001000010     O J RL00006250     0000043430000001S 0       304-2B  0000LI 00000065TG             00000000000               
80749000212IS             INTERNET DISCOUNT             0000q0000q     O S DS01016820     0000000030000001N 0       304-2B 10000LS 00000099IS             00000000000               
80749000322ASP            NET COST FOR SPIRAL PIPE ALUM 0000100001     O C1NT08226830     0000000030000001N 0       304-2B 10150LC101000095ASP            06600000000               
80749000412EB40           40"-16GA BARREL CLAMP W/HDWR  0002800028     O S EA00022950     0000000030003041S 0       304-2B 10150LI 01000030EB40           06600000000               
80749000520EFI40          40" EZ FLANGE INSTALLED       0005600056     O S EA00049050     0000755030000001S 0       304-2B 10000LS 01000055EFI40          06600000000               
80749000621SG4020         40"-.050 X 10'SPIRAL PIPE ALUM0002300023     O C1EA00000000     000000003      1N 0       304-2B 10150LC101000195SG402010       06600000016               
80749000720SG4020         40"-.050 X 124.5" L SPIRL ALUM0000200002     O C1EA00000000     000000003      1N 0       304-2B 10150LC101000195SG4020+125     06600000016               
80749000820SG4020         40"-.050 X 125.5" L SPIRL ALUM0000100001     O C1EA00000000     000000003      1N 0       304-2B 10150LC101000195SG4020+126     06600000016               
80749000922GE409020       40" 90 20GA GORELOCK ELL ALUM 0000200002     O F EA00398500     000000003      1N 0       304-2B 10150LF 01020195GE409020       06603100016               
807500000  MM_F2          TAG: OPTION                                                                               TAG: OPTION M    01    00000                                    
807500000  MM_F3          FOLLOWING WITH SPIRAL ENDS                                                                W/SP ENDS   M      01  00001                                    
80750000111SG1020         10"-20GA X 10'SPIRAL PIPE GALV0000300003     O C1EA00041000     0000000030000001N 0       16 GAUG 0000LC 00000014SG102010       00000000000               
80750000212SPCC1          SET-UP & CUT CHARGE 3"-12"    0000100001     O C1EA00030000     000000003      1N 0       16 GAUG 0000LC 00000090SPCC1          00000000000               
80750000312C1024          10" CONN SPIRAL PIPE 24GA GALV0000200002     O H1EA00002950     0000000030000921N 0       16 GAUG 0000LI 00000005C1024          00000000000               
80750000412ED1090         10"-90 SOLID WELDED DIEFORM   0000300003     O K1EA00026380     0000000030008601S 0       16 GAUG 0000LI 000000  ED1090         00000000001               
80750000510HH10           10"RD PIPE HANGER (1"X 16GA)  0000600006     O R EA00003200     0000000030000581S 0       16 GAUG 0000LI 00000017HH10           00000000000               
807518000  MM_F1          ALL ALUMINUM MATERIAL 3003-H14                                                            ALUM0MTRL.  M  01      0006602                                  
80751800112???G           11.75" ROUND ALUM COLLAR .032 0005000050     O G3EA00002850             30000001  0       W/SP EN10000LG 01000001???G           00000000000               
80751800212???G           7.75" ROUND ALUM COLLAR .032  0030000300     O G3EA00002000             30000001  0       W/SP EN10000LG 01000001???G           00000000000               
80751800312???G           9.75" ROUND ALUM COLLAR .032  0030000300     O G3EA00002250             30000001  0       W/SP EN10000LG 01000001???G           00000000000               
807537000  MM_F2          FOLLOWING ARE CUSTOM FITTINGS W/ 18" THROAT RADIUS                                        CUST0M      M    01    00031                                    
807537000  MM_F3          FOLLOWING WITH E-Z FLANGE                                                                 E-Z 0LANGES M      01  00015                                    
80753700110JTG            TDC/EZ FLANGE GASKET     50'RL0000200002     O J RL00006250     000000003      1N90       W/SP EN00000LI 00000065JTG            00000000000               
80753700210EG364520       36"-45 16GA GOR WLD ELL GALV  0000500005     O K3EA00427800     000000003      1N 0       W/SP EN10000LK300010125EG364520       00003100015               
80753700310JEB36          36"-16GA BARREL CLAMP W/HDWR  0000500005     O S EA00013500     000000003      1N90       W/SP EN00000LS 00010160JEB36          00000000000               
80753700410JEFI36         36" EZ FLANGE INSTALLED       0001000010     O S EA00030400     000000003      1N90       W/SP EN00000LS 00010164JEFI36         00000000000               
807540000  MM_F3          FOLLOWING WITH SPIRAL ENDS                                                                W/SP ENDS   M      01  00001                                    
80754000111SG0526         05"-26GA X 10'SPIRAL PIPE GALV0000300003     O C1EA00016100     0000000030000001N 0       W/SP EN 0000LC 00000011SG052610       00000000000               
80754000212BG05           5" FULL CUT-OFF BLAST GATE    0000100001     O J EA00011000     0000064830001841S 0       W/SP EN 0000LI 00000020BG05           00000000000               
80754000312ED0545          5"-45 SOLID WELDED DIEFORM   0000300003     O K1EA00015060     0000000030001221S 0       W/SP EN 0000LI 000000  ED0545         00000000000               
80754000412ED0590          5"-90 SOLID WELDED DIEFORM   0000300003     O K1EA00015940     0000000030002201S 0       W/SP EN 0000LI 000000  ED0590         00000000000               
80754000512HH05           5"RD PIPE HANGER (1"X 16GA)   0000600006     O R EA00003200     0000000030000301S 0       W/SP EN 0000LI 00000017HH05           00000000000               
80754000611S4260505       05 ON 05 45 26GA SADDLE       0000100001     O H1EA00012500     000000003      1N 0       W/SP EN 0000LH 00000131S4260505       00000000001               
807542000  MM_F3          FOLLOWING WITH SPIRAL ENDS                                                                W/SP ENDS   M      01  00001                                    
80754200112E089026S       8" 90 26GA ELBOW W/SP END GALV0000400004     O E EA00005650     0000000030002111S 000000000       0000LI 00000023E089026S       0000000000000000          
80754200212E129026S       12" 90 26GA ELBOW W/SP GALV   0000100001     O E EA00009250     0000000030004851S 000000000       0000LI 00000023E129026S       0000000000000000          
80754200312E08            08" E-Z TAP COLLAR 26GA       0000200002     O G1EA00003610     0000000030000521S 000000000       0000LI 00000005E08            0000000000000000          
80754200412E12            12" E-Z TAP COLLAR 26GA       0003800038     O G1EA00005760     0000000030000781S 000000000       0000LI 00000005E12            0000000000000000          
80754200512DSG1           LESS QUANTITY DISCOUNT/E-Z TAP0000q0000q     O G1DS00045200     0000000030000001N 000000000      10000L  00000090DSG1           0000000000000000          
80754200612R1208          12/8 24GA PRESSED REDUCER     0000100001     O H3EA00014770     0000000030002401S 000000000       0000LI 000001  R1208          0000000000000000          
80755000112TC             TDC CLEATS 22GA               0064000640     O A1EA00000170     0000000030000121S 0       E-Z 0LA 0000LI 00000001TC             00000000000               
80755000211WRG            40/16   1.5/1.5 10GA RANGLE   0000400004     O B EA00015130     0000000030014091N 0       E-Z 0LA 0000LB 00000003WRG40-16       00000000000               
80755000311WRG            42/18   1.5/1.5 10GA RANGLE   0000300003     O B EA00016210     0000000030014091N 0       E-Z 0LA 0000LB 00000003WRG42-18       00000000000               
80755000411WRG            44/14   1.5/1.5 10GA RANGLE   0000100001     O B EA00015680     0000000030014091N 0       E-Z 0LA 0000LB 00000003WRG44-14       00000000000               
80755000511WRG            48/12   1.5/1.5 10GA RANGLE   0000600006     O B EA00016210     0000000030014091N 0       E-Z 0LA 0000LB 00000003WRG48-12       00000000000               
807550006  CMGD           C.MATIC CORNERS (DUCT) GALV   001240012400000O J EA00000600000000000000030000001S         E-Z 0LA     LO 00000065                                         
807550007  TCR            TDC CORNERS                   005050050500000O J EA00000260000000000000030000001S         E-Z 0LA     LI 00000065                                         
80755000812TG             TDC/EZ FLANGE GASKET     50'RL0001800018     O J RL00006250     0000043430000001S 0       E-Z 0LA 0000LI 00000065TG             00000000000               
80755000912TN             TDC 1" NUTS & BOLTS           0033500335     O J EA00000090     0000000730000061S 0       E-Z 0LA 0000LI 00000065TN             00000000000               
80755001012???L           INSTALL NOSING ON DUCT & FTGS 0004800048     O L EA00005000             30000001  0       E-Z 0LA10000LL 00000001???L           00000000000               
80755001112A.             MISC. DEGREE ANGLE (NON-90)   0000300003     O L EA00000000     000000003      1N 0       E-Z 0LA 0000LL 00000010A.             00000000000               
80755001212CAM.           CHANNELS & ANGLES             0004800048     O L EA00000000     0000000030000001N 0       E-Z 0LA 0000LL 00000010CAM.           00000000000               
80755001312EC.            END CAPS                      0000400004     O L EA00000000     000000003      1N 0       E-Z 0LA 0000LL 00000010EC.            00000000000               
80755001412OF.            OFFSETS                       0001300013     O L EA00000000     000000003      1N 0       E-Z 0LA 0000LL 00000010OF.            00000000000               
80755001512PR.            PARKER FITTING                0000100001     O L EA00000000     0000000030000001N 0       E-Z 0LA 0000LL 00000010PR.            00000000000               
80755001612REV.           RECT. ELBOW W/VANES           0001700017     O L EA00000000     000000003      1N 0       E-Z 0LA 0000LL 00000010REV.           00000000000               
80755001712SD.            MISC. SHORT DUCTS             0001000010     O L JT00000000     000000003      1N 0       E-Z 0LA 0000LL 00000010SD.            00000000000               
80755001812TR.            TRANSITIONS                   0001400014     O L EA00000000     000000003      1N 0       E-Z 0LA 0000LL 00000010TR.            00000000000               
80755001912CAM            MATERIAL FOR CHANNELS & ANGLES0007400074     O L LB00004800     0000000030000001N 0       E-Z 0LA 0000LL 00000030CAM            00000000000               
8075500201220GK           20GA GALVANIZED FITTINGS K/D  0146501465     O L LB00001680     0000000030000001N 0       E-Z 0LA 0000LL 0000004420GK           00000000000               
8075500211222GK           22GA GALVANIZED FITTINGS K/D  0055200552     O L LB00001790     0000000030000001N 0       E-Z 0LA 0000LL 0000004622GK           00000000000               
8075500221226GK           26GA GALVANIZED FITTINGS K/D  0010000100     O L LB00002550     0000000030000001N 0       E-Z 0LA 0000LL 0000005026GK           00000000000               
80755002312DLF1           1" DUCT LINER FOR FITTINGS    0080200802     O L FT00001350     000000003      1N 0       E-Z 0LA 0000LL 00000060DLF1           00000000000               
80755002410???O           PALLETIZE & SHRINK WRAP DUCT  0156801568     O O EA00000030             30000001  0       E-Z 0LA10000LO 00000001???O           00000000000               
807550025  IO             INTERNET DISCOUNT             0156x0156x00000O O DS00000050000000000000030000001N         E-Z 0LA     LO 00000099                                         
807550026124000CTL        SINGLE WALL VANE CTL/FITTINGS 0008900089     O T FT00000880     000000003      1N 0       E-Z 0LA 0000LT 000000104000CTL        00000000000               
80755002712424CTL         4" VANE CUT FOR FITTINGS      0027400274     O T FT00001260     000000003      1N 0       E-Z 0LA 0000LT 00000010424CTL         00000000000               
807550028125000CTL        E Z RAIL II FOR FITTINGS      0004300043     O T FT00000920     000000003      1N 0       E-Z 0LA 0000LT 000000105000CTL        00000000000               
80755002912522CTL         4" RAIL CUT FOR FITTINGS      0006700067     O T FT00000880     000000003      1N 0       E-Z 0LA 0000LT 00000010522CTL         00000000000               
807563000  MM_F3          FOLLOWING WITH E-Z FLANGE                                                                 E-Z 0LANGES M      01  00015                                    
80756300110IC             INTERNET DISCOUNT             0000q0000q     O C1DS00021600     0000000030000001N 0       316-0B 10000LC100000099IC             00000000000               
80756300211JJG            EZ FLANGE JR. GASKET     25'RL0000200002     O J RL00002750     0000000030000001N90       316-0B 00000LI 00000065JJG            00000000000               
80756300312EFS12          12" EZ FLANGE FULL SET GALV   0000200002     O S EA00015600     0000000030002031S 0       316-0B  0000LI 00000010EFS12          00000000000               
80756300412EFS18          18" EZ FLANGE FULL SET GALV   0000200002     O S EA00016800     0000000030003031S 0       316-0B  0000LI 00000010EFS18          00000000000               
80756300511SG1224         12"-24GA X 10'SPIRAL PIPE GALV0000300003     O C1EA00036000     0000000030000001N 0       316-0B  0000LC 00000112SG122410       00000000015               
80756300611SG1824         18"-24GA X 10'SPIRAL PIPE GALV0000200002     O C1EA00054000     000000003      1N 0       316-0B  0000LC 00000112SG182410       00000000015               
80756300710ED1290         12"-90 SOLID WELDED DIEFORM   0000200002     O K1EA00030270     0000000030012401S 0       316-0B  0000LI 000001  ED1290         00000000015               
80756300812EG189020       18"-90 20GA GOR WLD ELL GALV  0000100001     O K3EA00143850     000000003      1N 0       316-0B  0000LK 00000126EG189020       00000000015               
80756300910JEB12          12"-16GA BARREL CLAMP W/HDWR  0000500005     O S EA00006800     0000000030012401N90       316-0B 00000LS 00000160JEB12          00000000000               
80756301011JEB18          18"-16GA BARREL CLAMP W/HDWR  0000300003     O S EA00006800     000000003      1N90       316-0B 00000LS 00000160JEB18          00000000000               
807566000  MM_F1          STLS STL MATERIAL (316-2B)                                                                316-0B S.S. M  01      0006501                                  
807566000  MM_F2          FOLLOWING ARE CUSTOM FITTINGS ALL ARE TO HAVE A 316SST SLIDE                              CUST0M      M    01    00031                                    
80756600141SG0824         08"-24GA X 10'SPIRAL PIPE SST 0000200002     O C1EA00000000     0000000030000001N 000004400      10210LC101000094SG082410       0650000000000000          
80756600241SG0824         08"-24GA X 14'SPIRAL PIPE SST 0000100001     O C1EA00000000     0000000030000001N 000004400      10210LC 01000094SG082414       0650000000000000          
80756600341SG1024         10"-24GA X 12'SPIRAL PIPE SST 0000100001     O C1EA00000000     0000000030000001N 000004400      10210LC101000094SG102412       0650000000000000          
80756600442SSSP           NET COST ON SPIRAL SST        0000100001     O C1NT00820450     0000000030000001N 000004400      10210LC101000094SSSP           0650000000000000          
80756600512PSA100524      PIPE 10"5' 24GA ACME LCK S.S. 0000200002     O D EA00084000     0000000030014451N 000004400      10120LD 010000  PSA100524      0650000000000000          
80756600612ES039018       3" 90 .018 ELBOW LE/SE S.S.   0000300003     O E EA00026100     0000000030000501N 000004400      10120LE 01000050ES039018       0650000000400000          
80756600712ES089024       8" 90 .024 ELBOW LE/SE S.S.   0000100001     O E EA00033700     0000000030002671N 000004400      10120LE 01000050ES089024       0650000000000000          
80756600812ES109024       10" 90 .024 ELBOW LE/SE S.S.  0000400004     O E EA00040800     0000000030003851N 000004400      10120LE 01000050ES109024       0650000000000000          
80756600912ES089024S      8"90 .024 ELBOW W/SP S.S.     0000500005     O E EA00033700     0000000030000001N 000004400      10120LE 01000052ES089024S      0650000000000000          
80756601012ES109024S      10"90 .024 ELBOW W/SP S.S.    0000200002     O E EA00040800     0000000030000001N 000004400      10120LE 01000052ES109024S      0650000000000000          
80756601142EC0424L        4" END CAP 24GA LE SST        0000100001     O H1EA00016650     000000003      1N 000004400      10210LH101000094EC0424L        0650000000000000          
80756601242EC1024S        10" END CAP 24GA SE SST       0000100001     O H1EA00022050     0000000030001041N 000004400      10210LH101000094EC1024S        0650000000100000          
80756601342EC1224L        12" END CAP 24GA LE SST       0000100001     O H1EA00024300     0000000030001281N 000004400      10210LH101000094EC1224L        0650000000000000          
80756601412BG08           8" FULL CUT-OFF BLAST GATE    0000300003     O J EA00035000     0000135330003801S 000004400      10000LJ 01010020BG08           0650310000000000          
80756601512BG10           10" FULL CUT-OFF BLAST GATE   0000100001     O J EA00047000     0000210130005761S 000004400      10000LJ 01010020BG10           0650310000000000          
80756800112???L           RADIUS 45 TAKE-OFF            0000100001     O L EA00000000             30000001  0       304-0B  0000LL 00000001???L           00000000000               
80756800212A.             MISC. DEGREE ANGLE (NON-90)   0000100001     O L EA00000000     000000003      1N 0       304-0B  0000LL 00000010A.             00000000000               
80756800312E.             90 DEGREE ELBOWS              0000400004     O L EA00000000     0000000030000001N 0       304-0B  0000LL 00000010E.             00000000000               
80756800412EC.            END CAPS                      0000300003     O L EA00000000     000000003      1N 0       304-0B  0000LL 00000010EC.            00000000000               
80756800512ER.            RADIUS ELBOWS                 0000200002     O L EA00000000     000000003      1N 0       304-0B  0000LL 00000010ER.            00000000000               
80756800612TR.            TRANSITIONS                   0000100001     O L EA00000000     000000003      1N 0       304-0B  0000LL 00000010TR.            00000000000               
8075680071226GF           26GA GALV FITTINGS FULL ASMBL 0009400094     O L LB00003250     0000000030000001N 0       304-0B  0000LL 0000005026GF           00000000000               
8075680081282426          1" STDG "S" CONN 24GA CTL  26"0001600016     O N1EA00001600     000000003      1S 0       304-0B  0000LN 0000003082426          00000000000               
8075680091072408          1" FLAT "S" CONN 24GA CTL   8"0000600006     O N1EA00000300     000000003      1S 0       304-0B  0000LN 0000003572408          00000000000               
8075680101272410          1" FLAT "S" CONN 24GA CTL  10"0001400014     O N1EA00000500     000000003      1S 0       304-0B  0000LN 0000003572410          00000000000               
8075680111272420          1" FLAT "S" CONN 24GA CTL 20" 0002000020     O N1EA00000750     0000000030000001S 0       304-0B  0000LN 0000003572420          00000000000               
80756801210608241         1" FLAT DRIVE 24GA CTL 8" GALV0003200032     O N1EA00000300     000000003      1S 0       304-0B  0000LN 00000050608241         00000000000               
80756801312610241         1" FLT DRIVE 24GA CTL 10" GALV0000800008     O N1EA00000450     000000003      1S 0       304-0B  0000LN 00000050610241         00000000000               
80756801412612241         1" FLT DRIVE 24GA CTL 12" GALV0001600016     O N1EA00000450     000000003      1S 0       304-0B  0000LN 00000050612241         00000000000               
807568015  IP             INTERNET DISCOUNT             0033y0033y00000O P DS00000030000000000000030000001N         304-0B      LP 00000099                                         
80757000112CC             CANVAS CONNECTION             0000600006     O L FT00004400     000000003      1N 0       304-0B  0000LL 00000005CC             00000000000               
80757000212CC.            CANVAS CONNECTORS             0000100001     O L EA00000000     000116443      1N 0       304-0B  0000LL 00000010CC.            00000000000               
80757000312REV.           RECT. ELBOW W/VANES           0000200002     O L EA00000000     000000003      1N 0       304-0B  0000LL 00000010REV.           00000000000               
80757000412SD.            MISC. SHORT DUCTS             0000100001     O L JT00000000     000000003      1N 0       304-0B  0000LL 00000010SD.            00000000000               
80757000512TP.            TAP TAKE-OFFS                 0000200002     O L EA00000000     000000003      1N 0       304-0B  0000LL 00000010TP.            00000000000               
80757000612TR.            TRANSITIONS                   0000200002     O L EA00000000     000000003      1N 0       304-0B  0000LL 00000010TR.            00000000000               
8075700071222GK           22GA GALVANIZED FITTINGS K/D  0006200062     O L LB00001790     0000000030000001N 0       304-0B  0000LL 0000004622GK           00000000000               
8075700081024GK           24GA GALVANIZED FITTINGS K/D  0005000050     O L LB00001930     0000000030000001N 0       304-0B  0000LL 0000004824GK           00000000000               
8075700091226GK           26GA GALVANIZED FITTINGS K/D  0000500005     O L LB00002550     0000000030000001N 0       304-0B  0000LL 0000005026GK           00000000000               
80757001010DLF1/2         1/2"2#LINER FOR FITTINGS      0007500075     O L FT00001350     000000003      1N 0       304-0B  0000LL 00000060DLF1/2         00000000000               
8075700111272418          1" FLAT "S" CONN 24GA CTL  18"0000600006     O N1EA00000750     000000003      1S 0       304-0B  0000LN 0000003572418          00000000000               
80757001212618241         1" FLT DRIVE 24GA CTL 18" GALV0000600006     O N1EA00000650     000000003      1S 0       304-0B  0000LN 00000050618241         00000000000               
807570013  IP             INTERNET DISCOUNT             0006p0006p00000O P DS00000030000000000000030000001N         304-0B      LP 00000099                                         
807570014124000CTL        SINGLE WALL VANE CTL/FITTINGS 0002100021     O T FT00000880     000000003      1N 0       304-0B  0000LT 000000104000CTL        00000000000               
807570015125000CTL        E Z RAIL II FOR FITTINGS      0000900009     O T FT00000920     000000003      1N 0       304-0B  0000LT 000000105000CTL        00000000000               
807571000  MM_F1          STLS STL MATERIAL (304-2B)                                                                304-0B S.S. M  01      0006404                                  
807571000  MM_F2          FOLLOWING ARE CUSTOM FITTINGS INSTALL IN FITTINGS                                         CUST0M      M    01    00031                                    
807571000  MM_F3          FOLLOWING WITH SPIRAL ENDS                                                                W/SP ENDS   M      01  00001                                    
807571000  MM_F3          FOLLOWING LARGE END-LARGE END                                                             LE/L0       M      02  00006                                    
807571001 0TC             TDC CLEATS 22GA               002250022500000O A1EA00000170000000000000030000001S 0       ERRO0 M  000LI 00000001               00000000000               
80757100211SG0826         08"-26GA X 10'SPIRAL PIPE GALV0000400004     O C1EA00021400     0000000030000001N 0       ERRO0 M 0000LC 00000011SG082610       00000000000               
80757100311SG1424         14"-24GA X 10'SPIRAL PIPE GALV0000100001     O C1EA00042000     000000003      1N 0       ERRO0 M 0000LC 00000012SG142410       00000000000               
80757100412DSC            LESS QUANTITY DISCOUNT/SPIRAL 0000q0000q     O C1NT00012760     0000000030000001N 0       ERRO0 M10000L  00000099DSC            00000000000               
80757100512E089026S       8" 90 26GA ELBOW W/SP END GALV0000300003     O E EA00005650     0000000030002111S 0       ERRO0 M 0000LI 00000023E089026S       00000000000               
80757100612C0824          8" CONN SPIRAL PIPE 24GA GALV 0000200002     O H1EA00002450     0000000030000741N 0       ERRO0 M 0000LI 00000005C0824          00000000000               
80757100712PEC14S         14" 22GA PRESSED END CAP W/SP 0000100001     O H3EA00014860     0000000030001951S 0       ERRO0 M 0000LI 000000  PEC14S         00000000000               
80757100811OBN            16X14    OPPOSED BLADE        0000100001     O J EA00069000     0000620530000001N 0       ERRO0 M 0000LJ 00000025OBN1614        00000000000               
80757100911OBN            18X14    OPPOSED BLADE        0000100001     O J EA00069000     0000620530000001N 0       ERRO0 M 0000LJ 00000025OBN1814        00000000000               
80757101011OBN            24X24    OPPOSED BLADE        0000200002     O J EA00086000     0000620530000001N 0       ERRO0 M 0000LJ 00000025OBN2424        00000000000               
80757101111SBD            14X12 SINGLE BLADE            0000100001     O J EA00020150     0000000030000001S 0       ERRO0 M 0000LJ 00000025SBD1412        00000000000               
80757101211SBD            24X12 SINGLE BLADE            0000100001     O J EA00030950     0000000030000001S 0       ERRO0 M 0000LJ 00000025SBD2412        00000000000               
807571013  CD516          1/2" CONDUIT W/LOCKS 16" LONG 000010000100000O J EA00003700000000000000030000001S         ERRO0 M     LN 00000060                                         
807571014  CMGD           C.MATIC CORNERS (DUCT) GALV   000480004800000O J EA00000600000000000000030000001S         ERRO0 M     LO 00000065                                         
80757101512CMGF           C.MATIC CORNERS (FITTING) GALV0020400204     O J EA00001100     0000001830000001N 0       ERRO0 M 0000LL 00000065CMGF           00000000000               
807571016  TCR            TDC CORNERS                   000480004800000O J EA00000260000000000000030000001S         ERRO0 M     LI 00000065                                         
807571017 0TG             TDC/EZ FLANGE GASKET     50'RL000080000800000O J RL00006250000000000000030000001S 0       ERRO0 M  000LI 00000065               00000000000               
807571018 0TN             TDC 1" NUTS & BOLTS           001750017500000O J EA00000090000000000000030000001S 0       ERRO0 M  000LI 00000065               00000000000               
80757101912A.             MISC. DEGREE ANGLE (NON-90)   0000200002     O L EA00000000     000000003      1N 0       ERRO0 M 0000LL 00000010A.             00000000000               
80757102012EC.            END CAPS                      0000100001     O L EA00000000     000000003      1N 0       ERRO0 M 0000LL 00000010EC.            00000000000               
80757102112ER.            RADIUS ELBOWS                 0000200002     O L EA00000000     000000003      1N 0       ERRO0 M 0000LL 00000010ER.            00000000000               
80757102212OF.            OFFSETS                       0000800008     O L EA00000000     000000003      1N 0       ERRO0 M 0000LL 00000010OF.            00000000000               
80757102312REV.           RECT. ELBOW W/VANES           0000100001     O L EA00000000     000000003      1N 0       ERRO0 M 0000LL 00000010REV.           00000000000               
80757102412SD.            MISC. SHORT DUCTS             0000500005     O L JT00000000     000000003      1N 0       ERRO0 M 0000LL 00000010SD.            00000000000               
80757102512TR.            TRANSITIONS                   0000700007     O L EA00000000     000000003      1N 0       ERRO0 M 0000LL 00000010TR.            00000000000               
8075710261220GF           20GA GALV FITTINGS FULL ASMBL 0014500145     O L LB00002230     0000000030000001N 0       ERRO0 M 0000LL 0000004420GF           00000000000               
8075710271222GF           22GA GALV FITTINGS FULL ASMBL 0023500235     O L LB00002340     0000000030000001N 0       ERRO0 M 0000LL 0000004622GF           00000000000               
8075710281224GF           24GA GALV FITTINGS FULL ASMBL 0000700007     O L LB00002480     0000000030000001N 0       ERRO0 M 0000LL 0000004824GF           00000000000               
8075710291226GF           26GA GALV FITTINGS FULL ASMBL 0027600276     O L LB00003250     0000000030000001N 0       ERRO0 M 0000LL 0000005026GF           00000000000               
80757103012SR             SQUARE TO ROUND ASSEMBLY      0000100001     O M EA00030000     000000003      1N 0       ERRO0 M 0000LM 00000020SR             00000000000               
80757103112SR.            SQUARE TO ROUNDS              0000100001     O M EA00000000     000000003      1N 0       ERRO0 M 0000LM 00000020SR.            00000000000               
807571032  HP             HOLES PUNCHED IN DUCTWORK     000010000100000O O EA00000500000000000000030000001N         ERRO0 M     LO 00000001                                         
80757103312424A           4"TURNING VANE INSTALLED      0005000050     O T FT00002760     0000000030000001N 0       ERRO0 M 0000LT 00000010424A           00000000000               
80757103412522A           4"VANE RAIL INSTALLED         0001000010     O T FT00002380     0000000030000001N 0       ERRO0 M 0000LT 00000010522A           00000000000               
80757103512S9*1012        10 ON 12 24GA PRESSED SADDLE  0000100001     O H3EA00013490     0000000030000001S 0       ERRO0 M 1000LI 000001  S9*1012        00000000001               
80757103612CD518          1/2" CONDUIT W/LOCKS 18" LONG 0000100001     O J EA00008700     0000010430000001S 0       ERRO0 M10000LJ 00010060CD518          00000000000               
80757103712CD524          1/2" CONDUIT W/LOCKS 24" LONG 0000300003     O J EA00008700     0000012030000001S 0       ERRO0 M10000LJ 00010060CD524          00000000000               
80757103840CRS18          18" COMPANION RING S.S.       0000100001     O J EA00062700     0000461030000001S 0       ERRO0 M 0000LI 01000015CRS18          00000000000               
80757103912???K           18"RD X 3' 20G S.S.WELDED PIPE0000100001     O K3EA00122220             30000001  0       ERRO0 M10000LK 01000201???K           00000000000               
807574001126SS            1" 304 SS FLAT DRIVE .018  10'0000200002     O A EA00019700     0000000030000161S 0       E-Z 0LA 0000LA 000000056SS            00000000000               
807574002127SS            1" 304 SS FLAT"S"SLIP .018 10'0000200002     O A EA00022700     0000000030000271S 0       E-Z 0LA 0000LA 000000057SS            00000000000               
80757400312HBS18          .048 STAINLESS HANGER BAND 10'0000100001     O A EA00004600     0000000030000001S 0       E-Z 0LA 0000LA 00000005HBS18          00000000000               
80757400412P040526        4" 5' 26GA PIPE SNP LCK GALV  0000100001     O D EA00006620     0000000030005331S 0       E-Z 0LA 0000LI 00000013P040526        00000000000               
80757400510???L           BIRD SCREEN END CAP           0000100001     O L EA00000000             30000001  0       E-Z 0LA 0000LL 00000001???L           00000000000               
80757400612CC             CANVAS CONNECTION             0000500005     O L FT00004400     000000003      1N 0       E-Z 0LA 0000LL 00000005CC             00000000000               
80757400712A.             MISC. DEGREE ANGLE (NON-90)   0000100001     O L EA00000000     000000003      1N 0       E-Z 0LA 0000LL 00000010A.             00000000000               
80757400812BS.            BIRD SCREENS                  0000200002     O L EA00000000     0000000030000001N 0       E-Z 0LA 0000LL 00000010BS.            00000000000               
80757400912CC.            CANVAS CONNECTORS             0000100001     O L EA00000000     000116443      1N 0       E-Z 0LA 0000LL 00000010CC.            00000000000               
80757401012EC.            END CAPS                      0000100001     O L EA00000000     000000003      1N 0       E-Z 0LA 0000LL 00000010EC.            00000000000               
80757401112P.             PATCHES                       0000200002     O L EA00000000     0000000030000001N 0       E-Z 0LA 0000LL 00000010P.             00000000000               
80757401212RE.            RECT. ELBOWS W/OUT VANES      0000100001     O L EA00000000     000000003      1N 0       E-Z 0LA 0000LL 00000010RE.            00000000000               
80757401312SD.            MISC. SHORT DUCTS             0000600006     O L JT00000000     000000003      1N 0       E-Z 0LA 0000LL 00000010SD.            00000000000               
80757401412TR.            TRANSITIONS                   0000100001     O L EA00000000     000000003      1N 0       E-Z 0LA 0000LL 00000010TR.            00000000000               
80757401512BS             1/2" BIRD SCREEN FOR FITTINGS 0000200002     O L FT00006050     000000003      1N 0       E-Z 0LA 0000LL 00000030BS             00000000000               
8075740161220GF           20GA GALV FITTINGS FULL ASMBL 0002000020     O L LB00002230     0000000030000001N 0       E-Z 0LA 0000LL 0000004420GF           00000000000               
8075740171224GF           24GA GALV FITTINGS FULL ASMBL 0004800048     O L LB00002480     0000000030000001N 0       E-Z 0LA 0000LL 0000004824GF           00000000000               
8075740181224SF           24GA ST STL FTGS FULL ASMBL   0005300053     O L LB00004650     0000000030000001N 0       E-Z 0LA 0000LL 0000004824SF           00000000000               
80757401912DLF1           1" DUCT LINER FOR FITTINGS    0002400024     O L FT00001350     000000003      1N 0       E-Z 0LA 0000LL 00000060DLF1           00000000000               
8075740201272417          1" FLAT "S" CONN 24GA CTL  17"0000200002     O N1EA00000750     000000003      1S 0       E-Z 0LA 0000LN 0000003572417          00000000000               
8075740211272418          1" FLAT "S" CONN 24GA CTL  18"0000200002     O N1EA00000750     000000003      1S 0       E-Z 0LA 0000LN 0000003572418          00000000000               
80757402212608241         1" FLAT DRIVE 24GA CTL 8" GALV0000400004     O N1EA00000300     000000003      1S 0       E-Z 0LA 0000LN 00000050608241         00000000000               
807575000  MM_F3          FOLLOWING WITH E-Z FLANGE                                                                 E-Z 0LANGES M      01  00015                                    
80757500112JJG            EZ FLANGE JR. GASKET     25'RL0000200002     O J RL00002750     0000000030002861N90       ALUM0MT00000LI 00000065JJG            00000000000               
80757500211SG1026         10"-26GA X 10'SPIRAL PIPE GALV0000400004     O C1EA00026700     0000000030000001N 0       ALUM0MT 0000LC 00000111SG102610       00000000015               
80757500311T926100808     10/8/8 90 26GA TEE            0000100001     O H1EA00035500     000000003      1N 0       ALUM0MT 0000LH 00000136T926100808     00000000015               
80757500411T926101008     10/10/8 90 26GA TEE           0000100001     O H1EA00020800     000000003      1N 0       ALUM0MT 0000LH 00000136T926101008     00000000015               
80757500512ED0845          8"-45 SOLID WELDED DIEFORM   0000200002     O K1EA00016650     0000000030002861S 0       ALUM0MT 0000LI 000001  ED0845         00000000015               
80757500612ED0890          8"-90 SOLID WELDED DIEFORM   0000300003     O K1EA00020010     0000000030005501S 0       ALUM0MT 0000LI 000001  ED0890         00000000015               
80757500711JEB08          08"-16GA BARREL CLAMP W/HDWR  0000800008     O S EA00006800     000000003      1N90       ALUM0MT00000LS 00000160JEB08          00000000000               
80757500811JEB10          10"-16GA BARREL CLAMP W/HDWR  0000500005     O S EA00006800     0000000030000001N90       ALUM0MT00000LS 00000160JEB10          00000000000               
807579000  MM_F1          ALL ALUMINUM MATERIAL 3003-H14                                                            ALUM0MTRL.  M  01      0006602                                  
80757900120ASP            NET COST FOR SPIRAL PIPE ALUM 0000100001     O C1NT00235100     0000000030000001N 000000000      10000LC101000095ASP            0660000000000000          
80757900221SG0624         06"-.032 X 10'SPIRAL PIPE ALUM0000600006     O C1EA00000000     0000000030000001N 000000000      10150LC101000095SG062410       0660000000000000          
80757900312EA069032S      6"90 .032 ADJ ELBOW W/SP ALUM 0000800008     O E EA00011500     0000000030000001S 000000000       0000LI 01000042EA069032S      0660000000000000          
80758700112SD.            MISC. SHORT DUCTS             0000200002     O L JT00000000     000000003      1N 0       FULL SW 0000LL 00000010SD.            00000000000               
80758700212TR.            TRANSITIONS                   0000200002     O L EA00000000     000000003      1N 0       FULL SW 0000LL 00000010TR.            00000000000               
8075870031224GF           24GA GALV FITTINGS FULL ASMBL 0007300073     O L LB00002480     0000000030000001N 0       FULL SW 0000LL 0000004824GF           00000000000               
80758700412SR             SQUARE TO ROUND ASSEMBLY      0000800008     O M EA00030000     000000003      1N 0       FULL SW 0000LM 00000020SR             00000000000               
80758700512SR.            SQUARE TO ROUNDS              0000800008     O M EA00000000     000000003      1N 0       FULL SW 0000LM 00000020SR.            00000000000               
8075870061282430          1" STDG "S" CONN 24GA CTL  30"0000200002     O N1EA00001600     000000003      1S 0       FULL SW 0000LN 0000003082430          00000000000               
8075870071272412          1" FLAT "S" CONN 24GA CTL  12"0001400014     O N1EA00000500     000000003      1S 0       FULL SW 0000LN 0000003572412          00000000000               
807587008  72414          1" FLAT "S" CONN 24GA CTL  14"000040000400000O N1EA00000750000000000000030000001S 0       FULL SW     LN 00000035                                         
8075870091272416          1" FLAT "S" CONN 24GA CTL  16"0000200002     O N1EA00000750     000000003      1S 0       FULL SW 0000LN 0000003572416          00000000000               
8075870101272418          1" FLAT "S" CONN 24GA CTL  18"0000200002     O N1EA00000750     000000003      1S 0       FULL SW 0000LN 0000003572418          00000000000               
80758701112608241         1" FLAT DRIVE 24GA CTL 8" GALV0001200012     O N1EA00000300     000000003      1S 0       FULL SW 0000LN 00000050608241         00000000000               
80758701212610241         1" FLT DRIVE 24GA CTL 10" GALV0000600006     O N1EA00000450     000000003      1S 0       FULL SW 0000LN 00000050610241         00000000000               
807587013  613241         1" FLT DRIVE 24GA CTL 13" GALV000040000400000O N1EA00000450000000000000030000001S 0       FULL SW     LN 00000050                                         
80758701412615241         1" FLT DRIVE 24GA CTL 15" GALV0000200002     O N1EA00000650     000000003      1S 0       FULL SW 0000LN 00000050615241         00000000000               
807608000  MM_F2          FOLLOWING ARE CUSTOM FITTINGS ON FLAT                                                     CUST0M      M    01    00031                                    
80760800112724            1" FLAT S SLIP 24GA       100'0000100001     O A EA00037000     0000000030035001S 0       ALUM.MT 0000LA 00000028724            00000000000               
80760800212P100526        10" 5' 26GA PIPE SNP LCK GALV 0002000020     O D EA00011310     0000000030012451S 0       ALUM.MT 0000LI 00000013P100526        00000000000               
80760800312E069026        6" 90 26GA ELBOW LE/SE GALV   0000600006     O E EA00003700     0000000030001471S 0       ALUM.MT 0000LI 00000013E069026        00000000000               
80760800412E089026        8" 90 26GA ELBOW LE/SE GALV   0000600006     O E EA00004600     0000000030002111S 0       ALUM.MT 0000LI 00000013E089026        00000000000               
80760800512H06            6" SUPER HETO                 0000100001     O G2EA00013290     0000000030001701S 0       ALUM.MT 0000LI 00000010H06            00000000000               
80760800612WR20500        #20 WIRE ROPE SPOOL (500')    0000200002     O J EA00053000     0000205930000001S 0       ALUM.MT 0000LI 00000070WR20500        00000000000               
80760800712???L           STRAPS                        0002500025     O L EA00000000             30000001  0       ALUM.MT 0000LL 00000001???L           00000000000               
80760800812EC.            END CAPS                      0000200002     O L EA00000000     000000003      1N 0       ALUM.MT 0000LL 00000010EC.            00000000000               
80760800912ER.            RADIUS ELBOWS                 0000300003     O L EA00000000     000000003      1N 0       ALUM.MT 0000LL 00000010ER.            00000000000               
80760801012TP.            TAP TAKE-OFFS                 0000100001     O L EA00000000     000000003      1N 0       ALUM.MT 0000LL 00000010TP.            00000000000               
8076080111224GF           24GA GALV FITTINGS FULL ASMBL 0001400014     O L LB00002480     0000000030000001N 0       ALUM.MT 0000LL 0000004824GF           00000000000               
8076080121224GK           24GA GALVANIZED FITTINGS K/D  0001900019     O L LB00001930     0000000030000001N 0       ALUM.MT 0000LL 0000004824GK           00000000000               
8076080131226GF           26GA GALV FITTINGS FULL ASMBL 0002500025     O L LB00003250     0000000030000001N 0       ALUM.MT 0000LL 0000005026GF           00000000000               
80760801412DLF1           1" DUCT LINER FOR FITTINGS    0002800028     O L FT00001350     000000003      1N 0       ALUM.MT 0000LL 00000060DLF1           00000000000               
80760801512RJ04           04" ROOF JACK 20GA GALV       0000100001     O K3EA00034000     0000000030000001N 0       ALUM.MT 0000LK3000100  RJ04           00003100000               
80760801612RJ06           06" ROOF JACK 20GA GALV       0000200002     O K3EA00040000     0000079230000001N 0       ALUM.MT 0000LK3000100  RJ06           00003100000               
80761100112TC             TDC CLEATS 22GA               0001000010     O A1EA00000170     0000000030000121S 0       304-0B  0000LI 00000001TC             00000000000               
80761100212DG             DP-1010 GALLON DUCT SEALER    0000200002     O J EA00014250     0000091930011741S 0       304-0B  0000LI 00000050DG             00000000000               
80761100312CMGF           C.MATIC CORNERS (FITTING) GALV0000800008     O J EA00001100     0000001830000001N 0       304-0B  0000LL 00000065CMGF           00000000000               
80761100412TG             TDC/EZ FLANGE GASKET     50'RL0000100001     O J RL00006250     0000043430000001S 0       304-0B  0000LI 00000065TG             00000000000               
80761100512TN             TDC 1" NUTS & BOLTS           0000500005     O J EA00000090     0000000730000061S 0       304-0B  0000LI 00000065TN             00000000000               
80761100612ER.            RADIUS ELBOWS                 0000100001     O L EA00000000     000000003      1N 0       304-0B  0000LL 00000010ER.            00000000000               
8076110071222GF           22GA GALV FITTINGS FULL ASMBL 0004800048     O L LB00002340     0000000030000001N 0       304-0B  0000LL 0000004622GF           00000000000               
80761400112EFS26          26" EZ FLANGE FULL SET GALV   0000400004     O S EA00027400     0000000030012021S 000026550       0000LI 00000010EFS26          0000000000000000          
80761500111SG1424         14"-24GA X  5'SPIRAL PIPE GALV0000800008     O C1EA00026550     000000003      1N 0       CUST0M 10000LC 00000012SG142405       00000000000               
807616000  MM_F2          FOLLOWING ARE CUSTOM FITTINGS                                                             CUST0M      M    01    00031                                    
807616000  MM_F2          FOLLOWING INSTALLED IN        TRANSITION                                                  FOLL0WING INM    02    00000                                    
807616001 0TC             TDC CLEATS 22GA               000500005000000O A1EA00000170000000000000030000001S 000009800        000LI 00000001               0000000000000000          
80761600212TCS            TDC CLEATS STAINLESS STEEL    0002500025     O A1EA00000350     0000000030000161S 000009800       0000LI 00000002TCS            0000000000000000          
80761600312CMSF           INSTALLED CORNERMATIC STLS STL0000400004     O J EA00002650     0000000030000001N 000009800       0000LL 000000  CMSF           0000000000000000          
807616004  CD518          1/2" CONDUIT W/LOCKS 18" LONG 000010000100000O J EA00003700000000000000030000001S  00009800           LN 00000060                          00000          
807616005  CMGD           C.MATIC CORNERS (DUCT) GALV   000040000400000O J EA00000600000000000000030000001S  00009800           LO 00000065                          00000          
80761600612CMGF           C.MATIC CORNERS (FITTING) GALV0003600036     O J EA00001100     0000001830000001N 000009800       0000LL 00000065CMGF           0000000000000000          
807616007  TCR            TDC CORNERS                   000040000400000O J EA00000260000000000000030000001S  00009800           LI 00000065                          00000          
807616008 0TG             TDC/EZ FLANGE GASKET     50'RL000030000300000O J RL00006250000000000000030000001S 000009800        000LI 00000065               0000000000000000          
807616009 0TN             TDC 1" NUTS & BOLTS           000300003000000O J EA00000090000000000000030000001S 000009800        000LI 00000065               0000000000000000          
80761601010TNS            1"STAINLESS NUTS & BOLTS      0001000010     O J EA00000400     0000003630000001S 000009800       0000LI 00000065TNS            0000000000000000          
80761601112ATW            ALUMINUM TIG WELDING          0002000020     O K3FT00025000     0000000030000001N 000009800       0000LK 000000  ATW            0000000000000000          
80761601212SWF            ST STL WIRE FEED WELDING      0001200012     O K3FT00015000     0000000030000001N 000009800       0000LK 000000  SWF            0000000000000000          
80761601312OF.            OFFSETS                       0000400004     O L EA00000000     000000003      1N 000009800       0000LL 00000010OF.            0000000000000000          
80761601412SD.            MISC. SHORT DUCTS             0000300003     O L JT00000000     000000003      1N 000009800       0000LL 00000010SD.            0000000000000000          
80761601512TR.            TRANSITIONS                   0000100001     O L EA00000000     000000003      1N 000009800       0000LL 00000010TR.            0000000000000000          
8076160161020AW           .050 ALUMINUM WELDED FITTINGS 0002400024     O L LB00006150     0000000030000001N 000009800       0000LL 0000004420AW           0000000000000000          
8076160171220SF           20GA ST STL FTGS FULL ASMBL   0012000120     O L LB00004650     0000000030000001N 000009800       0000LL 0000004420SF           0000000000000000          
8076160181022GF           22GA GALV FITTINGS FULL ASMBL 0015800158     O L LB00002340     0000000030000001N 000009800       0000LL 0000004622GF           0000000000000000          
8076160191024GF           24GA GALV FITTINGS FULL ASMBL 0004800048     O L LB00002480     0000000030000001N 000009800       0000LL 0000004824GF           0000000000000000          
80761602012DLF1           1" DUCT LINER FOR FITTINGS    0002100021     O L FT00001350     000000003      1N 000009800       0000LL 00000060DLF1           0000000000000000          
807616021  HP             HOLES PUNCHED IN DUCTWORK     000010000100000O O EA00000500000000000000030000001N  00009800           LO 00000001                          00000          
80761602212SPH24          24"-14GA SP. PIPE HANGER SNGLE0000300003     O R EA00009250     0000000030005511S 000009800       0000LI 00000018SPH24          0000000000000000          
80761602312???J           1 1/4" S.S.NIPPLE FULL WELDED 0000100001     O J EA00030000             30000001  000009800      10000LJ 00020000???J           0000000000000000          
80761700111SG0326         03"-26GA X  5'SPIRAL PIPE GALV0004500045     O C1EA00009800     0000000030000001N 000012750      10000LC 00000011SG032605       0000000000000000          
80761900111SG1424         14"-24GA X  5'SPIRAL PIPE GALV0000500005     O C1EA00026550     000000003      1N 0       304-0B 10000LC 00000012SG142405       00000000000               
80761900212A144524S       14" 45 24GA ANGLE W/SP GALV   0000900009     O E EA00010200     0000000030005661S 0       304-0B 10080LI 00000021A144524S       00000000000               
80762500112HB18           18GA HANGER BAND          270'0000100001     O A EA00040000     0000000030050001S 0       G-90    0000LA 00000017HB18           00000000000               
80762500212DD0624         6" VOLUME DAMPER 24GA GALV    0002000020     O G3EA00002450     0000000030000241N 0       G-90    0000LI 00000003DD0624         00000000000               
80762500312HRS            HAMMER-ON REGULATORS SETS     0002500025     O J EA00000850     0000003030000001S 0       G-90    0000LI 00000025HRS            00000000000               
807626000  MM_F1          ALL MATERIAL (G-90) GALVANIZED                                                            G-90        M  01      0006801                                  
807626000  MM_F2          FOLLOWING ARE CUSTOM FITTINGS FULL SADDLE                                                 CUST0M      M    01    00031                                    
807626000  MM_F3          FOLLOWING WITH SPIRAL ENDS                                                                W/SP ENDS   M      01  00001                                    
80762600112IH1            INTERNET DISCOUNT             0000q0000q     O H1DS00005700     0000000030000001N 0       2" S0AN10000LH100000099IH1            00000000000               
80762600211SC9241020      10 ON 20 90 24GA CONICAL SADDL0000400004     O H1EA00028660     000000003      1N 0       2" S0AN10000LH101010130SC9241020      06803100001               
80763000112E099026        9" 90 26GA ELBOW LE/SE GALV   0000300003     O E EA00005050     0000000030002741S 0       CUSTOM  0000LI 00000013E099026        00000000000               
80763000212DD0824         8" VOLUME DAMPER 24GA GALV    0000500005     O G3EA00003250     0000000030000381N 0       CUSTOM  0000LI 00000003DD0824         00000000000               
80763000312CL20           WIRE ROPE DUCT HANGER 10/PKG. 0001500000     O J PK00026500     0000203830000001S 0       CUSTOM  0000LI 00000070CL20           00000000000               
80763000412RE.            RECT. ELBOWS W/OUT VANES      0000100001     O L EA00000000     000000003      1N 0       CUSTOM  0000LL 00000010RE.            00000000000               
8076300051226GF           26GA GALV FITTINGS FULL ASMBL 0000600006     O L LB00003250     0000000030000001N 0       CUSTOM  0000LL 0000005026GF           00000000000               
8076300061272410          1" FLAT "S" CONN 24GA CTL  10"0000400004     O N1EA00000500     000000003      1S 0       CUSTOM  0000LN 0000003572410          00000000000               
807632000  MM_F3          FOLLOWING LARGE END-LARGE END FOR FIELD INSTALL OF EZ FLANGE                              LE/L0       M      01  00006                                    
80763200111SG1224         12"-24GA X 10'SPIRAL PIPE GALV0000400004     O C1EA00036000     0000000030000001N 0       304-2B  0000LC 00000012SG122410       00000000000               
80763200212EFS08          08" EZ FLANGE FULL SET GALV   0000400004     O S EA00015600     0000000030001351S 0       304-2B  0000LI 00000010EFS08          00000000000               
80763200312EFS12          12" EZ FLANGE FULL SET GALV   0002000020     O S EA00015600     0000000030002031S 0       304-2B  0000LI 00000010EFS12          00000000000               
80763200412ED0890          8"-90 SOLID WELDED DIEFORM   0000200002     O K1EA00020010     0000000030005501S 0       304-2B  0000LI 000001  ED0890         00000000006               
80763200512ED1245         12"-45 SOLID WELDED DIEFORM   0000400004     O K1EA00024510     0000000030005761S 0       304-2B  0000LI 000001  ED1245         00000000006               
80763200612ED1290         12"-90 SOLID WELDED DIEFORM   0000400004     O K1EA00030270     0000000030012401N 0       304-2B  0000LK 000001  ED1290         00000000006               
807635000  MM_F1          PAINT GRIP MATERIAL "EXPOSED"                                                             PAIN0 GRIP  M  01      0006103                                  
807635000  MM_F2          FOLLOWING ARE CUSTOM FITTINGS 1" - 3# LINER FOR FITTINGS                                  CUST0M      M    01    00031                                    
807635000  MM_F3          FOLLOWING WITH SPIRAL ENDS                                                                W/SP ENDS   M      01  00001                                    
8076350011224PGF          24GA PAINT GRIP FTG FULL ASMBL0014800148     O L LB00002840     0000000030000001N 0       CUST0M  0000LL 0000004824PGF          00000000000               
80763500212DLF1           1" DUCT LINER FOR FITTINGS    0001000010     O L FT00001350     000000003      1N 0       CUST0M  0000LL 00000060DLF1           00000000000               
807635003126PG            24GA PAINT GRIP FLAT DRIVE 10'0000400004     O A EA00012300     0000000030002001S 0       CUST0M  0000LA 010000076PG            00000000000               
807635004127PG            24GA PAINT GRIP FLAT "S"   10'0000300003     O A EA00013200     0000000030003501S 0       CUST0M  0000LA 010000077PG            00000000000               
807635005128PG            24GA PAINT GRIP 1" STD "S" 10'0000300003     O A EA00014800     0000000030006001S 0       CUST0M  0000LA 010000078PG            00000000000               
80763500631SG1424         14"-24GA X 10'SPIRAL PIPE PGRP0000300003     O C1EA00050400     000000003      1N 0       CUST0M 10120LC 01000093SG142410       06100000000               
80763500730SG2024         20"-24GA X 10'SPIRAL PIPE PGRP0000500005     O C1EA00072000     000000003      1N 0       CUST0M 10120LC101000093SG202410       06100000000               
80763500831SG2224         22"-24GA X 10'SPIRAL PIPE PGRP0000100001     O C1EA00079200     000000003      1N 0       CUST0M 10120LC101000093SG222410       06100000000               
80763500910DSC            LESS QUANTITY DISCOUNT/SPIRAL 0000q0000q     O C1NT00053500     0000000030000001N 0       CUST0M 10000L  01000099DSC            00000000000               
80763501032E149024        14" 90 24GA ELBOW LE/SE PGRP  0001000010     O E EA00015200     0000000030005621N 0       CUST0M 10120LE 01000093E149024        06100000000               
