                                                                                                                                                                                                                                                                                                                                                                                                                                                                                                                     
630535OC9920040615000010MISCELLANEOUS CASH ACCT. 0000SYSTEM SPECIALIST             2108 MAIN ST. NW                                            COON RAPIDS     MN  55448     V.JOHN              CC0000000000 63053520040623000020501020100000000403010000001330000000000000022001000000000000000000000060421000010*** THANKS FOR THE ORDER ***        WE APPRECIATE YOUR BUSINESS       00001780       3 0022004061720040621MN 200406231   0000000      V.JOHN              1            200406211153000            
631088OC9920040621000010MISCELLANEOUS CASH ACCT. 0000ELITE ELECTRONIC ENG.INC.     1516 CENTRE CIRCLE                                          DOWNERS GROVE   IL  60515     V/TOM     ELITE     PC0000000000 63108820040623000009751020100000000403010000000610000000000000021001000000000000000000060060421000017*** THANKS FOR THE ORDER ***        WE APPRECIATE YOUR BUSINESS       00000975       3 0022004062120040621IL 200406234   0000000      V/TOM               1                        013            
630245O FX20040614000250ACI MECHANICAL, INC.     0000ACI MECHANICAL, INC.          3116 SOUTH DUFF                                             AMES            IA  50010-019261420               P10000000000C63024520040623000106251020100000000403010000000000000000000000020101000000000000000000480060421000010*** THANKS FOR THE ORDER ***        WE APPRECIATE YOUR BUSINESS       00010625       3 0052004061520040614IAN20040623X0051000000      KELLI               1            200406151625000            
630358O FX20040614001520ADVANCED ENERGY MGMNT INC0000ADVANCED ENERGY MGMNT INC     LANNELS PIZZERIA              2833 HIGHWAY AVE              HIGHLAND, IN 46322            231-1     PIZZA     P10000000000C63035820040623000486051020100000000403010000000000000000000000019991000000000000000000810060421000011*** THANKS FOR THE ORDER ***        WE APPRECIATE YOUR BUSINESS       00048605       3 0142004061820040621IN 20040623HMES1000000      231-1               1            200406211620009            
630570O SM20040615002400AIR CORP                 0000AIR CORP                      13821 INDUSTRIAL PARK BLV                                   PLYMOUTH,       MN  55441     3005                C10000000000 63057020040623000324301020100000000403010000021080000000000000022001000000000000000000000060421000016*** THANKS FOR THE ORDER ***        WE APPRECIATE YOUR BUSINESS       00031155       3 0142004061620040621MN 20040623WC  1000000      3005                1            200406211504000            
631046O SM20040621002400AIR CORP                 0000AIR CORP                      13821 INDUSTRIAL PARK BLV                                   PLYMOUTH,       MN  55441     3215                C10000000000 63104620040623000581451020100000000403010000037790000000000000022001000000000000000000000060421000010*** THANKS FOR THE ORDER ***        WE APPRECIATE YOUR BUSINESS       00058145       3 0152004062120040621MN 2004062310  1000000      3215                1            200406211145000            
631049O SM20040621002400AIR CORP                 0000AIR CORP                      13821 INDUSTRIAL PARK BLV                                   PLYMOUTH,       MN  55441     3216                C10000000000 63104920040623000011251020100000000403010000000730000000000000022001000000000000000000000060421000014*** THANKS FOR THE ORDER ***        WE APPRECIATE YOUR BUSINESS       00000000       3 0032004062120040621MN 2004062310  1000000      3216                1            200406211146000            
631039O FX20040621004600ALLAN MECHANICAL INC.    0000ALLAN MECHANICAL INC.         7875 FULLER ROAD                                            EDEN PRAIRIE,   MN  55344     3922                C10000000000 63103920040623000046701020100000000403010000003040000000000000022001000000000000000000000060421000005*** THANKS FOR THE ORDER ***        WE APPRECIATE YOUR BUSINESS       00004670       3 0042004062120040621MN 2004062310  1000000      3922                1            200406211146000            
631125O FX20040621004600ALLAN MECHANICAL INC.    0000ALLAN MECHANICAL INC.         7875 FULLER ROAD                                            EDEN PRAIRIE,   MN  55344     3868      DENNIS    C10000000000 63112520040623000299301020100000000403010000019450000000000000022001000000000000000000000060421000005*** THANKS FOR THE ORDER ***        WE APPRECIATE YOUR BUSINESS       00029930       3 0142004062120040621MN 2004062310  1000000      3868                1            200406211505000            
631143O FX20040621004600ALLAN MECHANICAL INC.    0000ALLAN MECHANICAL INC.         7875 FULLER ROAD                                            EDEN PRAIRIE,   MN  55344               3838      C10000000000 63114320040623000017401020100000000403010000001130000000000000022001000000000000000000000060421000010*** THANKS FOR THE ORDER ***        WE APPRECIATE YOUR BUSINESS       00001740       3 0022004062120040621MN 2004062310  1000000                          1            200406211506000            
630918O FX20040617005230AMERICAN BLOWER SUPPLY   0001AMERICAN BLOWER SUPPLY        14219 EAST TEN MILE ROAD                                    WARREN           MI 48089     1003404             P20000000000 63091820040623001383501020100000000403010000000000000000000000019991000000000000000001720060421000017*** THANKS FOR THE ORDER ***        WE APPRECIATE YOUR BUSINESS       00138350       3 0062004061820040618MI 20040623HMES5027670      1003404             1            200406181613000            
631043O   20040621006047ARCHITECT MECHANICAL INC 0000ARCHITECT MECHANICAL INC      105 OLD HWY 8 / STE 4                                       NEW BRIGHTON,   MN  55112     R-3259              C10000000000 63104320040623000065451020100000000403010000004250000000000000022001000000000000000000000060421000014*** THANKS FOR THE ORDER ***        WE APPRECIATE YOUR BUSINESS       00006545       3 0052004062120040621MN 2004062310  1000000      R-3259              1            200406211153000            
630134O FX20040610006400ASSOCIATED MECH CONTR INC0001ASSOCIATED MECHANICAL CONTR   1257 MARSHALL ROAD                                          SHAKOPEE         MN 55379     82985     WILLOW LK C10000000000C63013420040623004307301020100000000403010000279970000000000000022001000000000000000000000060421000005*** THANKS FOR THE ORDER ***        WE APPRECIATE YOUR BUSINESS       00003000       3 0032004061420040621MN 20040623WC  1000000      82985               1            200406211154011            
630498O FX20040615006400ASSOCIATED MECH CONTR INC0001ASSOCIATED MECHANICAL CONTR   1257 MARSHALL ROAD                                          SHAKOPEE         MN 55379     83176     KEYSTONE  C10000000000 63049820040623001404801020100000000403010000091310000000000000022001000000000000000000000060421000005*** THANKS FOR THE ORDER ***        WE APPRECIATE YOUR BUSINESS       00092630       3 0092004061720040621MN 20040623WC  1000000      83176               1            200406211157000            
630607O FX20040615006400ASSOCIATED MECH CONTR INC0001ASSOCIATED MECHANICAL CONTR   1257 MARSHALL ROAD                                          SHAKOPEE         MN 55379     82824     KEYSTON EGC10000000000 63060720040623005230341020100000000403010000339970000000000000022001000000000000000000000060421000005CALL WHEN READY                    JEFF 952-445-5100                  00000000       3 0012004061720040621MN 20040623WC  1000000      82824               1            200406211157004            
631060O FX20040621006400ASSOCIATED MECH CONTR INC0000ASSOCIATED MECH CONTR INC     1257 MARSHALL ROAD #104                                     SHAKOPEE        MN  55379     83197     MYSTICLAKEC10000000000 63106020040623000007651020100000000403010000000500000000000000022001000000000000000000000060421000014*** THANKS FOR THE ORDER ***        WE APPRECIATE YOUR BUSINESS       00000765       3 0022004062120040621MN 2004062310  1000000      83197               1            200406211157000            
630619O FX20040616007730BAKER GROUP              0000BAKER GROUP                   4224 HUBBELL AVENUE                                         DES MOINES,     IA  50317-450881993     50-12340  P10000000000 63061920040623000821801020100000000403010000041090000000000000020001000000000000000001670060421000016*** THANKS FOR THE ORDER ***        WE APPRECIATE YOUR BUSINESS       00073180       3 0092004061520040615IA 20040623X0051000000      81993               1            200406161542000            
630779O FX20040617010950BOSTROM SHEET METAL      0000BOSTROM SHEET METAL           731 HAMPDEN AVENUE                                          ST PAUL         MN  55114     IE0586-01 ISANTI    C20000000000 63077920040623003000831020100000000403010000195050001500000000022001002200004000000000000060421000017NEEDS FRIDAY IF POSSIBLE           ************************           00131890       3 0252004061820040621MN420040623WC  1000000      IE0586-01           1            200406211505016            
630347O FX20040614011800BRIGHT SHEET MTL CO INC  0000BRIGHT SHEET MTL CO INC       2749 TOBEY DRIVE                                            INDIANAPOLIS    IN  46219-141711231-1300          C10000000000 63034720040623001020001020100000000403010000000000000000000000019991000000000000000000000060421000010*** THANKS FOR THE ORDER ***        WE APPRECIATE YOUR BUSINESS       00102000       3 0042004061420040618IN 20040623HMES1000000                          1            200406181613000            
630795O FX20040617014900CENTRAL IOWA HEATING     0000CENTRAL IOWA HEATING          204 S.W. 2ND                                                DES MOINES      IA  50309     H2175-55X           P20000000000 63079520040623000363001020100000000403010000018150000000000000020001000000000000000000290060421000011*** THANKS FOR THE ORDER ***        WE APPRECIATE YOUR BUSINESS       00036300       3 0042004061820040621IA 200406230   1000000      H2175-55X           1                        000            
630788O FX20040617015600CHAPPELL CENTRAL INC     0000CHAPPELL CENTRAL INC          2101 GORTON AVE NW                                          WILLMAR         MN  56201     49302     MN.RUBBER C10000000000 63078820040623000264901020100000000403010000000000000000000000022001000000000000000000000060421000008*** THANKS FOR THE ORDER ***        WE APPRECIATE YOUR BUSINESS       00026490       3 0042004061720040618MNN20040623C   1000000      49302               1                        000            
630793O FX20040617015600CHAPPELL CENTRAL INC     0000CHAPPELL CENTRAL INC          2101 GORTON AVE NW                                          WILLMAR         MN  56201     49303     T&W PAINT C10000000000 63079320040623000436001020100000000403010000000000000000000000022001000000000000000000000060421000008*** THANKS FOR THE ORDER ***        WE APPRECIATE YOUR BUSINESS       00043600       3 0032004061720040618MNN20040623C   1000000      49303               1            200406181528000            
630794O FX20040617015600CHAPPELL CENTRAL INC     0000CHAPPELL CENTRAL INC          2101 GORTON AVE NW                                          WILLMAR         MN  56201     49304     CASE      C10000000000 63079420040623000415501020100000000403010000000000000000000000022001000000000000000000000060421000008*** THANKS FOR THE ORDER ***        WE APPRECIATE YOUR BUSINESS       00041550       3 0052004051720040618MNN20040623C   1000000      49304               1                        000            
630557O FX20040615016450L.R.CLOVERLEAF,INC.      0000L.R.CLOVERLEAF,INC.           4341 MERRIAM DRIVE                                          OVERLAND PARK   KS  66203     12776     MIDLAND   C10000000000 63055720040623000587301020100000000403010000000000000000000000019991000000000000000000000060421000008*** THANKS FOR THE ORDER ***        WE APPRECIATE YOUR BUSINESS       00058730       3 0062004061620040618KS 20040623X1501000000      PATRICK             1            200406181606001            
630748O FX20040616017110COMET HEATING & AIR INC. 0000COMET HEATING & AIR INC.      26613 608TH STREET                                          MANTORVILLE,    MN  55955     FUEL INJEC          C10000000000 63074820040623000936201020100000000403010000060850000000000000022001000000000000000000000060421000011*** THANKS FOR THE ORDER ***        WE APPRECIATE YOUR BUSINESS       00054480       3 0162004061820040621MN 20040623O   1000000      FUEL INJEC          1            200406211217003            
630483O FX20040615017630COMMERCIAL PLBG. & HTG.  0000COMMERCIAL PLBG. & HTG.       24428 GREENWAY AVENUE                                       FOREST LAKE,    MN  55025-8784H-24092   V.E. #3X  C20000000000 63048320040623000781301020100000000403010000050780000000000000022001000000000000000000000060421000011CALL TONY WHEN DONE - 612.685.6108                                    00078130       3 0182004061820040621MN 20040623WC  1000000      H-24092             2            200406211153000            
630322O FX20040615017800CONRAD MECH. CONTR. INC. 0000CONRAD MECH. CONTR. INC.      509 1ST AVENUE N.E.                                         MPLS.,          MN  55413     002596    40211     C10000000000 63032220040623004724521020100000000403010000307090000000000000022001000000000000000000000060421000017*** THANKS FOR THE ORDER ***        WE APPRECIATE YOUR BUSINESS       00235240       3 0302004061820040621MN 200406236   1000000      JAY                 1            200406211155018            
630587O FX20040615017800CONRAD MECH. CONTR. INC. 0000CONRAD MECH. CONTR. INC.      509 1ST AVENUE N.E.                                         MPLS.,          MN  55413     2585                C10000000000 63058720040623000017201020100000000403010000001120000000000000022001000000000000000000000060421000011*** THANKS FOR THE ORDER ***        WE APPRECIATE YOUR BUSINESS       00001720       3 0022004061520040621MN 2004062310  1000000      2585                2            200406211145000            
630816O FX20040617017800CONRAD MECH. CONTR. INC. 0000CONRAD MECH. CONTR. INC.      509 1ST AVENUE N.E.                                         MPLS.,          MN  55413     2585                C10000000000 63081620040623000040001020100000000403010000002600000000000000022001000000000000000000000060421000011*** THANKS FOR THE ORDER ***        WE APPRECIATE YOUR BUSINESS       00003950       3 0022004061720040621MN 20040623WC  1000000      2585                1            200406211145000            
630668O FX20040616018045CONTROL AIR MINNESOTA INC0000CONTROL AIR MINNESOTA INC     492 NORTHDALE BOULEVARD                                     COON RAPIDS,    MN  55448     1106      BEAVER C  C10000000000 63066820040623000738001020100000000403010000047970000000000000022001000000000000000000000060421000010*** THANKS FOR THE ORDER ***        WE APPRECIATE YOUR BUSINESS       00073800       3 0122004061720040621MN 200406231   1000000      1106                1            200406211505000            
630766O FX20040617018158CONVERSE CONDITIONED AIR 0001CONVERSE CONDITIONED AIR      SE 310 16TH ST                                              AMES,            IA 50010     1553                P10000000000 63076620040623000697201020100000000403010000034860001394000000020001002000085000000000200060421000010*** THANKS FOR THE ORDER ***        WE APPRECIATE YOUR BUSINESS       00058080       3 0062004062020040621I85200406230   1000000      MATT                1                        000            
630742O FX20040616018450CORN STATES METAL FAB INC0001CORN STATES METAL FABRICATORS 1323 MAPLE STREET                                           WEST DES MOINES  IA 50265     V/ RANDY  STOCK     P10000000000 63074220040623000390001020100000000403010000000000000000000000020101000000000000000001130060421000016*** THANKS FOR THE ORDER ***        WE APPRECIATE YOUR BUSINESS       00039000       3 0022004061720040618IAN20040623X1501000000      V/ RANDY            1            200406181608000            
631117O FX20040621018500CORONATION S/M CO. INC.  0000CORONATION S/M CO. INC.       2198 STANLEY TERRACE                                        UNION,          NJ  07083     6252                P10000000000 63111720040623000022891020100000000403010000000000000000000000019991000000000000000000110060421000011*** THANKS FOR THE ORDER ***        WE APPRECIATE YOUR BUSINESS       00002289       3 0032004062120040621NJ 200406234   1000000      6252                1                        000            
630275O SM20040611019835D & S HTG. & AIR COND INC0000D & S HTG. & AIR COND INC     918 NORTH 7TH STREET                                        LAKE CITY,      MN  55041     LINE 2    R. DROPS  C10000000000 63027520040623001553351020100000000403010000100970000000000000022001000000000000000000000060421000010*** THANKS FOR THE ORDER ***        WE APPRECIATE YOUR BUSINESS       00124180       3 0042004061620040618MN 20040623MRPH1000000      LINE 2              1            200406181506001            
631115O FX20040621022420DRESSELER MECHANICAL INC 0000DRESSELER MECHANICAL INC      2051 ENTERPRISE STREET                                      MARQUETTE,      MI  49855     ARAMARK             P10000000000 63111520040623000205251020100000000403010000000000000000000000019991000000000000000000170060421000010*** THANKS FOR THE ORDER ***        WE APPRECIATE YOUR BUSINESS       00020525       3 0032004062120040621MI 200406234   1000000      ARAMARK             1                        000            
630815O FX20040617023556EAST COAST DISTRIBUTORS  0001EAST COAST METAL DIST         928 N MEADOW ST                                             RICHMOND         VA 23220     176620              P20000000000 63081520040623002496001020100000000403010000000000000000000000019991000000000000000000000060421000016*** THANKS FOR THE ORDER ***        WE APPRECIATE YOUR BUSINESS       00000000       3 0022004061720040618VA 20040623ODFL2000000      1766210             1            200406181520000            
631071O 9920040621024050EGAN MECHANICAL CONTR.INC0000EGAN MECHANICAL CONTR.INC     7625 BOONE AVENUE NORTH                                     BROOKLYN PARK   MN  55428     MGL-4590  RETURN    C20000000000 63107120040623000122071020100000000403010000007930000000000000022001000000000000000000000060421000017*** THANKS FOR THE ORDER ***        WE APPRECIATE YOUR BUSINESS       0000586u       3 0102004062120040621MN 2004062310  1000000      MGL-4590            1            200406211506000            
631107O 9920040621024050EGAN MECHANICAL CONTR.INC0000EGAN MECHANICAL CONTR.INC     7625 BOONE AVENUE NORTH                                     BROOKLYN PARK   MN  55428     MGL-4590            C20000000000 63110720040623000167651020100000000403010000010900000000000000022001000000000000000000000060421000010SEND WITH SMC# 631071                                                 00016765       3 0042004062120040621MN 2004062310  1000000      MGL-4590            1            200406211506000            
630002O FX20040610026540THE FARFIELD COMPANY     0001THE FARFIELD COMPANY          517 E AIRPORT ROAD            ATTN: JEFF DULL               LITITZ           PA 17543-0387P-9458-   23995     P10000000000C63000220040623002765201020100000000403010000000000000000000000019991000000000000000005120060421000016*** THANKS FOR THE ORDER ***        WE APPRECIATE YOUR BUSINESS       00055920       3 0262004061520040618PA 20040623ODFL1000000      ROB                 1            200406181524000            
630268O FX20040611026540THE FARFIELD COMPANY     0001THE FARFIELD COMPANY          517 E AIRPORT ROAD                                          LITITZ           PA 17543-0387P9458-    23995     P10000000000 63026820040623000316401020100000000403010000000000000000000000019991000000000000000000000060421000016SHIP W/ ORDER #630002                                                 00031640       3 0022004061420040618PA 20040623ODFL1000000      P9458-              1                        000            
629090O   20040615027750FORE MECHANICAL INC.     0000FORE MECHANICAL INC.          3520 88TH AVENUE N.E.                                       BLAINE,         MN  55014     12487     3RD ST    C10000000000 62909020040623001207301020100000000403010000078470000000000000022001000000000000000000000060421000017*** THANKS FOR THE ORDER ***        WE APPRECIATE YOUR BUSINESS       00120730       3 0522004061820040621MN 20040623WC  1000000      12487               1            200406211155000            
630777O   20040617027750FORE MECHANICAL INC.     0000FORE MECHANICAL INC.          3520 88TH AVENUE N.E.                                       BLAINE,         MN  55014     12487     3RD ST    C10000000000 63077720040623000331501020100000000403010000021550000000000000022001000000000000000000000060421000017*** THANKS FOR THE ORDER ***        WE APPRECIATE YOUR BUSINESS       00033150       3 0052004061720040621MN 2004062310  1000000      12487               1            200406211155000            
630359O FX20040615029750GETZSCHMAN HEATING & S/M 4585GETZSCHMAN HEATING & S/M      % LOGAN FONTANELLE M.S.       701 KAYLEEN DRIVE             BELLEVUE         NE 68005     17530     4585      P10000000000 63035920040623009616681020100000000403010000566260000000000000024001000000000000000006790060421000008*** THANKS FOR THE ORDER ***        WE APPRECIATE YOUR BUSINESS       00154117       3 0220006180420040621NE 20040623SFAV1000000      DAVE                1            200406211143032            
631025O FX20040618029950GILBERT MECH. CONTR. INC 0000GILBERT MECH. CONTR. INC      4451 WEST 76TH STREET                                       MPLS            MN  55435     75958     RICHIE    C10000000000 63102520040623001989391020100000000403010000129310000000000000022001000000000000000000000060421000005*** THANKS FOR THE ORDER ***        WE APPRECIATE YOUR BUSINESS       00000000       3 0012004062120040621MN 20040623WC  1000000      75958               1            200406211505013            
631219O FX20040622030550GOODIN COMPANY           0001GOODIN COMPANY WAREHOUSE # 8  845 NORTH 34TH STREET                                       FARGO            ND 58102     8012591             P20000000000 63121920040623000000001020100000000403010000000000000000000000019991000000000000000003580p60421000016*** SO SORRY FOR THE ERROR! ***                                       00000000       3 0012004051420040514ND 20040623X0170000000      8012591             0                        000            
631077O FX20040621031291GREAT LAKES MANAGEMENT CO0000GREAT LAKES MANAGEMENT CO     1907 EAST WAYZATA BLVD                                      WAYZATA,        MN  55391     100564              C10000000000 63107720040623000061701020100000000403010000004010000000000000022001000000000000000000000060421000011*** THANKS FOR THE ORDER ***        WE APPRECIATE YOUR BUSINESS       00006170       3 0032004062120040621MN 2004062310  1000000      100564              1            200406211504000            
630197O FX20040610031470JOHN E. GREEN COMPANY    0003JOHN E. GREEN COMPANY         % K.B.I.C.                    111 BEARTOWN RD               BARAGA           MI 49908     203-0259  KBIC      P10000000000 63019720040623005793101020100000000403010000000000000000000000019991000000000000000005860060421000016CALL SAM B4 DELIVER 906-475-9603   NO FRIDAY DELIVERIES               00410552       3 0512004061520040621MI 20040623UPPN1000000      203-0259            2            200406211424012            
631062O FX20040621031500STEVE GREEN HTG. & A/C   0000STEVE GREEN HTG. & A/C        1910 3RD AVE. S.E.                                          ROCHESTER,      MN  55904     366693              P10000000000 63106220040623000055651020100000000403010000004010000031000000022001002200003000000000060060421000005*** THANKS FOR THE ORDER ***        WE APPRECIATE YOUR BUSINESS       00005565       3 0032004062120040621MN3200406230   1000000      366693              2                        000            
630637O SM20040616033000NB HANDY CO INC          0000PEMBERTON, INC.               277 N.E. MAIN STREET          P.O. BOX 1418                 ROCKY MOUNT, NC. 27802-1418   0357459             P20000000000C63063720040623000475201020100000000403010000000000000000000000019991000000000000000001650060421000005*** THANKS FOR THE ORDER ***        WE APPRECIATE YOUR BUSINESS       00052800       3 0032004061620040618NC 20040623ODFL3000000      0357459             1            200406181521000            
631104O   20040621033550HARRIS COMPANIES         0001HARRIS COMPANIES              909 MONTREAL CIRCLE                                         ST  PAUL         MN 55102     57247-    77114     C10000000000 63110420040623000316801020100000000403010000020590000000000000022001000000000000000000000060421000010*** THANKS FOR THE ORDER ***        WE APPRECIATE YOUR BUSINESS       00031680       3 0022004062120040621MN 2004062310  1000000                          1            200406211505000            
631006O FX20040618033700HARTY MECHANICAL INC     0001HARTY MECHANICAL INC.         1015 2ND AVENUE NE                                          AUSTIN           MN 55912     17727               P10000000000 63100620040623000064251020100000000403010000004570000000000000022001000000000000000000060060421000011*** THANKS FOR THE ORDER ***        WE APPRECIATE YOUR BUSINESS       00006425       3 0062004061820040621MN 200406230   1000000      17727               1                        000            
630943O FX20040618034345JOHN HENRY'S PLUMBING CO 0000JOHN HENRY'S PLUMBING CO      & FOREST'S FURNACE & A/C      2949 CORNHUSKER HWY           LINCOLN,        NE  68501     JA200414            P40000000000 63094320040623000092501020100000000403010000000000000000000000024101000000000000000000080060421000010*** THANKS FOR THE ORDER ***        WE APPRECIATE YOUR BUSINESS       00009250       3 0022004061820040621NEN200406234   1000000      JA200414            1                        000            
630676O 9920040616034390HERCULES INDUSTRIES      0004HERCULES INDUSTRIES                                         4343 HOLLY STREET             DENVER           CO 80216     33278-    TLH-D9    P20000000000C63067620040623000100051020100000000403010000000000000000000000019991000000000000000000580060421000011*** THANKS FOR THE ORDER ***        WE APPRECIATE YOUR BUSINESS       00004005       3 0030006160420040618CO 200406234   5001000      TERRY               1                        000            
629691O FX20040607037300INTERSTATE MECH CORP     0000INTERSTATE MECH CORP          SPENCER HOSPITAL              1200 1ST AVE E                SPENCER, IA                   3951      SPENCER   P10000000000C62969120040623024892451020100000000403010000000000000000000000020101000000000000000005100060421000011*** THANKS FOR THE ORDER ***        WE APPRECIATE YOUR BUSINESS       00145680       3 0222004061120040615IAN20040623X0421000000      MIKE                2            200406151653061            
630617O FX20040616038100CHARLES E. JARRELL CONTR.0001CHARLES E. JARRELL CONTR.     4800 PARK 370                                               HAZELWOOD        MO 63042     232718-   0073      C10000000000 63061720040623000799701020100000000403010000000000000000000000019991000000000000000000000060421000005*** THANKS FOR THE ORDER ***        WE APPRECIATE YOUR BUSINESS       00079970       3 0302004061720040618MO 20040623X1501000000      232718-             1            200406181554000            
630807O FX20040617038100CHARLES E. JARRELL CONTR.0000CHARLES E. JARRELL CONTR.     4208 RIDER TRAIL NORTH                                      EARTH CITY,     MO  63045     21016               P10000000000 63080720040623000798501020100000000403010000000000000000000000019991000000000000000001100060421000016*** THANKS FOR THE ORDER ***        WE APPRECIATE YOUR BUSINESS       00079850       3 0032004061820040618MO 20040623X1501000000      21016               1            200406181607000            
630633O FX20040617038150JAVENS MECH. CONTR. CO.  0001JAVENS MECH. CONTR. CO.       59160 MADISON AVE                                           MANKATO          MN 56001     061604-BB S & D     C10000000000 63063320040623001541001020100000000403010000000000000000000000022001000000000000000000000060421000016*** THANKS FOR THE ORDER ***        WE APPRECIATE YOUR BUSINESS       00154100       3 0052004061820040618MNN20040623MDGT1000000      JENNIFER            1            200406181620004            
630651O FX20040617038150JAVENS MECH. CONTR. CO.  0000JAVENS MECH. CONTR. CO.       59160 MADISON AVNUE                                         MANKATO,        MN  56001     061604-1JM          C10000000000 63065120040623000145001020100000000403010000009430000000000000022001000000000000000000000060421000008*** THANKS FOR THE ORDER ***        WE APPRECIATE YOUR BUSINESS       00014500       3 0022004061820040618MN 20040623MDGT1000000      JENNIFER            1                        000            
630641O FX20040616038250JIM & DUDE'S PLBG. & HTG.0000JIM & DUDE'S PLBG. & HTG.     724 WEST CLARK                                              ALBERT LEA      MN  56007     HOBBEN              C10000000000 63064120040623000478401020100000000403010000031100000000000000022001000000000000000000000060421000011*** THANKS FOR THE ORDER ***        WE APPRECIATE YOUR BUSINESS       00047840       3 0062004061720040618MN 20040623MDGT1000000      HOBBEN              1            200406171726000            
630664O FX20040616038700KBK SERVICES             0001MEMORIAL HEALTH CENTER        % KBK SERVICES / DAVE HOOPMAN 135 SOUTH GIBSON              MEDFORD,  WI  54451           V/RYAN    MEMORIAL  P10000000000C63066420040623000409901020100000000403010000021000000000000000028001000000000000000000100060421000007*** THANKS FOR THE ORDER ***        WE APPRECIATE YOUR BUSINESS       00040530       3 0042004061720040621WI 200406230   1000000      V/RYAN              1                        000            
631059O FX20040621039200K & S HEATING & A/C      0000K & S HEATING & A/C           4205 HIGHWAY 14 WEST                                        ROCHESTER,      MN  55901     24834               P10000000000 63105920040623000026301020100000000403010000002030000016000000022001002200003000000000050060421000005*** THANKS FOR THE ORDER ***        WE APPRECIATE YOUR BUSINESS       00002630       3 0022004062120040621MN3200406230   1000000      24834               1                        000            
630702O FX20040616044580LYON,CONKLIN & CO., INC. 0001LYON  CONKLIN & CO, INC       30 MC CULLOUGH DRIVE                                        NEW CASTLE       DE 19720     T308-77640          P20000000000 63070220040623001165001020100000000403010000000000000000000000019991000000000000000003750060421000007*** THANKS FOR THE ORDER ***        WE APPRECIATE YOUR BUSINESS       00116500       3 0042004061620040618DE 20040623ODFL5011400      T308-77640          1            200406181522000            
630478O FX20040615044650LYON SHEET METAL         0000LYON SHEET METAL              235 STERNS DRIVE                                            SAUK RAPIDS,    MN  56379     GOOD      SHEPHERD  C10000000000 63047820040623003773151020100000000403010000245250001887000000022001002200006000000000000060421000010*** THANKS FOR THE ORDER ***        WE APPRECIATE YOUR BUSINESS       00000000       3 0012004061820040621MN620040623SCGN1000000      GOOD                1            200406211557002            
630934O FX20040618044668H.T. LYONS, INC.         0000H.T. LYONS, INC.              7165 AMBASSADOR DRIVE                                       ALLENTOWN       PA  18106     M41223-   3004      P10000000000 63093420040623000362001020100000000403010000000000000000000000019991000000000000000000210060421000010*** THANKS FOR THE ORDER ***        WE APPRECIATE YOUR BUSINESS       00036200       3 0062004061820040621PA 200406234   1000000                          1                        000            
625434O FX20040611047147MARTIN COUNTY MECH. INC. 0000MARTIN COUNTY MECH. INC.      314 NORTH MAIN STREET                                       FAIRMONT,       MN  56031     ELBERT              C10000000000 62543420040623000432651020100000000403010000028120000000000000022001000000000000000000000060421000005*** THANKS FOR THE ORDER ***        WE APPRECIATE YOUR BUSINESS       00036305       3 0102004061620040616MN 20040623X0421000000      BRUCE               1            200406161537000            
630987O FX20040618047550MECHANICAL AIR SYSTEMS CO0000MECHANICAL AIR SYSTEMS CO     % SALISBURY CHEMICAL          1205 11TH ST                  CHARLES CITY, IA  50616       6132                P10000000000C63098720040623000196001020100000000403010000000000000000000000020101000000000000000000110060421000016*** THANKS FOR THE ORDER ***        WE APPRECIATE YOUR BUSINESS       00019600       3 0022004061820040621IAN200406230   1000000      6132                1                        000            
630560O FX20040615049250METROPOLITAN MECH CONTR. 4001METROPOLITAN MECH. CO         % FAIRVIEW UNIVERSITY HOSPITAL425 EAST RIVER ROAD           MPLS             MN 55445     J202A08522202G4001  C10000000000 63056020040623000189001020100000000403010000012290000095000000022001002200001000000000000060421000008*** THANKS FOR THE ORDER ***        WE APPRECIATE YOUR BUSINESS       00011260       3 0052004061720040621MN1200406231   1000000      J202A08522          1            200406211505000            
630672O FX20040616049250METROPOLITAN MECH CONTR. 4001METROPOLITAN MECH. CO         % FAIRVIEW UNIVERSITY HOSPITAL425 EAST RIVER ROAD           MPLS             MN 55445     J202A0852 202G4001  C10000000000 63067220040623000452801020100000000403010000029430000226000000022001002200001000000000000060421000008*** THANKS FOR THE ORDER ***        WE APPRECIATE YOUR BUSINESS       00045280       3 0092004061820040621MN120040623WC  1000000      J202A0852           1            200406211505000            
630757O FX20040616049250METROPOLITAN MECH CONTR. 0000METROPOLITAN MECH CONTR.      7340 WASHINGTON AVE. SO.                                    EDEN PRAIRIE    MN  55344-3582J204A10041204M2520  C10000000000 63075720040623000260651020100000000403010000016940000000000000022001000000000000000000000060421000008*** THANKS FOR THE ORDER ***        WE APPRECIATE YOUR BUSINESS       00026065       3 0162004061820040621MN 20040623WC  1000000      J204A10041          1            200406211154008            
630759O FX20040616049250METROPOLITAN MECH CONTR. 0000METROPOLITAN MECH CONTR.      7340 WASHINGTON AVE. SO.                                    EDEN PRAIRIE    MN  55344-3582J204A10042204T5500  C10000000000 63075920040623000340401020100000000403010000022130000000000000022001000000000000000000000060421000008*** THANKS FOR THE ORDER ***        WE APPRECIATE YOUR BUSINESS       00034040       3 0192004061820040621MN 20040623WC  1000000      J204A10042          1            200406211155008            
631044O FX20040621049250METROPOLITAN MECH CONTR. 0000METROPOLITAN MECH CONTR.      7340 WASHINGTON AVE. SO.                                    EDEN PRAIRIE    MN  55344-3582J202A10032202G3046  C10000000000 63104420040623000074151020100000000403010000004820000000000000022001000000000000000000000060421000005*** THANKS FOR THE ORDER ***        WE APPRECIATE YOUR BUSINESS       00007415       3 0052004062120040621MN 2004062310  1000000      J202A10032          1            200406211145000            
630601O SM20040615050950MODERN HEATING & AIR COND0000MODERN HEATING & AIR COND     2318 1ST STREET N.E.                                        MPLS            MN  55418     9492      A-2146    C10000000000 63060120040623000309201020100000000403010000020100000000000000022001000000000000000000000060421000005*** THANKS FOR THE ORDER ***        WE APPRECIATE YOUR BUSINESS       00030920       3 0162004061620040621MN 20040623WC  1000000      9492                1            200406211504001            
630829O SM20040617050950MODERN HEATING & AIR COND0000MODERN HEATING & AIR COND     2318 1ST STREET N.E.                                        MPLS            MN  55418     9525      H-2328    C10000000000 63082920040623000115401020100000000403010000007500000000000000022001000000000000000000000060421000005*** THANKS FOR THE ORDER ***        WE APPRECIATE YOUR BUSINESS       00011540       3 0102004061720040621MN 20040623WC  1000000      9525                1            200406211153000            
630924O SM20040618050950MODERN HEATING & AIR COND0000MODERN HEATING & AIR COND     2318 1ST STREET N.E.                                        MPLS            MN  55418     9529      H-2332    C10000000000 63092420040623000436301020100000000403010000028360000000000000022001000000000000000000000060421000005*** THANKS FOR THE ORDER ***        WE APPRECIATE YOUR BUSINESS       00043630       3 0072004061820040621MN 2004062310  1000000      9529                1            200406211145000            
630953O SM20040618050950MODERN HEATING & AIR COND0000MODERN HEATING & AIR COND     2318 1ST STREET N.E.                                        MPLS            MN  55418     9530      H-2334    C10000000000 63095320040623000063001020100000000403010000004100000000000000022001000000000000000000000060421000005*** THANKS FOR THE ORDER ***        WE APPRECIATE YOUR BUSINESS       00006300       3 0022004061820040621MN 2004062310  1000000      9530                1            200406211146001            
630811O FX20040617052210NEIGHBORS HTG. & COOLING 0000NEIGHBORS HTG. & COOLING      2700 GRAHAM                                                 AMES,           IA  50010     04-0127006          P10000000000 63081120040623000343201020100000000403010000017160000686000000020001002000085000000000230060421000010*** THANKS FOR THE ORDER ***        WE APPRECIATE YOUR BUSINESS       00040040       3 0062004062120040621I85200406230   1000000      04-0127006          1                        006            
630940O FX20040618053180NORTH COUNTRY FABRICATION0000NORTH COUNTRY FABRICATION     1586 320TH LANE N.E.                                        CAMBRIDGE       MN  55008                         C50000000000 63094020040623000428401020100000000403010000000000000000000000022001000000000000000000000060421000014*** PD W/CK #5650 - THANK YOU! ***                                    00034200       3 0042004061820040618MNN2004062310  0000000                          1                        000            
630932O FX20040618053522NORTHLAND MECHANICAL     0000NORTHLAND MECHANICAL            CONTRACTORS, INC.           2900 NEVADA AVENUE N.         NEW HOPE,       MN  55427     53038     04-582    C10000000000 63093220040623000090701020100000000403010000005900000000000000022001000000000000000000000060421000010WILL PICK UP 6/21 7AM                                                 00007560       3 0082004061820040621MN 200406231   1000000      53038               1            200406211506000            
630996O FX20040618054720OVERLAND MECH SERVICES   0000OVERLAND MECH SERVICES        1007 NORTH TOWER ROAD                                       FERGUS FALLS,   MN  56537     V-BERT    FLOOR TO CP10000000000 63099620040623000046401020100000000403010000003800000000000000022001000000000000000000120060421000005*** THANKS FOR THE ORDER ***        WE APPRECIATE YOUR BUSINESS       00004640       3 0022004061820040621MN 200406234   1000000      V-BERT              1                        001            
630367OCFX20040614055440PALO COMPANIES INC.      0000PALO COMPANIES INC.           14208 U.S. HWY. 12 EAST                                     COKATO,         MN  55321-42164585                CC0000000000 63036720040623000123001020100000000403010000008000000000000000022001000000000000000000000060421000005*** THANKS FOR THE ORDER ***        WE APPRECIATE YOUR BUSINESS       00016660       3 0042004061520040621MN 200406231   0000000      4585                1            200406211154003            
630701O FX20040616056800PETERSON MECHANICAL      0000PETERSON MECHANICAL           3001 1ST AVENUE NORTH                                       FARGO           ND  58102     62559JL             P10000000000C63070120040623002200001020100000000403010000000000000000000000019991000000000000000003890060421000011NEEDS DELIVERY BY 06/14/04.                                           00246750       3 0062004061720040621ND 20040623X0171000000      62559JL             1            200406181630000            
630550O FX20040615056950PETERSON SHEET METAL     0000PETERSON SHEET METAL          3728 BEMIDJI AVENUE NORTH                                   BEMIDJI         MN  56601     7408                C10000000000 63055020040623003032501020100000000403010000197110000000000000022001000000000000000000000060421000011*** THANKS FOR THE ORDER ***        WE APPRECIATE YOUR BUSINESS       00303250       3 0062004061520040616MN 20040623X1671000000      7408                1            200406161411000            
630868O FX20040617056950PETERSON SHEET METAL     0000PETERSON SHEET METAL          MURPHY SCHOOL                 822 NE 5TH AVE                G. RAPIDS, MN 55744           7426                P10000000000C63086820040623000142501020100000000403010000013230000000000000022001000000000000000000610060421000011NEEDS DELIVERY ON 06/21/04/NO LATER                                   00014250       3 0042004061720040618MN 20040623X0151000000      7426                1            200406181126000            
628664O 9920040604057500PLUMB SUPPLY COMPANY     0011THE HEATING & COOLING COMPANY C/O ARTCRAFT                  7401 HWY 65/69                DES MOINES,    IA     50320   3351089             P10000000000C62866420040623001626101020100000000403010000000000000000000000020101000000000000000001770060421000017CALL 24HRS B/4 DELIVERY            515-961-0300                       00142510       3 0192004060720040608IAN20040623SFAV1000000      BRAD ADAMS          1            200406081559000            
630638O FX20040617059560R K B  SHEET METAL INC   0000R K B  SHEET METAL INC        15 ANACONDA DRIVE                                           LAKE KATRINE    NY  12449     0591                C10000000000 63063820040623001458751020100000000403010000000000000000000000019991000000000000000000000060421000010*** THANKS FOR THE ORDER ***        WE APPRECIATE YOUR BUSINESS       00036875       3 0032004061820040618NY 20040623ODFL1000000      AL                  1            200406181519000            
630883O FX20040617063200S.B.S. MECHANICAL INC    0004S.B.S. MECHANICAL INC         % U OF M                                                                     MN           8280                C10000000000 63088320040623000042801020100000000403010000002780000000000000022001000000000000000000000060421000008*** THANKS FOR THE ORDER ***        WE APPRECIATE YOUR BUSINESS       00003585       3 0042004061720040621MN 20040623WC  1000000      8280                1            200406211154050            
630709O FX20040616063750ST. CLOUD REFRIGERATION  0000ST. CLOUD REFRIGERATION       604 LINCOLN AVENUE N.E.                                     ST. CLOUD,      MN  56301     SMI 2539            C10000000000 63070920040623000336001020100000000403010000000000000000000000022001000000000000000000000060421000005*** THANKS FOR THE ORDER ***        WE APPRECIATE YOUR BUSINESS       00033600       3 0022004061820040618MNN20040623SCGN1000000      SMI 2539            1            200406181540000            
631145O FX20040621063750ST. CLOUD REFRIGERATION  0000ST. CLOUD REFRIGERATION       604 LINCOLN AVENUE N.E.                                     ST. CLOUD,      MN  56301     7133J     RETURN    C10000000000 631145200406230000806p1020100000000403010000000000000000000000022001000000000000000000000060421000020*** THANKS FOR THE ORDER ***        WE APPRECIATE YOUR BUSINESS       0000672p       3 0042004061720040617MNN20040623WC  0000000      7133J               1                        000            
631140O FX20040621064210SCHADEGG MECHANICAL      0000SCHADEGG MECHANICAL           225 BRIDGEPOINT DRIVE                                       SOUTH ST. PAUL, MN  55075     1264      FEDERAL   C10000000000 63114020040623000018401020100000000403010000001200000000000000022001000000000000000000000060421000014*** THANKS FOR THE ORDER ***        WE APPRECIATE YOUR BUSINESS       00001840       3 0022004062120040621MN 2004062310  1000000      1264                1            200406211505000            
631009O FX20040618065200SENTRA-SOTA SHT MTL INC  0001SENTRA-SOTA SHT METAL INC     3075 THIRD STREET SOUTH                                     WAITE PARK       MN 56387     7133                P10000000000 63100920040623000255001020100000000403010000016580000000000000022001000000000000000000000060421000005*** THANKS FOR THE ORDER ***        WE APPRECIATE YOUR BUSINESS       00025500       3 0022004062120040621MN 200406230   1000000      7133                1                        006            
631023O FX20040618065200SENTRA-SOTA SHT MTL INC  0001SENTRA-SOTA SHT METAL INC     3075 THIRD STREET SOUTH                                     WAITE PARK       MN 56387     V/JEFF    PINE CITY P10000000000 63102320040623000034201020100000000403010000002610000000000000022001000000000000000000060060421000007SHIP WITH ORDER # 631009                                              00003420       3 0032004062120040621MN 200406230   1000000      V/JEFF              1                        000            
630536O FX20040615068780STANDARD METAL PRODUCTS  0000STANDARD METAL PRODUCTS       9110 DAVENPORT STREET NE                                    BLAINE,         MN  55449     FAX/CATHY           C20000000000 63053620040623000439151020100000000403010000000000000000000000022001000000000000000000000060421000017*** THANKS FOR THE ORDER ***        WE APPRECIATE YOUR BUSINESS       00043915       3 0042004061620040617MNN20040623WC  5006588      FAX/CATHY           1            200406171414000            
630353O FX20040614069300STOUT MECHANICAL INC     1133STOUT MECHANICAL INC          % HOTEL & CONVENTION CTR.     750 GOLF CREST DRIVE          GRAND RAPIDS     MN 55744     11410     31133     P10000000000 63035320040623000691651020100000000403010000049900000000000000022001000000000000000001360060421000008*** THANKS FOR THE ORDER ***        WE APPRECIATE YOUR BUSINESS       00062505       3 0062004061620040618MN 20040623X0151000000      11410               1            200406181127000            
630675O FX20040616069300STOUT MECHANICAL INC     0001STOUT MECHANICAL S/M SHOP     316 GARFIELD AVENUE                                         DULUTH           MN 55806     11424     STOCK     P10000000000 63067520040623001235201020100000000403010000088150001356000000022001002200010000000001210060421000008*** THANKS FOR THE ORDER ***        WE APPRECIATE YOUR BUSINESS       00123520       3 0042004061620040618MND20040623X0071000000      11424               1            200406181602004            
630862O FX20040617069300STOUT MECHANICAL INC     0001STOUT MECHANICAL S/M SHOP     316 GARFIELD AVENUE                                         DULUTH           MN 55806     11434               P10000000000 63086220040623000477001020100000000403010000031010000477000000022001002200010000000000000060421000005*** THANKS FOR THE ORDER ***        WE APPRECIATE YOUR BUSINESS       00047700       3 0032004061720040618MND20040623X0071000000      11434               1                        000            
630690O FX20040616071050TAYLOR INDUSTRIES        0000TAYLOR INDUSTRIES             C/O HY-VEE FOOD               1400 E. WASHINGTON STREET     MT. PLEASANT, IA. 52641       MC62227             P10000000000C63069020040623000737021020100000000403010000000000000000000000020101000000000000000001620060421000005*** THANKS FOR THE ORDER ***        WE APPRECIATE YOUR BUSINESS       00073702       3 0152004061720040618IAN20040623HMES1000000      MC62227             1            200406181611000            
630727O FX20040616074350TWEET GAROT MECHANICAL   0002TWEET GAROT MECHANICAL        2545 LARSEN ROAD                                            GREEN BAY        WI 54303     JV 54423            P10000000000 63072720040623000650001020100000000403010000035650000357000000028001002800005000000000630060421000008*** THANKS FOR THE ORDER ***        WE APPRECIATE YOUR BUSINESS       00065000       3 0022004061620040618W0520040623DOTH1000000      JV 54423            1                        000            
630800O FX20040617075100UNITED SHEET METAL       0000UNITED SHEET METAL            520 FRONT AVENUE                                            ST PAUL         MN  55117     2111      5997      C10000000000 63080020040623001213451020100000000403010000078870000607000000022001002200004000000000000060421000011*** THANKS FOR THE ORDER ***        WE APPRECIATE YOUR BUSINESS       00121345       3 0092004061820040621MN420040623WC  1000000      2111                1            200406211504000            
630985O FX20040618075100UNITED SHEET METAL       0000UNITED SHEET METAL            520 FRONT AVENUE                                            ST PAUL         MN  55117     9108      5997      C10000000000 63098520040623001073101020100000000403010000069750000537000000022001002200004000000000000060421000011*** THANKS FOR THE ORDER ***        WE APPRECIATE YOUR BUSINESS       00107310       3 0142004061820040621MN420040623WC  1000000      9108                1            200406211504000            
630291O FX20040617076400VENTCON INC              0000VENTCON INC                   C/O GILBANE-BSRB              117 ZINA PITCHER PLACE        ANN ARBOR,   MI     48104     V287228834GILBANE   P10000000000C63029120040623000800001020100000000403010000000000000000000000019991000000000000000002530060421000017*** THANKS FOR THE ORDER ***        WE APPRECIATE YOUR BUSINESS       00000000       3 0072004061820040621MI 20040623HMES1000000      CHIP                1            200406211625000            
630610O FX20040615076750VILANDRE FUEL & A/C CO.  0001VILANDRE FUEL & A/C CO.       701 NORTH 7TH STREET                                        GRAND FORKS,     ND 58203     V-GENE    POWER REV.C10000000000 63061020040623000446701020100000000403010000000000000000000000019991000000000000000000000060421000005*** THANKS FOR THE ORDER ***        WE APPRECIATE YOUR BUSINESS       00044670       3 0052004061620040618ND 20040623X0171000000      V-GENE              1            200406171725004            
630297O FX20040611077600WALDINGER CORPORATION    0001WALDINGER CORPORATION         2601 BELL AVENUE                                            DES MOINES       IA 50321     LP92984   GADZOOKS  P10000000000 63029720040623000850701020100000000403010000000000000000000000020101000000000000000000880060421000005*** THANKS FOR THE ORDER ***        WE APPRECIATE YOUR BUSINESS       00025980       3 0122004061420040614IAN20040623X0051000000      LP92984             1            200406151624004            
630583O FX20040615077600WALDINGER CORPORATION    0001WALDINGER CORPORATION         2601 BELL AVENUE                                            DES MOINES       IA 50321     LP94616   LTHRN 1 N C10000000000 63058320040623001436751020100000000403010000000000000000000000020101000000000000000000000060421000017*** THANKS FOR THE ORDER ***        WE APPRECIATE YOUR BUSINESS       00132310       3 0242004061620040621IAN20040623HMES1000000      LP94616             1            200406211629000            
630885O FX20040617077600WALDINGER CORPORATION    0001WALDINGER CORPORATION         2601 BELL AVENUE                                            DES MOINES       IA 50321     LP94862   IC-03276  C10000000000 63088520040623000248451020100000000403010000000000000000000000020101000000000000000000000060421000005*** THANKS FOR THE ORDER ***        WE APPRECIATE YOUR BUSINESS       00024845       3 0062004061820040621IAN20040623HMES1000000      LP94862             1                        000            
631042O FX20040621080850YALE MECHANICAL,INC.     0000YALE MECHANICAL,INC.          9649 GIRARD AVENUE SO.                                      BLOOMINGTON     MN  55431     51978-    04242     C10000000000 63104220040623000016001020100000000403010000001040000000000000022001000000000000000000000060421000016*** THANKS FOR THE ORDER ***        WE APPRECIATE YOUR BUSINESS       00001600       3 0022004062120040621MN 2004062310  1000000      51978-              1            200406211146000            
631119O FX20040621080850YALE MECHANICAL,INC.     0000YALE MECHANICAL,INC.          9649 GIRARD AVENUE SO.                                      BLOOMINGTON     MN  55431     MISC PO   RETURN    C10000000000 631119200406230004832p10201000000004030100000314q0000000000000022001000000000000000000000060421000020*** THANKS FOR THE ORDER ***        WE APPRECIATE YOUR BUSINESS       0005612p       3 0120000000020040610MN 20040623WC  0000000      MISC PO             1                        000            
629675O FX20040608330401JEHOVAH'S WITNESSES      0000JEHOVAH'S WITNESSES           CALIF. CONG OF JEHOVAS        62290 HWY 50 W                CALIFORNIA, MO 65018          0168                P10000000000C62967520040623004745621020100000000403010000000000000000000000019991000000000000000005810060421000011*** THANKS FOR THE ORDER ***        WE APPRECIATE YOUR BUSINESS       00268165       3 0592004061420040618MO 20040623SFAV1000000      JERRY O.            3            200406181326008            
]]]]]]]]]]]]]]]]]]]]]]]]]]]]]]]]]]]]]]]]]]]]]]]                                                                                                                                                                                                                                                                                                                                                                                                                                                                      
