E 54398400020000013708081412OE          
C 54398400110000000008081412OC          
F 54398400150000010108081412OFV         
H 54398400280000089008081412OHV         
I 54398400560000098308081412OI          
I 54607900080000028308031357OI          
H 54839800010000000005300700OH1         
L 54844800010000013205300700OL2         
M 55148000030000000008041554OM          
F 55148000040000043908041554OF          
C 55148000040000440908041554OC          
H 55148000100000009508041554OHV         
I 55148000120000030908041554OI          
L 55148000130000007208041554OL          
K 55279000020000243007281338OK          
L 55279000050000000007281338OL          
K 55313300030000039507281353OK          
L 55313300060000000007281353OL          
H 55313900020000000507181426OH          
K 55315900010000090807181649BK          
L 55315900020000165807181649FL          
L 55317300080000000007281412FL          
L 55329400100000041708031232FL          
L 55332100070000057007281401BL          
M 55332300010000000007191643BM          
I 55346200020000235007251300FI          
H 55346200040000069007251300OH          
L 55355700030000198607240717OL          
A 55371000010000000007271421OA          
L 55371000040000451807271421FL          
H 55371800030000000607241432BHV         
I 55380800010000000007251021OI          
I 55386500070000000008031326BI          
H 55391800050000000007260707OHV         
G 55404500010000000007261415BG          
C 55404500010000369207261415OC          
I 55404500030000075707261415OI          
H 55404500060000004407261415BHV         
I 55420000040000000007271335BI          
L 55426800090000879707310733FL          
H 55433400070000000007281425OH          
I 55438900050000005407310854BI          
E 55442400010000013808040724OE          
F 55444300010000001507311141BFV         
M 55447500020000000007311400OM          
A 55453600030000000108071152OA          
F 55453600080000003008071152OFV         
H 55453600160000000308071152OHV         
L 55453600190000024708071152OL          
I 55453600220000000408071152OI          
H 55465500080000000908020726OH          
F 55470800020000036808021059BFV         
G 55472400020000000708021224BG          
F 55472400030000009408021224BFV         
K 55473200040000008708021208BKV         
A 55473700020001697008070803OA          
I 55473700060000050208021232FI          
M 55477800080000000008081223OM          
K 55477800110000001208081223OK          
L 55477800320000000008081223OL          
K 55487100050000000708031140OK          
N 55490400010000008108031316ON          
L 55491700110000024908031438BL          
D 55491900010000004008031446OD          
H 55491900090000000008031446OH          
L 55496100120000121408040758OL          
C 55497000020000000008040815OC          
I 55497000090000000008040815OI          
F 55497100100000109908071337BFV         
I 55497100260000056208071337OI          
I 55497700100000000508040918OI          
C 55502100030000026308041507OC          
I 55502100110000004808041507OI          
I 55503600270000000008071448OI          
K 55503900070000000008071519BK          
L 55503900250000016008071519OL          
F 55505500050000024508070845BF          
F 55506300060000003908070949OFV         
H 55506300120000001808070949OH          
I 55507500130000000008070856OI          
L 55508200140000002708070909FL          
F 55508600070000002308071111BF          
H 55508600130000000508071111BHV         
I 55508600200000006408071111BI          
I 55509000140000003108070932OI          
L 55509000150000018008070932OL          
L 55509300230000075708071457OL          
I 55509300300000010308071457BI          
H 55509600110000000008070948BH          
L 55509800170000016508071026BL          
K 55510100060000000008071003BK          
I 55510200150000000008070955OI          
I 55510700160000035508071004OI          
I 55510800170000042508071005OI          
L 55511000160000018408071021BL          
I 55511700180000002108071039OI          
H 55511900150000000008071136BH          
L 55511900180000013108071043OL          
I 55511900190000000508071043OI          
C 55512700050000100708071118OC          
H 55512700140000001508071118OHV         
I 55512700210000002808071118OI          
I 55513100230000000008071155OI          
L 55513800280000011708081032OL          
N 55514100030000001508081038ON          
M 55514100070000000008081038OM          
L 55514100290000014908081038OL          
M 55514500050000000008071326OM          
L 55514500220000033108071326OL          
H 55514600170000013408071304OH          
L 55514600200000006608071304OL          
I 55514600240000010308071304OI          
M 55515100040000000008071313OM          
F 55515100090000014708071313OF          
L 55515100210000046408071313OL          
I 55515100250000007208071313OI          
I 55517000280000000708071448OI          
M 55517400060000000008071518BM          
I 55517700290000013108071452OI          
L 55517900240000002108071500OL          
I 55518200400000002108081013OI          
C 55518400060000170408071543OC          
F 55518400110000007608071543OFV         
H 55518400180000009408071543OH          
H 55519700190000007808080744OH          
I 55519700310000006708080744OI          
L 55520300260000004108080734OL          
K 55520600090000006108081003BKV         
I 55520700320000007008080753OI          
H 55520900200000003008080755BHV         
C 55521100070000041008080756OC          
C 55521200080000038608080757OC          
I 55521200330000010408080757OI          
I 55521300350000005508080824BI          
I 55521400340000005008080757BI          
I 55522900360000038208080908OI          
N 55523000020000000508081019ON          
K 55523000100000025008081019OK          
L 55523000270000001708081019OL          
I 55523000410000000408081019OI          
I 55523200370000016108080925OI          
H 55523400210000000008080929BHV         
I 55523400380000000008080929BI          
F 55523700120000001308080935BFV         
H 55523900220000000908080938BHV         
K 55524200080000003308081004BK          
I 55524300390000000008081003BI          
I 55524800420000002408081036OI          
H 55525000230000000108081126OH          
I 55525500670000018508090710OI          
I 55525600430000014108081118OI          
I 55525700440000007008081119OI          
L 55525800380000546408081512OL          
I 55525900680000002008090729OI          
C 55526300090000159708081237OC          
H 55526300240000000208081237OH          
I 55526300480000022008081237OI          
I 55526400450000010808081157OI          
L 55526700300000011008081152OL          
I 55527000460000001308081202OI          
L 55527100310000008508081203OL          
F 55527200130000003808081208OF          
I 55527200470000127508081208OI          
H 55527600250000000508081237OH          
K 55528500120000000008081227OK          
A 55528700040000055708081240OA          
F 55529100140000003108081401OFV         
H 55529100270000000208081401OH          
I 55529100520000005308081401OI          
I 55529800490000033708081328OI          
E 55530300030000001508081418OE          
F 55530300160000004308081418OFV         
I 55530300580000002808081418OI          
C 55530800100000117008081349OC          
I 55530800500000030508081349OI          
I 55530900510000023608081349OI          
H 55531000260000000308081352BHV         
M 55531100090000000008081357OM          
L 55531100330000001808081357OL          
I 55531300540000006408081408OI          
I 55531400530000006408081406OI          
H 55531500290000001708081412OHV         
L 55531500350000032708081412OL          
I 55531500570000002308081412OI          
L 55531600340000028808081408OL          
M 55531700100000000008081439OM          
H 55531700300000006208081439OH          
L 55531700370000006508081439OL          
I 55531700610000009308081439OI          
I 55531800550000004708081410OI          
K 55531900130000050508081428OK          
L 55531900360000022208081428OL          
I 55532200590000000008081428BI          
I 55532500600000000008081436OI          
L 55532700400000012308081613OL          
I 55532700630000006608081613OI          
I 55532800620000006008081448OI          
F 55532900170000014908081452OFV         
I 55533000660000005908090704OI          
K 55533100140000003108081504OK          
G 55533600030000000008081539BG          
L 55533600390000029908081539OL          
I 55534000640000009608081617BI          
I 55534100650000000508090658OI          
L 55534300410000007908090719OL          
K 55535800150000001008090837OK          
L 55535800420000000008090837OL          
G 55535900040000000008090844OG          
H 55535900310000002008090844OH          
I 55535900700000012508090844OI          
I 55536100690000000708090841OI          
